{
	"data": {
		"bytecode": {
			"linkReferences": {},
			"object": "6080604052348015600e575f5ffd5b50611d8d8061001c5f395ff3fe608060405234801561000f575f5ffd5b5060043610610029575f3560e01c80632db5b86f1461002d575b5f5ffd5b61004760048036038101906100429190610255565b61005d565b60405161005491906102d0565b60405180910390f35b5f5f84848460405161006e906100a1565b61007a93929190610349565b604051809103905ff080158015610093573d5f5f3e3d5ffd5b509050809150509392505050565b6119d28061038683390190565b5f604051905090565b5f5ffd5b5f5ffd5b5f73ffffffffffffffffffffffffffffffffffffffff82169050919050565b5f6100e8826100bf565b9050919050565b6100f8816100de565b8114610102575f5ffd5b50565b5f81359050610113816100ef565b92915050565b5f5ffd5b5f5ffd5b5f601f19601f8301169050919050565b7f4e487b71000000000000000000000000000000000000000000000000000000005f52604160045260245ffd5b61016782610121565b810181811067ffffffffffffffff8211171561018657610185610131565b5b80604052505050565b5f6101986100ae565b90506101a4828261015e565b919050565b5f67ffffffffffffffff8211156101c3576101c2610131565b5b6101cc82610121565b9050602081019050919050565b828183375f83830152505050565b5f6101f96101f4846101a9565b61018f565b9050828152602081018484840111156102155761021461011d565b5b6102208482856101d9565b509392505050565b5f82601f83011261023c5761023b610119565b5b813561024c8482602086016101e7565b91505092915050565b5f5f5f6060848603121561026c5761026b6100b7565b5b5f61027986828701610105565b935050602061028a86828701610105565b925050604084013567ffffffffffffffff8111156102ab576102aa6100bb565b5b6102b786828701610228565b9150509250925092565b6102ca816100de565b82525050565b5f6020820190506102e35f8301846102c1565b92915050565b5f81519050919050565b5f82825260208201905092915050565b8281835e5f83830152505050565b5f61031b826102e9565b61032581856102f3565b9350610335818560208601610303565b61033e81610121565b840191505092915050565b5f60608201905061035c5f8301866102c1565b61036960208301856102c1565b818103604083015261037b8184610311565b905094935050505056fe60a06040526040516119d23803806119d283398181016040528101906100259190610707565b828161003782826100c160201b60201c565b50508160405161004690610553565b6100509190610782565b604051809103905ff080158015610069573d5f5f3e3d5ffd5b5073ffffffffffffffffffffffffffffffffffffffff1660808173ffffffffffffffffffffffffffffffffffffffff16815250506100b96100ae61014560201b60201c565b61014e60201b60201c565b50505061081c565b6100d0826101a660201b60201c565b8173ffffffffffffffffffffffffffffffffffffffff167fbc7cd75a20ee27fd9adebab32041f755214dbc6bffa90cc0225b39da2e5c2d3b60405160405180910390a25f815111156101325761012c828261027560201b60201c565b50610141565b6101406102fb60201b60201c565b5b5050565b5f608051905090565b7f7e644d79422f17c01e4894b5f4f588d331ebfa28653d42ae832dc59e38c9798f61017d61033760201b60201c565b8260405161018c92919061079b565b60405180910390a16101a38161039060201b60201c565b50565b5f8173ffffffffffffffffffffffffffffffffffffffff163b0361020157806040517f4c9c8ce30000000000000000000000000000000000000000000000000000000081526004016101f89190610782565b60405180910390fd5b806102337f360894a13ba1a3210667c828492db98dca3e2076cc3735a920a3ca505d382bbc5f1b61047460201b60201c565b5f015f6101000a81548173ffffffffffffffffffffffffffffffffffffffff021916908373ffffffffffffffffffffffffffffffffffffffff16021790555050565b60605f5f8473ffffffffffffffffffffffffffffffffffffffff168460405161029e9190610806565b5f60405180830381855af49150503d805f81146102d6576040519150601f19603f3d011682016040523d82523d5f602084013e6102db565b606091505b50915091506102f185838361047d60201b60201c565b9250505092915050565b5f341115610335576040517fb398979f00000000000000000000000000000000000000000000000000000000815260040160405180910390fd5b565b5f6103697fb53127684a568b3173ae13b9f8a6016e243e63b6e8ee1178d6a717850b5d61035f1b61047460201b60201c565b5f015f9054906101000a900473ffffffffffffffffffffffffffffffffffffffff16905090565b5f73ffffffffffffffffffffffffffffffffffffffff168173ffffffffffffffffffffffffffffffffffffffff1603610400575f6040517f62e77ba20000000000000000000000000000000000000000000000000000000081526004016103f79190610782565b60405180910390fd5b806104327fb53127684a568b3173ae13b9f8a6016e243e63b6e8ee1178d6a717850b5d61035f1b61047460201b60201c565b5f015f6101000a81548173ffffffffffffffffffffffffffffffffffffffff021916908373ffffffffffffffffffffffffffffffffffffffff16021790555050565b5f819050919050565b606082610498576104938261051060201b60201c565b610508565b5f82511480156104be57505f8473ffffffffffffffffffffffffffffffffffffffff163b145b1561050057836040517f9996b3150000000000000000000000000000000000000000000000000000000081526004016104f79190610782565b60405180910390fd5b819050610509565b5b9392505050565b5f8151111561052157805160208201fd5b6040517fd6bda27500000000000000000000000000000000000000000000000000000000815260040160405180910390fd5b6109c68061100c83390190565b5f604051905090565b5f5ffd5b5f5ffd5b5f73ffffffffffffffffffffffffffffffffffffffff82169050919050565b5f61059a82610571565b9050919050565b6105aa81610590565b81146105b4575f5ffd5b50565b5f815190506105c5816105a1565b92915050565b5f5ffd5b5f5ffd5b5f601f19601f8301169050919050565b7f4e487b71000000000000000000000000000000000000000000000000000000005f52604160045260245ffd5b610619826105d3565b810181811067ffffffffffffffff82111715610638576106376105e3565b5b80604052505050565b5f61064a610560565b90506106568282610610565b919050565b5f67ffffffffffffffff821115610675576106746105e3565b5b61067e826105d3565b9050602081019050919050565b8281835e5f83830152505050565b5f6106ab6106a68461065b565b610641565b9050828152602081018484840111156106c7576106c66105cf565b5b6106d284828561068b565b509392505050565b5f82601f8301126106ee576106ed6105cb565b5b81516106fe848260208601610699565b91505092915050565b5f5f5f6060848603121561071e5761071d610569565b5b5f61072b868287016105b7565b935050602061073c868287016105b7565b925050604084015167ffffffffffffffff81111561075d5761075c61056d565b5b610769868287016106da565b9150509250925092565b61077c81610590565b82525050565b5f6020820190506107955f830184610773565b92915050565b5f6040820190506107ae5f830185610773565b6107bb6020830184610773565b9392505050565b5f81519050919050565b5f81905092915050565b5f6107e0826107c2565b6107ea81856107cc565b93506107fa81856020860161068b565b80840191505092915050565b5f61081182846107d6565b915081905092915050565b6080516107d86108345f395f61010401526107d85ff3fe608060405261000c61000e565b005b610016610101565b73ffffffffffffffffffffffffffffffffffffffff163373ffffffffffffffffffffffffffffffffffffffff16036100f657634f1ef28660e01b7bffffffffffffffffffffffffffffffffffffffffffffffffffffffff19165f357fffffffff00000000000000000000000000000000000000000000000000000000167bffffffffffffffffffffffffffffffffffffffffffffffffffffffff1916146100e9576040517fd2b576ec00000000000000000000000000000000000000000000000000000000815260040160405180910390fd5b6100f1610128565b6100ff565b6100fe61015c565b5b565b5f7f0000000000000000000000000000000000000000000000000000000000000000905090565b5f5f5f36600490809261013d939291906104cf565b81019061014a91906106a7565b91509150610158828261016e565b5050565b61016c6101676101e0565b6101ee565b565b6101778261020d565b8173ffffffffffffffffffffffffffffffffffffffff167fbc7cd75a20ee27fd9adebab32041f755214dbc6bffa90cc0225b39da2e5c2d3b60405160405180910390a25f815111156101d3576101cd82826102d6565b506101dc565b6101db610356565b5b5050565b5f6101e9610392565b905090565b365f5f375f5f365f845af43d5f5f3e805f8114610209573d5ff35b3d5ffd5b5f8173ffffffffffffffffffffffffffffffffffffffff163b0361026857806040517f4c9c8ce300000000000000000000000000000000000000000000000000000000815260040161025f9190610721565b60405180910390fd5b806102947f360894a13ba1a3210667c828492db98dca3e2076cc3735a920a3ca505d382bbc5f1b6103e5565b5f015f6101000a81548173ffffffffffffffffffffffffffffffffffffffff021916908373ffffffffffffffffffffffffffffffffffffffff16021790555050565b60605f5f8473ffffffffffffffffffffffffffffffffffffffff16846040516102ff919061078c565b5f60405180830381855af49150503d805f8114610337576040519150601f19603f3d011682016040523d82523d5f602084013e61033c565b606091505b509150915061034c8583836103ee565b9250505092915050565b5f341115610390576040517fb398979f00000000000000000000000000000000000000000000000000000000815260040160405180910390fd5b565b5f6103be7f360894a13ba1a3210667c828492db98dca3e2076cc3735a920a3ca505d382bbc5f1b6103e5565b5f015f9054906101000a900473ffffffffffffffffffffffffffffffffffffffff16905090565b5f819050919050565b606082610403576103fe8261047b565b610473565b5f825114801561042957505f8473ffffffffffffffffffffffffffffffffffffffff163b145b1561046b57836040517f9996b3150000000000000000000000000000000000000000000000000000000081526004016104629190610721565b60405180910390fd5b819050610474565b5b9392505050565b5f8151111561048c57805160208201fd5b6040517fd6bda27500000000000000000000000000000000000000000000000000000000815260040160405180910390fd5b5f604051905090565b5f5ffd5b5f5ffd5b5f5f858511156104e2576104e16104c7565b5b838611156104f3576104f26104cb565b5b6001850283019150848603905094509492505050565b5f5ffd5b5f5ffd5b5f73ffffffffffffffffffffffffffffffffffffffff82169050919050565b5f61053a82610511565b9050919050565b61054a81610530565b8114610554575f5ffd5b50565b5f8135905061056581610541565b92915050565b5f5ffd5b5f5ffd5b5f601f19601f8301169050919050565b7f4e487b71000000000000000000000000000000000000000000000000000000005f52604160045260245ffd5b6105b982610573565b810181811067ffffffffffffffff821117156105d8576105d7610583565b5b80604052505050565b5f6105ea6104be565b90506105f682826105b0565b919050565b5f67ffffffffffffffff82111561061557610614610583565b5b61061e82610573565b9050602081019050919050565b828183375f83830152505050565b5f61064b610646846105fb565b6105e1565b9050828152602081018484840111156106675761066661056f565b5b61067284828561062b565b509392505050565b5f82601f83011261068e5761068d61056b565b5b813561069e848260208601610639565b91505092915050565b5f5f604083850312156106bd576106bc610509565b5b5f6106ca85828601610557565b925050602083013567ffffffffffffffff8111156106eb576106ea61050d565b5b6106f78582860161067a565b9150509250929050565b5f61070b82610511565b9050919050565b61071b81610701565b82525050565b5f6020820190506107345f830184610712565b92915050565b5f81519050919050565b5f81905092915050565b8281835e5f83830152505050565b5f6107668261073a565b6107708185610744565b935061078081856020860161074e565b80840191505092915050565b5f610797828461075c565b91508190509291505056fea2646970667358221220ffd1c4656a301d4101de9b2f5bbdb8ea2e8bb41d4937cfb4c32463e0304d79b564736f6c634300081e0033608060405234801561000f575f5ffd5b506040516109c63803806109c6833981810160405281019061003191906101d7565b805f73ffffffffffffffffffffffffffffffffffffffff168173ffffffffffffffffffffffffffffffffffffffff16036100a2575f6040517f1e4fbdf70000000000000000000000000000000000000000000000000000000081526004016100999190610211565b60405180910390fd5b6100b1816100b860201b60201c565b505061022a565b5f5f5f9054906101000a900473ffffffffffffffffffffffffffffffffffffffff169050815f5f6101000a81548173ffffffffffffffffffffffffffffffffffffffff021916908373ffffffffffffffffffffffffffffffffffffffff1602179055508173ffffffffffffffffffffffffffffffffffffffff168173ffffffffffffffffffffffffffffffffffffffff167f8be0079c531659141344cd1fd0a4f28419497f9722a3daafe3b4186f6b6457e060405160405180910390a35050565b5f5ffd5b5f73ffffffffffffffffffffffffffffffffffffffff82169050919050565b5f6101a68261017d565b9050919050565b6101b68161019c565b81146101c0575f5ffd5b50565b5f815190506101d1816101ad565b92915050565b5f602082840312156101ec576101eb610179565b5b5f6101f9848285016101c3565b91505092915050565b61020b8161019c565b82525050565b5f6020820190506102245f830184610202565b92915050565b61078f806102375f395ff3fe608060405260043610610049575f3560e01c8063715018a61461004d5780638da5cb5b146100635780639623609d1461008d578063ad3cb1cc146100a9578063f2fde38b146100d3575b5f5ffd5b348015610058575f5ffd5b506100616100fb565b005b34801561006e575f5ffd5b5061007761010e565b60405161008491906103f7565b60405180910390f35b6100a760048036038101906100a291906105c2565b610135565b005b3480156100b4575f5ffd5b506100bd6101ac565b6040516100ca919061068e565b60405180910390f35b3480156100de575f5ffd5b506100f960048036038101906100f491906106ae565b6101e5565b005b610103610269565b61010c5f6102f0565b565b5f5f5f9054906101000a900473ffffffffffffffffffffffffffffffffffffffff16905090565b61013d610269565b8273ffffffffffffffffffffffffffffffffffffffff16634f1ef2863484846040518463ffffffff1660e01b815260040161017992919061072b565b5f604051808303818588803b158015610190575f5ffd5b505af11580156101a2573d5f5f3e3d5ffd5b5050505050505050565b6040518060400160405280600581526020017f352e302e3000000000000000000000000000000000000000000000000000000081525081565b6101ed610269565b5f73ffffffffffffffffffffffffffffffffffffffff168173ffffffffffffffffffffffffffffffffffffffff160361025d575f6040517f1e4fbdf700000000000000000000000000000000000000000000000000000000815260040161025491906103f7565b60405180910390fd5b610266816102f0565b50565b6102716103b1565b73ffffffffffffffffffffffffffffffffffffffff1661028f61010e565b73ffffffffffffffffffffffffffffffffffffffff16146102ee576102b26103b1565b6040517f118cdaa70000000000000000000000000000000000000000000000000000000081526004016102e591906103f7565b60405180910390fd5b565b5f5f5f9054906101000a900473ffffffffffffffffffffffffffffffffffffffff169050815f5f6101000a81548173ffffffffffffffffffffffffffffffffffffffff021916908373ffffffffffffffffffffffffffffffffffffffff1602179055508173ffffffffffffffffffffffffffffffffffffffff168173ffffffffffffffffffffffffffffffffffffffff167f8be0079c531659141344cd1fd0a4f28419497f9722a3daafe3b4186f6b6457e060405160405180910390a35050565b5f33905090565b5f73ffffffffffffffffffffffffffffffffffffffff82169050919050565b5f6103e1826103b8565b9050919050565b6103f1816103d7565b82525050565b5f60208201905061040a5f8301846103e8565b92915050565b5f604051905090565b5f5ffd5b5f5ffd5b5f61042b826103d7565b9050919050565b61043b81610421565b8114610445575f5ffd5b50565b5f8135905061045681610432565b92915050565b610465816103d7565b811461046f575f5ffd5b50565b5f813590506104808161045c565b92915050565b5f5ffd5b5f5ffd5b5f601f19601f8301169050919050565b7f4e487b71000000000000000000000000000000000000000000000000000000005f52604160045260245ffd5b6104d48261048e565b810181811067ffffffffffffffff821117156104f3576104f261049e565b5b80604052505050565b5f610505610410565b905061051182826104cb565b919050565b5f67ffffffffffffffff8211156105305761052f61049e565b5b6105398261048e565b9050602081019050919050565b828183375f83830152505050565b5f61056661056184610516565b6104fc565b9050828152602081018484840111156105825761058161048a565b5b61058d848285610546565b509392505050565b5f82601f8301126105a9576105a8610486565b5b81356105b9848260208601610554565b91505092915050565b5f5f5f606084860312156105d9576105d8610419565b5b5f6105e686828701610448565b93505060206105f786828701610472565b925050604084013567ffffffffffffffff8111156106185761061761041d565b5b61062486828701610595565b9150509250925092565b5f81519050919050565b5f82825260208201905092915050565b8281835e5f83830152505050565b5f6106608261062e565b61066a8185610638565b935061067a818560208601610648565b6106838161048e565b840191505092915050565b5f6020820190508181035f8301526106a68184610656565b905092915050565b5f602082840312156106c3576106c2610419565b5b5f6106d084828501610472565b91505092915050565b5f81519050919050565b5f82825260208201905092915050565b5f6106fd826106d9565b61070781856106e3565b9350610717818560208601610648565b6107208161048e565b840191505092915050565b5f60408201905061073e5f8301856103e8565b818103602083015261075081846106f3565b9050939250505056fea2646970667358221220492a0ec02ad1d17ab12a461f1c6134ecbfb78581a683ffcdcc5f568123b1975364736f6c634300081e0033a26469706673582212203dc5fea87a72b96ddd30a1e3a92179d2dff2ff385b93bcf7c7dd1500d7dba16264736f6c634300081e0033",
			"opcodes": "PUSH1 0x80 PUSH1 0x40 MSTORE CALLVALUE DUP1 ISZERO PUSH1 0xE JUMPI PUSH0 PUSH0 REVERT JUMPDEST POP PUSH2 0x1D8D DUP1 PUSH2 0x1C PUSH0 CODECOPY PUSH0 RETURN INVALID PUSH1 0x80 PUSH1 0x40 MSTORE CALLVALUE DUP1 ISZERO PUSH2 0xF JUMPI PUSH0 PUSH0 REVERT JUMPDEST POP PUSH1 0x4 CALLDATASIZE LT PUSH2 0x29 JUMPI PUSH0 CALLDATALOAD PUSH1 0xE0 SHR DUP1 PUSH4 0x2DB5B86F EQ PUSH2 0x2D JUMPI JUMPDEST PUSH0 PUSH0 REVERT JUMPDEST PUSH2 0x47 PUSH1 0x4 DUP1 CALLDATASIZE SUB DUP2 ADD SWAP1 PUSH2 0x42 SWAP2 SWAP1 PUSH2 0x255 JUMP JUMPDEST PUSH2 0x5D JUMP JUMPDEST PUSH1 0x40 MLOAD PUSH2 0x54 SWAP2 SWAP1 PUSH2 0x2D0 JUMP JUMPDEST PUSH1 0x40 MLOAD DUP1 SWAP2 SUB SWAP1 RETURN JUMPDEST PUSH0 PUSH0 DUP5 DUP5 DUP5 PUSH1 0x40 MLOAD PUSH2 0x6E SWAP1 PUSH2 0xA1 JUMP JUMPDEST PUSH2 0x7A SWAP4 SWAP3 SWAP2 SWAP1 PUSH2 0x349 JUMP JUMPDEST PUSH1 0x40 MLOAD DUP1 SWAP2 SUB SWAP1 PUSH0 CREATE DUP1 ISZERO DUP1 ISZERO PUSH2 0x93 JUMPI RETURNDATASIZE PUSH0 PUSH0 RETURNDATACOPY RETURNDATASIZE PUSH0 REVERT JUMPDEST POP SWAP1 POP DUP1 SWAP2 POP POP SWAP4 SWAP3 POP POP POP JUMP JUMPDEST PUSH2 0x19D2 DUP1 PUSH2 0x386 DUP4 CODECOPY ADD SWAP1 JUMP JUMPDEST PUSH0 PUSH1 0x40 MLOAD SWAP1 POP SWAP1 JUMP JUMPDEST PUSH0 PUSH0 REVERT JUMPDEST PUSH0 PUSH0 REVERT JUMPDEST PUSH0 PUSH20 0xFFFFFFFFFFFFFFFFFFFFFFFFFFFFFFFFFFFFFFFF DUP3 AND SWAP1 POP SWAP2 SWAP1 POP JUMP JUMPDEST PUSH0 PUSH2 0xE8 DUP3 PUSH2 0xBF JUMP JUMPDEST SWAP1 POP SWAP2 SWAP1 POP JUMP JUMPDEST PUSH2 0xF8 DUP2 PUSH2 0xDE JUMP JUMPDEST DUP2 EQ PUSH2 0x102 JUMPI PUSH0 PUSH0 REVERT JUMPDEST POP JUMP JUMPDEST PUSH0 DUP2 CALLDATALOAD SWAP1 POP PUSH2 0x113 DUP2 PUSH2 0xEF JUMP JUMPDEST SWAP3 SWAP2 POP POP JUMP JUMPDEST PUSH0 PUSH0 REVERT JUMPDEST PUSH0 PUSH0 REVERT JUMPDEST PUSH0 PUSH1 0x1F NOT PUSH1 0x1F DUP4 ADD AND SWAP1 POP SWAP2 SWAP1 POP JUMP JUMPDEST PUSH32 0x4E487B7100000000000000000000000000000000000000000000000000000000 PUSH0 MSTORE PUSH1 0x41 PUSH1 0x4 MSTORE PUSH1 0x24 PUSH0 REVERT JUMPDEST PUSH2 0x167 DUP3 PUSH2 0x121 JUMP JUMPDEST DUP2 ADD DUP2 DUP2 LT PUSH8 0xFFFFFFFFFFFFFFFF DUP3 GT OR ISZERO PUSH2 0x186 JUMPI PUSH2 0x185 PUSH2 0x131 JUMP JUMPDEST JUMPDEST DUP1 PUSH1 0x40 MSTORE POP POP POP JUMP JUMPDEST PUSH0 PUSH2 0x198 PUSH2 0xAE JUMP JUMPDEST SWAP1 POP PUSH2 0x1A4 DUP3 DUP3 PUSH2 0x15E JUMP JUMPDEST SWAP2 SWAP1 POP JUMP JUMPDEST PUSH0 PUSH8 0xFFFFFFFFFFFFFFFF DUP3 GT ISZERO PUSH2 0x1C3 JUMPI PUSH2 0x1C2 PUSH2 0x131 JUMP JUMPDEST JUMPDEST PUSH2 0x1CC DUP3 PUSH2 0x121 JUMP JUMPDEST SWAP1 POP PUSH1 0x20 DUP2 ADD SWAP1 POP SWAP2 SWAP1 POP JUMP JUMPDEST DUP3 DUP2 DUP4 CALLDATACOPY PUSH0 DUP4 DUP4 ADD MSTORE POP POP POP JUMP JUMPDEST PUSH0 PUSH2 0x1F9 PUSH2 0x1F4 DUP5 PUSH2 0x1A9 JUMP JUMPDEST PUSH2 0x18F JUMP JUMPDEST SWAP1 POP DUP3 DUP2 MSTORE PUSH1 0x20 DUP2 ADD DUP5 DUP5 DUP5 ADD GT ISZERO PUSH2 0x215 JUMPI PUSH2 0x214 PUSH2 0x11D JUMP JUMPDEST JUMPDEST PUSH2 0x220 DUP5 DUP3 DUP6 PUSH2 0x1D9 JUMP JUMPDEST POP SWAP4 SWAP3 POP POP POP JUMP JUMPDEST PUSH0 DUP3 PUSH1 0x1F DUP4 ADD SLT PUSH2 0x23C JUMPI PUSH2 0x23B PUSH2 0x119 JUMP JUMPDEST JUMPDEST DUP2 CALLDATALOAD PUSH2 0x24C DUP5 DUP3 PUSH1 0x20 DUP7 ADD PUSH2 0x1E7 JUMP JUMPDEST SWAP2 POP POP SWAP3 SWAP2 POP POP JUMP JUMPDEST PUSH0 PUSH0 PUSH0 PUSH1 0x60 DUP5 DUP7 SUB SLT ISZERO PUSH2 0x26C JUMPI PUSH2 0x26B PUSH2 0xB7 JUMP JUMPDEST JUMPDEST PUSH0 PUSH2 0x279 DUP7 DUP3 DUP8 ADD PUSH2 0x105 JUMP JUMPDEST SWAP4 POP POP PUSH1 0x20 PUSH2 0x28A DUP7 DUP3 DUP8 ADD PUSH2 0x105 JUMP JUMPDEST SWAP3 POP POP PUSH1 0x40 DUP5 ADD CALLDATALOAD PUSH8 0xFFFFFFFFFFFFFFFF DUP2 GT ISZERO PUSH2 0x2AB JUMPI PUSH2 0x2AA PUSH2 0xBB JUMP JUMPDEST JUMPDEST PUSH2 0x2B7 DUP7 DUP3 DUP8 ADD PUSH2 0x228 JUMP JUMPDEST SWAP2 POP POP SWAP3 POP SWAP3 POP SWAP3 JUMP JUMPDEST PUSH2 0x2CA DUP2 PUSH2 0xDE JUMP JUMPDEST DUP3 MSTORE POP POP JUMP JUMPDEST PUSH0 PUSH1 0x20 DUP3 ADD SWAP1 POP PUSH2 0x2E3 PUSH0 DUP4 ADD DUP5 PUSH2 0x2C1 JUMP JUMPDEST SWAP3 SWAP2 POP POP JUMP JUMPDEST PUSH0 DUP2 MLOAD SWAP1 POP SWAP2 SWAP1 POP JUMP JUMPDEST PUSH0 DUP3 DUP3 MSTORE PUSH1 0x20 DUP3 ADD SWAP1 POP SWAP3 SWAP2 POP POP JUMP JUMPDEST DUP3 DUP2 DUP4 MCOPY PUSH0 DUP4 DUP4 ADD MSTORE POP POP POP JUMP JUMPDEST PUSH0 PUSH2 0x31B DUP3 PUSH2 0x2E9 JUMP JUMPDEST PUSH2 0x325 DUP2 DUP6 PUSH2 0x2F3 JUMP JUMPDEST SWAP4 POP PUSH2 0x335 DUP2 DUP6 PUSH1 0x20 DUP7 ADD PUSH2 0x303 JUMP JUMPDEST PUSH2 0x33E DUP2 PUSH2 0x121 JUMP JUMPDEST DUP5 ADD SWAP2 POP POP SWAP3 SWAP2 POP POP JUMP JUMPDEST PUSH0 PUSH1 0x60 DUP3 ADD SWAP1 POP PUSH2 0x35C PUSH0 DUP4 ADD DUP7 PUSH2 0x2C1 JUMP JUMPDEST PUSH2 0x369 PUSH1 0x20 DUP4 ADD DUP6 PUSH2 0x2C1 JUMP JUMPDEST DUP2 DUP2 SUB PUSH1 0x40 DUP4 ADD MSTORE PUSH2 0x37B DUP2 DUP5 PUSH2 0x311 JUMP JUMPDEST SWAP1 POP SWAP5 SWAP4 POP POP POP POP JUMP INVALID PUSH1 0xA0 PUSH1 0x40 MSTORE PUSH1 0x40 MLOAD PUSH2 0x19D2 CODESIZE SUB DUP1 PUSH2 0x19D2 DUP4 CODECOPY DUP2 DUP2 ADD PUSH1 0x40 MSTORE DUP2 ADD SWAP1 PUSH2 0x25 SWAP2 SWAP1 PUSH2 0x707 JUMP JUMPDEST DUP3 DUP2 PUSH2 0x37 DUP3 DUP3 PUSH2 0xC1 PUSH1 0x20 SHL PUSH1 0x20 SHR JUMP JUMPDEST POP POP DUP2 PUSH1 0x40 MLOAD PUSH2 0x46 SWAP1 PUSH2 0x553 JUMP JUMPDEST PUSH2 0x50 SWAP2 SWAP1 PUSH2 0x782 JUMP JUMPDEST PUSH1 0x40 MLOAD DUP1 SWAP2 SUB SWAP1 PUSH0 CREATE DUP1 ISZERO DUP1 ISZERO PUSH2 0x69 JUMPI RETURNDATASIZE PUSH0 PUSH0 RETURNDATACOPY RETURNDATASIZE PUSH0 REVERT JUMPDEST POP PUSH20 0xFFFFFFFFFFFFFFFFFFFFFFFFFFFFFFFFFFFFFFFF AND PUSH1 0x80 DUP2 PUSH20 0xFFFFFFFFFFFFFFFFFFFFFFFFFFFFFFFFFFFFFFFF AND DUP2 MSTORE POP POP PUSH2 0xB9 PUSH2 0xAE PUSH2 0x145 PUSH1 0x20 SHL PUSH1 0x20 SHR JUMP JUMPDEST PUSH2 0x14E PUSH1 0x20 SHL PUSH1 0x20 SHR JUMP JUMPDEST POP POP POP PUSH2 0x81C JUMP JUMPDEST PUSH2 0xD0 DUP3 PUSH2 0x1A6 PUSH1 0x20 SHL PUSH1 0x20 SHR JUMP JUMPDEST DUP2 PUSH20 0xFFFFFFFFFFFFFFFFFFFFFFFFFFFFFFFFFFFFFFFF AND PUSH32 0xBC7CD75A20EE27FD9ADEBAB32041F755214DBC6BFFA90CC0225B39DA2E5C2D3B PUSH1 0x40 MLOAD PUSH1 0x40 MLOAD DUP1 SWAP2 SUB SWAP1 LOG2 PUSH0 DUP2 MLOAD GT ISZERO PUSH2 0x132 JUMPI PUSH2 0x12C DUP3 DUP3 PUSH2 0x275 PUSH1 0x20 SHL PUSH1 0x20 SHR JUMP JUMPDEST POP PUSH2 0x141 JUMP JUMPDEST PUSH2 0x140 PUSH2 0x2FB PUSH1 0x20 SHL PUSH1 0x20 SHR JUMP JUMPDEST JUMPDEST POP POP JUMP JUMPDEST PUSH0 PUSH1 0x80 MLOAD SWAP1 POP SWAP1 JUMP JUMPDEST PUSH32 0x7E644D79422F17C01E4894B5F4F588D331EBFA28653D42AE832DC59E38C9798F PUSH2 0x17D PUSH2 0x337 PUSH1 0x20 SHL PUSH1 0x20 SHR JUMP JUMPDEST DUP3 PUSH1 0x40 MLOAD PUSH2 0x18C SWAP3 SWAP2 SWAP1 PUSH2 0x79B JUMP JUMPDEST PUSH1 0x40 MLOAD DUP1 SWAP2 SUB SWAP1 LOG1 PUSH2 0x1A3 DUP2 PUSH2 0x390 PUSH1 0x20 SHL PUSH1 0x20 SHR JUMP JUMPDEST POP JUMP JUMPDEST PUSH0 DUP2 PUSH20 0xFFFFFFFFFFFFFFFFFFFFFFFFFFFFFFFFFFFFFFFF AND EXTCODESIZE SUB PUSH2 0x201 JUMPI DUP1 PUSH1 0x40 MLOAD PUSH32 0x4C9C8CE300000000000000000000000000000000000000000000000000000000 DUP2 MSTORE PUSH1 0x4 ADD PUSH2 0x1F8 SWAP2 SWAP1 PUSH2 0x782 JUMP JUMPDEST PUSH1 0x40 MLOAD DUP1 SWAP2 SUB SWAP1 REVERT JUMPDEST DUP1 PUSH2 0x233 PUSH32 0x360894A13BA1A3210667C828492DB98DCA3E2076CC3735A920A3CA505D382BBC PUSH0 SHL PUSH2 0x474 PUSH1 0x20 SHL PUSH1 0x20 SHR JUMP JUMPDEST PUSH0 ADD PUSH0 PUSH2 0x100 EXP DUP2 SLOAD DUP2 PUSH20 0xFFFFFFFFFFFFFFFFFFFFFFFFFFFFFFFFFFFFFFFF MUL NOT AND SWAP1 DUP4 PUSH20 0xFFFFFFFFFFFFFFFFFFFFFFFFFFFFFFFFFFFFFFFF AND MUL OR SWAP1 SSTORE POP POP JUMP JUMPDEST PUSH1 0x60 PUSH0 PUSH0 DUP5 PUSH20 0xFFFFFFFFFFFFFFFFFFFFFFFFFFFFFFFFFFFFFFFF AND DUP5 PUSH1 0x40 MLOAD PUSH2 0x29E SWAP2 SWAP1 PUSH2 0x806 JUMP JUMPDEST PUSH0 PUSH1 0x40 MLOAD DUP1 DUP4 SUB DUP2 DUP6 GAS DELEGATECALL SWAP2 POP POP RETURNDATASIZE DUP1 PUSH0 DUP2 EQ PUSH2 0x2D6 JUMPI PUSH1 0x40 MLOAD SWAP2 POP PUSH1 0x1F NOT PUSH1 0x3F RETURNDATASIZE ADD AND DUP3 ADD PUSH1 0x40 MSTORE RETURNDATASIZE DUP3 MSTORE RETURNDATASIZE PUSH0 PUSH1 0x20 DUP5 ADD RETURNDATACOPY PUSH2 0x2DB JUMP JUMPDEST PUSH1 0x60 SWAP2 POP JUMPDEST POP SWAP2 POP SWAP2 POP PUSH2 0x2F1 DUP6 DUP4 DUP4 PUSH2 0x47D PUSH1 0x20 SHL PUSH1 0x20 SHR JUMP JUMPDEST SWAP3 POP POP POP SWAP3 SWAP2 POP POP JUMP JUMPDEST PUSH0 CALLVALUE GT ISZERO PUSH2 0x335 JUMPI PUSH1 0x40 MLOAD PUSH32 0xB398979F00000000000000000000000000000000000000000000000000000000 DUP2 MSTORE PUSH1 0x4 ADD PUSH1 0x40 MLOAD DUP1 SWAP2 SUB SWAP1 REVERT JUMPDEST JUMP JUMPDEST PUSH0 PUSH2 0x369 PUSH32 0xB53127684A568B3173AE13B9F8A6016E243E63B6E8EE1178D6A717850B5D6103 PUSH0 SHL PUSH2 0x474 PUSH1 0x20 SHL PUSH1 0x20 SHR JUMP JUMPDEST PUSH0 ADD PUSH0 SWAP1 SLOAD SWAP1 PUSH2 0x100 EXP SWAP1 DIV PUSH20 0xFFFFFFFFFFFFFFFFFFFFFFFFFFFFFFFFFFFFFFFF AND SWAP1 POP SWAP1 JUMP JUMPDEST PUSH0 PUSH20 0xFFFFFFFFFFFFFFFFFFFFFFFFFFFFFFFFFFFFFFFF AND DUP2 PUSH20 0xFFFFFFFFFFFFFFFFFFFFFFFFFFFFFFFFFFFFFFFF AND SUB PUSH2 0x400 JUMPI PUSH0 PUSH1 0x40 MLOAD PUSH32 0x62E77BA200000000000000000000000000000000000000000000000000000000 DUP2 MSTORE PUSH1 0x4 ADD PUSH2 0x3F7 SWAP2 SWAP1 PUSH2 0x782 JUMP JUMPDEST PUSH1 0x40 MLOAD DUP1 SWAP2 SUB SWAP1 REVERT JUMPDEST DUP1 PUSH2 0x432 PUSH32 0xB53127684A568B3173AE13B9F8A6016E243E63B6E8EE1178D6A717850B5D6103 PUSH0 SHL PUSH2 0x474 PUSH1 0x20 SHL PUSH1 0x20 SHR JUMP JUMPDEST PUSH0 ADD PUSH0 PUSH2 0x100 EXP DUP2 SLOAD DUP2 PUSH20 0xFFFFFFFFFFFFFFFFFFFFFFFFFFFFFFFFFFFFFFFF MUL NOT AND SWAP1 DUP4 PUSH20 0xFFFFFFFFFFFFFFFFFFFFFFFFFFFFFFFFFFFFFFFF AND MUL OR SWAP1 SSTORE POP POP JUMP JUMPDEST PUSH0 DUP2 SWAP1 POP SWAP2 SWAP1 POP JUMP JUMPDEST PUSH1 0x60 DUP3 PUSH2 0x498 JUMPI PUSH2 0x493 DUP3 PUSH2 0x510 PUSH1 0x20 SHL PUSH1 0x20 SHR JUMP JUMPDEST PUSH2 0x508 JUMP JUMPDEST PUSH0 DUP3 MLOAD EQ DUP1 ISZERO PUSH2 0x4BE JUMPI POP PUSH0 DUP5 PUSH20 0xFFFFFFFFFFFFFFFFFFFFFFFFFFFFFFFFFFFFFFFF AND EXTCODESIZE EQ JUMPDEST ISZERO PUSH2 0x500 JUMPI DUP4 PUSH1 0x40 MLOAD PUSH32 0x9996B31500000000000000000000000000000000000000000000000000000000 DUP2 MSTORE PUSH1 0x4 ADD PUSH2 0x4F7 SWAP2 SWAP1 PUSH2 0x782 JUMP JUMPDEST PUSH1 0x40 MLOAD DUP1 SWAP2 SUB SWAP1 REVERT JUMPDEST DUP2 SWAP1 POP PUSH2 0x509 JUMP JUMPDEST JUMPDEST SWAP4 SWAP3 POP POP POP JUMP JUMPDEST PUSH0 DUP2 MLOAD GT ISZERO PUSH2 0x521 JUMPI DUP1 MLOAD PUSH1 0x20 DUP3 ADD REVERT JUMPDEST PUSH1 0x40 MLOAD PUSH32 0xD6BDA27500000000000000000000000000000000000000000000000000000000 DUP2 MSTORE PUSH1 0x4 ADD PUSH1 0x40 MLOAD DUP1 SWAP2 SUB SWAP1 REVERT JUMPDEST PUSH2 0x9C6 DUP1 PUSH2 0x100C DUP4 CODECOPY ADD SWAP1 JUMP JUMPDEST PUSH0 PUSH1 0x40 MLOAD SWAP1 POP SWAP1 JUMP JUMPDEST PUSH0 PUSH0 REVERT JUMPDEST PUSH0 PUSH0 REVERT JUMPDEST PUSH0 PUSH20 0xFFFFFFFFFFFFFFFFFFFFFFFFFFFFFFFFFFFFFFFF DUP3 AND SWAP1 POP SWAP2 SWAP1 POP JUMP JUMPDEST PUSH0 PUSH2 0x59A DUP3 PUSH2 0x571 JUMP JUMPDEST SWAP1 POP SWAP2 SWAP1 POP JUMP JUMPDEST PUSH2 0x5AA DUP2 PUSH2 0x590 JUMP JUMPDEST DUP2 EQ PUSH2 0x5B4 JUMPI PUSH0 PUSH0 REVERT JUMPDEST POP JUMP JUMPDEST PUSH0 DUP2 MLOAD SWAP1 POP PUSH2 0x5C5 DUP2 PUSH2 0x5A1 JUMP JUMPDEST SWAP3 SWAP2 POP POP JUMP JUMPDEST PUSH0 PUSH0 REVERT JUMPDEST PUSH0 PUSH0 REVERT JUMPDEST PUSH0 PUSH1 0x1F NOT PUSH1 0x1F DUP4 ADD AND SWAP1 POP SWAP2 SWAP1 POP JUMP JUMPDEST PUSH32 0x4E487B7100000000000000000000000000000000000000000000000000000000 PUSH0 MSTORE PUSH1 0x41 PUSH1 0x4 MSTORE PUSH1 0x24 PUSH0 REVERT JUMPDEST PUSH2 0x619 DUP3 PUSH2 0x5D3 JUMP JUMPDEST DUP2 ADD DUP2 DUP2 LT PUSH8 0xFFFFFFFFFFFFFFFF DUP3 GT OR ISZERO PUSH2 0x638 JUMPI PUSH2 0x637 PUSH2 0x5E3 JUMP JUMPDEST JUMPDEST DUP1 PUSH1 0x40 MSTORE POP POP POP JUMP JUMPDEST PUSH0 PUSH2 0x64A PUSH2 0x560 JUMP JUMPDEST SWAP1 POP PUSH2 0x656 DUP3 DUP3 PUSH2 0x610 JUMP JUMPDEST SWAP2 SWAP1 POP JUMP JUMPDEST PUSH0 PUSH8 0xFFFFFFFFFFFFFFFF DUP3 GT ISZERO PUSH2 0x675 JUMPI PUSH2 0x674 PUSH2 0x5E3 JUMP JUMPDEST JUMPDEST PUSH2 0x67E DUP3 PUSH2 0x5D3 JUMP JUMPDEST SWAP1 POP PUSH1 0x20 DUP2 ADD SWAP1 POP SWAP2 SWAP1 POP JUMP JUMPDEST DUP3 DUP2 DUP4 MCOPY PUSH0 DUP4 DUP4 ADD MSTORE POP POP POP JUMP JUMPDEST PUSH0 PUSH2 0x6AB PUSH2 0x6A6 DUP5 PUSH2 0x65B JUMP JUMPDEST PUSH2 0x641 JUMP JUMPDEST SWAP1 POP DUP3 DUP2 MSTORE PUSH1 0x20 DUP2 ADD DUP5 DUP5 DUP5 ADD GT ISZERO PUSH2 0x6C7 JUMPI PUSH2 0x6C6 PUSH2 0x5CF JUMP JUMPDEST JUMPDEST PUSH2 0x6D2 DUP5 DUP3 DUP6 PUSH2 0x68B JUMP JUMPDEST POP SWAP4 SWAP3 POP POP POP JUMP JUMPDEST PUSH0 DUP3 PUSH1 0x1F DUP4 ADD SLT PUSH2 0x6EE JUMPI PUSH2 0x6ED PUSH2 0x5CB JUMP JUMPDEST JUMPDEST DUP2 MLOAD PUSH2 0x6FE DUP5 DUP3 PUSH1 0x20 DUP7 ADD PUSH2 0x699 JUMP JUMPDEST SWAP2 POP POP SWAP3 SWAP2 POP POP JUMP JUMPDEST PUSH0 PUSH0 PUSH0 PUSH1 0x60 DUP5 DUP7 SUB SLT ISZERO PUSH2 0x71E JUMPI PUSH2 0x71D PUSH2 0x569 JUMP JUMPDEST JUMPDEST PUSH0 PUSH2 0x72B DUP7 DUP3 DUP8 ADD PUSH2 0x5B7 JUMP JUMPDEST SWAP4 POP POP PUSH1 0x20 PUSH2 0x73C DUP7 DUP3 DUP8 ADD PUSH2 0x5B7 JUMP JUMPDEST SWAP3 POP POP PUSH1 0x40 DUP5 ADD MLOAD PUSH8 0xFFFFFFFFFFFFFFFF DUP2 GT ISZERO PUSH2 0x75D JUMPI PUSH2 0x75C PUSH2 0x56D JUMP JUMPDEST JUMPDEST PUSH2 0x769 DUP7 DUP3 DUP8 ADD PUSH2 0x6DA JUMP JUMPDEST SWAP2 POP POP SWAP3 POP SWAP3 POP SWAP3 JUMP JUMPDEST PUSH2 0x77C DUP2 PUSH2 0x590 JUMP JUMPDEST DUP3 MSTORE POP POP JUMP JUMPDEST PUSH0 PUSH1 0x20 DUP3 ADD SWAP1 POP PUSH2 0x795 PUSH0 DUP4 ADD DUP5 PUSH2 0x773 JUMP JUMPDEST SWAP3 SWAP2 POP POP JUMP JUMPDEST PUSH0 PUSH1 0x40 DUP3 ADD SWAP1 POP PUSH2 0x7AE PUSH0 DUP4 ADD DUP6 PUSH2 0x773 JUMP JUMPDEST PUSH2 0x7BB PUSH1 0x20 DUP4 ADD DUP5 PUSH2 0x773 JUMP JUMPDEST SWAP4 SWAP3 POP POP POP JUMP JUMPDEST PUSH0 DUP2 MLOAD SWAP1 POP SWAP2 SWAP1 POP JUMP JUMPDEST PUSH0 DUP2 SWAP1 POP SWAP3 SWAP2 POP POP JUMP JUMPDEST PUSH0 PUSH2 0x7E0 DUP3 PUSH2 0x7C2 JUMP JUMPDEST PUSH2 0x7EA DUP2 DUP6 PUSH2 0x7CC JUMP JUMPDEST SWAP4 POP PUSH2 0x7FA DUP2 DUP6 PUSH1 0x20 DUP7 ADD PUSH2 0x68B JUMP JUMPDEST DUP1 DUP5 ADD SWAP2 POP POP SWAP3 SWAP2 POP POP JUMP JUMPDEST PUSH0 PUSH2 0x811 DUP3 DUP5 PUSH2 0x7D6 JUMP JUMPDEST SWAP2 POP DUP2 SWAP1 POP SWAP3 SWAP2 POP POP JUMP JUMPDEST PUSH1 0x80 MLOAD PUSH2 0x7D8 PUSH2 0x834 PUSH0 CODECOPY PUSH0 PUSH2 0x104 ADD MSTORE PUSH2 0x7D8 PUSH0 RETURN INVALID PUSH1 0x80 PUSH1 0x40 MSTORE PUSH2 0xC PUSH2 0xE JUMP JUMPDEST STOP JUMPDEST PUSH2 0x16 PUSH2 0x101 JUMP JUMPDEST PUSH20 0xFFFFFFFFFFFFFFFFFFFFFFFFFFFFFFFFFFFFFFFF AND CALLER PUSH20 0xFFFFFFFFFFFFFFFFFFFFFFFFFFFFFFFFFFFFFFFF AND SUB PUSH2 0xF6 JUMPI PUSH4 0x4F1EF286 PUSH1 0xE0 SHL PUSH28 0xFFFFFFFFFFFFFFFFFFFFFFFFFFFFFFFFFFFFFFFFFFFFFFFFFFFFFFFF NOT AND PUSH0 CALLDATALOAD PUSH32 0xFFFFFFFF00000000000000000000000000000000000000000000000000000000 AND PUSH28 0xFFFFFFFFFFFFFFFFFFFFFFFFFFFFFFFFFFFFFFFFFFFFFFFFFFFFFFFF NOT AND EQ PUSH2 0xE9 JUMPI PUSH1 0x40 MLOAD PUSH32 0xD2B576EC00000000000000000000000000000000000000000000000000000000 DUP2 MSTORE PUSH1 0x4 ADD PUSH1 0x40 MLOAD DUP1 SWAP2 SUB SWAP1 REVERT JUMPDEST PUSH2 0xF1 PUSH2 0x128 JUMP JUMPDEST PUSH2 0xFF JUMP JUMPDEST PUSH2 0xFE PUSH2 0x15C JUMP JUMPDEST JUMPDEST JUMP JUMPDEST PUSH0 PUSH32 0x0 SWAP1 POP SWAP1 JUMP JUMPDEST PUSH0 PUSH0 PUSH0 CALLDATASIZE PUSH1 0x4 SWAP1 DUP1 SWAP3 PUSH2 0x13D SWAP4 SWAP3 SWAP2 SWAP1 PUSH2 0x4CF JUMP JUMPDEST DUP2 ADD SWAP1 PUSH2 0x14A SWAP2 SWAP1 PUSH2 0x6A7 JUMP JUMPDEST SWAP2 POP SWAP2 POP PUSH2 0x158 DUP3 DUP3 PUSH2 0x16E JUMP JUMPDEST POP POP JUMP JUMPDEST PUSH2 0x16C PUSH2 0x167 PUSH2 0x1E0 JUMP JUMPDEST PUSH2 0x1EE JUMP JUMPDEST JUMP JUMPDEST PUSH2 0x177 DUP3 PUSH2 0x20D JUMP JUMPDEST DUP2 PUSH20 0xFFFFFFFFFFFFFFFFFFFFFFFFFFFFFFFFFFFFFFFF AND PUSH32 0xBC7CD75A20EE27FD9ADEBAB32041F755214DBC6BFFA90CC0225B39DA2E5C2D3B PUSH1 0x40 MLOAD PUSH1 0x40 MLOAD DUP1 SWAP2 SUB SWAP1 LOG2 PUSH0 DUP2 MLOAD GT ISZERO PUSH2 0x1D3 JUMPI PUSH2 0x1CD DUP3 DUP3 PUSH2 0x2D6 JUMP JUMPDEST POP PUSH2 0x1DC JUMP JUMPDEST PUSH2 0x1DB PUSH2 0x356 JUMP JUMPDEST JUMPDEST POP POP JUMP JUMPDEST PUSH0 PUSH2 0x1E9 PUSH2 0x392 JUMP JUMPDEST SWAP1 POP SWAP1 JUMP JUMPDEST CALLDATASIZE PUSH0 PUSH0 CALLDATACOPY PUSH0 PUSH0 CALLDATASIZE PUSH0 DUP5 GAS DELEGATECALL RETURNDATASIZE PUSH0 PUSH0 RETURNDATACOPY DUP1 PUSH0 DUP2 EQ PUSH2 0x209 JUMPI RETURNDATASIZE PUSH0 RETURN JUMPDEST RETURNDATASIZE PUSH0 REVERT JUMPDEST PUSH0 DUP2 PUSH20 0xFFFFFFFFFFFFFFFFFFFFFFFFFFFFFFFFFFFFFFFF AND EXTCODESIZE SUB PUSH2 0x268 JUMPI DUP1 PUSH1 0x40 MLOAD PUSH32 0x4C9C8CE300000000000000000000000000000000000000000000000000000000 DUP2 MSTORE PUSH1 0x4 ADD PUSH2 0x25F SWAP2 SWAP1 PUSH2 0x721 JUMP JUMPDEST PUSH1 0x40 MLOAD DUP1 SWAP2 SUB SWAP1 REVERT JUMPDEST DUP1 PUSH2 0x294 PUSH32 0x360894A13BA1A3210667C828492DB98DCA3E2076CC3735A920A3CA505D382BBC PUSH0 SHL PUSH2 0x3E5 JUMP JUMPDEST PUSH0 ADD PUSH0 PUSH2 0x100 EXP DUP2 SLOAD DUP2 PUSH20 0xFFFFFFFFFFFFFFFFFFFFFFFFFFFFFFFFFFFFFFFF MUL NOT AND SWAP1 DUP4 PUSH20 0xFFFFFFFFFFFFFFFFFFFFFFFFFFFFFFFFFFFFFFFF AND MUL OR SWAP1 SSTORE POP POP JUMP JUMPDEST PUSH1 0x60 PUSH0 PUSH0 DUP5 PUSH20 0xFFFFFFFFFFFFFFFFFFFFFFFFFFFFFFFFFFFFFFFF AND DUP5 PUSH1 0x40 MLOAD PUSH2 0x2FF SWAP2 SWAP1 PUSH2 0x78C JUMP JUMPDEST PUSH0 PUSH1 0x40 MLOAD DUP1 DUP4 SUB DUP2 DUP6 GAS DELEGATECALL SWAP2 POP POP RETURNDATASIZE DUP1 PUSH0 DUP2 EQ PUSH2 0x337 JUMPI PUSH1 0x40 MLOAD SWAP2 POP PUSH1 0x1F NOT PUSH1 0x3F RETURNDATASIZE ADD AND DUP3 ADD PUSH1 0x40 MSTORE RETURNDATASIZE DUP3 MSTORE RETURNDATASIZE PUSH0 PUSH1 0x20 DUP5 ADD RETURNDATACOPY PUSH2 0x33C JUMP JUMPDEST PUSH1 0x60 SWAP2 POP JUMPDEST POP SWAP2 POP SWAP2 POP PUSH2 0x34C DUP6 DUP4 DUP4 PUSH2 0x3EE JUMP JUMPDEST SWAP3 POP POP POP SWAP3 SWAP2 POP POP JUMP JUMPDEST PUSH0 CALLVALUE GT ISZERO PUSH2 0x390 JUMPI PUSH1 0x40 MLOAD PUSH32 0xB398979F00000000000000000000000000000000000000000000000000000000 DUP2 MSTORE PUSH1 0x4 ADD PUSH1 0x40 MLOAD DUP1 SWAP2 SUB SWAP1 REVERT JUMPDEST JUMP JUMPDEST PUSH0 PUSH2 0x3BE PUSH32 0x360894A13BA1A3210667C828492DB98DCA3E2076CC3735A920A3CA505D382BBC PUSH0 SHL PUSH2 0x3E5 JUMP JUMPDEST PUSH0 ADD PUSH0 SWAP1 SLOAD SWAP1 PUSH2 0x100 EXP SWAP1 DIV PUSH20 0xFFFFFFFFFFFFFFFFFFFFFFFFFFFFFFFFFFFFFFFF AND SWAP1 POP SWAP1 JUMP JUMPDEST PUSH0 DUP2 SWAP1 POP SWAP2 SWAP1 POP JUMP JUMPDEST PUSH1 0x60 DUP3 PUSH2 0x403 JUMPI PUSH2 0x3FE DUP3 PUSH2 0x47B JUMP JUMPDEST PUSH2 0x473 JUMP JUMPDEST PUSH0 DUP3 MLOAD EQ DUP1 ISZERO PUSH2 0x429 JUMPI POP PUSH0 DUP5 PUSH20 0xFFFFFFFFFFFFFFFFFFFFFFFFFFFFFFFFFFFFFFFF AND EXTCODESIZE EQ JUMPDEST ISZERO PUSH2 0x46B JUMPI DUP4 PUSH1 0x40 MLOAD PUSH32 0x9996B31500000000000000000000000000000000000000000000000000000000 DUP2 MSTORE PUSH1 0x4 ADD PUSH2 0x462 SWAP2 SWAP1 PUSH2 0x721 JUMP JUMPDEST PUSH1 0x40 MLOAD DUP1 SWAP2 SUB SWAP1 REVERT JUMPDEST DUP2 SWAP1 POP PUSH2 0x474 JUMP JUMPDEST JUMPDEST SWAP4 SWAP3 POP POP POP JUMP JUMPDEST PUSH0 DUP2 MLOAD GT ISZERO PUSH2 0x48C JUMPI DUP1 MLOAD PUSH1 0x20 DUP3 ADD REVERT JUMPDEST PUSH1 0x40 MLOAD PUSH32 0xD6BDA27500000000000000000000000000000000000000000000000000000000 DUP2 MSTORE PUSH1 0x4 ADD PUSH1 0x40 MLOAD DUP1 SWAP2 SUB SWAP1 REVERT JUMPDEST PUSH0 PUSH1 0x40 MLOAD SWAP1 POP SWAP1 JUMP JUMPDEST PUSH0 PUSH0 REVERT JUMPDEST PUSH0 PUSH0 REVERT JUMPDEST PUSH0 PUSH0 DUP6 DUP6 GT ISZERO PUSH2 0x4E2 JUMPI PUSH2 0x4E1 PUSH2 0x4C7 JUMP JUMPDEST JUMPDEST DUP4 DUP7 GT ISZERO PUSH2 0x4F3 JUMPI PUSH2 0x4F2 PUSH2 0x4CB JUMP JUMPDEST JUMPDEST PUSH1 0x1 DUP6 MUL DUP4 ADD SWAP2 POP DUP5 DUP7 SUB SWAP1 POP SWAP5 POP SWAP5 SWAP3 POP POP POP JUMP JUMPDEST PUSH0 PUSH0 REVERT JUMPDEST PUSH0 PUSH0 REVERT JUMPDEST PUSH0 PUSH20 0xFFFFFFFFFFFFFFFFFFFFFFFFFFFFFFFFFFFFFFFF DUP3 AND SWAP1 POP SWAP2 SWAP1 POP JUMP JUMPDEST PUSH0 PUSH2 0x53A DUP3 PUSH2 0x511 JUMP JUMPDEST SWAP1 POP SWAP2 SWAP1 POP JUMP JUMPDEST PUSH2 0x54A DUP2 PUSH2 0x530 JUMP JUMPDEST DUP2 EQ PUSH2 0x554 JUMPI PUSH0 PUSH0 REVERT JUMPDEST POP JUMP JUMPDEST PUSH0 DUP2 CALLDATALOAD SWAP1 POP PUSH2 0x565 DUP2 PUSH2 0x541 JUMP JUMPDEST SWAP3 SWAP2 POP POP JUMP JUMPDEST PUSH0 PUSH0 REVERT JUMPDEST PUSH0 PUSH0 REVERT JUMPDEST PUSH0 PUSH1 0x1F NOT PUSH1 0x1F DUP4 ADD AND SWAP1 POP SWAP2 SWAP1 POP JUMP JUMPDEST PUSH32 0x4E487B7100000000000000000000000000000000000000000000000000000000 PUSH0 MSTORE PUSH1 0x41 PUSH1 0x4 MSTORE PUSH1 0x24 PUSH0 REVERT JUMPDEST PUSH2 0x5B9 DUP3 PUSH2 0x573 JUMP JUMPDEST DUP2 ADD DUP2 DUP2 LT PUSH8 0xFFFFFFFFFFFFFFFF DUP3 GT OR ISZERO PUSH2 0x5D8 JUMPI PUSH2 0x5D7 PUSH2 0x583 JUMP JUMPDEST JUMPDEST DUP1 PUSH1 0x40 MSTORE POP POP POP JUMP JUMPDEST PUSH0 PUSH2 0x5EA PUSH2 0x4BE JUMP JUMPDEST SWAP1 POP PUSH2 0x5F6 DUP3 DUP3 PUSH2 0x5B0 JUMP JUMPDEST SWAP2 SWAP1 POP JUMP JUMPDEST PUSH0 PUSH8 0xFFFFFFFFFFFFFFFF DUP3 GT ISZERO PUSH2 0x615 JUMPI PUSH2 0x614 PUSH2 0x583 JUMP JUMPDEST JUMPDEST PUSH2 0x61E DUP3 PUSH2 0x573 JUMP JUMPDEST SWAP1 POP PUSH1 0x20 DUP2 ADD SWAP1 POP SWAP2 SWAP1 POP JUMP JUMPDEST DUP3 DUP2 DUP4 CALLDATACOPY PUSH0 DUP4 DUP4 ADD MSTORE POP POP POP JUMP JUMPDEST PUSH0 PUSH2 0x64B PUSH2 0x646 DUP5 PUSH2 0x5FB JUMP JUMPDEST PUSH2 0x5E1 JUMP JUMPDEST SWAP1 POP DUP3 DUP2 MSTORE PUSH1 0x20 DUP2 ADD DUP5 DUP5 DUP5 ADD GT ISZERO PUSH2 0x667 JUMPI PUSH2 0x666 PUSH2 0x56F JUMP JUMPDEST JUMPDEST PUSH2 0x672 DUP5 DUP3 DUP6 PUSH2 0x62B JUMP JUMPDEST POP SWAP4 SWAP3 POP POP POP JUMP JUMPDEST PUSH0 DUP3 PUSH1 0x1F DUP4 ADD SLT PUSH2 0x68E JUMPI PUSH2 0x68D PUSH2 0x56B JUMP JUMPDEST JUMPDEST DUP2 CALLDATALOAD PUSH2 0x69E DUP5 DUP3 PUSH1 0x20 DUP7 ADD PUSH2 0x639 JUMP JUMPDEST SWAP2 POP POP SWAP3 SWAP2 POP POP JUMP JUMPDEST PUSH0 PUSH0 PUSH1 0x40 DUP4 DUP6 SUB SLT ISZERO PUSH2 0x6BD JUMPI PUSH2 0x6BC PUSH2 0x509 JUMP JUMPDEST JUMPDEST PUSH0 PUSH2 0x6CA DUP6 DUP3 DUP7 ADD PUSH2 0x557 JUMP JUMPDEST SWAP3 POP POP PUSH1 0x20 DUP4 ADD CALLDATALOAD PUSH8 0xFFFFFFFFFFFFFFFF DUP2 GT ISZERO PUSH2 0x6EB JUMPI PUSH2 0x6EA PUSH2 0x50D JUMP JUMPDEST JUMPDEST PUSH2 0x6F7 DUP6 DUP3 DUP7 ADD PUSH2 0x67A JUMP JUMPDEST SWAP2 POP POP SWAP3 POP SWAP3 SWAP1 POP JUMP JUMPDEST PUSH0 PUSH2 0x70B DUP3 PUSH2 0x511 JUMP JUMPDEST SWAP1 POP SWAP2 SWAP1 POP JUMP JUMPDEST PUSH2 0x71B DUP2 PUSH2 0x701 JUMP JUMPDEST DUP3 MSTORE POP POP JUMP JUMPDEST PUSH0 PUSH1 0x20 DUP3 ADD SWAP1 POP PUSH2 0x734 PUSH0 DUP4 ADD DUP5 PUSH2 0x712 JUMP JUMPDEST SWAP3 SWAP2 POP POP JUMP JUMPDEST PUSH0 DUP2 MLOAD SWAP1 POP SWAP2 SWAP1 POP JUMP JUMPDEST PUSH0 DUP2 SWAP1 POP SWAP3 SWAP2 POP POP JUMP JUMPDEST DUP3 DUP2 DUP4 MCOPY PUSH0 DUP4 DUP4 ADD MSTORE POP POP POP JUMP JUMPDEST PUSH0 PUSH2 0x766 DUP3 PUSH2 0x73A JUMP JUMPDEST PUSH2 0x770 DUP2 DUP6 PUSH2 0x744 JUMP JUMPDEST SWAP4 POP PUSH2 0x780 DUP2 DUP6 PUSH1 0x20 DUP7 ADD PUSH2 0x74E JUMP JUMPDEST DUP1 DUP5 ADD SWAP2 POP POP SWAP3 SWAP2 POP POP JUMP JUMPDEST PUSH0 PUSH2 0x797 DUP3 DUP5 PUSH2 0x75C JUMP JUMPDEST SWAP2 POP DUP2 SWAP1 POP SWAP3 SWAP2 POP POP JUMP INVALID LOG2 PUSH5 0x6970667358 0x22 SLT KECCAK256 SELFDESTRUCT DATALOADN 0xC465 PUSH11 0x301D4101DE9B2F5BBDB8EA 0x2E DUP12 0xB4 SAR BLOBHASH CALLDATACOPY 0xCF 0xB4 0xC3 0x24 PUSH4 0xE0304D79 0xB5 PUSH5 0x736F6C6343 STOP ADDMOD 0x1E STOP CALLER PUSH1 0x80 PUSH1 0x40 MSTORE CALLVALUE DUP1 ISZERO PUSH2 0xF JUMPI PUSH0 PUSH0 REVERT JUMPDEST POP PUSH1 0x40 MLOAD PUSH2 0x9C6 CODESIZE SUB DUP1 PUSH2 0x9C6 DUP4 CODECOPY DUP2 DUP2 ADD PUSH1 0x40 MSTORE DUP2 ADD SWAP1 PUSH2 0x31 SWAP2 SWAP1 PUSH2 0x1D7 JUMP JUMPDEST DUP1 PUSH0 PUSH20 0xFFFFFFFFFFFFFFFFFFFFFFFFFFFFFFFFFFFFFFFF AND DUP2 PUSH20 0xFFFFFFFFFFFFFFFFFFFFFFFFFFFFFFFFFFFFFFFF AND SUB PUSH2 0xA2 JUMPI PUSH0 PUSH1 0x40 MLOAD PUSH32 0x1E4FBDF700000000000000000000000000000000000000000000000000000000 DUP2 MSTORE PUSH1 0x4 ADD PUSH2 0x99 SWAP2 SWAP1 PUSH2 0x211 JUMP JUMPDEST PUSH1 0x40 MLOAD DUP1 SWAP2 SUB SWAP1 REVERT JUMPDEST PUSH2 0xB1 DUP2 PUSH2 0xB8 PUSH1 0x20 SHL PUSH1 0x20 SHR JUMP JUMPDEST POP POP PUSH2 0x22A JUMP JUMPDEST PUSH0 PUSH0 PUSH0 SWAP1 SLOAD SWAP1 PUSH2 0x100 EXP SWAP1 DIV PUSH20 0xFFFFFFFFFFFFFFFFFFFFFFFFFFFFFFFFFFFFFFFF AND SWAP1 POP DUP2 PUSH0 PUSH0 PUSH2 0x100 EXP DUP2 SLOAD DUP2 PUSH20 0xFFFFFFFFFFFFFFFFFFFFFFFFFFFFFFFFFFFFFFFF MUL NOT AND SWAP1 DUP4 PUSH20 0xFFFFFFFFFFFFFFFFFFFFFFFFFFFFFFFFFFFFFFFF AND MUL OR SWAP1 SSTORE POP DUP2 PUSH20 0xFFFFFFFFFFFFFFFFFFFFFFFFFFFFFFFFFFFFFFFF AND DUP2 PUSH20 0xFFFFFFFFFFFFFFFFFFFFFFFFFFFFFFFFFFFFFFFF AND PUSH32 0x8BE0079C531659141344CD1FD0A4F28419497F9722A3DAAFE3B4186F6B6457E0 PUSH1 0x40 MLOAD PUSH1 0x40 MLOAD DUP1 SWAP2 SUB SWAP1 LOG3 POP POP JUMP JUMPDEST PUSH0 PUSH0 REVERT JUMPDEST PUSH0 PUSH20 0xFFFFFFFFFFFFFFFFFFFFFFFFFFFFFFFFFFFFFFFF DUP3 AND SWAP1 POP SWAP2 SWAP1 POP JUMP JUMPDEST PUSH0 PUSH2 0x1A6 DUP3 PUSH2 0x17D JUMP JUMPDEST SWAP1 POP SWAP2 SWAP1 POP JUMP JUMPDEST PUSH2 0x1B6 DUP2 PUSH2 0x19C JUMP JUMPDEST DUP2 EQ PUSH2 0x1C0 JUMPI PUSH0 PUSH0 REVERT JUMPDEST POP JUMP JUMPDEST PUSH0 DUP2 MLOAD SWAP1 POP PUSH2 0x1D1 DUP2 PUSH2 0x1AD JUMP JUMPDEST SWAP3 SWAP2 POP POP JUMP JUMPDEST PUSH0 PUSH1 0x20 DUP3 DUP5 SUB SLT ISZERO PUSH2 0x1EC JUMPI PUSH2 0x1EB PUSH2 0x179 JUMP JUMPDEST JUMPDEST PUSH0 PUSH2 0x1F9 DUP5 DUP3 DUP6 ADD PUSH2 0x1C3 JUMP JUMPDEST SWAP2 POP POP SWAP3 SWAP2 POP POP JUMP JUMPDEST PUSH2 0x20B DUP2 PUSH2 0x19C JUMP JUMPDEST DUP3 MSTORE POP POP JUMP JUMPDEST PUSH0 PUSH1 0x20 DUP3 ADD SWAP1 POP PUSH2 0x224 PUSH0 DUP4 ADD DUP5 PUSH2 0x202 JUMP JUMPDEST SWAP3 SWAP2 POP POP JUMP JUMPDEST PUSH2 0x78F DUP1 PUSH2 0x237 PUSH0 CODECOPY PUSH0 RETURN INVALID PUSH1 0x80 PUSH1 0x40 MSTORE PUSH1 0x4 CALLDATASIZE LT PUSH2 0x49 JUMPI PUSH0 CALLDATALOAD PUSH1 0xE0 SHR DUP1 PUSH4 0x715018A6 EQ PUSH2 0x4D JUMPI DUP1 PUSH4 0x8DA5CB5B EQ PUSH2 0x63 JUMPI DUP1 PUSH4 0x9623609D EQ PUSH2 0x8D JUMPI DUP1 PUSH4 0xAD3CB1CC EQ PUSH2 0xA9 JUMPI DUP1 PUSH4 0xF2FDE38B EQ PUSH2 0xD3 JUMPI JUMPDEST PUSH0 PUSH0 REVERT JUMPDEST CALLVALUE DUP1 ISZERO PUSH2 0x58 JUMPI PUSH0 PUSH0 REVERT JUMPDEST POP PUSH2 0x61 PUSH2 0xFB JUMP JUMPDEST STOP JUMPDEST CALLVALUE DUP1 ISZERO PUSH2 0x6E JUMPI PUSH0 PUSH0 REVERT JUMPDEST POP PUSH2 0x77 PUSH2 0x10E JUMP JUMPDEST PUSH1 0x40 MLOAD PUSH2 0x84 SWAP2 SWAP1 PUSH2 0x3F7 JUMP JUMPDEST PUSH1 0x40 MLOAD DUP1 SWAP2 SUB SWAP1 RETURN JUMPDEST PUSH2 0xA7 PUSH1 0x4 DUP1 CALLDATASIZE SUB DUP2 ADD SWAP1 PUSH2 0xA2 SWAP2 SWAP1 PUSH2 0x5C2 JUMP JUMPDEST PUSH2 0x135 JUMP JUMPDEST STOP JUMPDEST CALLVALUE DUP1 ISZERO PUSH2 0xB4 JUMPI PUSH0 PUSH0 REVERT JUMPDEST POP PUSH2 0xBD PUSH2 0x1AC JUMP JUMPDEST PUSH1 0x40 MLOAD PUSH2 0xCA SWAP2 SWAP1 PUSH2 0x68E JUMP JUMPDEST PUSH1 0x40 MLOAD DUP1 SWAP2 SUB SWAP1 RETURN JUMPDEST CALLVALUE DUP1 ISZERO PUSH2 0xDE JUMPI PUSH0 PUSH0 REVERT JUMPDEST POP PUSH2 0xF9 PUSH1 0x4 DUP1 CALLDATASIZE SUB DUP2 ADD SWAP1 PUSH2 0xF4 SWAP2 SWAP1 PUSH2 0x6AE JUMP JUMPDEST PUSH2 0x1E5 JUMP JUMPDEST STOP JUMPDEST PUSH2 0x103 PUSH2 0x269 JUMP JUMPDEST PUSH2 0x10C PUSH0 PUSH2 0x2F0 JUMP JUMPDEST JUMP JUMPDEST PUSH0 PUSH0 PUSH0 SWAP1 SLOAD SWAP1 PUSH2 0x100 EXP SWAP1 DIV PUSH20 0xFFFFFFFFFFFFFFFFFFFFFFFFFFFFFFFFFFFFFFFF AND SWAP1 POP SWAP1 JUMP JUMPDEST PUSH2 0x13D PUSH2 0x269 JUMP JUMPDEST DUP3 PUSH20 0xFFFFFFFFFFFFFFFFFFFFFFFFFFFFFFFFFFFFFFFF AND PUSH4 0x4F1EF286 CALLVALUE DUP5 DUP5 PUSH1 0x40 MLOAD DUP5 PUSH4 0xFFFFFFFF AND PUSH1 0xE0 SHL DUP2 MSTORE PUSH1 0x4 ADD PUSH2 0x179 SWAP3 SWAP2 SWAP1 PUSH2 0x72B JUMP JUMPDEST PUSH0 PUSH1 0x40 MLOAD DUP1 DUP4 SUB DUP2 DUP6 DUP9 DUP1 EXTCODESIZE ISZERO DUP1 ISZERO PUSH2 0x190 JUMPI PUSH0 PUSH0 REVERT JUMPDEST POP GAS CALL ISZERO DUP1 ISZERO PUSH2 0x1A2 JUMPI RETURNDATASIZE PUSH0 PUSH0 RETURNDATACOPY RETURNDATASIZE PUSH0 REVERT JUMPDEST POP POP POP POP POP POP POP POP JUMP JUMPDEST PUSH1 0x40 MLOAD DUP1 PUSH1 0x40 ADD PUSH1 0x40 MSTORE DUP1 PUSH1 0x5 DUP2 MSTORE PUSH1 0x20 ADD PUSH32 0x352E302E30000000000000000000000000000000000000000000000000000000 DUP2 MSTORE POP DUP2 JUMP JUMPDEST PUSH2 0x1ED PUSH2 0x269 JUMP JUMPDEST PUSH0 PUSH20 0xFFFFFFFFFFFFFFFFFFFFFFFFFFFFFFFFFFFFFFFF AND DUP2 PUSH20 0xFFFFFFFFFFFFFFFFFFFFFFFFFFFFFFFFFFFFFFFF AND SUB PUSH2 0x25D JUMPI PUSH0 PUSH1 0x40 MLOAD PUSH32 0x1E4FBDF700000000000000000000000000000000000000000000000000000000 DUP2 MSTORE PUSH1 0x4 ADD PUSH2 0x254 SWAP2 SWAP1 PUSH2 0x3F7 JUMP JUMPDEST PUSH1 0x40 MLOAD DUP1 SWAP2 SUB SWAP1 REVERT JUMPDEST PUSH2 0x266 DUP2 PUSH2 0x2F0 JUMP JUMPDEST POP JUMP JUMPDEST PUSH2 0x271 PUSH2 0x3B1 JUMP JUMPDEST PUSH20 0xFFFFFFFFFFFFFFFFFFFFFFFFFFFFFFFFFFFFFFFF AND PUSH2 0x28F PUSH2 0x10E JUMP JUMPDEST PUSH20 0xFFFFFFFFFFFFFFFFFFFFFFFFFFFFFFFFFFFFFFFF AND EQ PUSH2 0x2EE JUMPI PUSH2 0x2B2 PUSH2 0x3B1 JUMP JUMPDEST PUSH1 0x40 MLOAD PUSH32 0x118CDAA700000000000000000000000000000000000000000000000000000000 DUP2 MSTORE PUSH1 0x4 ADD PUSH2 0x2E5 SWAP2 SWAP1 PUSH2 0x3F7 JUMP JUMPDEST PUSH1 0x40 MLOAD DUP1 SWAP2 SUB SWAP1 REVERT JUMPDEST JUMP JUMPDEST PUSH0 PUSH0 PUSH0 SWAP1 SLOAD SWAP1 PUSH2 0x100 EXP SWAP1 DIV PUSH20 0xFFFFFFFFFFFFFFFFFFFFFFFFFFFFFFFFFFFFFFFF AND SWAP1 POP DUP2 PUSH0 PUSH0 PUSH2 0x100 EXP DUP2 SLOAD DUP2 PUSH20 0xFFFFFFFFFFFFFFFFFFFFFFFFFFFFFFFFFFFFFFFF MUL NOT AND SWAP1 DUP4 PUSH20 0xFFFFFFFFFFFFFFFFFFFFFFFFFFFFFFFFFFFFFFFF AND MUL OR SWAP1 SSTORE POP DUP2 PUSH20 0xFFFFFFFFFFFFFFFFFFFFFFFFFFFFFFFFFFFFFFFF AND DUP2 PUSH20 0xFFFFFFFFFFFFFFFFFFFFFFFFFFFFFFFFFFFFFFFF AND PUSH32 0x8BE0079C531659141344CD1FD0A4F28419497F9722A3DAAFE3B4186F6B6457E0 PUSH1 0x40 MLOAD PUSH1 0x40 MLOAD DUP1 SWAP2 SUB SWAP1 LOG3 POP POP JUMP JUMPDEST PUSH0 CALLER SWAP1 POP SWAP1 JUMP JUMPDEST PUSH0 PUSH20 0xFFFFFFFFFFFFFFFFFFFFFFFFFFFFFFFFFFFFFFFF DUP3 AND SWAP1 POP SWAP2 SWAP1 POP JUMP JUMPDEST PUSH0 PUSH2 0x3E1 DUP3 PUSH2 0x3B8 JUMP JUMPDEST SWAP1 POP SWAP2 SWAP1 POP JUMP JUMPDEST PUSH2 0x3F1 DUP2 PUSH2 0x3D7 JUMP JUMPDEST DUP3 MSTORE POP POP JUMP JUMPDEST PUSH0 PUSH1 0x20 DUP3 ADD SWAP1 POP PUSH2 0x40A PUSH0 DUP4 ADD DUP5 PUSH2 0x3E8 JUMP JUMPDEST SWAP3 SWAP2 POP POP JUMP JUMPDEST PUSH0 PUSH1 0x40 MLOAD SWAP1 POP SWAP1 JUMP JUMPDEST PUSH0 PUSH0 REVERT JUMPDEST PUSH0 PUSH0 REVERT JUMPDEST PUSH0 PUSH2 0x42B DUP3 PUSH2 0x3D7 JUMP JUMPDEST SWAP1 POP SWAP2 SWAP1 POP JUMP JUMPDEST PUSH2 0x43B DUP2 PUSH2 0x421 JUMP JUMPDEST DUP2 EQ PUSH2 0x445 JUMPI PUSH0 PUSH0 REVERT JUMPDEST POP JUMP JUMPDEST PUSH0 DUP2 CALLDATALOAD SWAP1 POP PUSH2 0x456 DUP2 PUSH2 0x432 JUMP JUMPDEST SWAP3 SWAP2 POP POP JUMP JUMPDEST PUSH2 0x465 DUP2 PUSH2 0x3D7 JUMP JUMPDEST DUP2 EQ PUSH2 0x46F JUMPI PUSH0 PUSH0 REVERT JUMPDEST POP JUMP JUMPDEST PUSH0 DUP2 CALLDATALOAD SWAP1 POP PUSH2 0x480 DUP2 PUSH2 0x45C JUMP JUMPDEST SWAP3 SWAP2 POP POP JUMP JUMPDEST PUSH0 PUSH0 REVERT JUMPDEST PUSH0 PUSH0 REVERT JUMPDEST PUSH0 PUSH1 0x1F NOT PUSH1 0x1F DUP4 ADD AND SWAP1 POP SWAP2 SWAP1 POP JUMP JUMPDEST PUSH32 0x4E487B7100000000000000000000000000000000000000000000000000000000 PUSH0 MSTORE PUSH1 0x41 PUSH1 0x4 MSTORE PUSH1 0x24 PUSH0 REVERT JUMPDEST PUSH2 0x4D4 DUP3 PUSH2 0x48E JUMP JUMPDEST DUP2 ADD DUP2 DUP2 LT PUSH8 0xFFFFFFFFFFFFFFFF DUP3 GT OR ISZERO PUSH2 0x4F3 JUMPI PUSH2 0x4F2 PUSH2 0x49E JUMP JUMPDEST JUMPDEST DUP1 PUSH1 0x40 MSTORE POP POP POP JUMP JUMPDEST PUSH0 PUSH2 0x505 PUSH2 0x410 JUMP JUMPDEST SWAP1 POP PUSH2 0x511 DUP3 DUP3 PUSH2 0x4CB JUMP JUMPDEST SWAP2 SWAP1 POP JUMP JUMPDEST PUSH0 PUSH8 0xFFFFFFFFFFFFFFFF DUP3 GT ISZERO PUSH2 0x530 JUMPI PUSH2 0x52F PUSH2 0x49E JUMP JUMPDEST JUMPDEST PUSH2 0x539 DUP3 PUSH2 0x48E JUMP JUMPDEST SWAP1 POP PUSH1 0x20 DUP2 ADD SWAP1 POP SWAP2 SWAP1 POP JUMP JUMPDEST DUP3 DUP2 DUP4 CALLDATACOPY PUSH0 DUP4 DUP4 ADD MSTORE POP POP POP JUMP JUMPDEST PUSH0 PUSH2 0x566 PUSH2 0x561 DUP5 PUSH2 0x516 JUMP JUMPDEST PUSH2 0x4FC JUMP JUMPDEST SWAP1 POP DUP3 DUP2 MSTORE PUSH1 0x20 DUP2 ADD DUP5 DUP5 DUP5 ADD GT ISZERO PUSH2 0x582 JUMPI PUSH2 0x581 PUSH2 0x48A JUMP JUMPDEST JUMPDEST PUSH2 0x58D DUP5 DUP3 DUP6 PUSH2 0x546 JUMP JUMPDEST POP SWAP4 SWAP3 POP POP POP JUMP JUMPDEST PUSH0 DUP3 PUSH1 0x1F DUP4 ADD SLT PUSH2 0x5A9 JUMPI PUSH2 0x5A8 PUSH2 0x486 JUMP JUMPDEST JUMPDEST DUP2 CALLDATALOAD PUSH2 0x5B9 DUP5 DUP3 PUSH1 0x20 DUP7 ADD PUSH2 0x554 JUMP JUMPDEST SWAP2 POP POP SWAP3 SWAP2 POP POP JUMP JUMPDEST PUSH0 PUSH0 PUSH0 PUSH1 0x60 DUP5 DUP7 SUB SLT ISZERO PUSH2 0x5D9 JUMPI PUSH2 0x5D8 PUSH2 0x419 JUMP JUMPDEST JUMPDEST PUSH0 PUSH2 0x5E6 DUP7 DUP3 DUP8 ADD PUSH2 0x448 JUMP JUMPDEST SWAP4 POP POP PUSH1 0x20 PUSH2 0x5F7 DUP7 DUP3 DUP8 ADD PUSH2 0x472 JUMP JUMPDEST SWAP3 POP POP PUSH1 0x40 DUP5 ADD CALLDATALOAD PUSH8 0xFFFFFFFFFFFFFFFF DUP2 GT ISZERO PUSH2 0x618 JUMPI PUSH2 0x617 PUSH2 0x41D JUMP JUMPDEST JUMPDEST PUSH2 0x624 DUP7 DUP3 DUP8 ADD PUSH2 0x595 JUMP JUMPDEST SWAP2 POP POP SWAP3 POP SWAP3 POP SWAP3 JUMP JUMPDEST PUSH0 DUP2 MLOAD SWAP1 POP SWAP2 SWAP1 POP JUMP JUMPDEST PUSH0 DUP3 DUP3 MSTORE PUSH1 0x20 DUP3 ADD SWAP1 POP SWAP3 SWAP2 POP POP JUMP JUMPDEST DUP3 DUP2 DUP4 MCOPY PUSH0 DUP4 DUP4 ADD MSTORE POP POP POP JUMP JUMPDEST PUSH0 PUSH2 0x660 DUP3 PUSH2 0x62E JUMP JUMPDEST PUSH2 0x66A DUP2 DUP6 PUSH2 0x638 JUMP JUMPDEST SWAP4 POP PUSH2 0x67A DUP2 DUP6 PUSH1 0x20 DUP7 ADD PUSH2 0x648 JUMP JUMPDEST PUSH2 0x683 DUP2 PUSH2 0x48E JUMP JUMPDEST DUP5 ADD SWAP2 POP POP SWAP3 SWAP2 POP POP JUMP JUMPDEST PUSH0 PUSH1 0x20 DUP3 ADD SWAP1 POP DUP2 DUP2 SUB PUSH0 DUP4 ADD MSTORE PUSH2 0x6A6 DUP2 DUP5 PUSH2 0x656 JUMP JUMPDEST SWAP1 POP SWAP3 SWAP2 POP POP JUMP JUMPDEST PUSH0 PUSH1 0x20 DUP3 DUP5 SUB SLT ISZERO PUSH2 0x6C3 JUMPI PUSH2 0x6C2 PUSH2 0x419 JUMP JUMPDEST JUMPDEST PUSH0 PUSH2 0x6D0 DUP5 DUP3 DUP6 ADD PUSH2 0x472 JUMP JUMPDEST SWAP2 POP POP SWAP3 SWAP2 POP POP JUMP JUMPDEST PUSH0 DUP2 MLOAD SWAP1 POP SWAP2 SWAP1 POP JUMP JUMPDEST PUSH0 DUP3 DUP3 MSTORE PUSH1 0x20 DUP3 ADD SWAP1 POP SWAP3 SWAP2 POP POP JUMP JUMPDEST PUSH0 PUSH2 0x6FD DUP3 PUSH2 0x6D9 JUMP JUMPDEST PUSH2 0x707 DUP2 DUP6 PUSH2 0x6E3 JUMP JUMPDEST SWAP4 POP PUSH2 0x717 DUP2 DUP6 PUSH1 0x20 DUP7 ADD PUSH2 0x648 JUMP JUMPDEST PUSH2 0x720 DUP2 PUSH2 0x48E JUMP JUMPDEST DUP5 ADD SWAP2 POP POP SWAP3 SWAP2 POP POP JUMP JUMPDEST PUSH0 PUSH1 0x40 DUP3 ADD SWAP1 POP PUSH2 0x73E PUSH0 DUP4 ADD DUP6 PUSH2 0x3E8 JUMP JUMPDEST DUP2 DUP2 SUB PUSH1 0x20 DUP4 ADD MSTORE PUSH2 0x750 DUP2 DUP5 PUSH2 0x6F3 JUMP JUMPDEST SWAP1 POP SWAP4 SWAP3 POP POP POP JUMP INVALID LOG2 PUSH5 0x6970667358 0x22 SLT KECCAK256 BLOBHASH 0x2A 0xE 0xC0 0x2A DATALOADN 0xD17A 0xB1 0x2A CHAINID 0x1F SHR PUSH2 0x34EC 0xBF 0xB7 DUP6 DUP2 0xA6 DUP4 SELFDESTRUCT 0xCD 0xCC PUSH0 JUMP DUP2 0x23 0xB1 SWAP8 MSTORE8 PUSH5 0x736F6C6343 STOP ADDMOD 0x1E STOP CALLER LOG2 PUSH5 0x6970667358 0x22 SLT KECCAK256 RETURNDATASIZE 0xC5 INVALID 0xA8 PUSH27 0x72B96DDD30A1E3A92179D2DFF2FF385B93BCF7C7DD1500D7DBA162 PUSH5 0x736F6C6343 STOP ADDMOD 0x1E STOP CALLER "
		},
		"gasEstimates": {
			"creation": {
				"codeDepositCost": "1513000",
				"executionCost": "1580",
				"totalCost": "1514580"
			},
			"external": {
				"deploy(address,address,bytes)": "infinite"
			}
		},
		"methodIdentifiers": {
			"deploy(address,address,bytes)": "2db5b86f"
		}
	},
	"abi": [
		{
			"inputs": [
				{
					"internalType": "address",
					"name": "_logic",
					"type": "address"
				},
				{
					"internalType": "address",
					"name": "_admin",
					"type": "address"
				},
				{
					"internalType": "bytes",
					"name": "_data",
					"type": "bytes"
				}
			],
			"name": "deploy",
			"outputs": [
				{
					"internalType": "address",
					"name": "",
					"type": "address"
				}
			],
			"stateMutability": "nonpayable",
			"type": "function"
		}
	]
}