{
	"data": {
		"bytecode": {
			"linkReferences": {},
			"object": "60c06040526005600b556005600c55600a600d55601e600e556032600f5560646015555f601655662386f26fc100006018556032601a5562030d40601e5f6101000a81548163ffffffff021916908363ffffffff1602179055506003601e60046101000a81548161ffff021916908361ffff160217905550348015610082575f5ffd5b50604051615fc3380380615fc383398181016040528101906100a491906106d3565b84335f73ffffffffffffffffffffffffffffffffffffffff168173ffffffffffffffffffffffffffffffffffffffff1603610116575f6040517f1e4fbdf700000000000000000000000000000000000000000000000000000000815260040161010d91906107a6565b60405180910390fd5b610125816104d660201b60201c565b50600180819055508073ffffffffffffffffffffffffffffffffffffffff1660808173ffffffffffffffffffffffffffffffffffffffff1681525050505f73ffffffffffffffffffffffffffffffffffffffff168973ffffffffffffffffffffffffffffffffffffffff16036101d0576040517f08c379a00000000000000000000000000000000000000000000000000000000081526004016101c790610819565b60405180910390fd5b5f73ffffffffffffffffffffffffffffffffffffffff168873ffffffffffffffffffffffffffffffffffffffff161415801561023857505f73ffffffffffffffffffffffffffffffffffffffff168773ffffffffffffffffffffffffffffffffffffffff1614155b801561027057505f73ffffffffffffffffffffffffffffffffffffffff168673ffffffffffffffffffffffffffffffffffffffff1614155b6102af576040517f08c379a00000000000000000000000000000000000000000000000000000000081526004016102a690610881565b60405180910390fd5b5f73ffffffffffffffffffffffffffffffffffffffff168273ffffffffffffffffffffffffffffffffffffffff160361031d576040517f08c379a0000000000000000000000000000000000000000000000000000000008152600401610314906108e9565b60405180910390fd5b8873ffffffffffffffffffffffffffffffffffffffff1660a08173ffffffffffffffffffffffffffffffffffffffff16815250508760125f6101000a81548173ffffffffffffffffffffffffffffffffffffffff021916908373ffffffffffffffffffffffffffffffffffffffff1602179055508660135f6101000a81548173ffffffffffffffffffffffffffffffffffffffff021916908373ffffffffffffffffffffffffffffffffffffffff1602179055508560145f6101000a81548173ffffffffffffffffffffffffffffffffffffffff021916908373ffffffffffffffffffffffffffffffffffffffff16021790555084601c5f6101000a81548173ffffffffffffffffffffffffffffffffffffffff021916908373ffffffffffffffffffffffffffffffffffffffff16021790555083601c60146101000a81548167ffffffffffffffff021916908367ffffffffffffffff16021790555082601d819055508160175f6101000a81548173ffffffffffffffffffffffffffffffffffffffff021916908373ffffffffffffffffffffffffffffffffffffffff16021790555080600481905550505050505050505050610907565b5f5f5f9054906101000a900473ffffffffffffffffffffffffffffffffffffffff169050815f5f6101000a81548173ffffffffffffffffffffffffffffffffffffffff021916908373ffffffffffffffffffffffffffffffffffffffff1602179055508173ffffffffffffffffffffffffffffffffffffffff168173ffffffffffffffffffffffffffffffffffffffff167f8be0079c531659141344cd1fd0a4f28419497f9722a3daafe3b4186f6b6457e060405160405180910390a35050565b5f5ffd5b5f73ffffffffffffffffffffffffffffffffffffffff82169050919050565b5f6105c48261059b565b9050919050565b5f6105d5826105ba565b9050919050565b6105e5816105cb565b81146105ef575f5ffd5b50565b5f81519050610600816105dc565b92915050565b61060f816105ba565b8114610619575f5ffd5b50565b5f8151905061062a81610606565b92915050565b5f67ffffffffffffffff82169050919050565b61064c81610630565b8114610656575f5ffd5b50565b5f8151905061066781610643565b92915050565b5f819050919050565b61067f8161066d565b8114610689575f5ffd5b50565b5f8151905061069a81610676565b92915050565b5f819050919050565b6106b2816106a0565b81146106bc575f5ffd5b50565b5f815190506106cd816106a9565b92915050565b5f5f5f5f5f5f5f5f5f6101208a8c0312156106f1576106f0610597565b5b5f6106fe8c828d016105f2565b995050602061070f8c828d0161061c565b98505060406107208c828d0161061c565b97505060606107318c828d0161061c565b96505060806107428c828d0161061c565b95505060a06107538c828d01610659565b94505060c06107648c828d0161068c565b93505060e06107758c828d0161061c565b9250506101006107878c828d016106bf565b9150509295985092959850929598565b6107a0816105ba565b82525050565b5f6020820190506107b95f830184610797565b92915050565b5f82825260208201905092915050565b7f7a65726f20746f6b656e000000000000000000000000000000000000000000005f82015250565b5f610803600a836107bf565b915061080e826107cf565b602082019050919050565b5f6020820190508181035f830152610830816107f7565b9050919050565b7f7a65726f2077616c6c65747300000000000000000000000000000000000000005f82015250565b5f61086b600c836107bf565b915061087682610837565b602082019050919050565b5f6020820190508181035f8301526108988161085f565b9050919050565b7f7a65726f206b65657065720000000000000000000000000000000000000000005f82015250565b5f6108d3600b836107bf565b91506108de8261089f565b602082019050919050565b5f6020820190508181035f830152610900816108c7565b9050919050565b60805160a05161565561096e5f395f81816111cd0152818161153e01528181611f37015281816125b3015281816129a301528181612a4301528181612a8c015281816139f601528181613a6b0152613ae001525f818161126e01526112c201526156555ff3fe60806040526004361061038f575f3560e01c8063748747e6116101db578063ab0fc1a211610101578063df242d7d1161009f578063f2fde38b1161006e578063f2fde38b14610cf6578063f4daaba114610d1e578063f7cb789a14610d48578063fc3c28af14610d725761043e565b8063df242d7d14610c3c578063e091a29714610c78578063e712c29814610ca2578063ed647d2114610ccc5761043e565b8063cf00d4b9116100db578063cf00d4b914610b82578063d5aa06fa14610bac578063dd4f8f7414610be8578063dd60c89814610c125761043e565b8063ab0fc1a214610b04578063aced166114610b2e578063bf38063114610b585761043e565b806389294346116101795780638da5cb5b116101485780638da5cb5b14610a5e5780638ea5220f14610a885780639e1ada0414610ab2578063a6ac4b3514610ada5761043e565b806389294346146109a35780638a19c8bc146109cb5780638c178e42146109f55780638c65c81f14610a1d5761043e565b80637fd7f412116101b55780637fd7f4121461091d57806382ddbb30146109475780638456cb591461095157806387b18a52146109675761043e565b8063748747e6146108a557806375cb1bd1146108cd5780637b0472f0146108f55761043e565b80633b7ed734116102c05780635e38ca701161025e578063715018a61161022d578063715018a614610811578063719a59d814610827578063719ce73e1461085157806372f702f31461087b5761043e565b80635e38ca701461079357806362581733146107bb5780636303516c146107d1578063656fe8ef146107fb5761043e565b8063576f35e31161029a578063576f35e3146106ed578063598bc486146107155780635aa68ac01461073f5780635c975abb146107695761043e565b80633b7ed734146106835780633f4ba83a146106ad578063461dbda0146106c35761043e565b80631fe543e31161032d5780633243fb89116103075780633243fb89146105df57806332d368ce1461061b57806336c92c3f1461064557806339d987231461066d5761043e565b80631fe543e314610577578063259b8af71461059f5780632def6620146105c95761043e565b8063062287491161036957806306228749146104be578063083b9137146104e85780630e135aa1146105245780630f4863f7146105615761043e565b806303807ee514610442578063041d443e1461046c57806304ab9f03146104965761043e565b3661043e575f34116103d6576040517f08c379a00000000000000000000000000000000000000000000000000000000081526004016103cd90613dc1565b60405180910390fd5b3460195f8282546103e79190613e15565b925050819055503373ffffffffffffffffffffffffffffffffffffffff167f32fb8666fb8614c76ba83b694a0c60f4ee5699886bfe56001aa48337fbb134ff346040516104349190613e57565b60405180910390a2005b5f5ffd5b34801561044d575f5ffd5b50610456610d9c565b6040516104639190613e57565b60405180910390f35b348015610477575f5ffd5b50610480610da2565b60405161048d9190613e88565b60405180910390f35b3480156104a1575f5ffd5b506104bc60048036038101906104b79190613edc565b610da8565b005b3480156104c9575f5ffd5b506104d2610fc6565b6040516104df9190613f59565b60405180910390f35b3480156104f3575f5ffd5b5061050e60048036038101906105099190613f9c565b610feb565b60405161051b9190613e57565b60405180910390f35b34801561052f575f5ffd5b5061054a60048036038101906105459190613f9c565b611000565b604051610558929190613fc7565b60405180910390f35b34801561056c575f5ffd5b50610575611020565b005b348015610582575f5ffd5b5061059d6004803603810190610598919061413e565b61126c565b005b3480156105aa575f5ffd5b506105b361132c565b6040516105c09190613e57565b60405180910390f35b3480156105d4575f5ffd5b506105dd611332565b005b3480156105ea575f5ffd5b5061060560048036038101906106009190614198565b6115dc565b6040516106129190613e57565b60405180910390f35b348015610626575f5ffd5b5061062f6115f6565b60405161063c9190613e57565b60405180910390f35b348015610650575f5ffd5b5061066b60048036038101906106669190614198565b6115fc565b005b348015610678575f5ffd5b50610681611652565b005b34801561068e575f5ffd5b50610697611fda565b6040516106a491906141e1565b60405180910390f35b3480156106b8575f5ffd5b506106c1611fef565b005b3480156106ce575f5ffd5b506106d7612055565b6040516106e49190614214565b60405180910390f35b3480156106f8575f5ffd5b50610713600480360381019061070e9190614198565b612068565b005b348015610720575f5ffd5b506107296120ca565b6040516107369190614249565b60405180910390f35b34801561074a575f5ffd5b506107536120de565b6040516107609190614319565b60405180910390f35b348015610774575f5ffd5b5061077d612169565b60405161078a9190614214565b60405180910390f35b34801561079e575f5ffd5b506107b960048036038101906107b49190614339565b61217a565b005b3480156107c6575f5ffd5b506107cf61229e565b005b3480156107dc575f5ffd5b506107e56123af565b6040516107f29190613f59565b60405180910390f35b348015610806575f5ffd5b5061080f6123d4565b005b34801561081c575f5ffd5b50610825612592565b005b348015610832575f5ffd5b5061083b6125a5565b6040516108489190613e57565b60405180910390f35b34801561085c575f5ffd5b506108656125ab565b6040516108729190613e57565b60405180910390f35b348015610886575f5ffd5b5061088f6125b1565b60405161089c919061440b565b60405180910390f35b3480156108b0575f5ffd5b506108cb60048036038101906108c69190613f9c565b6125d5565b005b3480156108d8575f5ffd5b506108f360048036038101906108ee9190614424565b6126d3565b005b348015610900575f5ffd5b5061091b60048036038101906109169190613edc565b6128ba565b005b348015610928575f5ffd5b50610931612d10565b60405161093e9190613e57565b60405180910390f35b61094f613036565b005b34801561095c575f5ffd5b506109656130e8565b005b348015610972575f5ffd5b5061098d60048036038101906109889190614198565b61314f565b60405161099a9190613e57565b60405180910390f35b3480156109ae575f5ffd5b506109c960048036038101906109c49190614198565b613164565b005b3480156109d6575f5ffd5b506109df61325e565b6040516109ec9190613e57565b60405180910390f35b348015610a00575f5ffd5b50610a1b6004803603810190610a169190614198565b613264565b005b348015610a28575f5ffd5b50610a436004803603810190610a3e9190614198565b613276565b604051610a5596959493929190614474565b60405180910390f35b348015610a69575f5ffd5b50610a726132c7565b604051610a7f9190613f59565b60405180910390f35b348015610a93575f5ffd5b50610a9c6132ee565b604051610aa99190613f59565b60405180910390f35b348015610abd575f5ffd5b50610ad86004803603810190610ad39190614198565b613313565b005b348015610ae5575f5ffd5b50610aee613367565b604051610afb9190614214565b60405180910390f35b348015610b0f575f5ffd5b50610b18613379565b604051610b259190613e57565b60405180910390f35b348015610b39575f5ffd5b50610b4261337f565b604051610b4f9190613f59565b60405180910390f35b348015610b63575f5ffd5b50610b6c6133a4565b604051610b799190613e57565b60405180910390f35b348015610b8d575f5ffd5b50610b966133aa565b604051610ba39190613e57565b60405180910390f35b348015610bb7575f5ffd5b50610bd26004803603810190610bcd9190614198565b6133b0565b604051610bdf9190613e57565b60405180910390f35b348015610bf3575f5ffd5b50610bfc6133c5565b604051610c099190613e57565b60405180910390f35b348015610c1d575f5ffd5b50610c266133cb565b604051610c339190613e57565b60405180910390f35b348015610c47575f5ffd5b50610c626004803603810190610c5d9190614198565b6133d7565b604051610c6f9190613e57565b60405180910390f35b348015610c83575f5ffd5b50610c8c6133ec565b604051610c999190613e57565b60405180910390f35b348015610cad575f5ffd5b50610cb66133f2565b604051610cc39190613e57565b60405180910390f35b348015610cd7575f5ffd5b50610ce06133f8565b604051610ced91906144f5565b60405180910390f35b348015610d01575f5ffd5b50610d1c6004803603810190610d179190613f9c565b613412565b005b348015610d29575f5ffd5b50610d32613496565b604051610d3f9190613e57565b60405180910390f35b348015610d53575f5ffd5b50610d5c61349c565b604051610d699190613e57565b60405180910390f35b348015610d7d575f5ffd5b50610d866134a2565b604051610d939190613e57565b60405180910390f35b600d5481565b601d5481565b610db06134a8565b60028054906101000a900460ff1615610dfe576040517f08c379a0000000000000000000000000000000000000000000000000000000008152600401610df590614558565b60405180910390fd5b5f600a5f8481526020019081526020015f206003015411610e54576040517f08c379a0000000000000000000000000000000000000000000000000000000008152600401610e4b906145c0565b60405180910390fd5b600a5f8381526020019081526020015f206004015f9054906101000a900460ff1615610eb5576040517f08c379a0000000000000000000000000000000000000000000000000000000008152600401610eac90614628565b60405180910390fd5b611388600a5f8481526020019081526020015f2060030154610ed79190613e15565b4311610f18576040517f08c379a0000000000000000000000000000000000000000000000000000000008152600401610f0f90614690565b60405180910390fd5b80600a5f8481526020019081526020015f20600201819055506001600a5f8481526020019081526020015f206004015f6101000a81548160ff0219169083151502179055506001600a5f8481526020019081526020015f2060040160016101000a81548160ff021916908315150217905550817f76761cd2ac8a3ab5c212ebb1cb80967d1bdf2a8eb8531f5cbeca46bcbfebc5a082604051610fba9190613e57565b60405180910390a25050565b60145f9054906101000a900473ffffffffffffffffffffffffffffffffffffffff1681565b6008602052805f5260405f205f915090505481565b6007602052805f5260405f205f91509050805f0154908060010154905082565b61102861352f565b60028054906101000a900460ff1615611076576040517f08c379a000000000000000000000000000000000000000000000000000000000815260040161106d90614558565b60405180910390fd5b5f60075f3373ffffffffffffffffffffffffffffffffffffffff1673ffffffffffffffffffffffffffffffffffffffff1681526020019081526020015f206001015490505f60016003546110ca91906146ae565b905081811161110e576040517f08c379a00000000000000000000000000000000000000000000000000000000081526004016111059061472b565b60405180910390fd5b5f60095f8481526020019081526020015f205460095f8481526020019081526020015f205461113d91906146ae565b90505f8111611181576040517f08c379a000000000000000000000000000000000000000000000000000000000815260040161117890614793565b60405180910390fd5b8160075f3373ffffffffffffffffffffffffffffffffffffffff1673ffffffffffffffffffffffffffffffffffffffff1681526020019081526020015f206001018190555061121133827f000000000000000000000000000000000000000000000000000000000000000073ffffffffffffffffffffffffffffffffffffffff1661357e9092919063ffffffff16565b3373ffffffffffffffffffffffffffffffffffffffff167ffc30cddea38e2bf4d6ea7d3f9ed3b6ad7f176419f4963bd81318067a4aee73fe826040516112579190613e57565b60405180910390a250505061126a6135fd565b565b7f000000000000000000000000000000000000000000000000000000000000000073ffffffffffffffffffffffffffffffffffffffff163373ffffffffffffffffffffffffffffffffffffffff161461131e57337f00000000000000000000000000000000000000000000000000000000000000006040517f1cf993f40000000000000000000000000000000000000000000000000000000081526004016113159291906147b1565b60405180910390fd5b6113288282613606565b5050565b600e5481565b61133a61352f565b60028054906101000a900460ff1615611388576040517f08c379a000000000000000000000000000000000000000000000000000000000815260040161137f90614558565b60405180910390fd5b60025f9054906101000a900460ff166113d6576040517f08c379a00000000000000000000000000000000000000000000000000000000081526004016113cd90614822565b60405180910390fd5b5f60075f3373ffffffffffffffffffffffffffffffffffffffff1673ffffffffffffffffffffffffffffffffffffffff1681526020019081526020015f205f015490505f811161145b576040517f08c379a00000000000000000000000000000000000000000000000000000000081526004016114529061488a565b60405180910390fd5b5f60085f3373ffffffffffffffffffffffffffffffffffffffff1673ffffffffffffffffffffffffffffffffffffffff1681526020019081526020015f205490505f81116114de576040517f08c379a00000000000000000000000000000000000000000000000000000000081526004016114d5906148f2565b60405180910390fd5b6114f36001826114ee91906146ae565b613713565b5f60075f3373ffffffffffffffffffffffffffffffffffffffff1673ffffffffffffffffffffffffffffffffffffffff1681526020019081526020015f205f018190555061158233837f000000000000000000000000000000000000000000000000000000000000000073ffffffffffffffffffffffffffffffffffffffff1661357e9092919063ffffffff16565b3373ffffffffffffffffffffffffffffffffffffffff167f0f5bb82176feb1b5e747e28471aa92156a04d9f3ab9f45f28e2d704232b93f75836040516115c89190613e57565b60405180910390a250506115da6135fd565b565b5f60095f8381526020019081526020015f20549050919050565b60195481565b6116046134a8565b603c811015611648576040517f08c379a000000000000000000000000000000000000000000000000000000000815260040161163f9061495a565b60405180910390fd5b8060048190555050565b61165a61352f565b60175f9054906101000a900473ffffffffffffffffffffffffffffffffffffffff1673ffffffffffffffffffffffffffffffffffffffff163373ffffffffffffffffffffffffffffffffffffffff16146116e9576040517f08c379a00000000000000000000000000000000000000000000000000000000081526004016116e0906149c2565b60405180910390fd5b60028054906101000a900460ff1615611737576040517f08c379a000000000000000000000000000000000000000000000000000000000815260040161172e90614558565b60405180910390fd5b600260019054906101000a900460ff16611786576040517f08c379a000000000000000000000000000000000000000000000000000000000815260040161177d90614a2a565b60405180910390fd5b6001600680549050116117ce576040517f08c379a00000000000000000000000000000000000000000000000000000000081526004016117c590614a92565b60405180910390fd5b6004546005546117de9190613e15565b421015611820576040517f08c379a000000000000000000000000000000000000000000000000000000000815260040161181790614afa565b60405180910390fd5b5f6003549050600a5f8281526020019081526020015f206004015f9054906101000a900460ff16611886576040517f08c379a000000000000000000000000000000000000000000000000000000000815260040161187d90614b62565b60405180910390fd5b5f600a5f8381526020019081526020015f2060030154116118dc576040517f08c379a00000000000000000000000000000000000000000000000000000000081526004016118d390614bca565b60405180910390fd5b600a5f8281526020019081526020015f20600301544311611932576040517f08c379a000000000000000000000000000000000000000000000000000000000815260040161192990614c32565b60405180910390fd5b601a54601b5f8381526020019081526020015f205410611987576040517f08c379a000000000000000000000000000000000000000000000000000000000815260040161197e90614c9a565b60405180910390fd5b601b5f8281526020019081526020015f205f8154809291906119a890614cb8565b91905055505f5f90505f6015546016546119c29190613e15565b90506006805490508111156119da5760068054905090505b5f600a5f8581526020019081526020015f206002015490505f60165490505b82811015611b9a5760016006805490501115611b9a575f828243604051602001611a2593929190614cff565b604051602081830303815290604052805190602001205f1c90505f60068054905082611a519190614d61565b90505f60068281548110611a6857611a67614d91565b5b905f5260205f20015f9054906101000a900473ffffffffffffffffffffffffffffffffffffffff1690505f60075f8373ffffffffffffffffffffffffffffffffffffffff1673ffffffffffffffffffffffffffffffffffffffff1681526020019081526020015f205f015490505f60075f8473ffffffffffffffffffffffffffffffffffffffff1673ffffffffffffffffffffffffffffffffffffffff1681526020019081526020015f205f0181905550611b2283613713565b611b2c82826138e2565b8173ffffffffffffffffffffffffffffffffffffffff16897f51479c93d7646904d2282e9e79cddf11999ac774b7fd0289e2f59cb4ad0f086a83604051611b739190613e57565b60405180910390a38780611b8690614cb8565b9850505050505080806001019150506119f9565b5081601681905550600680549050601654101580611bbe5750600160068054905011155b15611dac575f60068054905090505f811115611c9e575f60115490505f5f90505f83118015611bec57505f82115b15611c00578282611bfd9190614dbe565b90505b80600a5f8981526020019081526020015f205f01819055508060095f60018a611c2991906146ae565b81526020019081526020015f2054611c419190613e15565b60095f8981526020019081526020015f20819055505f8382611c639190614dee565b905080831115611c96575f8184611c7a91906146ae565b90508060105f828254611c8d9190613e15565b92505081905550505b505050611cec565b60115460105f828254611cb19190613e15565b9250508190555060095f600187611cc891906146ae565b81526020019081526020015f205460095f8781526020019081526020015f20819055505b5f60118190555083600a5f8781526020019081526020015f2060010181905550847f2b034c48d6d3c5fa40da8afd25e88ee8ad074a546e1a3f05a860c6106b99b82b600680549050604051611d419190613e57565b60405180910390a25f60168190555060035f815480929190611d6290614cb8565b9190505550426005819055506003547f278844837bcf8364a705384bf3a2812901f54155bae86dea81dd52aa5b9ec0e3600554604051611da29190613e57565b60405180910390a2505b60185460195410158015611dc157505f601854115b15611e775760185460195f828254611dd991906146ae565b925050819055503373ffffffffffffffffffffffffffffffffffffffff166108fc60185490811502906040515f60405180830381858888f19350505050158015611e25573d5f5f3e3d5ffd5b503373ffffffffffffffffffffffffffffffffffffffff167f496b3bf0725d338a836ecf0b614e039f3736dacfd57aa32af1bf55ea601ceaf5601854604051611e6e9190613e57565b60405180910390a25b6001600354611e8691906146ae565b7f3838459cd794256a3c29bb3186da72029a8036c0f596fee1bd526f8eb9493d4184604051611eb59190613e57565b60405180910390a2600160068054905003611fcc575f60065f81548110611edf57611ede614d91565b5b905f5260205f20015f9054906101000a900473ffffffffffffffffffffffffffffffffffffffff1690505f60105490505f6010819055505f600260016101000a81548160ff021916908315150217905550611f7b82827f000000000000000000000000000000000000000000000000000000000000000073ffffffffffffffffffffffffffffffffffffffff1661357e9092919063ffffffff16565b8173ffffffffffffffffffffffffffffffffffffffff167f9c2270628a9b29d30ae96b6c4c14ed646ee134febdce38a5b77f2bde9cea2e2082604051611fc19190613e57565b60405180910390a250505b50505050611fd86135fd565b565b601e5f9054906101000a900463ffffffff1681565b611ff76134a8565b5f6002806101000a81548160ff0219169083151502179055503373ffffffffffffffffffffffffffffffffffffffff167f5db9ee0a495bf2e6ff9c91a7834c1ba4fdd244a5e8aa4e537bd38aeae4b073aa60405160405180910390a2565b600260019054906101000a900460ff1681565b6120706134a8565b5f8111801561208157506101f48111155b6120c0576040517f08c379a00000000000000000000000000000000000000000000000000000000081526004016120b790614e79565b60405180910390fd5b8060158190555050565b601e60049054906101000a900461ffff1681565b6060600680548060200260200160405190810160405280929190818152602001828054801561215f57602002820191905f5260205f20905b815f9054906101000a900473ffffffffffffffffffffffffffffffffffffffff1673ffffffffffffffffffffffffffffffffffffffff1681526020019060010190808311612116575b5050505050905090565b60028054906101000a900460ff1681565b6121826134a8565b606481838587896121939190613e15565b61219d9190613e15565b6121a79190613e15565b6121b19190613e15565b146121f1576040517f08c379a00000000000000000000000000000000000000000000000000000000081526004016121e890614ee1565b60405180910390fd5b6005811015612235576040517f08c379a000000000000000000000000000000000000000000000000000000000815260040161222c90614f49565b60405180910390fd5b84600b8190555083600c8190555082600d8190555081600e8190555080600f819055507fbc09d8b830e227198eb6883f2d592e634c162e75e399516d84b5938d23e1614a858585858560405161228f959493929190614f67565b60405180910390a15050505050565b6122a66134a8565b60028054906101000a900460ff16156122f4576040517f08c379a00000000000000000000000000000000000000000000000000000000081526004016122eb90614558565b60405180910390fd5b60025f9054906101000a900460ff1615801561231d5750600260019054906101000a900460ff16155b61235c576040517f08c379a000000000000000000000000000000000000000000000000000000000815260040161235390615002565b60405180910390fd5b600160025f6101000a81548160ff0219169083151502179055507f4b49057349914d28f830b1807042f9f5e96aa69ea2e276d656ad08cdf3a1cbf1426040516123a59190613e57565b60405180910390a1565b60135f9054906101000a900473ffffffffffffffffffffffffffffffffffffffff1681565b6123dc6134a8565b60028054906101000a900460ff161561242a576040517f08c379a000000000000000000000000000000000000000000000000000000000815260040161242190614558565b60405180910390fd5b60025f9054906101000a900460ff16612478576040517f08c379a000000000000000000000000000000000000000000000000000000000815260040161246f9061506a565b60405180910390fd5b6001600680549050116124c0576040517f08c379a00000000000000000000000000000000000000000000000000000000081526004016124b7906150d2565b60405180910390fd5b5f60025f6101000a81548160ff0219169083151502179055506001600260016101000a81548160ff0219169083151502179055506001600381905550426005819055505f60095f5f81526020019081526020015f20819055507f309970d6e6ebf643ca3fac15bd242b5d468fde2dd732f54ef91c18088bb63d644260035460405161254c929190613fc7565b60405180910390a16003547f278844837bcf8364a705384bf3a2812901f54155bae86dea81dd52aa5b9ec0e36005546040516125889190613e57565b60405180910390a2565b61259a6134a8565b6125a35f613b82565b565b601a5481565b60105481565b7f000000000000000000000000000000000000000000000000000000000000000081565b6125dd6134a8565b805f73ffffffffffffffffffffffffffffffffffffffff168173ffffffffffffffffffffffffffffffffffffffff160361264c576040517f08c379a00000000000000000000000000000000000000000000000000000000081526004016126439061513a565b60405180910390fd5b8160175f6101000a81548173ffffffffffffffffffffffffffffffffffffffff021916908373ffffffffffffffffffffffffffffffffffffffff1602179055508173ffffffffffffffffffffffffffffffffffffffff167fdc3dba1d64dd67c0dc8b12621edd0c6ca4303a9073c3a8fcac38115e73d67b6b60405160405180910390a25050565b6126db6134a8565b5f73ffffffffffffffffffffffffffffffffffffffff168373ffffffffffffffffffffffffffffffffffffffff161415801561274357505f73ffffffffffffffffffffffffffffffffffffffff168273ffffffffffffffffffffffffffffffffffffffff1614155b801561277b57505f73ffffffffffffffffffffffffffffffffffffffff168173ffffffffffffffffffffffffffffffffffffffff1614155b6127ba576040517f08c379a00000000000000000000000000000000000000000000000000000000081526004016127b1906151a2565b60405180910390fd5b8260125f6101000a81548173ffffffffffffffffffffffffffffffffffffffff021916908373ffffffffffffffffffffffffffffffffffffffff1602179055508160135f6101000a81548173ffffffffffffffffffffffffffffffffffffffff021916908373ffffffffffffffffffffffffffffffffffffffff1602179055508060145f6101000a81548173ffffffffffffffffffffffffffffffffffffffff021916908373ffffffffffffffffffffffffffffffffffffffff1602179055507f2d4c6aa48812a0ea09474a961613c1a3ae652d39a1580cb1ac46ff277e6d385d8383836040516128ad939291906151c0565b60405180910390a1505050565b6128c261352f565b60028054906101000a900460ff1615612910576040517f08c379a000000000000000000000000000000000000000000000000000000000815260040161290790614558565b60405180910390fd5b60025f9054906101000a900460ff1661295e576040517f08c379a000000000000000000000000000000000000000000000000000000000815260040161295590614822565b60405180910390fd5b5f82116129a0576040517f08c379a00000000000000000000000000000000000000000000000000000000081526004016129979061523f565b60405180910390fd5b5f7f000000000000000000000000000000000000000000000000000000000000000073ffffffffffffffffffffffffffffffffffffffff166370a08231306040518263ffffffff1660e01b81526004016129fa9190613f59565b602060405180830381865afa158015612a15573d5f5f3e3d5ffd5b505050506040513d601f19601f82011682018060405250810190612a399190615271565b9050612a883330857f000000000000000000000000000000000000000000000000000000000000000073ffffffffffffffffffffffffffffffffffffffff16613c43909392919063ffffffff16565b5f817f000000000000000000000000000000000000000000000000000000000000000073ffffffffffffffffffffffffffffffffffffffff166370a08231306040518263ffffffff1660e01b8152600401612ae39190613f59565b602060405180830381865afa158015612afe573d5f5f3e3d5ffd5b505050506040513d601f19601f82011682018060405250810190612b229190615271565b612b2c91906146ae565b905082811015612b71576040517f08c379a0000000000000000000000000000000000000000000000000000000008152600401612b68906152e6565b60405180910390fd5b5f60075f3373ffffffffffffffffffffffffffffffffffffffff1673ffffffffffffffffffffffffffffffffffffffff1681526020019081526020015f205f015403612c5f57600633908060018154018082558091505060019003905f5260205f20015f9091909190916101000a81548173ffffffffffffffffffffffffffffffffffffffff021916908373ffffffffffffffffffffffffffffffffffffffff16021790555060068054905060085f3373ffffffffffffffffffffffffffffffffffffffff1673ffffffffffffffffffffffffffffffffffffffff1681526020019081526020015f20819055505b8060075f3373ffffffffffffffffffffffffffffffffffffffff1673ffffffffffffffffffffffffffffffffffffffff1681526020019081526020015f205f015f828254612cad9190613e15565b925050819055503373ffffffffffffffffffffffffffffffffffffffff167f9e71bc8eea02a63969f509818f2dafb9254532904319f9dbda79b67bd34a5f3d82604051612cfa9190613e57565b60405180910390a25050612d0c6135fd565b5050565b5f60175f9054906101000a900473ffffffffffffffffffffffffffffffffffffffff1673ffffffffffffffffffffffffffffffffffffffff163373ffffffffffffffffffffffffffffffffffffffff1614612da0576040517f08c379a0000000000000000000000000000000000000000000000000000000008152600401612d97906149c2565b60405180910390fd5b60028054906101000a900460ff1615612dee576040517f08c379a0000000000000000000000000000000000000000000000000000000008152600401612de590614558565b60405180910390fd5b600260019054906101000a900460ff16612e3d576040517f08c379a0000000000000000000000000000000000000000000000000000000008152600401612e3490614a2a565b60405180910390fd5b600454600554612e4d9190613e15565b421015612e8f576040517f08c379a0000000000000000000000000000000000000000000000000000000008152600401612e8690614afa565b60405180910390fd5b5f60035490505f600a5f8381526020019081526020015f206003015414612eeb576040517f08c379a0000000000000000000000000000000000000000000000000000000008152600401612ee29061534e565b60405180910390fd5b601c5f9054906101000a900473ffffffffffffffffffffffffffffffffffffffff1673ffffffffffffffffffffffffffffffffffffffff16635d3b1d30601d54601c60149054906101000a900467ffffffffffffffff16601e60049054906101000a900461ffff16601e5f9054906101000a900463ffffffff1660016040518663ffffffff1660e01b8152600401612f879594939291906153a5565b6020604051808303815f875af1158015612fa3573d5f5f3e3d5ffd5b505050506040513d601f19601f82011682018060405250810190612fc79190615271565b915080601f5f8481526020019081526020015f208190555043600a5f8381526020019081526020015f2060030181905550807f8103eccc47a3ddc6e91f4725113183081313c2756f00f8b3bb960433bd4b33f3834360405161302a929190613fc7565b60405180910390a25090565b61303e6134a8565b5f3411613080576040517f08c379a000000000000000000000000000000000000000000000000000000000815260040161307790613dc1565b60405180910390fd5b3460195f8282546130919190613e15565b925050819055503373ffffffffffffffffffffffffffffffffffffffff167f32fb8666fb8614c76ba83b694a0c60f4ee5699886bfe56001aa48337fbb134ff346040516130de9190613e57565b60405180910390a2565b6130f06134a8565b60016002806101000a81548160ff0219169083151502179055503373ffffffffffffffffffffffffffffffffffffffff167f62e78cea01bee320cd4e420270b5ea74000d11b0c9f74754ebdbfc544b05a25860405160405180910390a2565b6009602052805f5260405f205f915090505481565b61316c6134a8565b6019548111156131b1576040517f08c379a00000000000000000000000000000000000000000000000000000000081526004016131a890615440565b60405180910390fd5b8060195f8282546131c291906146ae565b925050819055503373ffffffffffffffffffffffffffffffffffffffff166108fc8290811502906040515f60405180830381858888f1935050505015801561320c573d5f5f3e3d5ffd5b503373ffffffffffffffffffffffffffffffffffffffff167fe8b716cfbfd42ea155f1c282f736f4e49a0136eaffca0cd650bdf93cd2ebd7c5826040516132539190613e57565b60405180910390a250565b60035481565b61326c6134a8565b8060188190555050565b600a602052805f5260405f205f91509050805f015490806001015490806002015490806003015490806004015f9054906101000a900460ff16908060040160019054906101000a900460ff16905086565b5f5f5f9054906101000a900473ffffffffffffffffffffffffffffffffffffffff16905090565b60125f9054906101000a900473ffffffffffffffffffffffffffffffffffffffff1681565b61331b6134a8565b5f811161335d576040517f08c379a0000000000000000000000000000000000000000000000000000000008152600401613354906154a8565b60405180910390fd5b80601a8190555050565b60025f9054906101000a900460ff1681565b60165481565b60175f9054906101000a900473ffffffffffffffffffffffffffffffffffffffff1681565b60115481565b600f5481565b601f602052805f5260405f205f915090505481565b60055481565b5f600680549050905090565b601b602052805f5260405f205f915090505481565b600c5481565b60185481565b601c60149054906101000a900467ffffffffffffffff1681565b61341a6134a8565b5f73ffffffffffffffffffffffffffffffffffffffff168173ffffffffffffffffffffffffffffffffffffffff160361348a575f6040517f1e4fbdf70000000000000000000000000000000000000000000000000000000081526004016134819190613f59565b60405180910390fd5b61349381613b82565b50565b60155481565b60045481565b600b5481565b6134b0613cc5565b73ffffffffffffffffffffffffffffffffffffffff166134ce6132c7565b73ffffffffffffffffffffffffffffffffffffffff161461352d576134f1613cc5565b6040517f118cdaa70000000000000000000000000000000000000000000000000000000081526004016135249190613f59565b60405180910390fd5b565b600260015403613574576040517f08c379a000000000000000000000000000000000000000000000000000000000815260040161356b90615510565b60405180910390fd5b6002600181905550565b6135f8838473ffffffffffffffffffffffffffffffffffffffff1663a9059cbb85856040516024016135b192919061552e565b604051602081830303815290604052915060e01b6020820180517bffffffffffffffffffffffffffffffffffffffffffffffffffffffff8381831617835250505050613ccc565b505050565b60018081905550565b5f601f5f8481526020019081526020015f205490505f810361365d576040517f08c379a00000000000000000000000000000000000000000000000000000000081526004016136549061559f565b60405180910390fd5b815f815181106136705761366f614d91565b5b6020026020010151600a5f8381526020019081526020015f20600201819055506001600a5f8381526020019081526020015f206004015f6101000a81548160ff021916908315150217905550807f623f81aa9bb3441ef3d9d6ca37c0362142e8482c812d139760576c6ce87c8610835f815181106136f1576136f0614d91565b5b60200260200101516040516137069190613e57565b60405180910390a2505050565b5f6006828154811061372857613727614d91565b5b905f5260205f20015f9054906101000a900473ffffffffffffffffffffffffffffffffffffffff1690505f600160068054905061376591906146ae565b9050808314613857575f6006828154811061378357613782614d91565b5b905f5260205f20015f9054906101000a900473ffffffffffffffffffffffffffffffffffffffff16905080600685815481106137c2576137c1614d91565b5b905f5260205f20015f6101000a81548173ffffffffffffffffffffffffffffffffffffffff021916908373ffffffffffffffffffffffffffffffffffffffff1602179055506001846138149190613e15565b60085f8373ffffffffffffffffffffffffffffffffffffffff1673ffffffffffffffffffffffffffffffffffffffff1681526020019081526020015f2081905550505b6006805480613869576138686155bd565b5b600190038181905f5260205f20015f6101000a81549073ffffffffffffffffffffffffffffffffffffffff021916905590555f60085f8473ffffffffffffffffffffffffffffffffffffffff1673ffffffffffffffffffffffffffffffffffffffff1681526020019081526020015f2081905550505050565b5f810315613b7e575f6064600b54836138fb9190614dee565b6139059190614dbe565b90505f6064600c54846139189190614dee565b6139229190614dbe565b90505f6064600d54856139359190614dee565b61393f9190614dbe565b90505f6064600e54866139529190614dee565b61395c9190614dbe565b90505f6064600f548761396f9190614dee565b6139799190614dbe565b90505f818385878961398b9190613e15565b6139959190613e15565b61399f9190613e15565b6139a99190613e15565b9050868111156139b7578690505b5f81886139c491906146ae565b90505f871115613a3b57613a3a60125f9054906101000a900473ffffffffffffffffffffffffffffffffffffffff16887f000000000000000000000000000000000000000000000000000000000000000073ffffffffffffffffffffffffffffffffffffffff1661357e9092919063ffffffff16565b5b5f861115613ab057613aaf60135f9054906101000a900473ffffffffffffffffffffffffffffffffffffffff16877f000000000000000000000000000000000000000000000000000000000000000073ffffffffffffffffffffffffffffffffffffffff1661357e9092919063ffffffff16565b5b5f851115613b2557613b2460145f9054906101000a900473ffffffffffffffffffffffffffffffffffffffff16867f000000000000000000000000000000000000000000000000000000000000000073ffffffffffffffffffffffffffffffffffffffff1661357e9092919063ffffffff16565b5b8260105f828254613b369190613e15565b925050819055508060105f828254613b4e9190613e15565b925050819055505f841115613b76578360115f828254613b6e9190613e15565b925050819055505b505050505050505b5050565b5f5f5f9054906101000a900473ffffffffffffffffffffffffffffffffffffffff169050815f5f6101000a81548173ffffffffffffffffffffffffffffffffffffffff021916908373ffffffffffffffffffffffffffffffffffffffff1602179055508173ffffffffffffffffffffffffffffffffffffffff168173ffffffffffffffffffffffffffffffffffffffff167f8be0079c531659141344cd1fd0a4f28419497f9722a3daafe3b4186f6b6457e060405160405180910390a35050565b613cbf848573ffffffffffffffffffffffffffffffffffffffff166323b872dd868686604051602401613c78939291906155ea565b604051602081830303815290604052915060e01b6020820180517bffffffffffffffffffffffffffffffffffffffffffffffffffffffff8381831617835250505050613ccc565b50505050565b5f33905090565b5f5f60205f8451602086015f885af180613ceb576040513d5f823e3d81fd5b3d92505f519150505f8214613d04576001811415613d1f565b5f8473ffffffffffffffffffffffffffffffffffffffff163b145b15613d6157836040517f5274afe7000000000000000000000000000000000000000000000000000000008152600401613d589190613f59565b60405180910390fd5b50505050565b5f82825260208201905092915050565b7f6e6f20424e4200000000000000000000000000000000000000000000000000005f82015250565b5f613dab600683613d67565b9150613db682613d77565b602082019050919050565b5f6020820190508181035f830152613dd881613d9f565b9050919050565b5f819050919050565b7f4e487b71000000000000000000000000000000000000000000000000000000005f52601160045260245ffd5b5f613e1f82613ddf565b9150613e2a83613ddf565b9250828201905080821115613e4257613e41613de8565b5b92915050565b613e5181613ddf565b82525050565b5f602082019050613e6a5f830184613e48565b92915050565b5f819050919050565b613e8281613e70565b82525050565b5f602082019050613e9b5f830184613e79565b92915050565b5f604051905090565b5f5ffd5b5f5ffd5b613ebb81613ddf565b8114613ec5575f5ffd5b50565b5f81359050613ed681613eb2565b92915050565b5f5f60408385031215613ef257613ef1613eaa565b5b5f613eff85828601613ec8565b9250506020613f1085828601613ec8565b9150509250929050565b5f73ffffffffffffffffffffffffffffffffffffffff82169050919050565b5f613f4382613f1a565b9050919050565b613f5381613f39565b82525050565b5f602082019050613f6c5f830184613f4a565b92915050565b613f7b81613f39565b8114613f85575f5ffd5b50565b5f81359050613f9681613f72565b92915050565b5f60208284031215613fb157613fb0613eaa565b5b5f613fbe84828501613f88565b91505092915050565b5f604082019050613fda5f830185613e48565b613fe76020830184613e48565b9392505050565b5f5ffd5b5f601f19601f8301169050919050565b7f4e487b71000000000000000000000000000000000000000000000000000000005f52604160045260245ffd5b61403882613ff2565b810181811067ffffffffffffffff8211171561405757614056614002565b5b80604052505050565b5f614069613ea1565b9050614075828261402f565b919050565b5f67ffffffffffffffff82111561409457614093614002565b5b602082029050602081019050919050565b5f5ffd5b5f6140bb6140b68461407a565b614060565b905080838252602082019050602084028301858111156140de576140dd6140a5565b5b835b8181101561410757806140f38882613ec8565b8452602084019350506020810190506140e0565b5050509392505050565b5f82601f83011261412557614124613fee565b5b81356141358482602086016140a9565b91505092915050565b5f5f6040838503121561415457614153613eaa565b5b5f61416185828601613ec8565b925050602083013567ffffffffffffffff81111561418257614181613eae565b5b61418e85828601614111565b9150509250929050565b5f602082840312156141ad576141ac613eaa565b5b5f6141ba84828501613ec8565b91505092915050565b5f63ffffffff82169050919050565b6141db816141c3565b82525050565b5f6020820190506141f45f8301846141d2565b92915050565b5f8115159050919050565b61420e816141fa565b82525050565b5f6020820190506142275f830184614205565b92915050565b5f61ffff82169050919050565b6142438161422d565b82525050565b5f60208201905061425c5f83018461423a565b92915050565b5f81519050919050565b5f82825260208201905092915050565b5f819050602082019050919050565b61429481613f39565b82525050565b5f6142a5838361428b565b60208301905092915050565b5f602082019050919050565b5f6142c782614262565b6142d1818561426c565b93506142dc8361427c565b805f5b8381101561430c5781516142f3888261429a565b97506142fe836142b1565b9250506001810190506142df565b5085935050505092915050565b5f6020820190508181035f83015261433181846142bd565b905092915050565b5f5f5f5f5f60a0868803121561435257614351613eaa565b5b5f61435f88828901613ec8565b955050602061437088828901613ec8565b945050604061438188828901613ec8565b935050606061439288828901613ec8565b92505060806143a388828901613ec8565b9150509295509295909350565b5f819050919050565b5f6143d36143ce6143c984613f1a565b6143b0565b613f1a565b9050919050565b5f6143e4826143b9565b9050919050565b5f6143f5826143da565b9050919050565b614405816143eb565b82525050565b5f60208201905061441e5f8301846143fc565b92915050565b5f5f5f6060848603121561443b5761443a613eaa565b5b5f61444886828701613f88565b935050602061445986828701613f88565b925050604061446a86828701613f88565b9150509250925092565b5f60c0820190506144875f830189613e48565b6144946020830188613e48565b6144a16040830187613e48565b6144ae6060830186613e48565b6144bb6080830185614205565b6144c860a0830184614205565b979650505050505050565b5f67ffffffffffffffff82169050919050565b6144ef816144d3565b82525050565b5f6020820190506145085f8301846144e6565b92915050565b7f50617573656400000000000000000000000000000000000000000000000000005f82015250565b5f614542600683613d67565b915061454d8261450e565b602082019050919050565b5f6020820190508181035f83015261456f81614536565b9050919050565b7f6e6f2072657175657374000000000000000000000000000000000000000000005f82015250565b5f6145aa600a83613d67565b91506145b582614576565b602082019050919050565b5f6020820190508181035f8301526145d78161459e565b9050919050565b7f616c72656164792066756c66696c6c65640000000000000000000000000000005f82015250565b5f614612601183613d67565b915061461d826145de565b602082019050919050565b5f6020820190508181035f83015261463f81614606565b9050919050565b7f746f6f206561726c7920666f722066616c6c6261636b000000000000000000005f82015250565b5f61467a601683613d67565b915061468582614646565b602082019050919050565b5f6020820190508181035f8301526146a78161466e565b9050919050565b5f6146b882613ddf565b91506146c383613ddf565b92508282039050818111156146db576146da613de8565b5b92915050565b7f6e6f20726f756e647320746f20636c61696d00000000000000000000000000005f82015250565b5f614715601283613d67565b9150614720826146e1565b602082019050919050565b5f6020820190508181035f83015261474281614709565b9050919050565b7f6e6f2072657761726473000000000000000000000000000000000000000000005f82015250565b5f61477d600a83613d67565b915061478882614749565b602082019050919050565b5f6020820190508181035f8301526147aa81614771565b9050919050565b5f6040820190506147c45f830185613f4a565b6147d16020830184613f4a565b9392505050565b7f7374616b696e6720636c6f7365640000000000000000000000000000000000005f82015250565b5f61480c600e83613d67565b9150614817826147d8565b602082019050919050565b5f6020820190508181035f83015261483981614800565b9050919050565b7f6e6f207374616b650000000000000000000000000000000000000000000000005f82015250565b5f614874600883613d67565b915061487f82614840565b602082019050919050565b5f6020820190508181035f8301526148a181614868565b9050919050565b7f6e6f742061207061727469636970616e740000000000000000000000000000005f82015250565b5f6148dc601183613d67565b91506148e7826148a8565b602082019050919050565b5f6020820190508181035f830152614909816148d0565b9050919050565b7f6d696e20363073000000000000000000000000000000000000000000000000005f82015250565b5f614944600783613d67565b915061494f82614910565b602082019050919050565b5f6020820190508181035f83015261497181614938565b9050919050565b7f4f6e6c79206b65657065720000000000000000000000000000000000000000005f82015250565b5f6149ac600b83613d67565b91506149b782614978565b602082019050919050565b5f6020820190508181035f8301526149d9816149a0565b9050919050565b7f6761756e746c6574206e6f7420616374697665000000000000000000000000005f82015250565b5f614a14601383613d67565b9150614a1f826149e0565b602082019050919050565b5f6020820190508181035f830152614a4181614a08565b9050919050565b7f6e6f7420656e6f756768207061727469636970616e74730000000000000000005f82015250565b5f614a7c601783613d67565b9150614a8782614a48565b602082019050919050565b5f6020820190508181035f830152614aa981614a70565b9050919050565b7f726f756e64206e6f7420726561647900000000000000000000000000000000005f82015250565b5f614ae4600f83613d67565b9150614aef82614ab0565b602082019050919050565b5f6020820190508181035f830152614b1181614ad8565b9050919050565b7f72616e646f6d6e657373206e6f742066756c66696c6c656400000000000000005f82015250565b5f614b4c601883613d67565b9150614b5782614b18565b602082019050919050565b5f6020820190508181035f830152614b7981614b40565b9050919050565b7f72616e646f6d6e657373206e6f742072657175657374656400000000000000005f82015250565b5f614bb4601883613d67565b9150614bbf82614b80565b602082019050919050565b5f6020820190508181035f830152614be181614ba8565b9050919050565b7f6d7573742077616974203e3120626c6f636b20616674657220726571756573745f82015250565b5f614c1c602083613d67565b9150614c2782614be8565b602082019050919050565b5f6020820190508181035f830152614c4981614c10565b9050919050565b7f6b65657065722063616c6c206c696d69742072656163686564000000000000005f82015250565b5f614c84601983613d67565b9150614c8f82614c50565b602082019050919050565b5f6020820190508181035f830152614cb181614c78565b9050919050565b5f614cc282613ddf565b91507fffffffffffffffffffffffffffffffffffffffffffffffffffffffffffffffff8203614cf457614cf3613de8565b5b600182019050919050565b5f606082019050614d125f830186613e48565b614d1f6020830185613e48565b614d2c6040830184613e48565b949350505050565b7f4e487b71000000000000000000000000000000000000000000000000000000005f52601260045260245ffd5b5f614d6b82613ddf565b9150614d7683613ddf565b925082614d8657614d85614d34565b5b828206905092915050565b7f4e487b71000000000000000000000000000000000000000000000000000000005f52603260045260245ffd5b5f614dc882613ddf565b9150614dd383613ddf565b925082614de357614de2614d34565b5b828204905092915050565b5f614df882613ddf565b9150614e0383613ddf565b9250828202614e1181613ddf565b91508282048414831517614e2857614e27613de8565b5b5092915050565b7f62617463682073697a6520312d353030000000000000000000000000000000005f82015250565b5f614e63601083613d67565b9150614e6e82614e2f565b602082019050919050565b5f6020820190508181035f830152614e9081614e57565b9050919050565b7f6d7573742073756d2031303000000000000000000000000000000000000000005f82015250565b5f614ecb600c83613d67565b9150614ed682614e97565b602082019050919050565b5f6020820190508181035f830152614ef881614ebf565b9050919050565b7f7072697a652070657263656e7420746f6f206c6f7700000000000000000000005f82015250565b5f614f33601583613d67565b9150614f3e82614eff565b602082019050919050565b5f6020820190508181035f830152614f6081614f27565b9050919050565b5f60a082019050614f7a5f830188613e48565b614f876020830187613e48565b614f946040830186613e48565b614fa16060830185613e48565b614fae6080830184613e48565b9695505050505050565b7f616c7265616479206163746976650000000000000000000000000000000000005f82015250565b5f614fec600e83613d67565b9150614ff782614fb8565b602082019050919050565b5f6020820190508181035f83015261501981614fe0565b9050919050565b7f7374616b696e67206e6f742061637469766500000000000000000000000000005f82015250565b5f615054601283613d67565b915061505f82615020565b602082019050919050565b5f6020820190508181035f83015261508181615048565b9050919050565b7f6e656564203e31207061727469636970616e74730000000000000000000000005f82015250565b5f6150bc601483613d67565b91506150c782615088565b602082019050919050565b5f6020820190508181035f8301526150e9816150b0565b9050919050565b7f7a65726f206164647265737300000000000000000000000000000000000000005f82015250565b5f615124600c83613d67565b915061512f826150f0565b602082019050919050565b5f6020820190508181035f83015261515181615118565b9050919050565b7f7a65726f206164647265737365730000000000000000000000000000000000005f82015250565b5f61518c600e83613d67565b915061519782615158565b602082019050919050565b5f6020820190508181035f8301526151b981615180565b9050919050565b5f6060820190506151d35f830186613f4a565b6151e06020830185613f4a565b6151ed6040830184613f4a565b949350505050565b7f7a65726f20616d6f756e740000000000000000000000000000000000000000005f82015250565b5f615229600b83613d67565b9150615234826151f5565b602082019050919050565b5f6020820190508181035f8301526152568161521d565b9050919050565b5f8151905061526b81613eb2565b92915050565b5f6020828403121561528657615285613eaa565b5b5f6152938482850161525d565b91505092915050565b7f696e73756666696369656e7420726563656976656400000000000000000000005f82015250565b5f6152d0601583613d67565b91506152db8261529c565b602082019050919050565b5f6020820190508181035f8301526152fd816152c4565b9050919050565b7f616c7265616479207265717565737465640000000000000000000000000000005f82015250565b5f615338601183613d67565b915061534382615304565b602082019050919050565b5f6020820190508181035f8301526153658161532c565b9050919050565b5f819050919050565b5f61538f61538a6153858461536c565b6143b0565b6141c3565b9050919050565b61539f81615375565b82525050565b5f60a0820190506153b85f830188613e79565b6153c560208301876144e6565b6153d2604083018661423a565b6153df60608301856141d2565b6153ec6080830184615396565b9695505050505050565b7f65786365656473207265736572766500000000000000000000000000000000005f82015250565b5f61542a600f83613d67565b9150615435826153f6565b602082019050919050565b5f6020820190508181035f8301526154578161541e565b9050919050565b7f6d61783e300000000000000000000000000000000000000000000000000000005f82015250565b5f615492600583613d67565b915061549d8261545e565b602082019050919050565b5f6020820190508181035f8301526154bf81615486565b9050919050565b7f5265656e7472616e637947756172643a207265656e7472616e742063616c6c005f82015250565b5f6154fa601f83613d67565b9150615505826154c6565b602082019050919050565b5f6020820190508181035f830152615527816154ee565b9050919050565b5f6040820190506155415f830185613f4a565b61554e6020830184613e48565b9392505050565b7f756e6b6e6f776e207265717565737400000000000000000000000000000000005f82015250565b5f615589600f83613d67565b915061559482615555565b602082019050919050565b5f6020820190508181035f8301526155b68161557d565b9050919050565b7f4e487b71000000000000000000000000000000000000000000000000000000005f52603160045260245ffd5b5f6060820190506155fd5f830186613f4a565b61560a6020830185613f4a565b6156176040830184613e48565b94935050505056fea26469706673582212204883e066dfd37f1026976592fe44e02a13c89fe6fc3fda740b2b135f0cc3e13464736f6c634300081e0033",
			"opcodes": "PUSH1 0xC0 PUSH1 0x40 MSTORE PUSH1 0x5 PUSH1 0xB SSTORE PUSH1 0x5 PUSH1 0xC SSTORE PUSH1 0xA PUSH1 0xD SSTORE PUSH1 0x1E PUSH1 0xE SSTORE PUSH1 0x32 PUSH1 0xF SSTORE PUSH1 0x64 PUSH1 0x15 SSTORE PUSH0 PUSH1 0x16 SSTORE PUSH7 0x2386F26FC10000 PUSH1 0x18 SSTORE PUSH1 0x32 PUSH1 0x1A SSTORE PUSH3 0x30D40 PUSH1 0x1E PUSH0 PUSH2 0x100 EXP DUP2 SLOAD DUP2 PUSH4 0xFFFFFFFF MUL NOT AND SWAP1 DUP4 PUSH4 0xFFFFFFFF AND MUL OR SWAP1 SSTORE POP PUSH1 0x3 PUSH1 0x1E PUSH1 0x4 PUSH2 0x100 EXP DUP2 SLOAD DUP2 PUSH2 0xFFFF MUL NOT AND SWAP1 DUP4 PUSH2 0xFFFF AND MUL OR SWAP1 SSTORE POP CALLVALUE DUP1 ISZERO PUSH2 0x82 JUMPI PUSH0 PUSH0 REVERT JUMPDEST POP PUSH1 0x40 MLOAD PUSH2 0x5FC3 CODESIZE SUB DUP1 PUSH2 0x5FC3 DUP4 CODECOPY DUP2 DUP2 ADD PUSH1 0x40 MSTORE DUP2 ADD SWAP1 PUSH2 0xA4 SWAP2 SWAP1 PUSH2 0x6D3 JUMP JUMPDEST DUP5 CALLER PUSH0 PUSH20 0xFFFFFFFFFFFFFFFFFFFFFFFFFFFFFFFFFFFFFFFF AND DUP2 PUSH20 0xFFFFFFFFFFFFFFFFFFFFFFFFFFFFFFFFFFFFFFFF AND SUB PUSH2 0x116 JUMPI PUSH0 PUSH1 0x40 MLOAD PUSH32 0x1E4FBDF700000000000000000000000000000000000000000000000000000000 DUP2 MSTORE PUSH1 0x4 ADD PUSH2 0x10D SWAP2 SWAP1 PUSH2 0x7A6 JUMP JUMPDEST PUSH1 0x40 MLOAD DUP1 SWAP2 SUB SWAP1 REVERT JUMPDEST PUSH2 0x125 DUP2 PUSH2 0x4D6 PUSH1 0x20 SHL PUSH1 0x20 SHR JUMP JUMPDEST POP PUSH1 0x1 DUP1 DUP2 SWAP1 SSTORE POP DUP1 PUSH20 0xFFFFFFFFFFFFFFFFFFFFFFFFFFFFFFFFFFFFFFFF AND PUSH1 0x80 DUP2 PUSH20 0xFFFFFFFFFFFFFFFFFFFFFFFFFFFFFFFFFFFFFFFF AND DUP2 MSTORE POP POP POP PUSH0 PUSH20 0xFFFFFFFFFFFFFFFFFFFFFFFFFFFFFFFFFFFFFFFF AND DUP10 PUSH20 0xFFFFFFFFFFFFFFFFFFFFFFFFFFFFFFFFFFFFFFFF AND SUB PUSH2 0x1D0 JUMPI PUSH1 0x40 MLOAD PUSH32 0x8C379A000000000000000000000000000000000000000000000000000000000 DUP2 MSTORE PUSH1 0x4 ADD PUSH2 0x1C7 SWAP1 PUSH2 0x819 JUMP JUMPDEST PUSH1 0x40 MLOAD DUP1 SWAP2 SUB SWAP1 REVERT JUMPDEST PUSH0 PUSH20 0xFFFFFFFFFFFFFFFFFFFFFFFFFFFFFFFFFFFFFFFF AND DUP9 PUSH20 0xFFFFFFFFFFFFFFFFFFFFFFFFFFFFFFFFFFFFFFFF AND EQ ISZERO DUP1 ISZERO PUSH2 0x238 JUMPI POP PUSH0 PUSH20 0xFFFFFFFFFFFFFFFFFFFFFFFFFFFFFFFFFFFFFFFF AND DUP8 PUSH20 0xFFFFFFFFFFFFFFFFFFFFFFFFFFFFFFFFFFFFFFFF AND EQ ISZERO JUMPDEST DUP1 ISZERO PUSH2 0x270 JUMPI POP PUSH0 PUSH20 0xFFFFFFFFFFFFFFFFFFFFFFFFFFFFFFFFFFFFFFFF AND DUP7 PUSH20 0xFFFFFFFFFFFFFFFFFFFFFFFFFFFFFFFFFFFFFFFF AND EQ ISZERO JUMPDEST PUSH2 0x2AF JUMPI PUSH1 0x40 MLOAD PUSH32 0x8C379A000000000000000000000000000000000000000000000000000000000 DUP2 MSTORE PUSH1 0x4 ADD PUSH2 0x2A6 SWAP1 PUSH2 0x881 JUMP JUMPDEST PUSH1 0x40 MLOAD DUP1 SWAP2 SUB SWAP1 REVERT JUMPDEST PUSH0 PUSH20 0xFFFFFFFFFFFFFFFFFFFFFFFFFFFFFFFFFFFFFFFF AND DUP3 PUSH20 0xFFFFFFFFFFFFFFFFFFFFFFFFFFFFFFFFFFFFFFFF AND SUB PUSH2 0x31D JUMPI PUSH1 0x40 MLOAD PUSH32 0x8C379A000000000000000000000000000000000000000000000000000000000 DUP2 MSTORE PUSH1 0x4 ADD PUSH2 0x314 SWAP1 PUSH2 0x8E9 JUMP JUMPDEST PUSH1 0x40 MLOAD DUP1 SWAP2 SUB SWAP1 REVERT JUMPDEST DUP9 PUSH20 0xFFFFFFFFFFFFFFFFFFFFFFFFFFFFFFFFFFFFFFFF AND PUSH1 0xA0 DUP2 PUSH20 0xFFFFFFFFFFFFFFFFFFFFFFFFFFFFFFFFFFFFFFFF AND DUP2 MSTORE POP POP DUP8 PUSH1 0x12 PUSH0 PUSH2 0x100 EXP DUP2 SLOAD DUP2 PUSH20 0xFFFFFFFFFFFFFFFFFFFFFFFFFFFFFFFFFFFFFFFF MUL NOT AND SWAP1 DUP4 PUSH20 0xFFFFFFFFFFFFFFFFFFFFFFFFFFFFFFFFFFFFFFFF AND MUL OR SWAP1 SSTORE POP DUP7 PUSH1 0x13 PUSH0 PUSH2 0x100 EXP DUP2 SLOAD DUP2 PUSH20 0xFFFFFFFFFFFFFFFFFFFFFFFFFFFFFFFFFFFFFFFF MUL NOT AND SWAP1 DUP4 PUSH20 0xFFFFFFFFFFFFFFFFFFFFFFFFFFFFFFFFFFFFFFFF AND MUL OR SWAP1 SSTORE POP DUP6 PUSH1 0x14 PUSH0 PUSH2 0x100 EXP DUP2 SLOAD DUP2 PUSH20 0xFFFFFFFFFFFFFFFFFFFFFFFFFFFFFFFFFFFFFFFF MUL NOT AND SWAP1 DUP4 PUSH20 0xFFFFFFFFFFFFFFFFFFFFFFFFFFFFFFFFFFFFFFFF AND MUL OR SWAP1 SSTORE POP DUP5 PUSH1 0x1C PUSH0 PUSH2 0x100 EXP DUP2 SLOAD DUP2 PUSH20 0xFFFFFFFFFFFFFFFFFFFFFFFFFFFFFFFFFFFFFFFF MUL NOT AND SWAP1 DUP4 PUSH20 0xFFFFFFFFFFFFFFFFFFFFFFFFFFFFFFFFFFFFFFFF AND MUL OR SWAP1 SSTORE POP DUP4 PUSH1 0x1C PUSH1 0x14 PUSH2 0x100 EXP DUP2 SLOAD DUP2 PUSH8 0xFFFFFFFFFFFFFFFF MUL NOT AND SWAP1 DUP4 PUSH8 0xFFFFFFFFFFFFFFFF AND MUL OR SWAP1 SSTORE POP DUP3 PUSH1 0x1D DUP2 SWAP1 SSTORE POP DUP2 PUSH1 0x17 PUSH0 PUSH2 0x100 EXP DUP2 SLOAD DUP2 PUSH20 0xFFFFFFFFFFFFFFFFFFFFFFFFFFFFFFFFFFFFFFFF MUL NOT AND SWAP1 DUP4 PUSH20 0xFFFFFFFFFFFFFFFFFFFFFFFFFFFFFFFFFFFFFFFF AND MUL OR SWAP1 SSTORE POP DUP1 PUSH1 0x4 DUP2 SWAP1 SSTORE POP POP POP POP POP POP POP POP POP POP PUSH2 0x907 JUMP JUMPDEST PUSH0 PUSH0 PUSH0 SWAP1 SLOAD SWAP1 PUSH2 0x100 EXP SWAP1 DIV PUSH20 0xFFFFFFFFFFFFFFFFFFFFFFFFFFFFFFFFFFFFFFFF AND SWAP1 POP DUP2 PUSH0 PUSH0 PUSH2 0x100 EXP DUP2 SLOAD DUP2 PUSH20 0xFFFFFFFFFFFFFFFFFFFFFFFFFFFFFFFFFFFFFFFF MUL NOT AND SWAP1 DUP4 PUSH20 0xFFFFFFFFFFFFFFFFFFFFFFFFFFFFFFFFFFFFFFFF AND MUL OR SWAP1 SSTORE POP DUP2 PUSH20 0xFFFFFFFFFFFFFFFFFFFFFFFFFFFFFFFFFFFFFFFF AND DUP2 PUSH20 0xFFFFFFFFFFFFFFFFFFFFFFFFFFFFFFFFFFFFFFFF AND PUSH32 0x8BE0079C531659141344CD1FD0A4F28419497F9722A3DAAFE3B4186F6B6457E0 PUSH1 0x40 MLOAD PUSH1 0x40 MLOAD DUP1 SWAP2 SUB SWAP1 LOG3 POP POP JUMP JUMPDEST PUSH0 PUSH0 REVERT JUMPDEST PUSH0 PUSH20 0xFFFFFFFFFFFFFFFFFFFFFFFFFFFFFFFFFFFFFFFF DUP3 AND SWAP1 POP SWAP2 SWAP1 POP JUMP JUMPDEST PUSH0 PUSH2 0x5C4 DUP3 PUSH2 0x59B JUMP JUMPDEST SWAP1 POP SWAP2 SWAP1 POP JUMP JUMPDEST PUSH0 PUSH2 0x5D5 DUP3 PUSH2 0x5BA JUMP JUMPDEST SWAP1 POP SWAP2 SWAP1 POP JUMP JUMPDEST PUSH2 0x5E5 DUP2 PUSH2 0x5CB JUMP JUMPDEST DUP2 EQ PUSH2 0x5EF JUMPI PUSH0 PUSH0 REVERT JUMPDEST POP JUMP JUMPDEST PUSH0 DUP2 MLOAD SWAP1 POP PUSH2 0x600 DUP2 PUSH2 0x5DC JUMP JUMPDEST SWAP3 SWAP2 POP POP JUMP JUMPDEST PUSH2 0x60F DUP2 PUSH2 0x5BA JUMP JUMPDEST DUP2 EQ PUSH2 0x619 JUMPI PUSH0 PUSH0 REVERT JUMPDEST POP JUMP JUMPDEST PUSH0 DUP2 MLOAD SWAP1 POP PUSH2 0x62A DUP2 PUSH2 0x606 JUMP JUMPDEST SWAP3 SWAP2 POP POP JUMP JUMPDEST PUSH0 PUSH8 0xFFFFFFFFFFFFFFFF DUP3 AND SWAP1 POP SWAP2 SWAP1 POP JUMP JUMPDEST PUSH2 0x64C DUP2 PUSH2 0x630 JUMP JUMPDEST DUP2 EQ PUSH2 0x656 JUMPI PUSH0 PUSH0 REVERT JUMPDEST POP JUMP JUMPDEST PUSH0 DUP2 MLOAD SWAP1 POP PUSH2 0x667 DUP2 PUSH2 0x643 JUMP JUMPDEST SWAP3 SWAP2 POP POP JUMP JUMPDEST PUSH0 DUP2 SWAP1 POP SWAP2 SWAP1 POP JUMP JUMPDEST PUSH2 0x67F DUP2 PUSH2 0x66D JUMP JUMPDEST DUP2 EQ PUSH2 0x689 JUMPI PUSH0 PUSH0 REVERT JUMPDEST POP JUMP JUMPDEST PUSH0 DUP2 MLOAD SWAP1 POP PUSH2 0x69A DUP2 PUSH2 0x676 JUMP JUMPDEST SWAP3 SWAP2 POP POP JUMP JUMPDEST PUSH0 DUP2 SWAP1 POP SWAP2 SWAP1 POP JUMP JUMPDEST PUSH2 0x6B2 DUP2 PUSH2 0x6A0 JUMP JUMPDEST DUP2 EQ PUSH2 0x6BC JUMPI PUSH0 PUSH0 REVERT JUMPDEST POP JUMP JUMPDEST PUSH0 DUP2 MLOAD SWAP1 POP PUSH2 0x6CD DUP2 PUSH2 0x6A9 JUMP JUMPDEST SWAP3 SWAP2 POP POP JUMP JUMPDEST PUSH0 PUSH0 PUSH0 PUSH0 PUSH0 PUSH0 PUSH0 PUSH0 PUSH0 PUSH2 0x120 DUP11 DUP13 SUB SLT ISZERO PUSH2 0x6F1 JUMPI PUSH2 0x6F0 PUSH2 0x597 JUMP JUMPDEST JUMPDEST PUSH0 PUSH2 0x6FE DUP13 DUP3 DUP14 ADD PUSH2 0x5F2 JUMP JUMPDEST SWAP10 POP POP PUSH1 0x20 PUSH2 0x70F DUP13 DUP3 DUP14 ADD PUSH2 0x61C JUMP JUMPDEST SWAP9 POP POP PUSH1 0x40 PUSH2 0x720 DUP13 DUP3 DUP14 ADD PUSH2 0x61C JUMP JUMPDEST SWAP8 POP POP PUSH1 0x60 PUSH2 0x731 DUP13 DUP3 DUP14 ADD PUSH2 0x61C JUMP JUMPDEST SWAP7 POP POP PUSH1 0x80 PUSH2 0x742 DUP13 DUP3 DUP14 ADD PUSH2 0x61C JUMP JUMPDEST SWAP6 POP POP PUSH1 0xA0 PUSH2 0x753 DUP13 DUP3 DUP14 ADD PUSH2 0x659 JUMP JUMPDEST SWAP5 POP POP PUSH1 0xC0 PUSH2 0x764 DUP13 DUP3 DUP14 ADD PUSH2 0x68C JUMP JUMPDEST SWAP4 POP POP PUSH1 0xE0 PUSH2 0x775 DUP13 DUP3 DUP14 ADD PUSH2 0x61C JUMP JUMPDEST SWAP3 POP POP PUSH2 0x100 PUSH2 0x787 DUP13 DUP3 DUP14 ADD PUSH2 0x6BF JUMP JUMPDEST SWAP2 POP POP SWAP3 SWAP6 SWAP9 POP SWAP3 SWAP6 SWAP9 POP SWAP3 SWAP6 SWAP9 JUMP JUMPDEST PUSH2 0x7A0 DUP2 PUSH2 0x5BA JUMP JUMPDEST DUP3 MSTORE POP POP JUMP JUMPDEST PUSH0 PUSH1 0x20 DUP3 ADD SWAP1 POP PUSH2 0x7B9 PUSH0 DUP4 ADD DUP5 PUSH2 0x797 JUMP JUMPDEST SWAP3 SWAP2 POP POP JUMP JUMPDEST PUSH0 DUP3 DUP3 MSTORE PUSH1 0x20 DUP3 ADD SWAP1 POP SWAP3 SWAP2 POP POP JUMP JUMPDEST PUSH32 0x7A65726F20746F6B656E00000000000000000000000000000000000000000000 PUSH0 DUP3 ADD MSTORE POP JUMP JUMPDEST PUSH0 PUSH2 0x803 PUSH1 0xA DUP4 PUSH2 0x7BF JUMP JUMPDEST SWAP2 POP PUSH2 0x80E DUP3 PUSH2 0x7CF JUMP JUMPDEST PUSH1 0x20 DUP3 ADD SWAP1 POP SWAP2 SWAP1 POP JUMP JUMPDEST PUSH0 PUSH1 0x20 DUP3 ADD SWAP1 POP DUP2 DUP2 SUB PUSH0 DUP4 ADD MSTORE PUSH2 0x830 DUP2 PUSH2 0x7F7 JUMP JUMPDEST SWAP1 POP SWAP2 SWAP1 POP JUMP JUMPDEST PUSH32 0x7A65726F2077616C6C6574730000000000000000000000000000000000000000 PUSH0 DUP3 ADD MSTORE POP JUMP JUMPDEST PUSH0 PUSH2 0x86B PUSH1 0xC DUP4 PUSH2 0x7BF JUMP JUMPDEST SWAP2 POP PUSH2 0x876 DUP3 PUSH2 0x837 JUMP JUMPDEST PUSH1 0x20 DUP3 ADD SWAP1 POP SWAP2 SWAP1 POP JUMP JUMPDEST PUSH0 PUSH1 0x20 DUP3 ADD SWAP1 POP DUP2 DUP2 SUB PUSH0 DUP4 ADD MSTORE PUSH2 0x898 DUP2 PUSH2 0x85F JUMP JUMPDEST SWAP1 POP SWAP2 SWAP1 POP JUMP JUMPDEST PUSH32 0x7A65726F206B6565706572000000000000000000000000000000000000000000 PUSH0 DUP3 ADD MSTORE POP JUMP JUMPDEST PUSH0 PUSH2 0x8D3 PUSH1 0xB DUP4 PUSH2 0x7BF JUMP JUMPDEST SWAP2 POP PUSH2 0x8DE DUP3 PUSH2 0x89F JUMP JUMPDEST PUSH1 0x20 DUP3 ADD SWAP1 POP SWAP2 SWAP1 POP JUMP JUMPDEST PUSH0 PUSH1 0x20 DUP3 ADD SWAP1 POP DUP2 DUP2 SUB PUSH0 DUP4 ADD MSTORE PUSH2 0x900 DUP2 PUSH2 0x8C7 JUMP JUMPDEST SWAP1 POP SWAP2 SWAP1 POP JUMP JUMPDEST PUSH1 0x80 MLOAD PUSH1 0xA0 MLOAD PUSH2 0x5655 PUSH2 0x96E PUSH0 CODECOPY PUSH0 DUP2 DUP2 PUSH2 0x11CD ADD MSTORE DUP2 DUP2 PUSH2 0x153E ADD MSTORE DUP2 DUP2 PUSH2 0x1F37 ADD MSTORE DUP2 DUP2 PUSH2 0x25B3 ADD MSTORE DUP2 DUP2 PUSH2 0x29A3 ADD MSTORE DUP2 DUP2 PUSH2 0x2A43 ADD MSTORE DUP2 DUP2 PUSH2 0x2A8C ADD MSTORE DUP2 DUP2 PUSH2 0x39F6 ADD MSTORE DUP2 DUP2 PUSH2 0x3A6B ADD MSTORE PUSH2 0x3AE0 ADD MSTORE PUSH0 DUP2 DUP2 PUSH2 0x126E ADD MSTORE PUSH2 0x12C2 ADD MSTORE PUSH2 0x5655 PUSH0 RETURN INVALID PUSH1 0x80 PUSH1 0x40 MSTORE PUSH1 0x4 CALLDATASIZE LT PUSH2 0x38F JUMPI PUSH0 CALLDATALOAD PUSH1 0xE0 SHR DUP1 PUSH4 0x748747E6 GT PUSH2 0x1DB JUMPI DUP1 PUSH4 0xAB0FC1A2 GT PUSH2 0x101 JUMPI DUP1 PUSH4 0xDF242D7D GT PUSH2 0x9F JUMPI DUP1 PUSH4 0xF2FDE38B GT PUSH2 0x6E JUMPI DUP1 PUSH4 0xF2FDE38B EQ PUSH2 0xCF6 JUMPI DUP1 PUSH4 0xF4DAABA1 EQ PUSH2 0xD1E JUMPI DUP1 PUSH4 0xF7CB789A EQ PUSH2 0xD48 JUMPI DUP1 PUSH4 0xFC3C28AF EQ PUSH2 0xD72 JUMPI PUSH2 0x43E JUMP JUMPDEST DUP1 PUSH4 0xDF242D7D EQ PUSH2 0xC3C JUMPI DUP1 PUSH4 0xE091A297 EQ PUSH2 0xC78 JUMPI DUP1 PUSH4 0xE712C298 EQ PUSH2 0xCA2 JUMPI DUP1 PUSH4 0xED647D21 EQ PUSH2 0xCCC JUMPI PUSH2 0x43E JUMP JUMPDEST DUP1 PUSH4 0xCF00D4B9 GT PUSH2 0xDB JUMPI DUP1 PUSH4 0xCF00D4B9 EQ PUSH2 0xB82 JUMPI DUP1 PUSH4 0xD5AA06FA EQ PUSH2 0xBAC JUMPI DUP1 PUSH4 0xDD4F8F74 EQ PUSH2 0xBE8 JUMPI DUP1 PUSH4 0xDD60C898 EQ PUSH2 0xC12 JUMPI PUSH2 0x43E JUMP JUMPDEST DUP1 PUSH4 0xAB0FC1A2 EQ PUSH2 0xB04 JUMPI DUP1 PUSH4 0xACED1661 EQ PUSH2 0xB2E JUMPI DUP1 PUSH4 0xBF380631 EQ PUSH2 0xB58 JUMPI PUSH2 0x43E JUMP JUMPDEST DUP1 PUSH4 0x89294346 GT PUSH2 0x179 JUMPI DUP1 PUSH4 0x8DA5CB5B GT PUSH2 0x148 JUMPI DUP1 PUSH4 0x8DA5CB5B EQ PUSH2 0xA5E JUMPI DUP1 PUSH4 0x8EA5220F EQ PUSH2 0xA88 JUMPI DUP1 PUSH4 0x9E1ADA04 EQ PUSH2 0xAB2 JUMPI DUP1 PUSH4 0xA6AC4B35 EQ PUSH2 0xADA JUMPI PUSH2 0x43E JUMP JUMPDEST DUP1 PUSH4 0x89294346 EQ PUSH2 0x9A3 JUMPI DUP1 PUSH4 0x8A19C8BC EQ PUSH2 0x9CB JUMPI DUP1 PUSH4 0x8C178E42 EQ PUSH2 0x9F5 JUMPI DUP1 PUSH4 0x8C65C81F EQ PUSH2 0xA1D JUMPI PUSH2 0x43E JUMP JUMPDEST DUP1 PUSH4 0x7FD7F412 GT PUSH2 0x1B5 JUMPI DUP1 PUSH4 0x7FD7F412 EQ PUSH2 0x91D JUMPI DUP1 PUSH4 0x82DDBB30 EQ PUSH2 0x947 JUMPI DUP1 PUSH4 0x8456CB59 EQ PUSH2 0x951 JUMPI DUP1 PUSH4 0x87B18A52 EQ PUSH2 0x967 JUMPI PUSH2 0x43E JUMP JUMPDEST DUP1 PUSH4 0x748747E6 EQ PUSH2 0x8A5 JUMPI DUP1 PUSH4 0x75CB1BD1 EQ PUSH2 0x8CD JUMPI DUP1 PUSH4 0x7B0472F0 EQ PUSH2 0x8F5 JUMPI PUSH2 0x43E JUMP JUMPDEST DUP1 PUSH4 0x3B7ED734 GT PUSH2 0x2C0 JUMPI DUP1 PUSH4 0x5E38CA70 GT PUSH2 0x25E JUMPI DUP1 PUSH4 0x715018A6 GT PUSH2 0x22D JUMPI DUP1 PUSH4 0x715018A6 EQ PUSH2 0x811 JUMPI DUP1 PUSH4 0x719A59D8 EQ PUSH2 0x827 JUMPI DUP1 PUSH4 0x719CE73E EQ PUSH2 0x851 JUMPI DUP1 PUSH4 0x72F702F3 EQ PUSH2 0x87B JUMPI PUSH2 0x43E JUMP JUMPDEST DUP1 PUSH4 0x5E38CA70 EQ PUSH2 0x793 JUMPI DUP1 PUSH4 0x62581733 EQ PUSH2 0x7BB JUMPI DUP1 PUSH4 0x6303516C EQ PUSH2 0x7D1 JUMPI DUP1 PUSH4 0x656FE8EF EQ PUSH2 0x7FB JUMPI PUSH2 0x43E JUMP JUMPDEST DUP1 PUSH4 0x576F35E3 GT PUSH2 0x29A JUMPI DUP1 PUSH4 0x576F35E3 EQ PUSH2 0x6ED JUMPI DUP1 PUSH4 0x598BC486 EQ PUSH2 0x715 JUMPI DUP1 PUSH4 0x5AA68AC0 EQ PUSH2 0x73F JUMPI DUP1 PUSH4 0x5C975ABB EQ PUSH2 0x769 JUMPI PUSH2 0x43E JUMP JUMPDEST DUP1 PUSH4 0x3B7ED734 EQ PUSH2 0x683 JUMPI DUP1 PUSH4 0x3F4BA83A EQ PUSH2 0x6AD JUMPI DUP1 PUSH4 0x461DBDA0 EQ PUSH2 0x6C3 JUMPI PUSH2 0x43E JUMP JUMPDEST DUP1 PUSH4 0x1FE543E3 GT PUSH2 0x32D JUMPI DUP1 PUSH4 0x3243FB89 GT PUSH2 0x307 JUMPI DUP1 PUSH4 0x3243FB89 EQ PUSH2 0x5DF JUMPI DUP1 PUSH4 0x32D368CE EQ PUSH2 0x61B JUMPI DUP1 PUSH4 0x36C92C3F EQ PUSH2 0x645 JUMPI DUP1 PUSH4 0x39D98723 EQ PUSH2 0x66D JUMPI PUSH2 0x43E JUMP JUMPDEST DUP1 PUSH4 0x1FE543E3 EQ PUSH2 0x577 JUMPI DUP1 PUSH4 0x259B8AF7 EQ PUSH2 0x59F JUMPI DUP1 PUSH4 0x2DEF6620 EQ PUSH2 0x5C9 JUMPI PUSH2 0x43E JUMP JUMPDEST DUP1 PUSH4 0x6228749 GT PUSH2 0x369 JUMPI DUP1 PUSH4 0x6228749 EQ PUSH2 0x4BE JUMPI DUP1 PUSH4 0x83B9137 EQ PUSH2 0x4E8 JUMPI DUP1 PUSH4 0xE135AA1 EQ PUSH2 0x524 JUMPI DUP1 PUSH4 0xF4863F7 EQ PUSH2 0x561 JUMPI PUSH2 0x43E JUMP JUMPDEST DUP1 PUSH4 0x3807EE5 EQ PUSH2 0x442 JUMPI DUP1 PUSH4 0x41D443E EQ PUSH2 0x46C JUMPI DUP1 PUSH4 0x4AB9F03 EQ PUSH2 0x496 JUMPI PUSH2 0x43E JUMP JUMPDEST CALLDATASIZE PUSH2 0x43E JUMPI PUSH0 CALLVALUE GT PUSH2 0x3D6 JUMPI PUSH1 0x40 MLOAD PUSH32 0x8C379A000000000000000000000000000000000000000000000000000000000 DUP2 MSTORE PUSH1 0x4 ADD PUSH2 0x3CD SWAP1 PUSH2 0x3DC1 JUMP JUMPDEST PUSH1 0x40 MLOAD DUP1 SWAP2 SUB SWAP1 REVERT JUMPDEST CALLVALUE PUSH1 0x19 PUSH0 DUP3 DUP3 SLOAD PUSH2 0x3E7 SWAP2 SWAP1 PUSH2 0x3E15 JUMP JUMPDEST SWAP3 POP POP DUP2 SWAP1 SSTORE POP CALLER PUSH20 0xFFFFFFFFFFFFFFFFFFFFFFFFFFFFFFFFFFFFFFFF AND PUSH32 0x32FB8666FB8614C76BA83B694A0C60F4EE5699886BFE56001AA48337FBB134FF CALLVALUE PUSH1 0x40 MLOAD PUSH2 0x434 SWAP2 SWAP1 PUSH2 0x3E57 JUMP JUMPDEST PUSH1 0x40 MLOAD DUP1 SWAP2 SUB SWAP1 LOG2 STOP JUMPDEST PUSH0 PUSH0 REVERT JUMPDEST CALLVALUE DUP1 ISZERO PUSH2 0x44D JUMPI PUSH0 PUSH0 REVERT JUMPDEST POP PUSH2 0x456 PUSH2 0xD9C JUMP JUMPDEST PUSH1 0x40 MLOAD PUSH2 0x463 SWAP2 SWAP1 PUSH2 0x3E57 JUMP JUMPDEST PUSH1 0x40 MLOAD DUP1 SWAP2 SUB SWAP1 RETURN JUMPDEST CALLVALUE DUP1 ISZERO PUSH2 0x477 JUMPI PUSH0 PUSH0 REVERT JUMPDEST POP PUSH2 0x480 PUSH2 0xDA2 JUMP JUMPDEST PUSH1 0x40 MLOAD PUSH2 0x48D SWAP2 SWAP1 PUSH2 0x3E88 JUMP JUMPDEST PUSH1 0x40 MLOAD DUP1 SWAP2 SUB SWAP1 RETURN JUMPDEST CALLVALUE DUP1 ISZERO PUSH2 0x4A1 JUMPI PUSH0 PUSH0 REVERT JUMPDEST POP PUSH2 0x4BC PUSH1 0x4 DUP1 CALLDATASIZE SUB DUP2 ADD SWAP1 PUSH2 0x4B7 SWAP2 SWAP1 PUSH2 0x3EDC JUMP JUMPDEST PUSH2 0xDA8 JUMP JUMPDEST STOP JUMPDEST CALLVALUE DUP1 ISZERO PUSH2 0x4C9 JUMPI PUSH0 PUSH0 REVERT JUMPDEST POP PUSH2 0x4D2 PUSH2 0xFC6 JUMP JUMPDEST PUSH1 0x40 MLOAD PUSH2 0x4DF SWAP2 SWAP1 PUSH2 0x3F59 JUMP JUMPDEST PUSH1 0x40 MLOAD DUP1 SWAP2 SUB SWAP1 RETURN JUMPDEST CALLVALUE DUP1 ISZERO PUSH2 0x4F3 JUMPI PUSH0 PUSH0 REVERT JUMPDEST POP PUSH2 0x50E PUSH1 0x4 DUP1 CALLDATASIZE SUB DUP2 ADD SWAP1 PUSH2 0x509 SWAP2 SWAP1 PUSH2 0x3F9C JUMP JUMPDEST PUSH2 0xFEB JUMP JUMPDEST PUSH1 0x40 MLOAD PUSH2 0x51B SWAP2 SWAP1 PUSH2 0x3E57 JUMP JUMPDEST PUSH1 0x40 MLOAD DUP1 SWAP2 SUB SWAP1 RETURN JUMPDEST CALLVALUE DUP1 ISZERO PUSH2 0x52F JUMPI PUSH0 PUSH0 REVERT JUMPDEST POP PUSH2 0x54A PUSH1 0x4 DUP1 CALLDATASIZE SUB DUP2 ADD SWAP1 PUSH2 0x545 SWAP2 SWAP1 PUSH2 0x3F9C JUMP JUMPDEST PUSH2 0x1000 JUMP JUMPDEST PUSH1 0x40 MLOAD PUSH2 0x558 SWAP3 SWAP2 SWAP1 PUSH2 0x3FC7 JUMP JUMPDEST PUSH1 0x40 MLOAD DUP1 SWAP2 SUB SWAP1 RETURN JUMPDEST CALLVALUE DUP1 ISZERO PUSH2 0x56C JUMPI PUSH0 PUSH0 REVERT JUMPDEST POP PUSH2 0x575 PUSH2 0x1020 JUMP JUMPDEST STOP JUMPDEST CALLVALUE DUP1 ISZERO PUSH2 0x582 JUMPI PUSH0 PUSH0 REVERT JUMPDEST POP PUSH2 0x59D PUSH1 0x4 DUP1 CALLDATASIZE SUB DUP2 ADD SWAP1 PUSH2 0x598 SWAP2 SWAP1 PUSH2 0x413E JUMP JUMPDEST PUSH2 0x126C JUMP JUMPDEST STOP JUMPDEST CALLVALUE DUP1 ISZERO PUSH2 0x5AA JUMPI PUSH0 PUSH0 REVERT JUMPDEST POP PUSH2 0x5B3 PUSH2 0x132C JUMP JUMPDEST PUSH1 0x40 MLOAD PUSH2 0x5C0 SWAP2 SWAP1 PUSH2 0x3E57 JUMP JUMPDEST PUSH1 0x40 MLOAD DUP1 SWAP2 SUB SWAP1 RETURN JUMPDEST CALLVALUE DUP1 ISZERO PUSH2 0x5D4 JUMPI PUSH0 PUSH0 REVERT JUMPDEST POP PUSH2 0x5DD PUSH2 0x1332 JUMP JUMPDEST STOP JUMPDEST CALLVALUE DUP1 ISZERO PUSH2 0x5EA JUMPI PUSH0 PUSH0 REVERT JUMPDEST POP PUSH2 0x605 PUSH1 0x4 DUP1 CALLDATASIZE SUB DUP2 ADD SWAP1 PUSH2 0x600 SWAP2 SWAP1 PUSH2 0x4198 JUMP JUMPDEST PUSH2 0x15DC JUMP JUMPDEST PUSH1 0x40 MLOAD PUSH2 0x612 SWAP2 SWAP1 PUSH2 0x3E57 JUMP JUMPDEST PUSH1 0x40 MLOAD DUP1 SWAP2 SUB SWAP1 RETURN JUMPDEST CALLVALUE DUP1 ISZERO PUSH2 0x626 JUMPI PUSH0 PUSH0 REVERT JUMPDEST POP PUSH2 0x62F PUSH2 0x15F6 JUMP JUMPDEST PUSH1 0x40 MLOAD PUSH2 0x63C SWAP2 SWAP1 PUSH2 0x3E57 JUMP JUMPDEST PUSH1 0x40 MLOAD DUP1 SWAP2 SUB SWAP1 RETURN JUMPDEST CALLVALUE DUP1 ISZERO PUSH2 0x650 JUMPI PUSH0 PUSH0 REVERT JUMPDEST POP PUSH2 0x66B PUSH1 0x4 DUP1 CALLDATASIZE SUB DUP2 ADD SWAP1 PUSH2 0x666 SWAP2 SWAP1 PUSH2 0x4198 JUMP JUMPDEST PUSH2 0x15FC JUMP JUMPDEST STOP JUMPDEST CALLVALUE DUP1 ISZERO PUSH2 0x678 JUMPI PUSH0 PUSH0 REVERT JUMPDEST POP PUSH2 0x681 PUSH2 0x1652 JUMP JUMPDEST STOP JUMPDEST CALLVALUE DUP1 ISZERO PUSH2 0x68E JUMPI PUSH0 PUSH0 REVERT JUMPDEST POP PUSH2 0x697 PUSH2 0x1FDA JUMP JUMPDEST PUSH1 0x40 MLOAD PUSH2 0x6A4 SWAP2 SWAP1 PUSH2 0x41E1 JUMP JUMPDEST PUSH1 0x40 MLOAD DUP1 SWAP2 SUB SWAP1 RETURN JUMPDEST CALLVALUE DUP1 ISZERO PUSH2 0x6B8 JUMPI PUSH0 PUSH0 REVERT JUMPDEST POP PUSH2 0x6C1 PUSH2 0x1FEF JUMP JUMPDEST STOP JUMPDEST CALLVALUE DUP1 ISZERO PUSH2 0x6CE JUMPI PUSH0 PUSH0 REVERT JUMPDEST POP PUSH2 0x6D7 PUSH2 0x2055 JUMP JUMPDEST PUSH1 0x40 MLOAD PUSH2 0x6E4 SWAP2 SWAP1 PUSH2 0x4214 JUMP JUMPDEST PUSH1 0x40 MLOAD DUP1 SWAP2 SUB SWAP1 RETURN JUMPDEST CALLVALUE DUP1 ISZERO PUSH2 0x6F8 JUMPI PUSH0 PUSH0 REVERT JUMPDEST POP PUSH2 0x713 PUSH1 0x4 DUP1 CALLDATASIZE SUB DUP2 ADD SWAP1 PUSH2 0x70E SWAP2 SWAP1 PUSH2 0x4198 JUMP JUMPDEST PUSH2 0x2068 JUMP JUMPDEST STOP JUMPDEST CALLVALUE DUP1 ISZERO PUSH2 0x720 JUMPI PUSH0 PUSH0 REVERT JUMPDEST POP PUSH2 0x729 PUSH2 0x20CA JUMP JUMPDEST PUSH1 0x40 MLOAD PUSH2 0x736 SWAP2 SWAP1 PUSH2 0x4249 JUMP JUMPDEST PUSH1 0x40 MLOAD DUP1 SWAP2 SUB SWAP1 RETURN JUMPDEST CALLVALUE DUP1 ISZERO PUSH2 0x74A JUMPI PUSH0 PUSH0 REVERT JUMPDEST POP PUSH2 0x753 PUSH2 0x20DE JUMP JUMPDEST PUSH1 0x40 MLOAD PUSH2 0x760 SWAP2 SWAP1 PUSH2 0x4319 JUMP JUMPDEST PUSH1 0x40 MLOAD DUP1 SWAP2 SUB SWAP1 RETURN JUMPDEST CALLVALUE DUP1 ISZERO PUSH2 0x774 JUMPI PUSH0 PUSH0 REVERT JUMPDEST POP PUSH2 0x77D PUSH2 0x2169 JUMP JUMPDEST PUSH1 0x40 MLOAD PUSH2 0x78A SWAP2 SWAP1 PUSH2 0x4214 JUMP JUMPDEST PUSH1 0x40 MLOAD DUP1 SWAP2 SUB SWAP1 RETURN JUMPDEST CALLVALUE DUP1 ISZERO PUSH2 0x79E JUMPI PUSH0 PUSH0 REVERT JUMPDEST POP PUSH2 0x7B9 PUSH1 0x4 DUP1 CALLDATASIZE SUB DUP2 ADD SWAP1 PUSH2 0x7B4 SWAP2 SWAP1 PUSH2 0x4339 JUMP JUMPDEST PUSH2 0x217A JUMP JUMPDEST STOP JUMPDEST CALLVALUE DUP1 ISZERO PUSH2 0x7C6 JUMPI PUSH0 PUSH0 REVERT JUMPDEST POP PUSH2 0x7CF PUSH2 0x229E JUMP JUMPDEST STOP JUMPDEST CALLVALUE DUP1 ISZERO PUSH2 0x7DC JUMPI PUSH0 PUSH0 REVERT JUMPDEST POP PUSH2 0x7E5 PUSH2 0x23AF JUMP JUMPDEST PUSH1 0x40 MLOAD PUSH2 0x7F2 SWAP2 SWAP1 PUSH2 0x3F59 JUMP JUMPDEST PUSH1 0x40 MLOAD DUP1 SWAP2 SUB SWAP1 RETURN JUMPDEST CALLVALUE DUP1 ISZERO PUSH2 0x806 JUMPI PUSH0 PUSH0 REVERT JUMPDEST POP PUSH2 0x80F PUSH2 0x23D4 JUMP JUMPDEST STOP JUMPDEST CALLVALUE DUP1 ISZERO PUSH2 0x81C JUMPI PUSH0 PUSH0 REVERT JUMPDEST POP PUSH2 0x825 PUSH2 0x2592 JUMP JUMPDEST STOP JUMPDEST CALLVALUE DUP1 ISZERO PUSH2 0x832 JUMPI PUSH0 PUSH0 REVERT JUMPDEST POP PUSH2 0x83B PUSH2 0x25A5 JUMP JUMPDEST PUSH1 0x40 MLOAD PUSH2 0x848 SWAP2 SWAP1 PUSH2 0x3E57 JUMP JUMPDEST PUSH1 0x40 MLOAD DUP1 SWAP2 SUB SWAP1 RETURN JUMPDEST CALLVALUE DUP1 ISZERO PUSH2 0x85C JUMPI PUSH0 PUSH0 REVERT JUMPDEST POP PUSH2 0x865 PUSH2 0x25AB JUMP JUMPDEST PUSH1 0x40 MLOAD PUSH2 0x872 SWAP2 SWAP1 PUSH2 0x3E57 JUMP JUMPDEST PUSH1 0x40 MLOAD DUP1 SWAP2 SUB SWAP1 RETURN JUMPDEST CALLVALUE DUP1 ISZERO PUSH2 0x886 JUMPI PUSH0 PUSH0 REVERT JUMPDEST POP PUSH2 0x88F PUSH2 0x25B1 JUMP JUMPDEST PUSH1 0x40 MLOAD PUSH2 0x89C SWAP2 SWAP1 PUSH2 0x440B JUMP JUMPDEST PUSH1 0x40 MLOAD DUP1 SWAP2 SUB SWAP1 RETURN JUMPDEST CALLVALUE DUP1 ISZERO PUSH2 0x8B0 JUMPI PUSH0 PUSH0 REVERT JUMPDEST POP PUSH2 0x8CB PUSH1 0x4 DUP1 CALLDATASIZE SUB DUP2 ADD SWAP1 PUSH2 0x8C6 SWAP2 SWAP1 PUSH2 0x3F9C JUMP JUMPDEST PUSH2 0x25D5 JUMP JUMPDEST STOP JUMPDEST CALLVALUE DUP1 ISZERO PUSH2 0x8D8 JUMPI PUSH0 PUSH0 REVERT JUMPDEST POP PUSH2 0x8F3 PUSH1 0x4 DUP1 CALLDATASIZE SUB DUP2 ADD SWAP1 PUSH2 0x8EE SWAP2 SWAP1 PUSH2 0x4424 JUMP JUMPDEST PUSH2 0x26D3 JUMP JUMPDEST STOP JUMPDEST CALLVALUE DUP1 ISZERO PUSH2 0x900 JUMPI PUSH0 PUSH0 REVERT JUMPDEST POP PUSH2 0x91B PUSH1 0x4 DUP1 CALLDATASIZE SUB DUP2 ADD SWAP1 PUSH2 0x916 SWAP2 SWAP1 PUSH2 0x3EDC JUMP JUMPDEST PUSH2 0x28BA JUMP JUMPDEST STOP JUMPDEST CALLVALUE DUP1 ISZERO PUSH2 0x928 JUMPI PUSH0 PUSH0 REVERT JUMPDEST POP PUSH2 0x931 PUSH2 0x2D10 JUMP JUMPDEST PUSH1 0x40 MLOAD PUSH2 0x93E SWAP2 SWAP1 PUSH2 0x3E57 JUMP JUMPDEST PUSH1 0x40 MLOAD DUP1 SWAP2 SUB SWAP1 RETURN JUMPDEST PUSH2 0x94F PUSH2 0x3036 JUMP JUMPDEST STOP JUMPDEST CALLVALUE DUP1 ISZERO PUSH2 0x95C JUMPI PUSH0 PUSH0 REVERT JUMPDEST POP PUSH2 0x965 PUSH2 0x30E8 JUMP JUMPDEST STOP JUMPDEST CALLVALUE DUP1 ISZERO PUSH2 0x972 JUMPI PUSH0 PUSH0 REVERT JUMPDEST POP PUSH2 0x98D PUSH1 0x4 DUP1 CALLDATASIZE SUB DUP2 ADD SWAP1 PUSH2 0x988 SWAP2 SWAP1 PUSH2 0x4198 JUMP JUMPDEST PUSH2 0x314F JUMP JUMPDEST PUSH1 0x40 MLOAD PUSH2 0x99A SWAP2 SWAP1 PUSH2 0x3E57 JUMP JUMPDEST PUSH1 0x40 MLOAD DUP1 SWAP2 SUB SWAP1 RETURN JUMPDEST CALLVALUE DUP1 ISZERO PUSH2 0x9AE JUMPI PUSH0 PUSH0 REVERT JUMPDEST POP PUSH2 0x9C9 PUSH1 0x4 DUP1 CALLDATASIZE SUB DUP2 ADD SWAP1 PUSH2 0x9C4 SWAP2 SWAP1 PUSH2 0x4198 JUMP JUMPDEST PUSH2 0x3164 JUMP JUMPDEST STOP JUMPDEST CALLVALUE DUP1 ISZERO PUSH2 0x9D6 JUMPI PUSH0 PUSH0 REVERT JUMPDEST POP PUSH2 0x9DF PUSH2 0x325E JUMP JUMPDEST PUSH1 0x40 MLOAD PUSH2 0x9EC SWAP2 SWAP1 PUSH2 0x3E57 JUMP JUMPDEST PUSH1 0x40 MLOAD DUP1 SWAP2 SUB SWAP1 RETURN JUMPDEST CALLVALUE DUP1 ISZERO PUSH2 0xA00 JUMPI PUSH0 PUSH0 REVERT JUMPDEST POP PUSH2 0xA1B PUSH1 0x4 DUP1 CALLDATASIZE SUB DUP2 ADD SWAP1 PUSH2 0xA16 SWAP2 SWAP1 PUSH2 0x4198 JUMP JUMPDEST PUSH2 0x3264 JUMP JUMPDEST STOP JUMPDEST CALLVALUE DUP1 ISZERO PUSH2 0xA28 JUMPI PUSH0 PUSH0 REVERT JUMPDEST POP PUSH2 0xA43 PUSH1 0x4 DUP1 CALLDATASIZE SUB DUP2 ADD SWAP1 PUSH2 0xA3E SWAP2 SWAP1 PUSH2 0x4198 JUMP JUMPDEST PUSH2 0x3276 JUMP JUMPDEST PUSH1 0x40 MLOAD PUSH2 0xA55 SWAP7 SWAP6 SWAP5 SWAP4 SWAP3 SWAP2 SWAP1 PUSH2 0x4474 JUMP JUMPDEST PUSH1 0x40 MLOAD DUP1 SWAP2 SUB SWAP1 RETURN JUMPDEST CALLVALUE DUP1 ISZERO PUSH2 0xA69 JUMPI PUSH0 PUSH0 REVERT JUMPDEST POP PUSH2 0xA72 PUSH2 0x32C7 JUMP JUMPDEST PUSH1 0x40 MLOAD PUSH2 0xA7F SWAP2 SWAP1 PUSH2 0x3F59 JUMP JUMPDEST PUSH1 0x40 MLOAD DUP1 SWAP2 SUB SWAP1 RETURN JUMPDEST CALLVALUE DUP1 ISZERO PUSH2 0xA93 JUMPI PUSH0 PUSH0 REVERT JUMPDEST POP PUSH2 0xA9C PUSH2 0x32EE JUMP JUMPDEST PUSH1 0x40 MLOAD PUSH2 0xAA9 SWAP2 SWAP1 PUSH2 0x3F59 JUMP JUMPDEST PUSH1 0x40 MLOAD DUP1 SWAP2 SUB SWAP1 RETURN JUMPDEST CALLVALUE DUP1 ISZERO PUSH2 0xABD JUMPI PUSH0 PUSH0 REVERT JUMPDEST POP PUSH2 0xAD8 PUSH1 0x4 DUP1 CALLDATASIZE SUB DUP2 ADD SWAP1 PUSH2 0xAD3 SWAP2 SWAP1 PUSH2 0x4198 JUMP JUMPDEST PUSH2 0x3313 JUMP JUMPDEST STOP JUMPDEST CALLVALUE DUP1 ISZERO PUSH2 0xAE5 JUMPI PUSH0 PUSH0 REVERT JUMPDEST POP PUSH2 0xAEE PUSH2 0x3367 JUMP JUMPDEST PUSH1 0x40 MLOAD PUSH2 0xAFB SWAP2 SWAP1 PUSH2 0x4214 JUMP JUMPDEST PUSH1 0x40 MLOAD DUP1 SWAP2 SUB SWAP1 RETURN JUMPDEST CALLVALUE DUP1 ISZERO PUSH2 0xB0F JUMPI PUSH0 PUSH0 REVERT JUMPDEST POP PUSH2 0xB18 PUSH2 0x3379 JUMP JUMPDEST PUSH1 0x40 MLOAD PUSH2 0xB25 SWAP2 SWAP1 PUSH2 0x3E57 JUMP JUMPDEST PUSH1 0x40 MLOAD DUP1 SWAP2 SUB SWAP1 RETURN JUMPDEST CALLVALUE DUP1 ISZERO PUSH2 0xB39 JUMPI PUSH0 PUSH0 REVERT JUMPDEST POP PUSH2 0xB42 PUSH2 0x337F JUMP JUMPDEST PUSH1 0x40 MLOAD PUSH2 0xB4F SWAP2 SWAP1 PUSH2 0x3F59 JUMP JUMPDEST PUSH1 0x40 MLOAD DUP1 SWAP2 SUB SWAP1 RETURN JUMPDEST CALLVALUE DUP1 ISZERO PUSH2 0xB63 JUMPI PUSH0 PUSH0 REVERT JUMPDEST POP PUSH2 0xB6C PUSH2 0x33A4 JUMP JUMPDEST PUSH1 0x40 MLOAD PUSH2 0xB79 SWAP2 SWAP1 PUSH2 0x3E57 JUMP JUMPDEST PUSH1 0x40 MLOAD DUP1 SWAP2 SUB SWAP1 RETURN JUMPDEST CALLVALUE DUP1 ISZERO PUSH2 0xB8D JUMPI PUSH0 PUSH0 REVERT JUMPDEST POP PUSH2 0xB96 PUSH2 0x33AA JUMP JUMPDEST PUSH1 0x40 MLOAD PUSH2 0xBA3 SWAP2 SWAP1 PUSH2 0x3E57 JUMP JUMPDEST PUSH1 0x40 MLOAD DUP1 SWAP2 SUB SWAP1 RETURN JUMPDEST CALLVALUE DUP1 ISZERO PUSH2 0xBB7 JUMPI PUSH0 PUSH0 REVERT JUMPDEST POP PUSH2 0xBD2 PUSH1 0x4 DUP1 CALLDATASIZE SUB DUP2 ADD SWAP1 PUSH2 0xBCD SWAP2 SWAP1 PUSH2 0x4198 JUMP JUMPDEST PUSH2 0x33B0 JUMP JUMPDEST PUSH1 0x40 MLOAD PUSH2 0xBDF SWAP2 SWAP1 PUSH2 0x3E57 JUMP JUMPDEST PUSH1 0x40 MLOAD DUP1 SWAP2 SUB SWAP1 RETURN JUMPDEST CALLVALUE DUP1 ISZERO PUSH2 0xBF3 JUMPI PUSH0 PUSH0 REVERT JUMPDEST POP PUSH2 0xBFC PUSH2 0x33C5 JUMP JUMPDEST PUSH1 0x40 MLOAD PUSH2 0xC09 SWAP2 SWAP1 PUSH2 0x3E57 JUMP JUMPDEST PUSH1 0x40 MLOAD DUP1 SWAP2 SUB SWAP1 RETURN JUMPDEST CALLVALUE DUP1 ISZERO PUSH2 0xC1D JUMPI PUSH0 PUSH0 REVERT JUMPDEST POP PUSH2 0xC26 PUSH2 0x33CB JUMP JUMPDEST PUSH1 0x40 MLOAD PUSH2 0xC33 SWAP2 SWAP1 PUSH2 0x3E57 JUMP JUMPDEST PUSH1 0x40 MLOAD DUP1 SWAP2 SUB SWAP1 RETURN JUMPDEST CALLVALUE DUP1 ISZERO PUSH2 0xC47 JUMPI PUSH0 PUSH0 REVERT JUMPDEST POP PUSH2 0xC62 PUSH1 0x4 DUP1 CALLDATASIZE SUB DUP2 ADD SWAP1 PUSH2 0xC5D SWAP2 SWAP1 PUSH2 0x4198 JUMP JUMPDEST PUSH2 0x33D7 JUMP JUMPDEST PUSH1 0x40 MLOAD PUSH2 0xC6F SWAP2 SWAP1 PUSH2 0x3E57 JUMP JUMPDEST PUSH1 0x40 MLOAD DUP1 SWAP2 SUB SWAP1 RETURN JUMPDEST CALLVALUE DUP1 ISZERO PUSH2 0xC83 JUMPI PUSH0 PUSH0 REVERT JUMPDEST POP PUSH2 0xC8C PUSH2 0x33EC JUMP JUMPDEST PUSH1 0x40 MLOAD PUSH2 0xC99 SWAP2 SWAP1 PUSH2 0x3E57 JUMP JUMPDEST PUSH1 0x40 MLOAD DUP1 SWAP2 SUB SWAP1 RETURN JUMPDEST CALLVALUE DUP1 ISZERO PUSH2 0xCAD JUMPI PUSH0 PUSH0 REVERT JUMPDEST POP PUSH2 0xCB6 PUSH2 0x33F2 JUMP JUMPDEST PUSH1 0x40 MLOAD PUSH2 0xCC3 SWAP2 SWAP1 PUSH2 0x3E57 JUMP JUMPDEST PUSH1 0x40 MLOAD DUP1 SWAP2 SUB SWAP1 RETURN JUMPDEST CALLVALUE DUP1 ISZERO PUSH2 0xCD7 JUMPI PUSH0 PUSH0 REVERT JUMPDEST POP PUSH2 0xCE0 PUSH2 0x33F8 JUMP JUMPDEST PUSH1 0x40 MLOAD PUSH2 0xCED SWAP2 SWAP1 PUSH2 0x44F5 JUMP JUMPDEST PUSH1 0x40 MLOAD DUP1 SWAP2 SUB SWAP1 RETURN JUMPDEST CALLVALUE DUP1 ISZERO PUSH2 0xD01 JUMPI PUSH0 PUSH0 REVERT JUMPDEST POP PUSH2 0xD1C PUSH1 0x4 DUP1 CALLDATASIZE SUB DUP2 ADD SWAP1 PUSH2 0xD17 SWAP2 SWAP1 PUSH2 0x3F9C JUMP JUMPDEST PUSH2 0x3412 JUMP JUMPDEST STOP JUMPDEST CALLVALUE DUP1 ISZERO PUSH2 0xD29 JUMPI PUSH0 PUSH0 REVERT JUMPDEST POP PUSH2 0xD32 PUSH2 0x3496 JUMP JUMPDEST PUSH1 0x40 MLOAD PUSH2 0xD3F SWAP2 SWAP1 PUSH2 0x3E57 JUMP JUMPDEST PUSH1 0x40 MLOAD DUP1 SWAP2 SUB SWAP1 RETURN JUMPDEST CALLVALUE DUP1 ISZERO PUSH2 0xD53 JUMPI PUSH0 PUSH0 REVERT JUMPDEST POP PUSH2 0xD5C PUSH2 0x349C JUMP JUMPDEST PUSH1 0x40 MLOAD PUSH2 0xD69 SWAP2 SWAP1 PUSH2 0x3E57 JUMP JUMPDEST PUSH1 0x40 MLOAD DUP1 SWAP2 SUB SWAP1 RETURN JUMPDEST CALLVALUE DUP1 ISZERO PUSH2 0xD7D JUMPI PUSH0 PUSH0 REVERT JUMPDEST POP PUSH2 0xD86 PUSH2 0x34A2 JUMP JUMPDEST PUSH1 0x40 MLOAD PUSH2 0xD93 SWAP2 SWAP1 PUSH2 0x3E57 JUMP JUMPDEST PUSH1 0x40 MLOAD DUP1 SWAP2 SUB SWAP1 RETURN JUMPDEST PUSH1 0xD SLOAD DUP2 JUMP JUMPDEST PUSH1 0x1D SLOAD DUP2 JUMP JUMPDEST PUSH2 0xDB0 PUSH2 0x34A8 JUMP JUMPDEST PUSH1 0x2 DUP1 SLOAD SWAP1 PUSH2 0x100 EXP SWAP1 DIV PUSH1 0xFF AND ISZERO PUSH2 0xDFE JUMPI PUSH1 0x40 MLOAD PUSH32 0x8C379A000000000000000000000000000000000000000000000000000000000 DUP2 MSTORE PUSH1 0x4 ADD PUSH2 0xDF5 SWAP1 PUSH2 0x4558 JUMP JUMPDEST PUSH1 0x40 MLOAD DUP1 SWAP2 SUB SWAP1 REVERT JUMPDEST PUSH0 PUSH1 0xA PUSH0 DUP5 DUP2 MSTORE PUSH1 0x20 ADD SWAP1 DUP2 MSTORE PUSH1 0x20 ADD PUSH0 KECCAK256 PUSH1 0x3 ADD SLOAD GT PUSH2 0xE54 JUMPI PUSH1 0x40 MLOAD PUSH32 0x8C379A000000000000000000000000000000000000000000000000000000000 DUP2 MSTORE PUSH1 0x4 ADD PUSH2 0xE4B SWAP1 PUSH2 0x45C0 JUMP JUMPDEST PUSH1 0x40 MLOAD DUP1 SWAP2 SUB SWAP1 REVERT JUMPDEST PUSH1 0xA PUSH0 DUP4 DUP2 MSTORE PUSH1 0x20 ADD SWAP1 DUP2 MSTORE PUSH1 0x20 ADD PUSH0 KECCAK256 PUSH1 0x4 ADD PUSH0 SWAP1 SLOAD SWAP1 PUSH2 0x100 EXP SWAP1 DIV PUSH1 0xFF AND ISZERO PUSH2 0xEB5 JUMPI PUSH1 0x40 MLOAD PUSH32 0x8C379A000000000000000000000000000000000000000000000000000000000 DUP2 MSTORE PUSH1 0x4 ADD PUSH2 0xEAC SWAP1 PUSH2 0x4628 JUMP JUMPDEST PUSH1 0x40 MLOAD DUP1 SWAP2 SUB SWAP1 REVERT JUMPDEST PUSH2 0x1388 PUSH1 0xA PUSH0 DUP5 DUP2 MSTORE PUSH1 0x20 ADD SWAP1 DUP2 MSTORE PUSH1 0x20 ADD PUSH0 KECCAK256 PUSH1 0x3 ADD SLOAD PUSH2 0xED7 SWAP2 SWAP1 PUSH2 0x3E15 JUMP JUMPDEST NUMBER GT PUSH2 0xF18 JUMPI PUSH1 0x40 MLOAD PUSH32 0x8C379A000000000000000000000000000000000000000000000000000000000 DUP2 MSTORE PUSH1 0x4 ADD PUSH2 0xF0F SWAP1 PUSH2 0x4690 JUMP JUMPDEST PUSH1 0x40 MLOAD DUP1 SWAP2 SUB SWAP1 REVERT JUMPDEST DUP1 PUSH1 0xA PUSH0 DUP5 DUP2 MSTORE PUSH1 0x20 ADD SWAP1 DUP2 MSTORE PUSH1 0x20 ADD PUSH0 KECCAK256 PUSH1 0x2 ADD DUP2 SWAP1 SSTORE POP PUSH1 0x1 PUSH1 0xA PUSH0 DUP5 DUP2 MSTORE PUSH1 0x20 ADD SWAP1 DUP2 MSTORE PUSH1 0x20 ADD PUSH0 KECCAK256 PUSH1 0x4 ADD PUSH0 PUSH2 0x100 EXP DUP2 SLOAD DUP2 PUSH1 0xFF MUL NOT AND SWAP1 DUP4 ISZERO ISZERO MUL OR SWAP1 SSTORE POP PUSH1 0x1 PUSH1 0xA PUSH0 DUP5 DUP2 MSTORE PUSH1 0x20 ADD SWAP1 DUP2 MSTORE PUSH1 0x20 ADD PUSH0 KECCAK256 PUSH1 0x4 ADD PUSH1 0x1 PUSH2 0x100 EXP DUP2 SLOAD DUP2 PUSH1 0xFF MUL NOT AND SWAP1 DUP4 ISZERO ISZERO MUL OR SWAP1 SSTORE POP DUP2 PUSH32 0x76761CD2AC8A3AB5C212EBB1CB80967D1BDF2A8EB8531F5CBECA46BCBFEBC5A0 DUP3 PUSH1 0x40 MLOAD PUSH2 0xFBA SWAP2 SWAP1 PUSH2 0x3E57 JUMP JUMPDEST PUSH1 0x40 MLOAD DUP1 SWAP2 SUB SWAP1 LOG2 POP POP JUMP JUMPDEST PUSH1 0x14 PUSH0 SWAP1 SLOAD SWAP1 PUSH2 0x100 EXP SWAP1 DIV PUSH20 0xFFFFFFFFFFFFFFFFFFFFFFFFFFFFFFFFFFFFFFFF AND DUP2 JUMP JUMPDEST PUSH1 0x8 PUSH1 0x20 MSTORE DUP1 PUSH0 MSTORE PUSH1 0x40 PUSH0 KECCAK256 PUSH0 SWAP2 POP SWAP1 POP SLOAD DUP2 JUMP JUMPDEST PUSH1 0x7 PUSH1 0x20 MSTORE DUP1 PUSH0 MSTORE PUSH1 0x40 PUSH0 KECCAK256 PUSH0 SWAP2 POP SWAP1 POP DUP1 PUSH0 ADD SLOAD SWAP1 DUP1 PUSH1 0x1 ADD SLOAD SWAP1 POP DUP3 JUMP JUMPDEST PUSH2 0x1028 PUSH2 0x352F JUMP JUMPDEST PUSH1 0x2 DUP1 SLOAD SWAP1 PUSH2 0x100 EXP SWAP1 DIV PUSH1 0xFF AND ISZERO PUSH2 0x1076 JUMPI PUSH1 0x40 MLOAD PUSH32 0x8C379A000000000000000000000000000000000000000000000000000000000 DUP2 MSTORE PUSH1 0x4 ADD PUSH2 0x106D SWAP1 PUSH2 0x4558 JUMP JUMPDEST PUSH1 0x40 MLOAD DUP1 SWAP2 SUB SWAP1 REVERT JUMPDEST PUSH0 PUSH1 0x7 PUSH0 CALLER PUSH20 0xFFFFFFFFFFFFFFFFFFFFFFFFFFFFFFFFFFFFFFFF AND PUSH20 0xFFFFFFFFFFFFFFFFFFFFFFFFFFFFFFFFFFFFFFFF AND DUP2 MSTORE PUSH1 0x20 ADD SWAP1 DUP2 MSTORE PUSH1 0x20 ADD PUSH0 KECCAK256 PUSH1 0x1 ADD SLOAD SWAP1 POP PUSH0 PUSH1 0x1 PUSH1 0x3 SLOAD PUSH2 0x10CA SWAP2 SWAP1 PUSH2 0x46AE JUMP JUMPDEST SWAP1 POP DUP2 DUP2 GT PUSH2 0x110E JUMPI PUSH1 0x40 MLOAD PUSH32 0x8C379A000000000000000000000000000000000000000000000000000000000 DUP2 MSTORE PUSH1 0x4 ADD PUSH2 0x1105 SWAP1 PUSH2 0x472B JUMP JUMPDEST PUSH1 0x40 MLOAD DUP1 SWAP2 SUB SWAP1 REVERT JUMPDEST PUSH0 PUSH1 0x9 PUSH0 DUP5 DUP2 MSTORE PUSH1 0x20 ADD SWAP1 DUP2 MSTORE PUSH1 0x20 ADD PUSH0 KECCAK256 SLOAD PUSH1 0x9 PUSH0 DUP5 DUP2 MSTORE PUSH1 0x20 ADD SWAP1 DUP2 MSTORE PUSH1 0x20 ADD PUSH0 KECCAK256 SLOAD PUSH2 0x113D SWAP2 SWAP1 PUSH2 0x46AE JUMP JUMPDEST SWAP1 POP PUSH0 DUP2 GT PUSH2 0x1181 JUMPI PUSH1 0x40 MLOAD PUSH32 0x8C379A000000000000000000000000000000000000000000000000000000000 DUP2 MSTORE PUSH1 0x4 ADD PUSH2 0x1178 SWAP1 PUSH2 0x4793 JUMP JUMPDEST PUSH1 0x40 MLOAD DUP1 SWAP2 SUB SWAP1 REVERT JUMPDEST DUP2 PUSH1 0x7 PUSH0 CALLER PUSH20 0xFFFFFFFFFFFFFFFFFFFFFFFFFFFFFFFFFFFFFFFF AND PUSH20 0xFFFFFFFFFFFFFFFFFFFFFFFFFFFFFFFFFFFFFFFF AND DUP2 MSTORE PUSH1 0x20 ADD SWAP1 DUP2 MSTORE PUSH1 0x20 ADD PUSH0 KECCAK256 PUSH1 0x1 ADD DUP2 SWAP1 SSTORE POP PUSH2 0x1211 CALLER DUP3 PUSH32 0x0 PUSH20 0xFFFFFFFFFFFFFFFFFFFFFFFFFFFFFFFFFFFFFFFF AND PUSH2 0x357E SWAP1 SWAP3 SWAP2 SWAP1 PUSH4 0xFFFFFFFF AND JUMP JUMPDEST CALLER PUSH20 0xFFFFFFFFFFFFFFFFFFFFFFFFFFFFFFFFFFFFFFFF AND PUSH32 0xFC30CDDEA38E2BF4D6EA7D3F9ED3B6AD7F176419F4963BD81318067A4AEE73FE DUP3 PUSH1 0x40 MLOAD PUSH2 0x1257 SWAP2 SWAP1 PUSH2 0x3E57 JUMP JUMPDEST PUSH1 0x40 MLOAD DUP1 SWAP2 SUB SWAP1 LOG2 POP POP POP PUSH2 0x126A PUSH2 0x35FD JUMP JUMPDEST JUMP JUMPDEST PUSH32 0x0 PUSH20 0xFFFFFFFFFFFFFFFFFFFFFFFFFFFFFFFFFFFFFFFF AND CALLER PUSH20 0xFFFFFFFFFFFFFFFFFFFFFFFFFFFFFFFFFFFFFFFF AND EQ PUSH2 0x131E JUMPI CALLER PUSH32 0x0 PUSH1 0x40 MLOAD PUSH32 0x1CF993F400000000000000000000000000000000000000000000000000000000 DUP2 MSTORE PUSH1 0x4 ADD PUSH2 0x1315 SWAP3 SWAP2 SWAP1 PUSH2 0x47B1 JUMP JUMPDEST PUSH1 0x40 MLOAD DUP1 SWAP2 SUB SWAP1 REVERT JUMPDEST PUSH2 0x1328 DUP3 DUP3 PUSH2 0x3606 JUMP JUMPDEST POP POP JUMP JUMPDEST PUSH1 0xE SLOAD DUP2 JUMP JUMPDEST PUSH2 0x133A PUSH2 0x352F JUMP JUMPDEST PUSH1 0x2 DUP1 SLOAD SWAP1 PUSH2 0x100 EXP SWAP1 DIV PUSH1 0xFF AND ISZERO PUSH2 0x1388 JUMPI PUSH1 0x40 MLOAD PUSH32 0x8C379A000000000000000000000000000000000000000000000000000000000 DUP2 MSTORE PUSH1 0x4 ADD PUSH2 0x137F SWAP1 PUSH2 0x4558 JUMP JUMPDEST PUSH1 0x40 MLOAD DUP1 SWAP2 SUB SWAP1 REVERT JUMPDEST PUSH1 0x2 PUSH0 SWAP1 SLOAD SWAP1 PUSH2 0x100 EXP SWAP1 DIV PUSH1 0xFF AND PUSH2 0x13D6 JUMPI PUSH1 0x40 MLOAD PUSH32 0x8C379A000000000000000000000000000000000000000000000000000000000 DUP2 MSTORE PUSH1 0x4 ADD PUSH2 0x13CD SWAP1 PUSH2 0x4822 JUMP JUMPDEST PUSH1 0x40 MLOAD DUP1 SWAP2 SUB SWAP1 REVERT JUMPDEST PUSH0 PUSH1 0x7 PUSH0 CALLER PUSH20 0xFFFFFFFFFFFFFFFFFFFFFFFFFFFFFFFFFFFFFFFF AND PUSH20 0xFFFFFFFFFFFFFFFFFFFFFFFFFFFFFFFFFFFFFFFF AND DUP2 MSTORE PUSH1 0x20 ADD SWAP1 DUP2 MSTORE PUSH1 0x20 ADD PUSH0 KECCAK256 PUSH0 ADD SLOAD SWAP1 POP PUSH0 DUP2 GT PUSH2 0x145B JUMPI PUSH1 0x40 MLOAD PUSH32 0x8C379A000000000000000000000000000000000000000000000000000000000 DUP2 MSTORE PUSH1 0x4 ADD PUSH2 0x1452 SWAP1 PUSH2 0x488A JUMP JUMPDEST PUSH1 0x40 MLOAD DUP1 SWAP2 SUB SWAP1 REVERT JUMPDEST PUSH0 PUSH1 0x8 PUSH0 CALLER PUSH20 0xFFFFFFFFFFFFFFFFFFFFFFFFFFFFFFFFFFFFFFFF AND PUSH20 0xFFFFFFFFFFFFFFFFFFFFFFFFFFFFFFFFFFFFFFFF AND DUP2 MSTORE PUSH1 0x20 ADD SWAP1 DUP2 MSTORE PUSH1 0x20 ADD PUSH0 KECCAK256 SLOAD SWAP1 POP PUSH0 DUP2 GT PUSH2 0x14DE JUMPI PUSH1 0x40 MLOAD PUSH32 0x8C379A000000000000000000000000000000000000000000000000000000000 DUP2 MSTORE PUSH1 0x4 ADD PUSH2 0x14D5 SWAP1 PUSH2 0x48F2 JUMP JUMPDEST PUSH1 0x40 MLOAD DUP1 SWAP2 SUB SWAP1 REVERT JUMPDEST PUSH2 0x14F3 PUSH1 0x1 DUP3 PUSH2 0x14EE SWAP2 SWAP1 PUSH2 0x46AE JUMP JUMPDEST PUSH2 0x3713 JUMP JUMPDEST PUSH0 PUSH1 0x7 PUSH0 CALLER PUSH20 0xFFFFFFFFFFFFFFFFFFFFFFFFFFFFFFFFFFFFFFFF AND PUSH20 0xFFFFFFFFFFFFFFFFFFFFFFFFFFFFFFFFFFFFFFFF AND DUP2 MSTORE PUSH1 0x20 ADD SWAP1 DUP2 MSTORE PUSH1 0x20 ADD PUSH0 KECCAK256 PUSH0 ADD DUP2 SWAP1 SSTORE POP PUSH2 0x1582 CALLER DUP4 PUSH32 0x0 PUSH20 0xFFFFFFFFFFFFFFFFFFFFFFFFFFFFFFFFFFFFFFFF AND PUSH2 0x357E SWAP1 SWAP3 SWAP2 SWAP1 PUSH4 0xFFFFFFFF AND JUMP JUMPDEST CALLER PUSH20 0xFFFFFFFFFFFFFFFFFFFFFFFFFFFFFFFFFFFFFFFF AND PUSH32 0xF5BB82176FEB1B5E747E28471AA92156A04D9F3AB9F45F28E2D704232B93F75 DUP4 PUSH1 0x40 MLOAD PUSH2 0x15C8 SWAP2 SWAP1 PUSH2 0x3E57 JUMP JUMPDEST PUSH1 0x40 MLOAD DUP1 SWAP2 SUB SWAP1 LOG2 POP POP PUSH2 0x15DA PUSH2 0x35FD JUMP JUMPDEST JUMP JUMPDEST PUSH0 PUSH1 0x9 PUSH0 DUP4 DUP2 MSTORE PUSH1 0x20 ADD SWAP1 DUP2 MSTORE PUSH1 0x20 ADD PUSH0 KECCAK256 SLOAD SWAP1 POP SWAP2 SWAP1 POP JUMP JUMPDEST PUSH1 0x19 SLOAD DUP2 JUMP JUMPDEST PUSH2 0x1604 PUSH2 0x34A8 JUMP JUMPDEST PUSH1 0x3C DUP2 LT ISZERO PUSH2 0x1648 JUMPI PUSH1 0x40 MLOAD PUSH32 0x8C379A000000000000000000000000000000000000000000000000000000000 DUP2 MSTORE PUSH1 0x4 ADD PUSH2 0x163F SWAP1 PUSH2 0x495A JUMP JUMPDEST PUSH1 0x40 MLOAD DUP1 SWAP2 SUB SWAP1 REVERT JUMPDEST DUP1 PUSH1 0x4 DUP2 SWAP1 SSTORE POP POP JUMP JUMPDEST PUSH2 0x165A PUSH2 0x352F JUMP JUMPDEST PUSH1 0x17 PUSH0 SWAP1 SLOAD SWAP1 PUSH2 0x100 EXP SWAP1 DIV PUSH20 0xFFFFFFFFFFFFFFFFFFFFFFFFFFFFFFFFFFFFFFFF AND PUSH20 0xFFFFFFFFFFFFFFFFFFFFFFFFFFFFFFFFFFFFFFFF AND CALLER PUSH20 0xFFFFFFFFFFFFFFFFFFFFFFFFFFFFFFFFFFFFFFFF AND EQ PUSH2 0x16E9 JUMPI PUSH1 0x40 MLOAD PUSH32 0x8C379A000000000000000000000000000000000000000000000000000000000 DUP2 MSTORE PUSH1 0x4 ADD PUSH2 0x16E0 SWAP1 PUSH2 0x49C2 JUMP JUMPDEST PUSH1 0x40 MLOAD DUP1 SWAP2 SUB SWAP1 REVERT JUMPDEST PUSH1 0x2 DUP1 SLOAD SWAP1 PUSH2 0x100 EXP SWAP1 DIV PUSH1 0xFF AND ISZERO PUSH2 0x1737 JUMPI PUSH1 0x40 MLOAD PUSH32 0x8C379A000000000000000000000000000000000000000000000000000000000 DUP2 MSTORE PUSH1 0x4 ADD PUSH2 0x172E SWAP1 PUSH2 0x4558 JUMP JUMPDEST PUSH1 0x40 MLOAD DUP1 SWAP2 SUB SWAP1 REVERT JUMPDEST PUSH1 0x2 PUSH1 0x1 SWAP1 SLOAD SWAP1 PUSH2 0x100 EXP SWAP1 DIV PUSH1 0xFF AND PUSH2 0x1786 JUMPI PUSH1 0x40 MLOAD PUSH32 0x8C379A000000000000000000000000000000000000000000000000000000000 DUP2 MSTORE PUSH1 0x4 ADD PUSH2 0x177D SWAP1 PUSH2 0x4A2A JUMP JUMPDEST PUSH1 0x40 MLOAD DUP1 SWAP2 SUB SWAP1 REVERT JUMPDEST PUSH1 0x1 PUSH1 0x6 DUP1 SLOAD SWAP1 POP GT PUSH2 0x17CE JUMPI PUSH1 0x40 MLOAD PUSH32 0x8C379A000000000000000000000000000000000000000000000000000000000 DUP2 MSTORE PUSH1 0x4 ADD PUSH2 0x17C5 SWAP1 PUSH2 0x4A92 JUMP JUMPDEST PUSH1 0x40 MLOAD DUP1 SWAP2 SUB SWAP1 REVERT JUMPDEST PUSH1 0x4 SLOAD PUSH1 0x5 SLOAD PUSH2 0x17DE SWAP2 SWAP1 PUSH2 0x3E15 JUMP JUMPDEST TIMESTAMP LT ISZERO PUSH2 0x1820 JUMPI PUSH1 0x40 MLOAD PUSH32 0x8C379A000000000000000000000000000000000000000000000000000000000 DUP2 MSTORE PUSH1 0x4 ADD PUSH2 0x1817 SWAP1 PUSH2 0x4AFA JUMP JUMPDEST PUSH1 0x40 MLOAD DUP1 SWAP2 SUB SWAP1 REVERT JUMPDEST PUSH0 PUSH1 0x3 SLOAD SWAP1 POP PUSH1 0xA PUSH0 DUP3 DUP2 MSTORE PUSH1 0x20 ADD SWAP1 DUP2 MSTORE PUSH1 0x20 ADD PUSH0 KECCAK256 PUSH1 0x4 ADD PUSH0 SWAP1 SLOAD SWAP1 PUSH2 0x100 EXP SWAP1 DIV PUSH1 0xFF AND PUSH2 0x1886 JUMPI PUSH1 0x40 MLOAD PUSH32 0x8C379A000000000000000000000000000000000000000000000000000000000 DUP2 MSTORE PUSH1 0x4 ADD PUSH2 0x187D SWAP1 PUSH2 0x4B62 JUMP JUMPDEST PUSH1 0x40 MLOAD DUP1 SWAP2 SUB SWAP1 REVERT JUMPDEST PUSH0 PUSH1 0xA PUSH0 DUP4 DUP2 MSTORE PUSH1 0x20 ADD SWAP1 DUP2 MSTORE PUSH1 0x20 ADD PUSH0 KECCAK256 PUSH1 0x3 ADD SLOAD GT PUSH2 0x18DC JUMPI PUSH1 0x40 MLOAD PUSH32 0x8C379A000000000000000000000000000000000000000000000000000000000 DUP2 MSTORE PUSH1 0x4 ADD PUSH2 0x18D3 SWAP1 PUSH2 0x4BCA JUMP JUMPDEST PUSH1 0x40 MLOAD DUP1 SWAP2 SUB SWAP1 REVERT JUMPDEST PUSH1 0xA PUSH0 DUP3 DUP2 MSTORE PUSH1 0x20 ADD SWAP1 DUP2 MSTORE PUSH1 0x20 ADD PUSH0 KECCAK256 PUSH1 0x3 ADD SLOAD NUMBER GT PUSH2 0x1932 JUMPI PUSH1 0x40 MLOAD PUSH32 0x8C379A000000000000000000000000000000000000000000000000000000000 DUP2 MSTORE PUSH1 0x4 ADD PUSH2 0x1929 SWAP1 PUSH2 0x4C32 JUMP JUMPDEST PUSH1 0x40 MLOAD DUP1 SWAP2 SUB SWAP1 REVERT JUMPDEST PUSH1 0x1A SLOAD PUSH1 0x1B PUSH0 DUP4 DUP2 MSTORE PUSH1 0x20 ADD SWAP1 DUP2 MSTORE PUSH1 0x20 ADD PUSH0 KECCAK256 SLOAD LT PUSH2 0x1987 JUMPI PUSH1 0x40 MLOAD PUSH32 0x8C379A000000000000000000000000000000000000000000000000000000000 DUP2 MSTORE PUSH1 0x4 ADD PUSH2 0x197E SWAP1 PUSH2 0x4C9A JUMP JUMPDEST PUSH1 0x40 MLOAD DUP1 SWAP2 SUB SWAP1 REVERT JUMPDEST PUSH1 0x1B PUSH0 DUP3 DUP2 MSTORE PUSH1 0x20 ADD SWAP1 DUP2 MSTORE PUSH1 0x20 ADD PUSH0 KECCAK256 PUSH0 DUP2 SLOAD DUP1 SWAP3 SWAP2 SWAP1 PUSH2 0x19A8 SWAP1 PUSH2 0x4CB8 JUMP JUMPDEST SWAP2 SWAP1 POP SSTORE POP PUSH0 PUSH0 SWAP1 POP PUSH0 PUSH1 0x15 SLOAD PUSH1 0x16 SLOAD PUSH2 0x19C2 SWAP2 SWAP1 PUSH2 0x3E15 JUMP JUMPDEST SWAP1 POP PUSH1 0x6 DUP1 SLOAD SWAP1 POP DUP2 GT ISZERO PUSH2 0x19DA JUMPI PUSH1 0x6 DUP1 SLOAD SWAP1 POP SWAP1 POP JUMPDEST PUSH0 PUSH1 0xA PUSH0 DUP6 DUP2 MSTORE PUSH1 0x20 ADD SWAP1 DUP2 MSTORE PUSH1 0x20 ADD PUSH0 KECCAK256 PUSH1 0x2 ADD SLOAD SWAP1 POP PUSH0 PUSH1 0x16 SLOAD SWAP1 POP JUMPDEST DUP3 DUP2 LT ISZERO PUSH2 0x1B9A JUMPI PUSH1 0x1 PUSH1 0x6 DUP1 SLOAD SWAP1 POP GT ISZERO PUSH2 0x1B9A JUMPI PUSH0 DUP3 DUP3 NUMBER PUSH1 0x40 MLOAD PUSH1 0x20 ADD PUSH2 0x1A25 SWAP4 SWAP3 SWAP2 SWAP1 PUSH2 0x4CFF JUMP JUMPDEST PUSH1 0x40 MLOAD PUSH1 0x20 DUP2 DUP4 SUB SUB DUP2 MSTORE SWAP1 PUSH1 0x40 MSTORE DUP1 MLOAD SWAP1 PUSH1 0x20 ADD KECCAK256 PUSH0 SHR SWAP1 POP PUSH0 PUSH1 0x6 DUP1 SLOAD SWAP1 POP DUP3 PUSH2 0x1A51 SWAP2 SWAP1 PUSH2 0x4D61 JUMP JUMPDEST SWAP1 POP PUSH0 PUSH1 0x6 DUP3 DUP2 SLOAD DUP2 LT PUSH2 0x1A68 JUMPI PUSH2 0x1A67 PUSH2 0x4D91 JUMP JUMPDEST JUMPDEST SWAP1 PUSH0 MSTORE PUSH1 0x20 PUSH0 KECCAK256 ADD PUSH0 SWAP1 SLOAD SWAP1 PUSH2 0x100 EXP SWAP1 DIV PUSH20 0xFFFFFFFFFFFFFFFFFFFFFFFFFFFFFFFFFFFFFFFF AND SWAP1 POP PUSH0 PUSH1 0x7 PUSH0 DUP4 PUSH20 0xFFFFFFFFFFFFFFFFFFFFFFFFFFFFFFFFFFFFFFFF AND PUSH20 0xFFFFFFFFFFFFFFFFFFFFFFFFFFFFFFFFFFFFFFFF AND DUP2 MSTORE PUSH1 0x20 ADD SWAP1 DUP2 MSTORE PUSH1 0x20 ADD PUSH0 KECCAK256 PUSH0 ADD SLOAD SWAP1 POP PUSH0 PUSH1 0x7 PUSH0 DUP5 PUSH20 0xFFFFFFFFFFFFFFFFFFFFFFFFFFFFFFFFFFFFFFFF AND PUSH20 0xFFFFFFFFFFFFFFFFFFFFFFFFFFFFFFFFFFFFFFFF AND DUP2 MSTORE PUSH1 0x20 ADD SWAP1 DUP2 MSTORE PUSH1 0x20 ADD PUSH0 KECCAK256 PUSH0 ADD DUP2 SWAP1 SSTORE POP PUSH2 0x1B22 DUP4 PUSH2 0x3713 JUMP JUMPDEST PUSH2 0x1B2C DUP3 DUP3 PUSH2 0x38E2 JUMP JUMPDEST DUP2 PUSH20 0xFFFFFFFFFFFFFFFFFFFFFFFFFFFFFFFFFFFFFFFF AND DUP10 PUSH32 0x51479C93D7646904D2282E9E79CDDF11999AC774B7FD0289E2F59CB4AD0F086A DUP4 PUSH1 0x40 MLOAD PUSH2 0x1B73 SWAP2 SWAP1 PUSH2 0x3E57 JUMP JUMPDEST PUSH1 0x40 MLOAD DUP1 SWAP2 SUB SWAP1 LOG3 DUP8 DUP1 PUSH2 0x1B86 SWAP1 PUSH2 0x4CB8 JUMP JUMPDEST SWAP9 POP POP POP POP POP POP DUP1 DUP1 PUSH1 0x1 ADD SWAP2 POP POP PUSH2 0x19F9 JUMP JUMPDEST POP DUP2 PUSH1 0x16 DUP2 SWAP1 SSTORE POP PUSH1 0x6 DUP1 SLOAD SWAP1 POP PUSH1 0x16 SLOAD LT ISZERO DUP1 PUSH2 0x1BBE JUMPI POP PUSH1 0x1 PUSH1 0x6 DUP1 SLOAD SWAP1 POP GT ISZERO JUMPDEST ISZERO PUSH2 0x1DAC JUMPI PUSH0 PUSH1 0x6 DUP1 SLOAD SWAP1 POP SWAP1 POP PUSH0 DUP2 GT ISZERO PUSH2 0x1C9E JUMPI PUSH0 PUSH1 0x11 SLOAD SWAP1 POP PUSH0 PUSH0 SWAP1 POP PUSH0 DUP4 GT DUP1 ISZERO PUSH2 0x1BEC JUMPI POP PUSH0 DUP3 GT JUMPDEST ISZERO PUSH2 0x1C00 JUMPI DUP3 DUP3 PUSH2 0x1BFD SWAP2 SWAP1 PUSH2 0x4DBE JUMP JUMPDEST SWAP1 POP JUMPDEST DUP1 PUSH1 0xA PUSH0 DUP10 DUP2 MSTORE PUSH1 0x20 ADD SWAP1 DUP2 MSTORE PUSH1 0x20 ADD PUSH0 KECCAK256 PUSH0 ADD DUP2 SWAP1 SSTORE POP DUP1 PUSH1 0x9 PUSH0 PUSH1 0x1 DUP11 PUSH2 0x1C29 SWAP2 SWAP1 PUSH2 0x46AE JUMP JUMPDEST DUP2 MSTORE PUSH1 0x20 ADD SWAP1 DUP2 MSTORE PUSH1 0x20 ADD PUSH0 KECCAK256 SLOAD PUSH2 0x1C41 SWAP2 SWAP1 PUSH2 0x3E15 JUMP JUMPDEST PUSH1 0x9 PUSH0 DUP10 DUP2 MSTORE PUSH1 0x20 ADD SWAP1 DUP2 MSTORE PUSH1 0x20 ADD PUSH0 KECCAK256 DUP2 SWAP1 SSTORE POP PUSH0 DUP4 DUP3 PUSH2 0x1C63 SWAP2 SWAP1 PUSH2 0x4DEE JUMP JUMPDEST SWAP1 POP DUP1 DUP4 GT ISZERO PUSH2 0x1C96 JUMPI PUSH0 DUP2 DUP5 PUSH2 0x1C7A SWAP2 SWAP1 PUSH2 0x46AE JUMP JUMPDEST SWAP1 POP DUP1 PUSH1 0x10 PUSH0 DUP3 DUP3 SLOAD PUSH2 0x1C8D SWAP2 SWAP1 PUSH2 0x3E15 JUMP JUMPDEST SWAP3 POP POP DUP2 SWAP1 SSTORE POP POP JUMPDEST POP POP POP PUSH2 0x1CEC JUMP JUMPDEST PUSH1 0x11 SLOAD PUSH1 0x10 PUSH0 DUP3 DUP3 SLOAD PUSH2 0x1CB1 SWAP2 SWAP1 PUSH2 0x3E15 JUMP JUMPDEST SWAP3 POP POP DUP2 SWAP1 SSTORE POP PUSH1 0x9 PUSH0 PUSH1 0x1 DUP8 PUSH2 0x1CC8 SWAP2 SWAP1 PUSH2 0x46AE JUMP JUMPDEST DUP2 MSTORE PUSH1 0x20 ADD SWAP1 DUP2 MSTORE PUSH1 0x20 ADD PUSH0 KECCAK256 SLOAD PUSH1 0x9 PUSH0 DUP8 DUP2 MSTORE PUSH1 0x20 ADD SWAP1 DUP2 MSTORE PUSH1 0x20 ADD PUSH0 KECCAK256 DUP2 SWAP1 SSTORE POP JUMPDEST PUSH0 PUSH1 0x11 DUP2 SWAP1 SSTORE POP DUP4 PUSH1 0xA PUSH0 DUP8 DUP2 MSTORE PUSH1 0x20 ADD SWAP1 DUP2 MSTORE PUSH1 0x20 ADD PUSH0 KECCAK256 PUSH1 0x1 ADD DUP2 SWAP1 SSTORE POP DUP5 PUSH32 0x2B034C48D6D3C5FA40DA8AFD25E88EE8AD074A546E1A3F05A860C6106B99B82B PUSH1 0x6 DUP1 SLOAD SWAP1 POP PUSH1 0x40 MLOAD PUSH2 0x1D41 SWAP2 SWAP1 PUSH2 0x3E57 JUMP JUMPDEST PUSH1 0x40 MLOAD DUP1 SWAP2 SUB SWAP1 LOG2 PUSH0 PUSH1 0x16 DUP2 SWAP1 SSTORE POP PUSH1 0x3 PUSH0 DUP2 SLOAD DUP1 SWAP3 SWAP2 SWAP1 PUSH2 0x1D62 SWAP1 PUSH2 0x4CB8 JUMP JUMPDEST SWAP2 SWAP1 POP SSTORE POP TIMESTAMP PUSH1 0x5 DUP2 SWAP1 SSTORE POP PUSH1 0x3 SLOAD PUSH32 0x278844837BCF8364A705384BF3A2812901F54155BAE86DEA81DD52AA5B9EC0E3 PUSH1 0x5 SLOAD PUSH1 0x40 MLOAD PUSH2 0x1DA2 SWAP2 SWAP1 PUSH2 0x3E57 JUMP JUMPDEST PUSH1 0x40 MLOAD DUP1 SWAP2 SUB SWAP1 LOG2 POP JUMPDEST PUSH1 0x18 SLOAD PUSH1 0x19 SLOAD LT ISZERO DUP1 ISZERO PUSH2 0x1DC1 JUMPI POP PUSH0 PUSH1 0x18 SLOAD GT JUMPDEST ISZERO PUSH2 0x1E77 JUMPI PUSH1 0x18 SLOAD PUSH1 0x19 PUSH0 DUP3 DUP3 SLOAD PUSH2 0x1DD9 SWAP2 SWAP1 PUSH2 0x46AE JUMP JUMPDEST SWAP3 POP POP DUP2 SWAP1 SSTORE POP CALLER PUSH20 0xFFFFFFFFFFFFFFFFFFFFFFFFFFFFFFFFFFFFFFFF AND PUSH2 0x8FC PUSH1 0x18 SLOAD SWAP1 DUP2 ISZERO MUL SWAP1 PUSH1 0x40 MLOAD PUSH0 PUSH1 0x40 MLOAD DUP1 DUP4 SUB DUP2 DUP6 DUP9 DUP9 CALL SWAP4 POP POP POP POP ISZERO DUP1 ISZERO PUSH2 0x1E25 JUMPI RETURNDATASIZE PUSH0 PUSH0 RETURNDATACOPY RETURNDATASIZE PUSH0 REVERT JUMPDEST POP CALLER PUSH20 0xFFFFFFFFFFFFFFFFFFFFFFFFFFFFFFFFFFFFFFFF AND PUSH32 0x496B3BF0725D338A836ECF0B614E039F3736DACFD57AA32AF1BF55EA601CEAF5 PUSH1 0x18 SLOAD PUSH1 0x40 MLOAD PUSH2 0x1E6E SWAP2 SWAP1 PUSH2 0x3E57 JUMP JUMPDEST PUSH1 0x40 MLOAD DUP1 SWAP2 SUB SWAP1 LOG2 JUMPDEST PUSH1 0x1 PUSH1 0x3 SLOAD PUSH2 0x1E86 SWAP2 SWAP1 PUSH2 0x46AE JUMP JUMPDEST PUSH32 0x3838459CD794256A3C29BB3186DA72029A8036C0F596FEE1BD526F8EB9493D41 DUP5 PUSH1 0x40 MLOAD PUSH2 0x1EB5 SWAP2 SWAP1 PUSH2 0x3E57 JUMP JUMPDEST PUSH1 0x40 MLOAD DUP1 SWAP2 SUB SWAP1 LOG2 PUSH1 0x1 PUSH1 0x6 DUP1 SLOAD SWAP1 POP SUB PUSH2 0x1FCC JUMPI PUSH0 PUSH1 0x6 PUSH0 DUP2 SLOAD DUP2 LT PUSH2 0x1EDF JUMPI PUSH2 0x1EDE PUSH2 0x4D91 JUMP JUMPDEST JUMPDEST SWAP1 PUSH0 MSTORE PUSH1 0x20 PUSH0 KECCAK256 ADD PUSH0 SWAP1 SLOAD SWAP1 PUSH2 0x100 EXP SWAP1 DIV PUSH20 0xFFFFFFFFFFFFFFFFFFFFFFFFFFFFFFFFFFFFFFFF AND SWAP1 POP PUSH0 PUSH1 0x10 SLOAD SWAP1 POP PUSH0 PUSH1 0x10 DUP2 SWAP1 SSTORE POP PUSH0 PUSH1 0x2 PUSH1 0x1 PUSH2 0x100 EXP DUP2 SLOAD DUP2 PUSH1 0xFF MUL NOT AND SWAP1 DUP4 ISZERO ISZERO MUL OR SWAP1 SSTORE POP PUSH2 0x1F7B DUP3 DUP3 PUSH32 0x0 PUSH20 0xFFFFFFFFFFFFFFFFFFFFFFFFFFFFFFFFFFFFFFFF AND PUSH2 0x357E SWAP1 SWAP3 SWAP2 SWAP1 PUSH4 0xFFFFFFFF AND JUMP JUMPDEST DUP2 PUSH20 0xFFFFFFFFFFFFFFFFFFFFFFFFFFFFFFFFFFFFFFFF AND PUSH32 0x9C2270628A9B29D30AE96B6C4C14ED646EE134FEBDCE38A5B77F2BDE9CEA2E20 DUP3 PUSH1 0x40 MLOAD PUSH2 0x1FC1 SWAP2 SWAP1 PUSH2 0x3E57 JUMP JUMPDEST PUSH1 0x40 MLOAD DUP1 SWAP2 SUB SWAP1 LOG2 POP POP JUMPDEST POP POP POP POP PUSH2 0x1FD8 PUSH2 0x35FD JUMP JUMPDEST JUMP JUMPDEST PUSH1 0x1E PUSH0 SWAP1 SLOAD SWAP1 PUSH2 0x100 EXP SWAP1 DIV PUSH4 0xFFFFFFFF AND DUP2 JUMP JUMPDEST PUSH2 0x1FF7 PUSH2 0x34A8 JUMP JUMPDEST PUSH0 PUSH1 0x2 DUP1 PUSH2 0x100 EXP DUP2 SLOAD DUP2 PUSH1 0xFF MUL NOT AND SWAP1 DUP4 ISZERO ISZERO MUL OR SWAP1 SSTORE POP CALLER PUSH20 0xFFFFFFFFFFFFFFFFFFFFFFFFFFFFFFFFFFFFFFFF AND PUSH32 0x5DB9EE0A495BF2E6FF9C91A7834C1BA4FDD244A5E8AA4E537BD38AEAE4B073AA PUSH1 0x40 MLOAD PUSH1 0x40 MLOAD DUP1 SWAP2 SUB SWAP1 LOG2 JUMP JUMPDEST PUSH1 0x2 PUSH1 0x1 SWAP1 SLOAD SWAP1 PUSH2 0x100 EXP SWAP1 DIV PUSH1 0xFF AND DUP2 JUMP JUMPDEST PUSH2 0x2070 PUSH2 0x34A8 JUMP JUMPDEST PUSH0 DUP2 GT DUP1 ISZERO PUSH2 0x2081 JUMPI POP PUSH2 0x1F4 DUP2 GT ISZERO JUMPDEST PUSH2 0x20C0 JUMPI PUSH1 0x40 MLOAD PUSH32 0x8C379A000000000000000000000000000000000000000000000000000000000 DUP2 MSTORE PUSH1 0x4 ADD PUSH2 0x20B7 SWAP1 PUSH2 0x4E79 JUMP JUMPDEST PUSH1 0x40 MLOAD DUP1 SWAP2 SUB SWAP1 REVERT JUMPDEST DUP1 PUSH1 0x15 DUP2 SWAP1 SSTORE POP POP JUMP JUMPDEST PUSH1 0x1E PUSH1 0x4 SWAP1 SLOAD SWAP1 PUSH2 0x100 EXP SWAP1 DIV PUSH2 0xFFFF AND DUP2 JUMP JUMPDEST PUSH1 0x60 PUSH1 0x6 DUP1 SLOAD DUP1 PUSH1 0x20 MUL PUSH1 0x20 ADD PUSH1 0x40 MLOAD SWAP1 DUP2 ADD PUSH1 0x40 MSTORE DUP1 SWAP3 SWAP2 SWAP1 DUP2 DUP2 MSTORE PUSH1 0x20 ADD DUP3 DUP1 SLOAD DUP1 ISZERO PUSH2 0x215F JUMPI PUSH1 0x20 MUL DUP3 ADD SWAP2 SWAP1 PUSH0 MSTORE PUSH1 0x20 PUSH0 KECCAK256 SWAP1 JUMPDEST DUP2 PUSH0 SWAP1 SLOAD SWAP1 PUSH2 0x100 EXP SWAP1 DIV PUSH20 0xFFFFFFFFFFFFFFFFFFFFFFFFFFFFFFFFFFFFFFFF AND PUSH20 0xFFFFFFFFFFFFFFFFFFFFFFFFFFFFFFFFFFFFFFFF AND DUP2 MSTORE PUSH1 0x20 ADD SWAP1 PUSH1 0x1 ADD SWAP1 DUP1 DUP4 GT PUSH2 0x2116 JUMPI JUMPDEST POP POP POP POP POP SWAP1 POP SWAP1 JUMP JUMPDEST PUSH1 0x2 DUP1 SLOAD SWAP1 PUSH2 0x100 EXP SWAP1 DIV PUSH1 0xFF AND DUP2 JUMP JUMPDEST PUSH2 0x2182 PUSH2 0x34A8 JUMP JUMPDEST PUSH1 0x64 DUP2 DUP4 DUP6 DUP8 DUP10 PUSH2 0x2193 SWAP2 SWAP1 PUSH2 0x3E15 JUMP JUMPDEST PUSH2 0x219D SWAP2 SWAP1 PUSH2 0x3E15 JUMP JUMPDEST PUSH2 0x21A7 SWAP2 SWAP1 PUSH2 0x3E15 JUMP JUMPDEST PUSH2 0x21B1 SWAP2 SWAP1 PUSH2 0x3E15 JUMP JUMPDEST EQ PUSH2 0x21F1 JUMPI PUSH1 0x40 MLOAD PUSH32 0x8C379A000000000000000000000000000000000000000000000000000000000 DUP2 MSTORE PUSH1 0x4 ADD PUSH2 0x21E8 SWAP1 PUSH2 0x4EE1 JUMP JUMPDEST PUSH1 0x40 MLOAD DUP1 SWAP2 SUB SWAP1 REVERT JUMPDEST PUSH1 0x5 DUP2 LT ISZERO PUSH2 0x2235 JUMPI PUSH1 0x40 MLOAD PUSH32 0x8C379A000000000000000000000000000000000000000000000000000000000 DUP2 MSTORE PUSH1 0x4 ADD PUSH2 0x222C SWAP1 PUSH2 0x4F49 JUMP JUMPDEST PUSH1 0x40 MLOAD DUP1 SWAP2 SUB SWAP1 REVERT JUMPDEST DUP5 PUSH1 0xB DUP2 SWAP1 SSTORE POP DUP4 PUSH1 0xC DUP2 SWAP1 SSTORE POP DUP3 PUSH1 0xD DUP2 SWAP1 SSTORE POP DUP2 PUSH1 0xE DUP2 SWAP1 SSTORE POP DUP1 PUSH1 0xF DUP2 SWAP1 SSTORE POP PUSH32 0xBC09D8B830E227198EB6883F2D592E634C162E75E399516D84B5938D23E1614A DUP6 DUP6 DUP6 DUP6 DUP6 PUSH1 0x40 MLOAD PUSH2 0x228F SWAP6 SWAP5 SWAP4 SWAP3 SWAP2 SWAP1 PUSH2 0x4F67 JUMP JUMPDEST PUSH1 0x40 MLOAD DUP1 SWAP2 SUB SWAP1 LOG1 POP POP POP POP POP JUMP JUMPDEST PUSH2 0x22A6 PUSH2 0x34A8 JUMP JUMPDEST PUSH1 0x2 DUP1 SLOAD SWAP1 PUSH2 0x100 EXP SWAP1 DIV PUSH1 0xFF AND ISZERO PUSH2 0x22F4 JUMPI PUSH1 0x40 MLOAD PUSH32 0x8C379A000000000000000000000000000000000000000000000000000000000 DUP2 MSTORE PUSH1 0x4 ADD PUSH2 0x22EB SWAP1 PUSH2 0x4558 JUMP JUMPDEST PUSH1 0x40 MLOAD DUP1 SWAP2 SUB SWAP1 REVERT JUMPDEST PUSH1 0x2 PUSH0 SWAP1 SLOAD SWAP1 PUSH2 0x100 EXP SWAP1 DIV PUSH1 0xFF AND ISZERO DUP1 ISZERO PUSH2 0x231D JUMPI POP PUSH1 0x2 PUSH1 0x1 SWAP1 SLOAD SWAP1 PUSH2 0x100 EXP SWAP1 DIV PUSH1 0xFF AND ISZERO JUMPDEST PUSH2 0x235C JUMPI PUSH1 0x40 MLOAD PUSH32 0x8C379A000000000000000000000000000000000000000000000000000000000 DUP2 MSTORE PUSH1 0x4 ADD PUSH2 0x2353 SWAP1 PUSH2 0x5002 JUMP JUMPDEST PUSH1 0x40 MLOAD DUP1 SWAP2 SUB SWAP1 REVERT JUMPDEST PUSH1 0x1 PUSH1 0x2 PUSH0 PUSH2 0x100 EXP DUP2 SLOAD DUP2 PUSH1 0xFF MUL NOT AND SWAP1 DUP4 ISZERO ISZERO MUL OR SWAP1 SSTORE POP PUSH32 0x4B49057349914D28F830B1807042F9F5E96AA69EA2E276D656AD08CDF3A1CBF1 TIMESTAMP PUSH1 0x40 MLOAD PUSH2 0x23A5 SWAP2 SWAP1 PUSH2 0x3E57 JUMP JUMPDEST PUSH1 0x40 MLOAD DUP1 SWAP2 SUB SWAP1 LOG1 JUMP JUMPDEST PUSH1 0x13 PUSH0 SWAP1 SLOAD SWAP1 PUSH2 0x100 EXP SWAP1 DIV PUSH20 0xFFFFFFFFFFFFFFFFFFFFFFFFFFFFFFFFFFFFFFFF AND DUP2 JUMP JUMPDEST PUSH2 0x23DC PUSH2 0x34A8 JUMP JUMPDEST PUSH1 0x2 DUP1 SLOAD SWAP1 PUSH2 0x100 EXP SWAP1 DIV PUSH1 0xFF AND ISZERO PUSH2 0x242A JUMPI PUSH1 0x40 MLOAD PUSH32 0x8C379A000000000000000000000000000000000000000000000000000000000 DUP2 MSTORE PUSH1 0x4 ADD PUSH2 0x2421 SWAP1 PUSH2 0x4558 JUMP JUMPDEST PUSH1 0x40 MLOAD DUP1 SWAP2 SUB SWAP1 REVERT JUMPDEST PUSH1 0x2 PUSH0 SWAP1 SLOAD SWAP1 PUSH2 0x100 EXP SWAP1 DIV PUSH1 0xFF AND PUSH2 0x2478 JUMPI PUSH1 0x40 MLOAD PUSH32 0x8C379A000000000000000000000000000000000000000000000000000000000 DUP2 MSTORE PUSH1 0x4 ADD PUSH2 0x246F SWAP1 PUSH2 0x506A JUMP JUMPDEST PUSH1 0x40 MLOAD DUP1 SWAP2 SUB SWAP1 REVERT JUMPDEST PUSH1 0x1 PUSH1 0x6 DUP1 SLOAD SWAP1 POP GT PUSH2 0x24C0 JUMPI PUSH1 0x40 MLOAD PUSH32 0x8C379A000000000000000000000000000000000000000000000000000000000 DUP2 MSTORE PUSH1 0x4 ADD PUSH2 0x24B7 SWAP1 PUSH2 0x50D2 JUMP JUMPDEST PUSH1 0x40 MLOAD DUP1 SWAP2 SUB SWAP1 REVERT JUMPDEST PUSH0 PUSH1 0x2 PUSH0 PUSH2 0x100 EXP DUP2 SLOAD DUP2 PUSH1 0xFF MUL NOT AND SWAP1 DUP4 ISZERO ISZERO MUL OR SWAP1 SSTORE POP PUSH1 0x1 PUSH1 0x2 PUSH1 0x1 PUSH2 0x100 EXP DUP2 SLOAD DUP2 PUSH1 0xFF MUL NOT AND SWAP1 DUP4 ISZERO ISZERO MUL OR SWAP1 SSTORE POP PUSH1 0x1 PUSH1 0x3 DUP2 SWAP1 SSTORE POP TIMESTAMP PUSH1 0x5 DUP2 SWAP1 SSTORE POP PUSH0 PUSH1 0x9 PUSH0 PUSH0 DUP2 MSTORE PUSH1 0x20 ADD SWAP1 DUP2 MSTORE PUSH1 0x20 ADD PUSH0 KECCAK256 DUP2 SWAP1 SSTORE POP PUSH32 0x309970D6E6EBF643CA3FAC15BD242B5D468FDE2DD732F54EF91C18088BB63D64 TIMESTAMP PUSH1 0x3 SLOAD PUSH1 0x40 MLOAD PUSH2 0x254C SWAP3 SWAP2 SWAP1 PUSH2 0x3FC7 JUMP JUMPDEST PUSH1 0x40 MLOAD DUP1 SWAP2 SUB SWAP1 LOG1 PUSH1 0x3 SLOAD PUSH32 0x278844837BCF8364A705384BF3A2812901F54155BAE86DEA81DD52AA5B9EC0E3 PUSH1 0x5 SLOAD PUSH1 0x40 MLOAD PUSH2 0x2588 SWAP2 SWAP1 PUSH2 0x3E57 JUMP JUMPDEST PUSH1 0x40 MLOAD DUP1 SWAP2 SUB SWAP1 LOG2 JUMP JUMPDEST PUSH2 0x259A PUSH2 0x34A8 JUMP JUMPDEST PUSH2 0x25A3 PUSH0 PUSH2 0x3B82 JUMP JUMPDEST JUMP JUMPDEST PUSH1 0x1A SLOAD DUP2 JUMP JUMPDEST PUSH1 0x10 SLOAD DUP2 JUMP JUMPDEST PUSH32 0x0 DUP2 JUMP JUMPDEST PUSH2 0x25DD PUSH2 0x34A8 JUMP JUMPDEST DUP1 PUSH0 PUSH20 0xFFFFFFFFFFFFFFFFFFFFFFFFFFFFFFFFFFFFFFFF AND DUP2 PUSH20 0xFFFFFFFFFFFFFFFFFFFFFFFFFFFFFFFFFFFFFFFF AND SUB PUSH2 0x264C JUMPI PUSH1 0x40 MLOAD PUSH32 0x8C379A000000000000000000000000000000000000000000000000000000000 DUP2 MSTORE PUSH1 0x4 ADD PUSH2 0x2643 SWAP1 PUSH2 0x513A JUMP JUMPDEST PUSH1 0x40 MLOAD DUP1 SWAP2 SUB SWAP1 REVERT JUMPDEST DUP2 PUSH1 0x17 PUSH0 PUSH2 0x100 EXP DUP2 SLOAD DUP2 PUSH20 0xFFFFFFFFFFFFFFFFFFFFFFFFFFFFFFFFFFFFFFFF MUL NOT AND SWAP1 DUP4 PUSH20 0xFFFFFFFFFFFFFFFFFFFFFFFFFFFFFFFFFFFFFFFF AND MUL OR SWAP1 SSTORE POP DUP2 PUSH20 0xFFFFFFFFFFFFFFFFFFFFFFFFFFFFFFFFFFFFFFFF AND PUSH32 0xDC3DBA1D64DD67C0DC8B12621EDD0C6CA4303A9073C3A8FCAC38115E73D67B6B PUSH1 0x40 MLOAD PUSH1 0x40 MLOAD DUP1 SWAP2 SUB SWAP1 LOG2 POP POP JUMP JUMPDEST PUSH2 0x26DB PUSH2 0x34A8 JUMP JUMPDEST PUSH0 PUSH20 0xFFFFFFFFFFFFFFFFFFFFFFFFFFFFFFFFFFFFFFFF AND DUP4 PUSH20 0xFFFFFFFFFFFFFFFFFFFFFFFFFFFFFFFFFFFFFFFF AND EQ ISZERO DUP1 ISZERO PUSH2 0x2743 JUMPI POP PUSH0 PUSH20 0xFFFFFFFFFFFFFFFFFFFFFFFFFFFFFFFFFFFFFFFF AND DUP3 PUSH20 0xFFFFFFFFFFFFFFFFFFFFFFFFFFFFFFFFFFFFFFFF AND EQ ISZERO JUMPDEST DUP1 ISZERO PUSH2 0x277B JUMPI POP PUSH0 PUSH20 0xFFFFFFFFFFFFFFFFFFFFFFFFFFFFFFFFFFFFFFFF AND DUP2 PUSH20 0xFFFFFFFFFFFFFFFFFFFFFFFFFFFFFFFFFFFFFFFF AND EQ ISZERO JUMPDEST PUSH2 0x27BA JUMPI PUSH1 0x40 MLOAD PUSH32 0x8C379A000000000000000000000000000000000000000000000000000000000 DUP2 MSTORE PUSH1 0x4 ADD PUSH2 0x27B1 SWAP1 PUSH2 0x51A2 JUMP JUMPDEST PUSH1 0x40 MLOAD DUP1 SWAP2 SUB SWAP1 REVERT JUMPDEST DUP3 PUSH1 0x12 PUSH0 PUSH2 0x100 EXP DUP2 SLOAD DUP2 PUSH20 0xFFFFFFFFFFFFFFFFFFFFFFFFFFFFFFFFFFFFFFFF MUL NOT AND SWAP1 DUP4 PUSH20 0xFFFFFFFFFFFFFFFFFFFFFFFFFFFFFFFFFFFFFFFF AND MUL OR SWAP1 SSTORE POP DUP2 PUSH1 0x13 PUSH0 PUSH2 0x100 EXP DUP2 SLOAD DUP2 PUSH20 0xFFFFFFFFFFFFFFFFFFFFFFFFFFFFFFFFFFFFFFFF MUL NOT AND SWAP1 DUP4 PUSH20 0xFFFFFFFFFFFFFFFFFFFFFFFFFFFFFFFFFFFFFFFF AND MUL OR SWAP1 SSTORE POP DUP1 PUSH1 0x14 PUSH0 PUSH2 0x100 EXP DUP2 SLOAD DUP2 PUSH20 0xFFFFFFFFFFFFFFFFFFFFFFFFFFFFFFFFFFFFFFFF MUL NOT AND SWAP1 DUP4 PUSH20 0xFFFFFFFFFFFFFFFFFFFFFFFFFFFFFFFFFFFFFFFF AND MUL OR SWAP1 SSTORE POP PUSH32 0x2D4C6AA48812A0EA09474A961613C1A3AE652D39A1580CB1AC46FF277E6D385D DUP4 DUP4 DUP4 PUSH1 0x40 MLOAD PUSH2 0x28AD SWAP4 SWAP3 SWAP2 SWAP1 PUSH2 0x51C0 JUMP JUMPDEST PUSH1 0x40 MLOAD DUP1 SWAP2 SUB SWAP1 LOG1 POP POP POP JUMP JUMPDEST PUSH2 0x28C2 PUSH2 0x352F JUMP JUMPDEST PUSH1 0x2 DUP1 SLOAD SWAP1 PUSH2 0x100 EXP SWAP1 DIV PUSH1 0xFF AND ISZERO PUSH2 0x2910 JUMPI PUSH1 0x40 MLOAD PUSH32 0x8C379A000000000000000000000000000000000000000000000000000000000 DUP2 MSTORE PUSH1 0x4 ADD PUSH2 0x2907 SWAP1 PUSH2 0x4558 JUMP JUMPDEST PUSH1 0x40 MLOAD DUP1 SWAP2 SUB SWAP1 REVERT JUMPDEST PUSH1 0x2 PUSH0 SWAP1 SLOAD SWAP1 PUSH2 0x100 EXP SWAP1 DIV PUSH1 0xFF AND PUSH2 0x295E JUMPI PUSH1 0x40 MLOAD PUSH32 0x8C379A000000000000000000000000000000000000000000000000000000000 DUP2 MSTORE PUSH1 0x4 ADD PUSH2 0x2955 SWAP1 PUSH2 0x4822 JUMP JUMPDEST PUSH1 0x40 MLOAD DUP1 SWAP2 SUB SWAP1 REVERT JUMPDEST PUSH0 DUP3 GT PUSH2 0x29A0 JUMPI PUSH1 0x40 MLOAD PUSH32 0x8C379A000000000000000000000000000000000000000000000000000000000 DUP2 MSTORE PUSH1 0x4 ADD PUSH2 0x2997 SWAP1 PUSH2 0x523F JUMP JUMPDEST PUSH1 0x40 MLOAD DUP1 SWAP2 SUB SWAP1 REVERT JUMPDEST PUSH0 PUSH32 0x0 PUSH20 0xFFFFFFFFFFFFFFFFFFFFFFFFFFFFFFFFFFFFFFFF AND PUSH4 0x70A08231 ADDRESS PUSH1 0x40 MLOAD DUP3 PUSH4 0xFFFFFFFF AND PUSH1 0xE0 SHL DUP2 MSTORE PUSH1 0x4 ADD PUSH2 0x29FA SWAP2 SWAP1 PUSH2 0x3F59 JUMP JUMPDEST PUSH1 0x20 PUSH1 0x40 MLOAD DUP1 DUP4 SUB DUP2 DUP7 GAS STATICCALL ISZERO DUP1 ISZERO PUSH2 0x2A15 JUMPI RETURNDATASIZE PUSH0 PUSH0 RETURNDATACOPY RETURNDATASIZE PUSH0 REVERT JUMPDEST POP POP POP POP PUSH1 0x40 MLOAD RETURNDATASIZE PUSH1 0x1F NOT PUSH1 0x1F DUP3 ADD AND DUP3 ADD DUP1 PUSH1 0x40 MSTORE POP DUP2 ADD SWAP1 PUSH2 0x2A39 SWAP2 SWAP1 PUSH2 0x5271 JUMP JUMPDEST SWAP1 POP PUSH2 0x2A88 CALLER ADDRESS DUP6 PUSH32 0x0 PUSH20 0xFFFFFFFFFFFFFFFFFFFFFFFFFFFFFFFFFFFFFFFF AND PUSH2 0x3C43 SWAP1 SWAP4 SWAP3 SWAP2 SWAP1 PUSH4 0xFFFFFFFF AND JUMP JUMPDEST PUSH0 DUP2 PUSH32 0x0 PUSH20 0xFFFFFFFFFFFFFFFFFFFFFFFFFFFFFFFFFFFFFFFF AND PUSH4 0x70A08231 ADDRESS PUSH1 0x40 MLOAD DUP3 PUSH4 0xFFFFFFFF AND PUSH1 0xE0 SHL DUP2 MSTORE PUSH1 0x4 ADD PUSH2 0x2AE3 SWAP2 SWAP1 PUSH2 0x3F59 JUMP JUMPDEST PUSH1 0x20 PUSH1 0x40 MLOAD DUP1 DUP4 SUB DUP2 DUP7 GAS STATICCALL ISZERO DUP1 ISZERO PUSH2 0x2AFE JUMPI RETURNDATASIZE PUSH0 PUSH0 RETURNDATACOPY RETURNDATASIZE PUSH0 REVERT JUMPDEST POP POP POP POP PUSH1 0x40 MLOAD RETURNDATASIZE PUSH1 0x1F NOT PUSH1 0x1F DUP3 ADD AND DUP3 ADD DUP1 PUSH1 0x40 MSTORE POP DUP2 ADD SWAP1 PUSH2 0x2B22 SWAP2 SWAP1 PUSH2 0x5271 JUMP JUMPDEST PUSH2 0x2B2C SWAP2 SWAP1 PUSH2 0x46AE JUMP JUMPDEST SWAP1 POP DUP3 DUP2 LT ISZERO PUSH2 0x2B71 JUMPI PUSH1 0x40 MLOAD PUSH32 0x8C379A000000000000000000000000000000000000000000000000000000000 DUP2 MSTORE PUSH1 0x4 ADD PUSH2 0x2B68 SWAP1 PUSH2 0x52E6 JUMP JUMPDEST PUSH1 0x40 MLOAD DUP1 SWAP2 SUB SWAP1 REVERT JUMPDEST PUSH0 PUSH1 0x7 PUSH0 CALLER PUSH20 0xFFFFFFFFFFFFFFFFFFFFFFFFFFFFFFFFFFFFFFFF AND PUSH20 0xFFFFFFFFFFFFFFFFFFFFFFFFFFFFFFFFFFFFFFFF AND DUP2 MSTORE PUSH1 0x20 ADD SWAP1 DUP2 MSTORE PUSH1 0x20 ADD PUSH0 KECCAK256 PUSH0 ADD SLOAD SUB PUSH2 0x2C5F JUMPI PUSH1 0x6 CALLER SWAP1 DUP1 PUSH1 0x1 DUP2 SLOAD ADD DUP1 DUP3 SSTORE DUP1 SWAP2 POP POP PUSH1 0x1 SWAP1 SUB SWAP1 PUSH0 MSTORE PUSH1 0x20 PUSH0 KECCAK256 ADD PUSH0 SWAP1 SWAP2 SWAP1 SWAP2 SWAP1 SWAP2 PUSH2 0x100 EXP DUP2 SLOAD DUP2 PUSH20 0xFFFFFFFFFFFFFFFFFFFFFFFFFFFFFFFFFFFFFFFF MUL NOT AND SWAP1 DUP4 PUSH20 0xFFFFFFFFFFFFFFFFFFFFFFFFFFFFFFFFFFFFFFFF AND MUL OR SWAP1 SSTORE POP PUSH1 0x6 DUP1 SLOAD SWAP1 POP PUSH1 0x8 PUSH0 CALLER PUSH20 0xFFFFFFFFFFFFFFFFFFFFFFFFFFFFFFFFFFFFFFFF AND PUSH20 0xFFFFFFFFFFFFFFFFFFFFFFFFFFFFFFFFFFFFFFFF AND DUP2 MSTORE PUSH1 0x20 ADD SWAP1 DUP2 MSTORE PUSH1 0x20 ADD PUSH0 KECCAK256 DUP2 SWAP1 SSTORE POP JUMPDEST DUP1 PUSH1 0x7 PUSH0 CALLER PUSH20 0xFFFFFFFFFFFFFFFFFFFFFFFFFFFFFFFFFFFFFFFF AND PUSH20 0xFFFFFFFFFFFFFFFFFFFFFFFFFFFFFFFFFFFFFFFF AND DUP2 MSTORE PUSH1 0x20 ADD SWAP1 DUP2 MSTORE PUSH1 0x20 ADD PUSH0 KECCAK256 PUSH0 ADD PUSH0 DUP3 DUP3 SLOAD PUSH2 0x2CAD SWAP2 SWAP1 PUSH2 0x3E15 JUMP JUMPDEST SWAP3 POP POP DUP2 SWAP1 SSTORE POP CALLER PUSH20 0xFFFFFFFFFFFFFFFFFFFFFFFFFFFFFFFFFFFFFFFF AND PUSH32 0x9E71BC8EEA02A63969F509818F2DAFB9254532904319F9DBDA79B67BD34A5F3D DUP3 PUSH1 0x40 MLOAD PUSH2 0x2CFA SWAP2 SWAP1 PUSH2 0x3E57 JUMP JUMPDEST PUSH1 0x40 MLOAD DUP1 SWAP2 SUB SWAP1 LOG2 POP POP PUSH2 0x2D0C PUSH2 0x35FD JUMP JUMPDEST POP POP JUMP JUMPDEST PUSH0 PUSH1 0x17 PUSH0 SWAP1 SLOAD SWAP1 PUSH2 0x100 EXP SWAP1 DIV PUSH20 0xFFFFFFFFFFFFFFFFFFFFFFFFFFFFFFFFFFFFFFFF AND PUSH20 0xFFFFFFFFFFFFFFFFFFFFFFFFFFFFFFFFFFFFFFFF AND CALLER PUSH20 0xFFFFFFFFFFFFFFFFFFFFFFFFFFFFFFFFFFFFFFFF AND EQ PUSH2 0x2DA0 JUMPI PUSH1 0x40 MLOAD PUSH32 0x8C379A000000000000000000000000000000000000000000000000000000000 DUP2 MSTORE PUSH1 0x4 ADD PUSH2 0x2D97 SWAP1 PUSH2 0x49C2 JUMP JUMPDEST PUSH1 0x40 MLOAD DUP1 SWAP2 SUB SWAP1 REVERT JUMPDEST PUSH1 0x2 DUP1 SLOAD SWAP1 PUSH2 0x100 EXP SWAP1 DIV PUSH1 0xFF AND ISZERO PUSH2 0x2DEE JUMPI PUSH1 0x40 MLOAD PUSH32 0x8C379A000000000000000000000000000000000000000000000000000000000 DUP2 MSTORE PUSH1 0x4 ADD PUSH2 0x2DE5 SWAP1 PUSH2 0x4558 JUMP JUMPDEST PUSH1 0x40 MLOAD DUP1 SWAP2 SUB SWAP1 REVERT JUMPDEST PUSH1 0x2 PUSH1 0x1 SWAP1 SLOAD SWAP1 PUSH2 0x100 EXP SWAP1 DIV PUSH1 0xFF AND PUSH2 0x2E3D JUMPI PUSH1 0x40 MLOAD PUSH32 0x8C379A000000000000000000000000000000000000000000000000000000000 DUP2 MSTORE PUSH1 0x4 ADD PUSH2 0x2E34 SWAP1 PUSH2 0x4A2A JUMP JUMPDEST PUSH1 0x40 MLOAD DUP1 SWAP2 SUB SWAP1 REVERT JUMPDEST PUSH1 0x4 SLOAD PUSH1 0x5 SLOAD PUSH2 0x2E4D SWAP2 SWAP1 PUSH2 0x3E15 JUMP JUMPDEST TIMESTAMP LT ISZERO PUSH2 0x2E8F JUMPI PUSH1 0x40 MLOAD PUSH32 0x8C379A000000000000000000000000000000000000000000000000000000000 DUP2 MSTORE PUSH1 0x4 ADD PUSH2 0x2E86 SWAP1 PUSH2 0x4AFA JUMP JUMPDEST PUSH1 0x40 MLOAD DUP1 SWAP2 SUB SWAP1 REVERT JUMPDEST PUSH0 PUSH1 0x3 SLOAD SWAP1 POP PUSH0 PUSH1 0xA PUSH0 DUP4 DUP2 MSTORE PUSH1 0x20 ADD SWAP1 DUP2 MSTORE PUSH1 0x20 ADD PUSH0 KECCAK256 PUSH1 0x3 ADD SLOAD EQ PUSH2 0x2EEB JUMPI PUSH1 0x40 MLOAD PUSH32 0x8C379A000000000000000000000000000000000000000000000000000000000 DUP2 MSTORE PUSH1 0x4 ADD PUSH2 0x2EE2 SWAP1 PUSH2 0x534E JUMP JUMPDEST PUSH1 0x40 MLOAD DUP1 SWAP2 SUB SWAP1 REVERT JUMPDEST PUSH1 0x1C PUSH0 SWAP1 SLOAD SWAP1 PUSH2 0x100 EXP SWAP1 DIV PUSH20 0xFFFFFFFFFFFFFFFFFFFFFFFFFFFFFFFFFFFFFFFF AND PUSH20 0xFFFFFFFFFFFFFFFFFFFFFFFFFFFFFFFFFFFFFFFF AND PUSH4 0x5D3B1D30 PUSH1 0x1D SLOAD PUSH1 0x1C PUSH1 0x14 SWAP1 SLOAD SWAP1 PUSH2 0x100 EXP SWAP1 DIV PUSH8 0xFFFFFFFFFFFFFFFF AND PUSH1 0x1E PUSH1 0x4 SWAP1 SLOAD SWAP1 PUSH2 0x100 EXP SWAP1 DIV PUSH2 0xFFFF AND PUSH1 0x1E PUSH0 SWAP1 SLOAD SWAP1 PUSH2 0x100 EXP SWAP1 DIV PUSH4 0xFFFFFFFF AND PUSH1 0x1 PUSH1 0x40 MLOAD DUP7 PUSH4 0xFFFFFFFF AND PUSH1 0xE0 SHL DUP2 MSTORE PUSH1 0x4 ADD PUSH2 0x2F87 SWAP6 SWAP5 SWAP4 SWAP3 SWAP2 SWAP1 PUSH2 0x53A5 JUMP JUMPDEST PUSH1 0x20 PUSH1 0x40 MLOAD DUP1 DUP4 SUB DUP2 PUSH0 DUP8 GAS CALL ISZERO DUP1 ISZERO PUSH2 0x2FA3 JUMPI RETURNDATASIZE PUSH0 PUSH0 RETURNDATACOPY RETURNDATASIZE PUSH0 REVERT JUMPDEST POP POP POP POP PUSH1 0x40 MLOAD RETURNDATASIZE PUSH1 0x1F NOT PUSH1 0x1F DUP3 ADD AND DUP3 ADD DUP1 PUSH1 0x40 MSTORE POP DUP2 ADD SWAP1 PUSH2 0x2FC7 SWAP2 SWAP1 PUSH2 0x5271 JUMP JUMPDEST SWAP2 POP DUP1 PUSH1 0x1F PUSH0 DUP5 DUP2 MSTORE PUSH1 0x20 ADD SWAP1 DUP2 MSTORE PUSH1 0x20 ADD PUSH0 KECCAK256 DUP2 SWAP1 SSTORE POP NUMBER PUSH1 0xA PUSH0 DUP4 DUP2 MSTORE PUSH1 0x20 ADD SWAP1 DUP2 MSTORE PUSH1 0x20 ADD PUSH0 KECCAK256 PUSH1 0x3 ADD DUP2 SWAP1 SSTORE POP DUP1 PUSH32 0x8103ECCC47A3DDC6E91F4725113183081313C2756F00F8B3BB960433BD4B33F3 DUP4 NUMBER PUSH1 0x40 MLOAD PUSH2 0x302A SWAP3 SWAP2 SWAP1 PUSH2 0x3FC7 JUMP JUMPDEST PUSH1 0x40 MLOAD DUP1 SWAP2 SUB SWAP1 LOG2 POP SWAP1 JUMP JUMPDEST PUSH2 0x303E PUSH2 0x34A8 JUMP JUMPDEST PUSH0 CALLVALUE GT PUSH2 0x3080 JUMPI PUSH1 0x40 MLOAD PUSH32 0x8C379A000000000000000000000000000000000000000000000000000000000 DUP2 MSTORE PUSH1 0x4 ADD PUSH2 0x3077 SWAP1 PUSH2 0x3DC1 JUMP JUMPDEST PUSH1 0x40 MLOAD DUP1 SWAP2 SUB SWAP1 REVERT JUMPDEST CALLVALUE PUSH1 0x19 PUSH0 DUP3 DUP3 SLOAD PUSH2 0x3091 SWAP2 SWAP1 PUSH2 0x3E15 JUMP JUMPDEST SWAP3 POP POP DUP2 SWAP1 SSTORE POP CALLER PUSH20 0xFFFFFFFFFFFFFFFFFFFFFFFFFFFFFFFFFFFFFFFF AND PUSH32 0x32FB8666FB8614C76BA83B694A0C60F4EE5699886BFE56001AA48337FBB134FF CALLVALUE PUSH1 0x40 MLOAD PUSH2 0x30DE SWAP2 SWAP1 PUSH2 0x3E57 JUMP JUMPDEST PUSH1 0x40 MLOAD DUP1 SWAP2 SUB SWAP1 LOG2 JUMP JUMPDEST PUSH2 0x30F0 PUSH2 0x34A8 JUMP JUMPDEST PUSH1 0x1 PUSH1 0x2 DUP1 PUSH2 0x100 EXP DUP2 SLOAD DUP2 PUSH1 0xFF MUL NOT AND SWAP1 DUP4 ISZERO ISZERO MUL OR SWAP1 SSTORE POP CALLER PUSH20 0xFFFFFFFFFFFFFFFFFFFFFFFFFFFFFFFFFFFFFFFF AND PUSH32 0x62E78CEA01BEE320CD4E420270B5EA74000D11B0C9F74754EBDBFC544B05A258 PUSH1 0x40 MLOAD PUSH1 0x40 MLOAD DUP1 SWAP2 SUB SWAP1 LOG2 JUMP JUMPDEST PUSH1 0x9 PUSH1 0x20 MSTORE DUP1 PUSH0 MSTORE PUSH1 0x40 PUSH0 KECCAK256 PUSH0 SWAP2 POP SWAP1 POP SLOAD DUP2 JUMP JUMPDEST PUSH2 0x316C PUSH2 0x34A8 JUMP JUMPDEST PUSH1 0x19 SLOAD DUP2 GT ISZERO PUSH2 0x31B1 JUMPI PUSH1 0x40 MLOAD PUSH32 0x8C379A000000000000000000000000000000000000000000000000000000000 DUP2 MSTORE PUSH1 0x4 ADD PUSH2 0x31A8 SWAP1 PUSH2 0x5440 JUMP JUMPDEST PUSH1 0x40 MLOAD DUP1 SWAP2 SUB SWAP1 REVERT JUMPDEST DUP1 PUSH1 0x19 PUSH0 DUP3 DUP3 SLOAD PUSH2 0x31C2 SWAP2 SWAP1 PUSH2 0x46AE JUMP JUMPDEST SWAP3 POP POP DUP2 SWAP1 SSTORE POP CALLER PUSH20 0xFFFFFFFFFFFFFFFFFFFFFFFFFFFFFFFFFFFFFFFF AND PUSH2 0x8FC DUP3 SWAP1 DUP2 ISZERO MUL SWAP1 PUSH1 0x40 MLOAD PUSH0 PUSH1 0x40 MLOAD DUP1 DUP4 SUB DUP2 DUP6 DUP9 DUP9 CALL SWAP4 POP POP POP POP ISZERO DUP1 ISZERO PUSH2 0x320C JUMPI RETURNDATASIZE PUSH0 PUSH0 RETURNDATACOPY RETURNDATASIZE PUSH0 REVERT JUMPDEST POP CALLER PUSH20 0xFFFFFFFFFFFFFFFFFFFFFFFFFFFFFFFFFFFFFFFF AND PUSH32 0xE8B716CFBFD42EA155F1C282F736F4E49A0136EAFFCA0CD650BDF93CD2EBD7C5 DUP3 PUSH1 0x40 MLOAD PUSH2 0x3253 SWAP2 SWAP1 PUSH2 0x3E57 JUMP JUMPDEST PUSH1 0x40 MLOAD DUP1 SWAP2 SUB SWAP1 LOG2 POP JUMP JUMPDEST PUSH1 0x3 SLOAD DUP2 JUMP JUMPDEST PUSH2 0x326C PUSH2 0x34A8 JUMP JUMPDEST DUP1 PUSH1 0x18 DUP2 SWAP1 SSTORE POP POP JUMP JUMPDEST PUSH1 0xA PUSH1 0x20 MSTORE DUP1 PUSH0 MSTORE PUSH1 0x40 PUSH0 KECCAK256 PUSH0 SWAP2 POP SWAP1 POP DUP1 PUSH0 ADD SLOAD SWAP1 DUP1 PUSH1 0x1 ADD SLOAD SWAP1 DUP1 PUSH1 0x2 ADD SLOAD SWAP1 DUP1 PUSH1 0x3 ADD SLOAD SWAP1 DUP1 PUSH1 0x4 ADD PUSH0 SWAP1 SLOAD SWAP1 PUSH2 0x100 EXP SWAP1 DIV PUSH1 0xFF AND SWAP1 DUP1 PUSH1 0x4 ADD PUSH1 0x1 SWAP1 SLOAD SWAP1 PUSH2 0x100 EXP SWAP1 DIV PUSH1 0xFF AND SWAP1 POP DUP7 JUMP JUMPDEST PUSH0 PUSH0 PUSH0 SWAP1 SLOAD SWAP1 PUSH2 0x100 EXP SWAP1 DIV PUSH20 0xFFFFFFFFFFFFFFFFFFFFFFFFFFFFFFFFFFFFFFFF AND SWAP1 POP SWAP1 JUMP JUMPDEST PUSH1 0x12 PUSH0 SWAP1 SLOAD SWAP1 PUSH2 0x100 EXP SWAP1 DIV PUSH20 0xFFFFFFFFFFFFFFFFFFFFFFFFFFFFFFFFFFFFFFFF AND DUP2 JUMP JUMPDEST PUSH2 0x331B PUSH2 0x34A8 JUMP JUMPDEST PUSH0 DUP2 GT PUSH2 0x335D JUMPI PUSH1 0x40 MLOAD PUSH32 0x8C379A000000000000000000000000000000000000000000000000000000000 DUP2 MSTORE PUSH1 0x4 ADD PUSH2 0x3354 SWAP1 PUSH2 0x54A8 JUMP JUMPDEST PUSH1 0x40 MLOAD DUP1 SWAP2 SUB SWAP1 REVERT JUMPDEST DUP1 PUSH1 0x1A DUP2 SWAP1 SSTORE POP POP JUMP JUMPDEST PUSH1 0x2 PUSH0 SWAP1 SLOAD SWAP1 PUSH2 0x100 EXP SWAP1 DIV PUSH1 0xFF AND DUP2 JUMP JUMPDEST PUSH1 0x16 SLOAD DUP2 JUMP JUMPDEST PUSH1 0x17 PUSH0 SWAP1 SLOAD SWAP1 PUSH2 0x100 EXP SWAP1 DIV PUSH20 0xFFFFFFFFFFFFFFFFFFFFFFFFFFFFFFFFFFFFFFFF AND DUP2 JUMP JUMPDEST PUSH1 0x11 SLOAD DUP2 JUMP JUMPDEST PUSH1 0xF SLOAD DUP2 JUMP JUMPDEST PUSH1 0x1F PUSH1 0x20 MSTORE DUP1 PUSH0 MSTORE PUSH1 0x40 PUSH0 KECCAK256 PUSH0 SWAP2 POP SWAP1 POP SLOAD DUP2 JUMP JUMPDEST PUSH1 0x5 SLOAD DUP2 JUMP JUMPDEST PUSH0 PUSH1 0x6 DUP1 SLOAD SWAP1 POP SWAP1 POP SWAP1 JUMP JUMPDEST PUSH1 0x1B PUSH1 0x20 MSTORE DUP1 PUSH0 MSTORE PUSH1 0x40 PUSH0 KECCAK256 PUSH0 SWAP2 POP SWAP1 POP SLOAD DUP2 JUMP JUMPDEST PUSH1 0xC SLOAD DUP2 JUMP JUMPDEST PUSH1 0x18 SLOAD DUP2 JUMP JUMPDEST PUSH1 0x1C PUSH1 0x14 SWAP1 SLOAD SWAP1 PUSH2 0x100 EXP SWAP1 DIV PUSH8 0xFFFFFFFFFFFFFFFF AND DUP2 JUMP JUMPDEST PUSH2 0x341A PUSH2 0x34A8 JUMP JUMPDEST PUSH0 PUSH20 0xFFFFFFFFFFFFFFFFFFFFFFFFFFFFFFFFFFFFFFFF AND DUP2 PUSH20 0xFFFFFFFFFFFFFFFFFFFFFFFFFFFFFFFFFFFFFFFF AND SUB PUSH2 0x348A JUMPI PUSH0 PUSH1 0x40 MLOAD PUSH32 0x1E4FBDF700000000000000000000000000000000000000000000000000000000 DUP2 MSTORE PUSH1 0x4 ADD PUSH2 0x3481 SWAP2 SWAP1 PUSH2 0x3F59 JUMP JUMPDEST PUSH1 0x40 MLOAD DUP1 SWAP2 SUB SWAP1 REVERT JUMPDEST PUSH2 0x3493 DUP2 PUSH2 0x3B82 JUMP JUMPDEST POP JUMP JUMPDEST PUSH1 0x15 SLOAD DUP2 JUMP JUMPDEST PUSH1 0x4 SLOAD DUP2 JUMP JUMPDEST PUSH1 0xB SLOAD DUP2 JUMP JUMPDEST PUSH2 0x34B0 PUSH2 0x3CC5 JUMP JUMPDEST PUSH20 0xFFFFFFFFFFFFFFFFFFFFFFFFFFFFFFFFFFFFFFFF AND PUSH2 0x34CE PUSH2 0x32C7 JUMP JUMPDEST PUSH20 0xFFFFFFFFFFFFFFFFFFFFFFFFFFFFFFFFFFFFFFFF AND EQ PUSH2 0x352D JUMPI PUSH2 0x34F1 PUSH2 0x3CC5 JUMP JUMPDEST PUSH1 0x40 MLOAD PUSH32 0x118CDAA700000000000000000000000000000000000000000000000000000000 DUP2 MSTORE PUSH1 0x4 ADD PUSH2 0x3524 SWAP2 SWAP1 PUSH2 0x3F59 JUMP JUMPDEST PUSH1 0x40 MLOAD DUP1 SWAP2 SUB SWAP1 REVERT JUMPDEST JUMP JUMPDEST PUSH1 0x2 PUSH1 0x1 SLOAD SUB PUSH2 0x3574 JUMPI PUSH1 0x40 MLOAD PUSH32 0x8C379A000000000000000000000000000000000000000000000000000000000 DUP2 MSTORE PUSH1 0x4 ADD PUSH2 0x356B SWAP1 PUSH2 0x5510 JUMP JUMPDEST PUSH1 0x40 MLOAD DUP1 SWAP2 SUB SWAP1 REVERT JUMPDEST PUSH1 0x2 PUSH1 0x1 DUP2 SWAP1 SSTORE POP JUMP JUMPDEST PUSH2 0x35F8 DUP4 DUP5 PUSH20 0xFFFFFFFFFFFFFFFFFFFFFFFFFFFFFFFFFFFFFFFF AND PUSH4 0xA9059CBB DUP6 DUP6 PUSH1 0x40 MLOAD PUSH1 0x24 ADD PUSH2 0x35B1 SWAP3 SWAP2 SWAP1 PUSH2 0x552E JUMP JUMPDEST PUSH1 0x40 MLOAD PUSH1 0x20 DUP2 DUP4 SUB SUB DUP2 MSTORE SWAP1 PUSH1 0x40 MSTORE SWAP2 POP PUSH1 0xE0 SHL PUSH1 0x20 DUP3 ADD DUP1 MLOAD PUSH28 0xFFFFFFFFFFFFFFFFFFFFFFFFFFFFFFFFFFFFFFFFFFFFFFFFFFFFFFFF DUP4 DUP2 DUP4 AND OR DUP4 MSTORE POP POP POP POP PUSH2 0x3CCC JUMP JUMPDEST POP POP POP JUMP JUMPDEST PUSH1 0x1 DUP1 DUP2 SWAP1 SSTORE POP JUMP JUMPDEST PUSH0 PUSH1 0x1F PUSH0 DUP5 DUP2 MSTORE PUSH1 0x20 ADD SWAP1 DUP2 MSTORE PUSH1 0x20 ADD PUSH0 KECCAK256 SLOAD SWAP1 POP PUSH0 DUP2 SUB PUSH2 0x365D JUMPI PUSH1 0x40 MLOAD PUSH32 0x8C379A000000000000000000000000000000000000000000000000000000000 DUP2 MSTORE PUSH1 0x4 ADD PUSH2 0x3654 SWAP1 PUSH2 0x559F JUMP JUMPDEST PUSH1 0x40 MLOAD DUP1 SWAP2 SUB SWAP1 REVERT JUMPDEST DUP2 PUSH0 DUP2 MLOAD DUP2 LT PUSH2 0x3670 JUMPI PUSH2 0x366F PUSH2 0x4D91 JUMP JUMPDEST JUMPDEST PUSH1 0x20 MUL PUSH1 0x20 ADD ADD MLOAD PUSH1 0xA PUSH0 DUP4 DUP2 MSTORE PUSH1 0x20 ADD SWAP1 DUP2 MSTORE PUSH1 0x20 ADD PUSH0 KECCAK256 PUSH1 0x2 ADD DUP2 SWAP1 SSTORE POP PUSH1 0x1 PUSH1 0xA PUSH0 DUP4 DUP2 MSTORE PUSH1 0x20 ADD SWAP1 DUP2 MSTORE PUSH1 0x20 ADD PUSH0 KECCAK256 PUSH1 0x4 ADD PUSH0 PUSH2 0x100 EXP DUP2 SLOAD DUP2 PUSH1 0xFF MUL NOT AND SWAP1 DUP4 ISZERO ISZERO MUL OR SWAP1 SSTORE POP DUP1 PUSH32 0x623F81AA9BB3441EF3D9D6CA37C0362142E8482C812D139760576C6CE87C8610 DUP4 PUSH0 DUP2 MLOAD DUP2 LT PUSH2 0x36F1 JUMPI PUSH2 0x36F0 PUSH2 0x4D91 JUMP JUMPDEST JUMPDEST PUSH1 0x20 MUL PUSH1 0x20 ADD ADD MLOAD PUSH1 0x40 MLOAD PUSH2 0x3706 SWAP2 SWAP1 PUSH2 0x3E57 JUMP JUMPDEST PUSH1 0x40 MLOAD DUP1 SWAP2 SUB SWAP1 LOG2 POP POP POP JUMP JUMPDEST PUSH0 PUSH1 0x6 DUP3 DUP2 SLOAD DUP2 LT PUSH2 0x3728 JUMPI PUSH2 0x3727 PUSH2 0x4D91 JUMP JUMPDEST JUMPDEST SWAP1 PUSH0 MSTORE PUSH1 0x20 PUSH0 KECCAK256 ADD PUSH0 SWAP1 SLOAD SWAP1 PUSH2 0x100 EXP SWAP1 DIV PUSH20 0xFFFFFFFFFFFFFFFFFFFFFFFFFFFFFFFFFFFFFFFF AND SWAP1 POP PUSH0 PUSH1 0x1 PUSH1 0x6 DUP1 SLOAD SWAP1 POP PUSH2 0x3765 SWAP2 SWAP1 PUSH2 0x46AE JUMP JUMPDEST SWAP1 POP DUP1 DUP4 EQ PUSH2 0x3857 JUMPI PUSH0 PUSH1 0x6 DUP3 DUP2 SLOAD DUP2 LT PUSH2 0x3783 JUMPI PUSH2 0x3782 PUSH2 0x4D91 JUMP JUMPDEST JUMPDEST SWAP1 PUSH0 MSTORE PUSH1 0x20 PUSH0 KECCAK256 ADD PUSH0 SWAP1 SLOAD SWAP1 PUSH2 0x100 EXP SWAP1 DIV PUSH20 0xFFFFFFFFFFFFFFFFFFFFFFFFFFFFFFFFFFFFFFFF AND SWAP1 POP DUP1 PUSH1 0x6 DUP6 DUP2 SLOAD DUP2 LT PUSH2 0x37C2 JUMPI PUSH2 0x37C1 PUSH2 0x4D91 JUMP JUMPDEST JUMPDEST SWAP1 PUSH0 MSTORE PUSH1 0x20 PUSH0 KECCAK256 ADD PUSH0 PUSH2 0x100 EXP DUP2 SLOAD DUP2 PUSH20 0xFFFFFFFFFFFFFFFFFFFFFFFFFFFFFFFFFFFFFFFF MUL NOT AND SWAP1 DUP4 PUSH20 0xFFFFFFFFFFFFFFFFFFFFFFFFFFFFFFFFFFFFFFFF AND MUL OR SWAP1 SSTORE POP PUSH1 0x1 DUP5 PUSH2 0x3814 SWAP2 SWAP1 PUSH2 0x3E15 JUMP JUMPDEST PUSH1 0x8 PUSH0 DUP4 PUSH20 0xFFFFFFFFFFFFFFFFFFFFFFFFFFFFFFFFFFFFFFFF AND PUSH20 0xFFFFFFFFFFFFFFFFFFFFFFFFFFFFFFFFFFFFFFFF AND DUP2 MSTORE PUSH1 0x20 ADD SWAP1 DUP2 MSTORE PUSH1 0x20 ADD PUSH0 KECCAK256 DUP2 SWAP1 SSTORE POP POP JUMPDEST PUSH1 0x6 DUP1 SLOAD DUP1 PUSH2 0x3869 JUMPI PUSH2 0x3868 PUSH2 0x55BD JUMP JUMPDEST JUMPDEST PUSH1 0x1 SWAP1 SUB DUP2 DUP2 SWAP1 PUSH0 MSTORE PUSH1 0x20 PUSH0 KECCAK256 ADD PUSH0 PUSH2 0x100 EXP DUP2 SLOAD SWAP1 PUSH20 0xFFFFFFFFFFFFFFFFFFFFFFFFFFFFFFFFFFFFFFFF MUL NOT AND SWAP1 SSTORE SWAP1 SSTORE PUSH0 PUSH1 0x8 PUSH0 DUP5 PUSH20 0xFFFFFFFFFFFFFFFFFFFFFFFFFFFFFFFFFFFFFFFF AND PUSH20 0xFFFFFFFFFFFFFFFFFFFFFFFFFFFFFFFFFFFFFFFF AND DUP2 MSTORE PUSH1 0x20 ADD SWAP1 DUP2 MSTORE PUSH1 0x20 ADD PUSH0 KECCAK256 DUP2 SWAP1 SSTORE POP POP POP POP JUMP JUMPDEST PUSH0 DUP2 SUB ISZERO PUSH2 0x3B7E JUMPI PUSH0 PUSH1 0x64 PUSH1 0xB SLOAD DUP4 PUSH2 0x38FB SWAP2 SWAP1 PUSH2 0x4DEE JUMP JUMPDEST PUSH2 0x3905 SWAP2 SWAP1 PUSH2 0x4DBE JUMP JUMPDEST SWAP1 POP PUSH0 PUSH1 0x64 PUSH1 0xC SLOAD DUP5 PUSH2 0x3918 SWAP2 SWAP1 PUSH2 0x4DEE JUMP JUMPDEST PUSH2 0x3922 SWAP2 SWAP1 PUSH2 0x4DBE JUMP JUMPDEST SWAP1 POP PUSH0 PUSH1 0x64 PUSH1 0xD SLOAD DUP6 PUSH2 0x3935 SWAP2 SWAP1 PUSH2 0x4DEE JUMP JUMPDEST PUSH2 0x393F SWAP2 SWAP1 PUSH2 0x4DBE JUMP JUMPDEST SWAP1 POP PUSH0 PUSH1 0x64 PUSH1 0xE SLOAD DUP7 PUSH2 0x3952 SWAP2 SWAP1 PUSH2 0x4DEE JUMP JUMPDEST PUSH2 0x395C SWAP2 SWAP1 PUSH2 0x4DBE JUMP JUMPDEST SWAP1 POP PUSH0 PUSH1 0x64 PUSH1 0xF SLOAD DUP8 PUSH2 0x396F SWAP2 SWAP1 PUSH2 0x4DEE JUMP JUMPDEST PUSH2 0x3979 SWAP2 SWAP1 PUSH2 0x4DBE JUMP JUMPDEST SWAP1 POP PUSH0 DUP2 DUP4 DUP6 DUP8 DUP10 PUSH2 0x398B SWAP2 SWAP1 PUSH2 0x3E15 JUMP JUMPDEST PUSH2 0x3995 SWAP2 SWAP1 PUSH2 0x3E15 JUMP JUMPDEST PUSH2 0x399F SWAP2 SWAP1 PUSH2 0x3E15 JUMP JUMPDEST PUSH2 0x39A9 SWAP2 SWAP1 PUSH2 0x3E15 JUMP JUMPDEST SWAP1 POP DUP7 DUP2 GT ISZERO PUSH2 0x39B7 JUMPI DUP7 SWAP1 POP JUMPDEST PUSH0 DUP2 DUP9 PUSH2 0x39C4 SWAP2 SWAP1 PUSH2 0x46AE JUMP JUMPDEST SWAP1 POP PUSH0 DUP8 GT ISZERO PUSH2 0x3A3B JUMPI PUSH2 0x3A3A PUSH1 0x12 PUSH0 SWAP1 SLOAD SWAP1 PUSH2 0x100 EXP SWAP1 DIV PUSH20 0xFFFFFFFFFFFFFFFFFFFFFFFFFFFFFFFFFFFFFFFF AND DUP9 PUSH32 0x0 PUSH20 0xFFFFFFFFFFFFFFFFFFFFFFFFFFFFFFFFFFFFFFFF AND PUSH2 0x357E SWAP1 SWAP3 SWAP2 SWAP1 PUSH4 0xFFFFFFFF AND JUMP JUMPDEST JUMPDEST PUSH0 DUP7 GT ISZERO PUSH2 0x3AB0 JUMPI PUSH2 0x3AAF PUSH1 0x13 PUSH0 SWAP1 SLOAD SWAP1 PUSH2 0x100 EXP SWAP1 DIV PUSH20 0xFFFFFFFFFFFFFFFFFFFFFFFFFFFFFFFFFFFFFFFF AND DUP8 PUSH32 0x0 PUSH20 0xFFFFFFFFFFFFFFFFFFFFFFFFFFFFFFFFFFFFFFFF AND PUSH2 0x357E SWAP1 SWAP3 SWAP2 SWAP1 PUSH4 0xFFFFFFFF AND JUMP JUMPDEST JUMPDEST PUSH0 DUP6 GT ISZERO PUSH2 0x3B25 JUMPI PUSH2 0x3B24 PUSH1 0x14 PUSH0 SWAP1 SLOAD SWAP1 PUSH2 0x100 EXP SWAP1 DIV PUSH20 0xFFFFFFFFFFFFFFFFFFFFFFFFFFFFFFFFFFFFFFFF AND DUP7 PUSH32 0x0 PUSH20 0xFFFFFFFFFFFFFFFFFFFFFFFFFFFFFFFFFFFFFFFF AND PUSH2 0x357E SWAP1 SWAP3 SWAP2 SWAP1 PUSH4 0xFFFFFFFF AND JUMP JUMPDEST JUMPDEST DUP3 PUSH1 0x10 PUSH0 DUP3 DUP3 SLOAD PUSH2 0x3B36 SWAP2 SWAP1 PUSH2 0x3E15 JUMP JUMPDEST SWAP3 POP POP DUP2 SWAP1 SSTORE POP DUP1 PUSH1 0x10 PUSH0 DUP3 DUP3 SLOAD PUSH2 0x3B4E SWAP2 SWAP1 PUSH2 0x3E15 JUMP JUMPDEST SWAP3 POP POP DUP2 SWAP1 SSTORE POP PUSH0 DUP5 GT ISZERO PUSH2 0x3B76 JUMPI DUP4 PUSH1 0x11 PUSH0 DUP3 DUP3 SLOAD PUSH2 0x3B6E SWAP2 SWAP1 PUSH2 0x3E15 JUMP JUMPDEST SWAP3 POP POP DUP2 SWAP1 SSTORE POP JUMPDEST POP POP POP POP POP POP POP JUMPDEST POP POP JUMP JUMPDEST PUSH0 PUSH0 PUSH0 SWAP1 SLOAD SWAP1 PUSH2 0x100 EXP SWAP1 DIV PUSH20 0xFFFFFFFFFFFFFFFFFFFFFFFFFFFFFFFFFFFFFFFF AND SWAP1 POP DUP2 PUSH0 PUSH0 PUSH2 0x100 EXP DUP2 SLOAD DUP2 PUSH20 0xFFFFFFFFFFFFFFFFFFFFFFFFFFFFFFFFFFFFFFFF MUL NOT AND SWAP1 DUP4 PUSH20 0xFFFFFFFFFFFFFFFFFFFFFFFFFFFFFFFFFFFFFFFF AND MUL OR SWAP1 SSTORE POP DUP2 PUSH20 0xFFFFFFFFFFFFFFFFFFFFFFFFFFFFFFFFFFFFFFFF AND DUP2 PUSH20 0xFFFFFFFFFFFFFFFFFFFFFFFFFFFFFFFFFFFFFFFF AND PUSH32 0x8BE0079C531659141344CD1FD0A4F28419497F9722A3DAAFE3B4186F6B6457E0 PUSH1 0x40 MLOAD PUSH1 0x40 MLOAD DUP1 SWAP2 SUB SWAP1 LOG3 POP POP JUMP JUMPDEST PUSH2 0x3CBF DUP5 DUP6 PUSH20 0xFFFFFFFFFFFFFFFFFFFFFFFFFFFFFFFFFFFFFFFF AND PUSH4 0x23B872DD DUP7 DUP7 DUP7 PUSH1 0x40 MLOAD PUSH1 0x24 ADD PUSH2 0x3C78 SWAP4 SWAP3 SWAP2 SWAP1 PUSH2 0x55EA JUMP JUMPDEST PUSH1 0x40 MLOAD PUSH1 0x20 DUP2 DUP4 SUB SUB DUP2 MSTORE SWAP1 PUSH1 0x40 MSTORE SWAP2 POP PUSH1 0xE0 SHL PUSH1 0x20 DUP3 ADD DUP1 MLOAD PUSH28 0xFFFFFFFFFFFFFFFFFFFFFFFFFFFFFFFFFFFFFFFFFFFFFFFFFFFFFFFF DUP4 DUP2 DUP4 AND OR DUP4 MSTORE POP POP POP POP PUSH2 0x3CCC JUMP JUMPDEST POP POP POP POP JUMP JUMPDEST PUSH0 CALLER SWAP1 POP SWAP1 JUMP JUMPDEST PUSH0 PUSH0 PUSH1 0x20 PUSH0 DUP5 MLOAD PUSH1 0x20 DUP7 ADD PUSH0 DUP9 GAS CALL DUP1 PUSH2 0x3CEB JUMPI PUSH1 0x40 MLOAD RETURNDATASIZE PUSH0 DUP3 RETURNDATACOPY RETURNDATASIZE DUP2 REVERT JUMPDEST RETURNDATASIZE SWAP3 POP PUSH0 MLOAD SWAP2 POP POP PUSH0 DUP3 EQ PUSH2 0x3D04 JUMPI PUSH1 0x1 DUP2 EQ ISZERO PUSH2 0x3D1F JUMP JUMPDEST PUSH0 DUP5 PUSH20 0xFFFFFFFFFFFFFFFFFFFFFFFFFFFFFFFFFFFFFFFF AND EXTCODESIZE EQ JUMPDEST ISZERO PUSH2 0x3D61 JUMPI DUP4 PUSH1 0x40 MLOAD PUSH32 0x5274AFE700000000000000000000000000000000000000000000000000000000 DUP2 MSTORE PUSH1 0x4 ADD PUSH2 0x3D58 SWAP2 SWAP1 PUSH2 0x3F59 JUMP JUMPDEST PUSH1 0x40 MLOAD DUP1 SWAP2 SUB SWAP1 REVERT JUMPDEST POP POP POP POP JUMP JUMPDEST PUSH0 DUP3 DUP3 MSTORE PUSH1 0x20 DUP3 ADD SWAP1 POP SWAP3 SWAP2 POP POP JUMP JUMPDEST PUSH32 0x6E6F20424E420000000000000000000000000000000000000000000000000000 PUSH0 DUP3 ADD MSTORE POP JUMP JUMPDEST PUSH0 PUSH2 0x3DAB PUSH1 0x6 DUP4 PUSH2 0x3D67 JUMP JUMPDEST SWAP2 POP PUSH2 0x3DB6 DUP3 PUSH2 0x3D77 JUMP JUMPDEST PUSH1 0x20 DUP3 ADD SWAP1 POP SWAP2 SWAP1 POP JUMP JUMPDEST PUSH0 PUSH1 0x20 DUP3 ADD SWAP1 POP DUP2 DUP2 SUB PUSH0 DUP4 ADD MSTORE PUSH2 0x3DD8 DUP2 PUSH2 0x3D9F JUMP JUMPDEST SWAP1 POP SWAP2 SWAP1 POP JUMP JUMPDEST PUSH0 DUP2 SWAP1 POP SWAP2 SWAP1 POP JUMP JUMPDEST PUSH32 0x4E487B7100000000000000000000000000000000000000000000000000000000 PUSH0 MSTORE PUSH1 0x11 PUSH1 0x4 MSTORE PUSH1 0x24 PUSH0 REVERT JUMPDEST PUSH0 PUSH2 0x3E1F DUP3 PUSH2 0x3DDF JUMP JUMPDEST SWAP2 POP PUSH2 0x3E2A DUP4 PUSH2 0x3DDF JUMP JUMPDEST SWAP3 POP DUP3 DUP3 ADD SWAP1 POP DUP1 DUP3 GT ISZERO PUSH2 0x3E42 JUMPI PUSH2 0x3E41 PUSH2 0x3DE8 JUMP JUMPDEST JUMPDEST SWAP3 SWAP2 POP POP JUMP JUMPDEST PUSH2 0x3E51 DUP2 PUSH2 0x3DDF JUMP JUMPDEST DUP3 MSTORE POP POP JUMP JUMPDEST PUSH0 PUSH1 0x20 DUP3 ADD SWAP1 POP PUSH2 0x3E6A PUSH0 DUP4 ADD DUP5 PUSH2 0x3E48 JUMP JUMPDEST SWAP3 SWAP2 POP POP JUMP JUMPDEST PUSH0 DUP2 SWAP1 POP SWAP2 SWAP1 POP JUMP JUMPDEST PUSH2 0x3E82 DUP2 PUSH2 0x3E70 JUMP JUMPDEST DUP3 MSTORE POP POP JUMP JUMPDEST PUSH0 PUSH1 0x20 DUP3 ADD SWAP1 POP PUSH2 0x3E9B PUSH0 DUP4 ADD DUP5 PUSH2 0x3E79 JUMP JUMPDEST SWAP3 SWAP2 POP POP JUMP JUMPDEST PUSH0 PUSH1 0x40 MLOAD SWAP1 POP SWAP1 JUMP JUMPDEST PUSH0 PUSH0 REVERT JUMPDEST PUSH0 PUSH0 REVERT JUMPDEST PUSH2 0x3EBB DUP2 PUSH2 0x3DDF JUMP JUMPDEST DUP2 EQ PUSH2 0x3EC5 JUMPI PUSH0 PUSH0 REVERT JUMPDEST POP JUMP JUMPDEST PUSH0 DUP2 CALLDATALOAD SWAP1 POP PUSH2 0x3ED6 DUP2 PUSH2 0x3EB2 JUMP JUMPDEST SWAP3 SWAP2 POP POP JUMP JUMPDEST PUSH0 PUSH0 PUSH1 0x40 DUP4 DUP6 SUB SLT ISZERO PUSH2 0x3EF2 JUMPI PUSH2 0x3EF1 PUSH2 0x3EAA JUMP JUMPDEST JUMPDEST PUSH0 PUSH2 0x3EFF DUP6 DUP3 DUP7 ADD PUSH2 0x3EC8 JUMP JUMPDEST SWAP3 POP POP PUSH1 0x20 PUSH2 0x3F10 DUP6 DUP3 DUP7 ADD PUSH2 0x3EC8 JUMP JUMPDEST SWAP2 POP POP SWAP3 POP SWAP3 SWAP1 POP JUMP JUMPDEST PUSH0 PUSH20 0xFFFFFFFFFFFFFFFFFFFFFFFFFFFFFFFFFFFFFFFF DUP3 AND SWAP1 POP SWAP2 SWAP1 POP JUMP JUMPDEST PUSH0 PUSH2 0x3F43 DUP3 PUSH2 0x3F1A JUMP JUMPDEST SWAP1 POP SWAP2 SWAP1 POP JUMP JUMPDEST PUSH2 0x3F53 DUP2 PUSH2 0x3F39 JUMP JUMPDEST DUP3 MSTORE POP POP JUMP JUMPDEST PUSH0 PUSH1 0x20 DUP3 ADD SWAP1 POP PUSH2 0x3F6C PUSH0 DUP4 ADD DUP5 PUSH2 0x3F4A JUMP JUMPDEST SWAP3 SWAP2 POP POP JUMP JUMPDEST PUSH2 0x3F7B DUP2 PUSH2 0x3F39 JUMP JUMPDEST DUP2 EQ PUSH2 0x3F85 JUMPI PUSH0 PUSH0 REVERT JUMPDEST POP JUMP JUMPDEST PUSH0 DUP2 CALLDATALOAD SWAP1 POP PUSH2 0x3F96 DUP2 PUSH2 0x3F72 JUMP JUMPDEST SWAP3 SWAP2 POP POP JUMP JUMPDEST PUSH0 PUSH1 0x20 DUP3 DUP5 SUB SLT ISZERO PUSH2 0x3FB1 JUMPI PUSH2 0x3FB0 PUSH2 0x3EAA JUMP JUMPDEST JUMPDEST PUSH0 PUSH2 0x3FBE DUP5 DUP3 DUP6 ADD PUSH2 0x3F88 JUMP JUMPDEST SWAP2 POP POP SWAP3 SWAP2 POP POP JUMP JUMPDEST PUSH0 PUSH1 0x40 DUP3 ADD SWAP1 POP PUSH2 0x3FDA PUSH0 DUP4 ADD DUP6 PUSH2 0x3E48 JUMP JUMPDEST PUSH2 0x3FE7 PUSH1 0x20 DUP4 ADD DUP5 PUSH2 0x3E48 JUMP JUMPDEST SWAP4 SWAP3 POP POP POP JUMP JUMPDEST PUSH0 PUSH0 REVERT JUMPDEST PUSH0 PUSH1 0x1F NOT PUSH1 0x1F DUP4 ADD AND SWAP1 POP SWAP2 SWAP1 POP JUMP JUMPDEST PUSH32 0x4E487B7100000000000000000000000000000000000000000000000000000000 PUSH0 MSTORE PUSH1 0x41 PUSH1 0x4 MSTORE PUSH1 0x24 PUSH0 REVERT JUMPDEST PUSH2 0x4038 DUP3 PUSH2 0x3FF2 JUMP JUMPDEST DUP2 ADD DUP2 DUP2 LT PUSH8 0xFFFFFFFFFFFFFFFF DUP3 GT OR ISZERO PUSH2 0x4057 JUMPI PUSH2 0x4056 PUSH2 0x4002 JUMP JUMPDEST JUMPDEST DUP1 PUSH1 0x40 MSTORE POP POP POP JUMP JUMPDEST PUSH0 PUSH2 0x4069 PUSH2 0x3EA1 JUMP JUMPDEST SWAP1 POP PUSH2 0x4075 DUP3 DUP3 PUSH2 0x402F JUMP JUMPDEST SWAP2 SWAP1 POP JUMP JUMPDEST PUSH0 PUSH8 0xFFFFFFFFFFFFFFFF DUP3 GT ISZERO PUSH2 0x4094 JUMPI PUSH2 0x4093 PUSH2 0x4002 JUMP JUMPDEST JUMPDEST PUSH1 0x20 DUP3 MUL SWAP1 POP PUSH1 0x20 DUP2 ADD SWAP1 POP SWAP2 SWAP1 POP JUMP JUMPDEST PUSH0 PUSH0 REVERT JUMPDEST PUSH0 PUSH2 0x40BB PUSH2 0x40B6 DUP5 PUSH2 0x407A JUMP JUMPDEST PUSH2 0x4060 JUMP JUMPDEST SWAP1 POP DUP1 DUP4 DUP3 MSTORE PUSH1 0x20 DUP3 ADD SWAP1 POP PUSH1 0x20 DUP5 MUL DUP4 ADD DUP6 DUP2 GT ISZERO PUSH2 0x40DE JUMPI PUSH2 0x40DD PUSH2 0x40A5 JUMP JUMPDEST JUMPDEST DUP4 JUMPDEST DUP2 DUP2 LT ISZERO PUSH2 0x4107 JUMPI DUP1 PUSH2 0x40F3 DUP9 DUP3 PUSH2 0x3EC8 JUMP JUMPDEST DUP5 MSTORE PUSH1 0x20 DUP5 ADD SWAP4 POP POP PUSH1 0x20 DUP2 ADD SWAP1 POP PUSH2 0x40E0 JUMP JUMPDEST POP POP POP SWAP4 SWAP3 POP POP POP JUMP JUMPDEST PUSH0 DUP3 PUSH1 0x1F DUP4 ADD SLT PUSH2 0x4125 JUMPI PUSH2 0x4124 PUSH2 0x3FEE JUMP JUMPDEST JUMPDEST DUP2 CALLDATALOAD PUSH2 0x4135 DUP5 DUP3 PUSH1 0x20 DUP7 ADD PUSH2 0x40A9 JUMP JUMPDEST SWAP2 POP POP SWAP3 SWAP2 POP POP JUMP JUMPDEST PUSH0 PUSH0 PUSH1 0x40 DUP4 DUP6 SUB SLT ISZERO PUSH2 0x4154 JUMPI PUSH2 0x4153 PUSH2 0x3EAA JUMP JUMPDEST JUMPDEST PUSH0 PUSH2 0x4161 DUP6 DUP3 DUP7 ADD PUSH2 0x3EC8 JUMP JUMPDEST SWAP3 POP POP PUSH1 0x20 DUP4 ADD CALLDATALOAD PUSH8 0xFFFFFFFFFFFFFFFF DUP2 GT ISZERO PUSH2 0x4182 JUMPI PUSH2 0x4181 PUSH2 0x3EAE JUMP JUMPDEST JUMPDEST PUSH2 0x418E DUP6 DUP3 DUP7 ADD PUSH2 0x4111 JUMP JUMPDEST SWAP2 POP POP SWAP3 POP SWAP3 SWAP1 POP JUMP JUMPDEST PUSH0 PUSH1 0x20 DUP3 DUP5 SUB SLT ISZERO PUSH2 0x41AD JUMPI PUSH2 0x41AC PUSH2 0x3EAA JUMP JUMPDEST JUMPDEST PUSH0 PUSH2 0x41BA DUP5 DUP3 DUP6 ADD PUSH2 0x3EC8 JUMP JUMPDEST SWAP2 POP POP SWAP3 SWAP2 POP POP JUMP JUMPDEST PUSH0 PUSH4 0xFFFFFFFF DUP3 AND SWAP1 POP SWAP2 SWAP1 POP JUMP JUMPDEST PUSH2 0x41DB DUP2 PUSH2 0x41C3 JUMP JUMPDEST DUP3 MSTORE POP POP JUMP JUMPDEST PUSH0 PUSH1 0x20 DUP3 ADD SWAP1 POP PUSH2 0x41F4 PUSH0 DUP4 ADD DUP5 PUSH2 0x41D2 JUMP JUMPDEST SWAP3 SWAP2 POP POP JUMP JUMPDEST PUSH0 DUP2 ISZERO ISZERO SWAP1 POP SWAP2 SWAP1 POP JUMP JUMPDEST PUSH2 0x420E DUP2 PUSH2 0x41FA JUMP JUMPDEST DUP3 MSTORE POP POP JUMP JUMPDEST PUSH0 PUSH1 0x20 DUP3 ADD SWAP1 POP PUSH2 0x4227 PUSH0 DUP4 ADD DUP5 PUSH2 0x4205 JUMP JUMPDEST SWAP3 SWAP2 POP POP JUMP JUMPDEST PUSH0 PUSH2 0xFFFF DUP3 AND SWAP1 POP SWAP2 SWAP1 POP JUMP JUMPDEST PUSH2 0x4243 DUP2 PUSH2 0x422D JUMP JUMPDEST DUP3 MSTORE POP POP JUMP JUMPDEST PUSH0 PUSH1 0x20 DUP3 ADD SWAP1 POP PUSH2 0x425C PUSH0 DUP4 ADD DUP5 PUSH2 0x423A JUMP JUMPDEST SWAP3 SWAP2 POP POP JUMP JUMPDEST PUSH0 DUP2 MLOAD SWAP1 POP SWAP2 SWAP1 POP JUMP JUMPDEST PUSH0 DUP3 DUP3 MSTORE PUSH1 0x20 DUP3 ADD SWAP1 POP SWAP3 SWAP2 POP POP JUMP JUMPDEST PUSH0 DUP2 SWAP1 POP PUSH1 0x20 DUP3 ADD SWAP1 POP SWAP2 SWAP1 POP JUMP JUMPDEST PUSH2 0x4294 DUP2 PUSH2 0x3F39 JUMP JUMPDEST DUP3 MSTORE POP POP JUMP JUMPDEST PUSH0 PUSH2 0x42A5 DUP4 DUP4 PUSH2 0x428B JUMP JUMPDEST PUSH1 0x20 DUP4 ADD SWAP1 POP SWAP3 SWAP2 POP POP JUMP JUMPDEST PUSH0 PUSH1 0x20 DUP3 ADD SWAP1 POP SWAP2 SWAP1 POP JUMP JUMPDEST PUSH0 PUSH2 0x42C7 DUP3 PUSH2 0x4262 JUMP JUMPDEST PUSH2 0x42D1 DUP2 DUP6 PUSH2 0x426C JUMP JUMPDEST SWAP4 POP PUSH2 0x42DC DUP4 PUSH2 0x427C JUMP JUMPDEST DUP1 PUSH0 JUMPDEST DUP4 DUP2 LT ISZERO PUSH2 0x430C JUMPI DUP2 MLOAD PUSH2 0x42F3 DUP9 DUP3 PUSH2 0x429A JUMP JUMPDEST SWAP8 POP PUSH2 0x42FE DUP4 PUSH2 0x42B1 JUMP JUMPDEST SWAP3 POP POP PUSH1 0x1 DUP2 ADD SWAP1 POP PUSH2 0x42DF JUMP JUMPDEST POP DUP6 SWAP4 POP POP POP POP SWAP3 SWAP2 POP POP JUMP JUMPDEST PUSH0 PUSH1 0x20 DUP3 ADD SWAP1 POP DUP2 DUP2 SUB PUSH0 DUP4 ADD MSTORE PUSH2 0x4331 DUP2 DUP5 PUSH2 0x42BD JUMP JUMPDEST SWAP1 POP SWAP3 SWAP2 POP POP JUMP JUMPDEST PUSH0 PUSH0 PUSH0 PUSH0 PUSH0 PUSH1 0xA0 DUP7 DUP9 SUB SLT ISZERO PUSH2 0x4352 JUMPI PUSH2 0x4351 PUSH2 0x3EAA JUMP JUMPDEST JUMPDEST PUSH0 PUSH2 0x435F DUP9 DUP3 DUP10 ADD PUSH2 0x3EC8 JUMP JUMPDEST SWAP6 POP POP PUSH1 0x20 PUSH2 0x4370 DUP9 DUP3 DUP10 ADD PUSH2 0x3EC8 JUMP JUMPDEST SWAP5 POP POP PUSH1 0x40 PUSH2 0x4381 DUP9 DUP3 DUP10 ADD PUSH2 0x3EC8 JUMP JUMPDEST SWAP4 POP POP PUSH1 0x60 PUSH2 0x4392 DUP9 DUP3 DUP10 ADD PUSH2 0x3EC8 JUMP JUMPDEST SWAP3 POP POP PUSH1 0x80 PUSH2 0x43A3 DUP9 DUP3 DUP10 ADD PUSH2 0x3EC8 JUMP JUMPDEST SWAP2 POP POP SWAP3 SWAP6 POP SWAP3 SWAP6 SWAP1 SWAP4 POP JUMP JUMPDEST PUSH0 DUP2 SWAP1 POP SWAP2 SWAP1 POP JUMP JUMPDEST PUSH0 PUSH2 0x43D3 PUSH2 0x43CE PUSH2 0x43C9 DUP5 PUSH2 0x3F1A JUMP JUMPDEST PUSH2 0x43B0 JUMP JUMPDEST PUSH2 0x3F1A JUMP JUMPDEST SWAP1 POP SWAP2 SWAP1 POP JUMP JUMPDEST PUSH0 PUSH2 0x43E4 DUP3 PUSH2 0x43B9 JUMP JUMPDEST SWAP1 POP SWAP2 SWAP1 POP JUMP JUMPDEST PUSH0 PUSH2 0x43F5 DUP3 PUSH2 0x43DA JUMP JUMPDEST SWAP1 POP SWAP2 SWAP1 POP JUMP JUMPDEST PUSH2 0x4405 DUP2 PUSH2 0x43EB JUMP JUMPDEST DUP3 MSTORE POP POP JUMP JUMPDEST PUSH0 PUSH1 0x20 DUP3 ADD SWAP1 POP PUSH2 0x441E PUSH0 DUP4 ADD DUP5 PUSH2 0x43FC JUMP JUMPDEST SWAP3 SWAP2 POP POP JUMP JUMPDEST PUSH0 PUSH0 PUSH0 PUSH1 0x60 DUP5 DUP7 SUB SLT ISZERO PUSH2 0x443B JUMPI PUSH2 0x443A PUSH2 0x3EAA JUMP JUMPDEST JUMPDEST PUSH0 PUSH2 0x4448 DUP7 DUP3 DUP8 ADD PUSH2 0x3F88 JUMP JUMPDEST SWAP4 POP POP PUSH1 0x20 PUSH2 0x4459 DUP7 DUP3 DUP8 ADD PUSH2 0x3F88 JUMP JUMPDEST SWAP3 POP POP PUSH1 0x40 PUSH2 0x446A DUP7 DUP3 DUP8 ADD PUSH2 0x3F88 JUMP JUMPDEST SWAP2 POP POP SWAP3 POP SWAP3 POP SWAP3 JUMP JUMPDEST PUSH0 PUSH1 0xC0 DUP3 ADD SWAP1 POP PUSH2 0x4487 PUSH0 DUP4 ADD DUP10 PUSH2 0x3E48 JUMP JUMPDEST PUSH2 0x4494 PUSH1 0x20 DUP4 ADD DUP9 PUSH2 0x3E48 JUMP JUMPDEST PUSH2 0x44A1 PUSH1 0x40 DUP4 ADD DUP8 PUSH2 0x3E48 JUMP JUMPDEST PUSH2 0x44AE PUSH1 0x60 DUP4 ADD DUP7 PUSH2 0x3E48 JUMP JUMPDEST PUSH2 0x44BB PUSH1 0x80 DUP4 ADD DUP6 PUSH2 0x4205 JUMP JUMPDEST PUSH2 0x44C8 PUSH1 0xA0 DUP4 ADD DUP5 PUSH2 0x4205 JUMP JUMPDEST SWAP8 SWAP7 POP POP POP POP POP POP POP JUMP JUMPDEST PUSH0 PUSH8 0xFFFFFFFFFFFFFFFF DUP3 AND SWAP1 POP SWAP2 SWAP1 POP JUMP JUMPDEST PUSH2 0x44EF DUP2 PUSH2 0x44D3 JUMP JUMPDEST DUP3 MSTORE POP POP JUMP JUMPDEST PUSH0 PUSH1 0x20 DUP3 ADD SWAP1 POP PUSH2 0x4508 PUSH0 DUP4 ADD DUP5 PUSH2 0x44E6 JUMP JUMPDEST SWAP3 SWAP2 POP POP JUMP JUMPDEST PUSH32 0x5061757365640000000000000000000000000000000000000000000000000000 PUSH0 DUP3 ADD MSTORE POP JUMP JUMPDEST PUSH0 PUSH2 0x4542 PUSH1 0x6 DUP4 PUSH2 0x3D67 JUMP JUMPDEST SWAP2 POP PUSH2 0x454D DUP3 PUSH2 0x450E JUMP JUMPDEST PUSH1 0x20 DUP3 ADD SWAP1 POP SWAP2 SWAP1 POP JUMP JUMPDEST PUSH0 PUSH1 0x20 DUP3 ADD SWAP1 POP DUP2 DUP2 SUB PUSH0 DUP4 ADD MSTORE PUSH2 0x456F DUP2 PUSH2 0x4536 JUMP JUMPDEST SWAP1 POP SWAP2 SWAP1 POP JUMP JUMPDEST PUSH32 0x6E6F207265717565737400000000000000000000000000000000000000000000 PUSH0 DUP3 ADD MSTORE POP JUMP JUMPDEST PUSH0 PUSH2 0x45AA PUSH1 0xA DUP4 PUSH2 0x3D67 JUMP JUMPDEST SWAP2 POP PUSH2 0x45B5 DUP3 PUSH2 0x4576 JUMP JUMPDEST PUSH1 0x20 DUP3 ADD SWAP1 POP SWAP2 SWAP1 POP JUMP JUMPDEST PUSH0 PUSH1 0x20 DUP3 ADD SWAP1 POP DUP2 DUP2 SUB PUSH0 DUP4 ADD MSTORE PUSH2 0x45D7 DUP2 PUSH2 0x459E JUMP JUMPDEST SWAP1 POP SWAP2 SWAP1 POP JUMP JUMPDEST PUSH32 0x616C72656164792066756C66696C6C6564000000000000000000000000000000 PUSH0 DUP3 ADD MSTORE POP JUMP JUMPDEST PUSH0 PUSH2 0x4612 PUSH1 0x11 DUP4 PUSH2 0x3D67 JUMP JUMPDEST SWAP2 POP PUSH2 0x461D DUP3 PUSH2 0x45DE JUMP JUMPDEST PUSH1 0x20 DUP3 ADD SWAP1 POP SWAP2 SWAP1 POP JUMP JUMPDEST PUSH0 PUSH1 0x20 DUP3 ADD SWAP1 POP DUP2 DUP2 SUB PUSH0 DUP4 ADD MSTORE PUSH2 0x463F DUP2 PUSH2 0x4606 JUMP JUMPDEST SWAP1 POP SWAP2 SWAP1 POP JUMP JUMPDEST PUSH32 0x746F6F206561726C7920666F722066616C6C6261636B00000000000000000000 PUSH0 DUP3 ADD MSTORE POP JUMP JUMPDEST PUSH0 PUSH2 0x467A PUSH1 0x16 DUP4 PUSH2 0x3D67 JUMP JUMPDEST SWAP2 POP PUSH2 0x4685 DUP3 PUSH2 0x4646 JUMP JUMPDEST PUSH1 0x20 DUP3 ADD SWAP1 POP SWAP2 SWAP1 POP JUMP JUMPDEST PUSH0 PUSH1 0x20 DUP3 ADD SWAP1 POP DUP2 DUP2 SUB PUSH0 DUP4 ADD MSTORE PUSH2 0x46A7 DUP2 PUSH2 0x466E JUMP JUMPDEST SWAP1 POP SWAP2 SWAP1 POP JUMP JUMPDEST PUSH0 PUSH2 0x46B8 DUP3 PUSH2 0x3DDF JUMP JUMPDEST SWAP2 POP PUSH2 0x46C3 DUP4 PUSH2 0x3DDF JUMP JUMPDEST SWAP3 POP DUP3 DUP3 SUB SWAP1 POP DUP2 DUP2 GT ISZERO PUSH2 0x46DB JUMPI PUSH2 0x46DA PUSH2 0x3DE8 JUMP JUMPDEST JUMPDEST SWAP3 SWAP2 POP POP JUMP JUMPDEST PUSH32 0x6E6F20726F756E647320746F20636C61696D0000000000000000000000000000 PUSH0 DUP3 ADD MSTORE POP JUMP JUMPDEST PUSH0 PUSH2 0x4715 PUSH1 0x12 DUP4 PUSH2 0x3D67 JUMP JUMPDEST SWAP2 POP PUSH2 0x4720 DUP3 PUSH2 0x46E1 JUMP JUMPDEST PUSH1 0x20 DUP3 ADD SWAP1 POP SWAP2 SWAP1 POP JUMP JUMPDEST PUSH0 PUSH1 0x20 DUP3 ADD SWAP1 POP DUP2 DUP2 SUB PUSH0 DUP4 ADD MSTORE PUSH2 0x4742 DUP2 PUSH2 0x4709 JUMP JUMPDEST SWAP1 POP SWAP2 SWAP1 POP JUMP JUMPDEST PUSH32 0x6E6F207265776172647300000000000000000000000000000000000000000000 PUSH0 DUP3 ADD MSTORE POP JUMP JUMPDEST PUSH0 PUSH2 0x477D PUSH1 0xA DUP4 PUSH2 0x3D67 JUMP JUMPDEST SWAP2 POP PUSH2 0x4788 DUP3 PUSH2 0x4749 JUMP JUMPDEST PUSH1 0x20 DUP3 ADD SWAP1 POP SWAP2 SWAP1 POP JUMP JUMPDEST PUSH0 PUSH1 0x20 DUP3 ADD SWAP1 POP DUP2 DUP2 SUB PUSH0 DUP4 ADD MSTORE PUSH2 0x47AA DUP2 PUSH2 0x4771 JUMP JUMPDEST SWAP1 POP SWAP2 SWAP1 POP JUMP JUMPDEST PUSH0 PUSH1 0x40 DUP3 ADD SWAP1 POP PUSH2 0x47C4 PUSH0 DUP4 ADD DUP6 PUSH2 0x3F4A JUMP JUMPDEST PUSH2 0x47D1 PUSH1 0x20 DUP4 ADD DUP5 PUSH2 0x3F4A JUMP JUMPDEST SWAP4 SWAP3 POP POP POP JUMP JUMPDEST PUSH32 0x7374616B696E6720636C6F736564000000000000000000000000000000000000 PUSH0 DUP3 ADD MSTORE POP JUMP JUMPDEST PUSH0 PUSH2 0x480C PUSH1 0xE DUP4 PUSH2 0x3D67 JUMP JUMPDEST SWAP2 POP PUSH2 0x4817 DUP3 PUSH2 0x47D8 JUMP JUMPDEST PUSH1 0x20 DUP3 ADD SWAP1 POP SWAP2 SWAP1 POP JUMP JUMPDEST PUSH0 PUSH1 0x20 DUP3 ADD SWAP1 POP DUP2 DUP2 SUB PUSH0 DUP4 ADD MSTORE PUSH2 0x4839 DUP2 PUSH2 0x4800 JUMP JUMPDEST SWAP1 POP SWAP2 SWAP1 POP JUMP JUMPDEST PUSH32 0x6E6F207374616B65000000000000000000000000000000000000000000000000 PUSH0 DUP3 ADD MSTORE POP JUMP JUMPDEST PUSH0 PUSH2 0x4874 PUSH1 0x8 DUP4 PUSH2 0x3D67 JUMP JUMPDEST SWAP2 POP PUSH2 0x487F DUP3 PUSH2 0x4840 JUMP JUMPDEST PUSH1 0x20 DUP3 ADD SWAP1 POP SWAP2 SWAP1 POP JUMP JUMPDEST PUSH0 PUSH1 0x20 DUP3 ADD SWAP1 POP DUP2 DUP2 SUB PUSH0 DUP4 ADD MSTORE PUSH2 0x48A1 DUP2 PUSH2 0x4868 JUMP JUMPDEST SWAP1 POP SWAP2 SWAP1 POP JUMP JUMPDEST PUSH32 0x6E6F742061207061727469636970616E74000000000000000000000000000000 PUSH0 DUP3 ADD MSTORE POP JUMP JUMPDEST PUSH0 PUSH2 0x48DC PUSH1 0x11 DUP4 PUSH2 0x3D67 JUMP JUMPDEST SWAP2 POP PUSH2 0x48E7 DUP3 PUSH2 0x48A8 JUMP JUMPDEST PUSH1 0x20 DUP3 ADD SWAP1 POP SWAP2 SWAP1 POP JUMP JUMPDEST PUSH0 PUSH1 0x20 DUP3 ADD SWAP1 POP DUP2 DUP2 SUB PUSH0 DUP4 ADD MSTORE PUSH2 0x4909 DUP2 PUSH2 0x48D0 JUMP JUMPDEST SWAP1 POP SWAP2 SWAP1 POP JUMP JUMPDEST PUSH32 0x6D696E2036307300000000000000000000000000000000000000000000000000 PUSH0 DUP3 ADD MSTORE POP JUMP JUMPDEST PUSH0 PUSH2 0x4944 PUSH1 0x7 DUP4 PUSH2 0x3D67 JUMP JUMPDEST SWAP2 POP PUSH2 0x494F DUP3 PUSH2 0x4910 JUMP JUMPDEST PUSH1 0x20 DUP3 ADD SWAP1 POP SWAP2 SWAP1 POP JUMP JUMPDEST PUSH0 PUSH1 0x20 DUP3 ADD SWAP1 POP DUP2 DUP2 SUB PUSH0 DUP4 ADD MSTORE PUSH2 0x4971 DUP2 PUSH2 0x4938 JUMP JUMPDEST SWAP1 POP SWAP2 SWAP1 POP JUMP JUMPDEST PUSH32 0x4F6E6C79206B6565706572000000000000000000000000000000000000000000 PUSH0 DUP3 ADD MSTORE POP JUMP JUMPDEST PUSH0 PUSH2 0x49AC PUSH1 0xB DUP4 PUSH2 0x3D67 JUMP JUMPDEST SWAP2 POP PUSH2 0x49B7 DUP3 PUSH2 0x4978 JUMP JUMPDEST PUSH1 0x20 DUP3 ADD SWAP1 POP SWAP2 SWAP1 POP JUMP JUMPDEST PUSH0 PUSH1 0x20 DUP3 ADD SWAP1 POP DUP2 DUP2 SUB PUSH0 DUP4 ADD MSTORE PUSH2 0x49D9 DUP2 PUSH2 0x49A0 JUMP JUMPDEST SWAP1 POP SWAP2 SWAP1 POP JUMP JUMPDEST PUSH32 0x6761756E746C6574206E6F742061637469766500000000000000000000000000 PUSH0 DUP3 ADD MSTORE POP JUMP JUMPDEST PUSH0 PUSH2 0x4A14 PUSH1 0x13 DUP4 PUSH2 0x3D67 JUMP JUMPDEST SWAP2 POP PUSH2 0x4A1F DUP3 PUSH2 0x49E0 JUMP JUMPDEST PUSH1 0x20 DUP3 ADD SWAP1 POP SWAP2 SWAP1 POP JUMP JUMPDEST PUSH0 PUSH1 0x20 DUP3 ADD SWAP1 POP DUP2 DUP2 SUB PUSH0 DUP4 ADD MSTORE PUSH2 0x4A41 DUP2 PUSH2 0x4A08 JUMP JUMPDEST SWAP1 POP SWAP2 SWAP1 POP JUMP JUMPDEST PUSH32 0x6E6F7420656E6F756768207061727469636970616E7473000000000000000000 PUSH0 DUP3 ADD MSTORE POP JUMP JUMPDEST PUSH0 PUSH2 0x4A7C PUSH1 0x17 DUP4 PUSH2 0x3D67 JUMP JUMPDEST SWAP2 POP PUSH2 0x4A87 DUP3 PUSH2 0x4A48 JUMP JUMPDEST PUSH1 0x20 DUP3 ADD SWAP1 POP SWAP2 SWAP1 POP JUMP JUMPDEST PUSH0 PUSH1 0x20 DUP3 ADD SWAP1 POP DUP2 DUP2 SUB PUSH0 DUP4 ADD MSTORE PUSH2 0x4AA9 DUP2 PUSH2 0x4A70 JUMP JUMPDEST SWAP1 POP SWAP2 SWAP1 POP JUMP JUMPDEST PUSH32 0x726F756E64206E6F742072656164790000000000000000000000000000000000 PUSH0 DUP3 ADD MSTORE POP JUMP JUMPDEST PUSH0 PUSH2 0x4AE4 PUSH1 0xF DUP4 PUSH2 0x3D67 JUMP JUMPDEST SWAP2 POP PUSH2 0x4AEF DUP3 PUSH2 0x4AB0 JUMP JUMPDEST PUSH1 0x20 DUP3 ADD SWAP1 POP SWAP2 SWAP1 POP JUMP JUMPDEST PUSH0 PUSH1 0x20 DUP3 ADD SWAP1 POP DUP2 DUP2 SUB PUSH0 DUP4 ADD MSTORE PUSH2 0x4B11 DUP2 PUSH2 0x4AD8 JUMP JUMPDEST SWAP1 POP SWAP2 SWAP1 POP JUMP JUMPDEST PUSH32 0x72616E646F6D6E657373206E6F742066756C66696C6C65640000000000000000 PUSH0 DUP3 ADD MSTORE POP JUMP JUMPDEST PUSH0 PUSH2 0x4B4C PUSH1 0x18 DUP4 PUSH2 0x3D67 JUMP JUMPDEST SWAP2 POP PUSH2 0x4B57 DUP3 PUSH2 0x4B18 JUMP JUMPDEST PUSH1 0x20 DUP3 ADD SWAP1 POP SWAP2 SWAP1 POP JUMP JUMPDEST PUSH0 PUSH1 0x20 DUP3 ADD SWAP1 POP DUP2 DUP2 SUB PUSH0 DUP4 ADD MSTORE PUSH2 0x4B79 DUP2 PUSH2 0x4B40 JUMP JUMPDEST SWAP1 POP SWAP2 SWAP1 POP JUMP JUMPDEST PUSH32 0x72616E646F6D6E657373206E6F74207265717565737465640000000000000000 PUSH0 DUP3 ADD MSTORE POP JUMP JUMPDEST PUSH0 PUSH2 0x4BB4 PUSH1 0x18 DUP4 PUSH2 0x3D67 JUMP JUMPDEST SWAP2 POP PUSH2 0x4BBF DUP3 PUSH2 0x4B80 JUMP JUMPDEST PUSH1 0x20 DUP3 ADD SWAP1 POP SWAP2 SWAP1 POP JUMP JUMPDEST PUSH0 PUSH1 0x20 DUP3 ADD SWAP1 POP DUP2 DUP2 SUB PUSH0 DUP4 ADD MSTORE PUSH2 0x4BE1 DUP2 PUSH2 0x4BA8 JUMP JUMPDEST SWAP1 POP SWAP2 SWAP1 POP JUMP JUMPDEST PUSH32 0x6D7573742077616974203E3120626C6F636B2061667465722072657175657374 PUSH0 DUP3 ADD MSTORE POP JUMP JUMPDEST PUSH0 PUSH2 0x4C1C PUSH1 0x20 DUP4 PUSH2 0x3D67 JUMP JUMPDEST SWAP2 POP PUSH2 0x4C27 DUP3 PUSH2 0x4BE8 JUMP JUMPDEST PUSH1 0x20 DUP3 ADD SWAP1 POP SWAP2 SWAP1 POP JUMP JUMPDEST PUSH0 PUSH1 0x20 DUP3 ADD SWAP1 POP DUP2 DUP2 SUB PUSH0 DUP4 ADD MSTORE PUSH2 0x4C49 DUP2 PUSH2 0x4C10 JUMP JUMPDEST SWAP1 POP SWAP2 SWAP1 POP JUMP JUMPDEST PUSH32 0x6B65657065722063616C6C206C696D6974207265616368656400000000000000 PUSH0 DUP3 ADD MSTORE POP JUMP JUMPDEST PUSH0 PUSH2 0x4C84 PUSH1 0x19 DUP4 PUSH2 0x3D67 JUMP JUMPDEST SWAP2 POP PUSH2 0x4C8F DUP3 PUSH2 0x4C50 JUMP JUMPDEST PUSH1 0x20 DUP3 ADD SWAP1 POP SWAP2 SWAP1 POP JUMP JUMPDEST PUSH0 PUSH1 0x20 DUP3 ADD SWAP1 POP DUP2 DUP2 SUB PUSH0 DUP4 ADD MSTORE PUSH2 0x4CB1 DUP2 PUSH2 0x4C78 JUMP JUMPDEST SWAP1 POP SWAP2 SWAP1 POP JUMP JUMPDEST PUSH0 PUSH2 0x4CC2 DUP3 PUSH2 0x3DDF JUMP JUMPDEST SWAP2 POP PUSH32 0xFFFFFFFFFFFFFFFFFFFFFFFFFFFFFFFFFFFFFFFFFFFFFFFFFFFFFFFFFFFFFFFF DUP3 SUB PUSH2 0x4CF4 JUMPI PUSH2 0x4CF3 PUSH2 0x3DE8 JUMP JUMPDEST JUMPDEST PUSH1 0x1 DUP3 ADD SWAP1 POP SWAP2 SWAP1 POP JUMP JUMPDEST PUSH0 PUSH1 0x60 DUP3 ADD SWAP1 POP PUSH2 0x4D12 PUSH0 DUP4 ADD DUP7 PUSH2 0x3E48 JUMP JUMPDEST PUSH2 0x4D1F PUSH1 0x20 DUP4 ADD DUP6 PUSH2 0x3E48 JUMP JUMPDEST PUSH2 0x4D2C PUSH1 0x40 DUP4 ADD DUP5 PUSH2 0x3E48 JUMP JUMPDEST SWAP5 SWAP4 POP POP POP POP JUMP JUMPDEST PUSH32 0x4E487B7100000000000000000000000000000000000000000000000000000000 PUSH0 MSTORE PUSH1 0x12 PUSH1 0x4 MSTORE PUSH1 0x24 PUSH0 REVERT JUMPDEST PUSH0 PUSH2 0x4D6B DUP3 PUSH2 0x3DDF JUMP JUMPDEST SWAP2 POP PUSH2 0x4D76 DUP4 PUSH2 0x3DDF JUMP JUMPDEST SWAP3 POP DUP3 PUSH2 0x4D86 JUMPI PUSH2 0x4D85 PUSH2 0x4D34 JUMP JUMPDEST JUMPDEST DUP3 DUP3 MOD SWAP1 POP SWAP3 SWAP2 POP POP JUMP JUMPDEST PUSH32 0x4E487B7100000000000000000000000000000000000000000000000000000000 PUSH0 MSTORE PUSH1 0x32 PUSH1 0x4 MSTORE PUSH1 0x24 PUSH0 REVERT JUMPDEST PUSH0 PUSH2 0x4DC8 DUP3 PUSH2 0x3DDF JUMP JUMPDEST SWAP2 POP PUSH2 0x4DD3 DUP4 PUSH2 0x3DDF JUMP JUMPDEST SWAP3 POP DUP3 PUSH2 0x4DE3 JUMPI PUSH2 0x4DE2 PUSH2 0x4D34 JUMP JUMPDEST JUMPDEST DUP3 DUP3 DIV SWAP1 POP SWAP3 SWAP2 POP POP JUMP JUMPDEST PUSH0 PUSH2 0x4DF8 DUP3 PUSH2 0x3DDF JUMP JUMPDEST SWAP2 POP PUSH2 0x4E03 DUP4 PUSH2 0x3DDF JUMP JUMPDEST SWAP3 POP DUP3 DUP3 MUL PUSH2 0x4E11 DUP2 PUSH2 0x3DDF JUMP JUMPDEST SWAP2 POP DUP3 DUP3 DIV DUP5 EQ DUP4 ISZERO OR PUSH2 0x4E28 JUMPI PUSH2 0x4E27 PUSH2 0x3DE8 JUMP JUMPDEST JUMPDEST POP SWAP3 SWAP2 POP POP JUMP JUMPDEST PUSH32 0x62617463682073697A6520312D35303000000000000000000000000000000000 PUSH0 DUP3 ADD MSTORE POP JUMP JUMPDEST PUSH0 PUSH2 0x4E63 PUSH1 0x10 DUP4 PUSH2 0x3D67 JUMP JUMPDEST SWAP2 POP PUSH2 0x4E6E DUP3 PUSH2 0x4E2F JUMP JUMPDEST PUSH1 0x20 DUP3 ADD SWAP1 POP SWAP2 SWAP1 POP JUMP JUMPDEST PUSH0 PUSH1 0x20 DUP3 ADD SWAP1 POP DUP2 DUP2 SUB PUSH0 DUP4 ADD MSTORE PUSH2 0x4E90 DUP2 PUSH2 0x4E57 JUMP JUMPDEST SWAP1 POP SWAP2 SWAP1 POP JUMP JUMPDEST PUSH32 0x6D7573742073756D203130300000000000000000000000000000000000000000 PUSH0 DUP3 ADD MSTORE POP JUMP JUMPDEST PUSH0 PUSH2 0x4ECB PUSH1 0xC DUP4 PUSH2 0x3D67 JUMP JUMPDEST SWAP2 POP PUSH2 0x4ED6 DUP3 PUSH2 0x4E97 JUMP JUMPDEST PUSH1 0x20 DUP3 ADD SWAP1 POP SWAP2 SWAP1 POP JUMP JUMPDEST PUSH0 PUSH1 0x20 DUP3 ADD SWAP1 POP DUP2 DUP2 SUB PUSH0 DUP4 ADD MSTORE PUSH2 0x4EF8 DUP2 PUSH2 0x4EBF JUMP JUMPDEST SWAP1 POP SWAP2 SWAP1 POP JUMP JUMPDEST PUSH32 0x7072697A652070657263656E7420746F6F206C6F770000000000000000000000 PUSH0 DUP3 ADD MSTORE POP JUMP JUMPDEST PUSH0 PUSH2 0x4F33 PUSH1 0x15 DUP4 PUSH2 0x3D67 JUMP JUMPDEST SWAP2 POP PUSH2 0x4F3E DUP3 PUSH2 0x4EFF JUMP JUMPDEST PUSH1 0x20 DUP3 ADD SWAP1 POP SWAP2 SWAP1 POP JUMP JUMPDEST PUSH0 PUSH1 0x20 DUP3 ADD SWAP1 POP DUP2 DUP2 SUB PUSH0 DUP4 ADD MSTORE PUSH2 0x4F60 DUP2 PUSH2 0x4F27 JUMP JUMPDEST SWAP1 POP SWAP2 SWAP1 POP JUMP JUMPDEST PUSH0 PUSH1 0xA0 DUP3 ADD SWAP1 POP PUSH2 0x4F7A PUSH0 DUP4 ADD DUP9 PUSH2 0x3E48 JUMP JUMPDEST PUSH2 0x4F87 PUSH1 0x20 DUP4 ADD DUP8 PUSH2 0x3E48 JUMP JUMPDEST PUSH2 0x4F94 PUSH1 0x40 DUP4 ADD DUP7 PUSH2 0x3E48 JUMP JUMPDEST PUSH2 0x4FA1 PUSH1 0x60 DUP4 ADD DUP6 PUSH2 0x3E48 JUMP JUMPDEST PUSH2 0x4FAE PUSH1 0x80 DUP4 ADD DUP5 PUSH2 0x3E48 JUMP JUMPDEST SWAP7 SWAP6 POP POP POP POP POP POP JUMP JUMPDEST PUSH32 0x616C726561647920616374697665000000000000000000000000000000000000 PUSH0 DUP3 ADD MSTORE POP JUMP JUMPDEST PUSH0 PUSH2 0x4FEC PUSH1 0xE DUP4 PUSH2 0x3D67 JUMP JUMPDEST SWAP2 POP PUSH2 0x4FF7 DUP3 PUSH2 0x4FB8 JUMP JUMPDEST PUSH1 0x20 DUP3 ADD SWAP1 POP SWAP2 SWAP1 POP JUMP JUMPDEST PUSH0 PUSH1 0x20 DUP3 ADD SWAP1 POP DUP2 DUP2 SUB PUSH0 DUP4 ADD MSTORE PUSH2 0x5019 DUP2 PUSH2 0x4FE0 JUMP JUMPDEST SWAP1 POP SWAP2 SWAP1 POP JUMP JUMPDEST PUSH32 0x7374616B696E67206E6F74206163746976650000000000000000000000000000 PUSH0 DUP3 ADD MSTORE POP JUMP JUMPDEST PUSH0 PUSH2 0x5054 PUSH1 0x12 DUP4 PUSH2 0x3D67 JUMP JUMPDEST SWAP2 POP PUSH2 0x505F DUP3 PUSH2 0x5020 JUMP JUMPDEST PUSH1 0x20 DUP3 ADD SWAP1 POP SWAP2 SWAP1 POP JUMP JUMPDEST PUSH0 PUSH1 0x20 DUP3 ADD SWAP1 POP DUP2 DUP2 SUB PUSH0 DUP4 ADD MSTORE PUSH2 0x5081 DUP2 PUSH2 0x5048 JUMP JUMPDEST SWAP1 POP SWAP2 SWAP1 POP JUMP JUMPDEST PUSH32 0x6E656564203E31207061727469636970616E7473000000000000000000000000 PUSH0 DUP3 ADD MSTORE POP JUMP JUMPDEST PUSH0 PUSH2 0x50BC PUSH1 0x14 DUP4 PUSH2 0x3D67 JUMP JUMPDEST SWAP2 POP PUSH2 0x50C7 DUP3 PUSH2 0x5088 JUMP JUMPDEST PUSH1 0x20 DUP3 ADD SWAP1 POP SWAP2 SWAP1 POP JUMP JUMPDEST PUSH0 PUSH1 0x20 DUP3 ADD SWAP1 POP DUP2 DUP2 SUB PUSH0 DUP4 ADD MSTORE PUSH2 0x50E9 DUP2 PUSH2 0x50B0 JUMP JUMPDEST SWAP1 POP SWAP2 SWAP1 POP JUMP JUMPDEST PUSH32 0x7A65726F20616464726573730000000000000000000000000000000000000000 PUSH0 DUP3 ADD MSTORE POP JUMP JUMPDEST PUSH0 PUSH2 0x5124 PUSH1 0xC DUP4 PUSH2 0x3D67 JUMP JUMPDEST SWAP2 POP PUSH2 0x512F DUP3 PUSH2 0x50F0 JUMP JUMPDEST PUSH1 0x20 DUP3 ADD SWAP1 POP SWAP2 SWAP1 POP JUMP JUMPDEST PUSH0 PUSH1 0x20 DUP3 ADD SWAP1 POP DUP2 DUP2 SUB PUSH0 DUP4 ADD MSTORE PUSH2 0x5151 DUP2 PUSH2 0x5118 JUMP JUMPDEST SWAP1 POP SWAP2 SWAP1 POP JUMP JUMPDEST PUSH32 0x7A65726F20616464726573736573000000000000000000000000000000000000 PUSH0 DUP3 ADD MSTORE POP JUMP JUMPDEST PUSH0 PUSH2 0x518C PUSH1 0xE DUP4 PUSH2 0x3D67 JUMP JUMPDEST SWAP2 POP PUSH2 0x5197 DUP3 PUSH2 0x5158 JUMP JUMPDEST PUSH1 0x20 DUP3 ADD SWAP1 POP SWAP2 SWAP1 POP JUMP JUMPDEST PUSH0 PUSH1 0x20 DUP3 ADD SWAP1 POP DUP2 DUP2 SUB PUSH0 DUP4 ADD MSTORE PUSH2 0x51B9 DUP2 PUSH2 0x5180 JUMP JUMPDEST SWAP1 POP SWAP2 SWAP1 POP JUMP JUMPDEST PUSH0 PUSH1 0x60 DUP3 ADD SWAP1 POP PUSH2 0x51D3 PUSH0 DUP4 ADD DUP7 PUSH2 0x3F4A JUMP JUMPDEST PUSH2 0x51E0 PUSH1 0x20 DUP4 ADD DUP6 PUSH2 0x3F4A JUMP JUMPDEST PUSH2 0x51ED PUSH1 0x40 DUP4 ADD DUP5 PUSH2 0x3F4A JUMP JUMPDEST SWAP5 SWAP4 POP POP POP POP JUMP JUMPDEST PUSH32 0x7A65726F20616D6F756E74000000000000000000000000000000000000000000 PUSH0 DUP3 ADD MSTORE POP JUMP JUMPDEST PUSH0 PUSH2 0x5229 PUSH1 0xB DUP4 PUSH2 0x3D67 JUMP JUMPDEST SWAP2 POP PUSH2 0x5234 DUP3 PUSH2 0x51F5 JUMP JUMPDEST PUSH1 0x20 DUP3 ADD SWAP1 POP SWAP2 SWAP1 POP JUMP JUMPDEST PUSH0 PUSH1 0x20 DUP3 ADD SWAP1 POP DUP2 DUP2 SUB PUSH0 DUP4 ADD MSTORE PUSH2 0x5256 DUP2 PUSH2 0x521D JUMP JUMPDEST SWAP1 POP SWAP2 SWAP1 POP JUMP JUMPDEST PUSH0 DUP2 MLOAD SWAP1 POP PUSH2 0x526B DUP2 PUSH2 0x3EB2 JUMP JUMPDEST SWAP3 SWAP2 POP POP JUMP JUMPDEST PUSH0 PUSH1 0x20 DUP3 DUP5 SUB SLT ISZERO PUSH2 0x5286 JUMPI PUSH2 0x5285 PUSH2 0x3EAA JUMP JUMPDEST JUMPDEST PUSH0 PUSH2 0x5293 DUP5 DUP3 DUP6 ADD PUSH2 0x525D JUMP JUMPDEST SWAP2 POP POP SWAP3 SWAP2 POP POP JUMP JUMPDEST PUSH32 0x696E73756666696369656E742072656365697665640000000000000000000000 PUSH0 DUP3 ADD MSTORE POP JUMP JUMPDEST PUSH0 PUSH2 0x52D0 PUSH1 0x15 DUP4 PUSH2 0x3D67 JUMP JUMPDEST SWAP2 POP PUSH2 0x52DB DUP3 PUSH2 0x529C JUMP JUMPDEST PUSH1 0x20 DUP3 ADD SWAP1 POP SWAP2 SWAP1 POP JUMP JUMPDEST PUSH0 PUSH1 0x20 DUP3 ADD SWAP1 POP DUP2 DUP2 SUB PUSH0 DUP4 ADD MSTORE PUSH2 0x52FD DUP2 PUSH2 0x52C4 JUMP JUMPDEST SWAP1 POP SWAP2 SWAP1 POP JUMP JUMPDEST PUSH32 0x616C726561647920726571756573746564000000000000000000000000000000 PUSH0 DUP3 ADD MSTORE POP JUMP JUMPDEST PUSH0 PUSH2 0x5338 PUSH1 0x11 DUP4 PUSH2 0x3D67 JUMP JUMPDEST SWAP2 POP PUSH2 0x5343 DUP3 PUSH2 0x5304 JUMP JUMPDEST PUSH1 0x20 DUP3 ADD SWAP1 POP SWAP2 SWAP1 POP JUMP JUMPDEST PUSH0 PUSH1 0x20 DUP3 ADD SWAP1 POP DUP2 DUP2 SUB PUSH0 DUP4 ADD MSTORE PUSH2 0x5365 DUP2 PUSH2 0x532C JUMP JUMPDEST SWAP1 POP SWAP2 SWAP1 POP JUMP JUMPDEST PUSH0 DUP2 SWAP1 POP SWAP2 SWAP1 POP JUMP JUMPDEST PUSH0 PUSH2 0x538F PUSH2 0x538A PUSH2 0x5385 DUP5 PUSH2 0x536C JUMP JUMPDEST PUSH2 0x43B0 JUMP JUMPDEST PUSH2 0x41C3 JUMP JUMPDEST SWAP1 POP SWAP2 SWAP1 POP JUMP JUMPDEST PUSH2 0x539F DUP2 PUSH2 0x5375 JUMP JUMPDEST DUP3 MSTORE POP POP JUMP JUMPDEST PUSH0 PUSH1 0xA0 DUP3 ADD SWAP1 POP PUSH2 0x53B8 PUSH0 DUP4 ADD DUP9 PUSH2 0x3E79 JUMP JUMPDEST PUSH2 0x53C5 PUSH1 0x20 DUP4 ADD DUP8 PUSH2 0x44E6 JUMP JUMPDEST PUSH2 0x53D2 PUSH1 0x40 DUP4 ADD DUP7 PUSH2 0x423A JUMP JUMPDEST PUSH2 0x53DF PUSH1 0x60 DUP4 ADD DUP6 PUSH2 0x41D2 JUMP JUMPDEST PUSH2 0x53EC PUSH1 0x80 DUP4 ADD DUP5 PUSH2 0x5396 JUMP JUMPDEST SWAP7 SWAP6 POP POP POP POP POP POP JUMP JUMPDEST PUSH32 0x6578636565647320726573657276650000000000000000000000000000000000 PUSH0 DUP3 ADD MSTORE POP JUMP JUMPDEST PUSH0 PUSH2 0x542A PUSH1 0xF DUP4 PUSH2 0x3D67 JUMP JUMPDEST SWAP2 POP PUSH2 0x5435 DUP3 PUSH2 0x53F6 JUMP JUMPDEST PUSH1 0x20 DUP3 ADD SWAP1 POP SWAP2 SWAP1 POP JUMP JUMPDEST PUSH0 PUSH1 0x20 DUP3 ADD SWAP1 POP DUP2 DUP2 SUB PUSH0 DUP4 ADD MSTORE PUSH2 0x5457 DUP2 PUSH2 0x541E JUMP JUMPDEST SWAP1 POP SWAP2 SWAP1 POP JUMP JUMPDEST PUSH32 0x6D61783E30000000000000000000000000000000000000000000000000000000 PUSH0 DUP3 ADD MSTORE POP JUMP JUMPDEST PUSH0 PUSH2 0x5492 PUSH1 0x5 DUP4 PUSH2 0x3D67 JUMP JUMPDEST SWAP2 POP PUSH2 0x549D DUP3 PUSH2 0x545E JUMP JUMPDEST PUSH1 0x20 DUP3 ADD SWAP1 POP SWAP2 SWAP1 POP JUMP JUMPDEST PUSH0 PUSH1 0x20 DUP3 ADD SWAP1 POP DUP2 DUP2 SUB PUSH0 DUP4 ADD MSTORE PUSH2 0x54BF DUP2 PUSH2 0x5486 JUMP JUMPDEST SWAP1 POP SWAP2 SWAP1 POP JUMP JUMPDEST PUSH32 0x5265656E7472616E637947756172643A207265656E7472616E742063616C6C00 PUSH0 DUP3 ADD MSTORE POP JUMP JUMPDEST PUSH0 PUSH2 0x54FA PUSH1 0x1F DUP4 PUSH2 0x3D67 JUMP JUMPDEST SWAP2 POP PUSH2 0x5505 DUP3 PUSH2 0x54C6 JUMP JUMPDEST PUSH1 0x20 DUP3 ADD SWAP1 POP SWAP2 SWAP1 POP JUMP JUMPDEST PUSH0 PUSH1 0x20 DUP3 ADD SWAP1 POP DUP2 DUP2 SUB PUSH0 DUP4 ADD MSTORE PUSH2 0x5527 DUP2 PUSH2 0x54EE JUMP JUMPDEST SWAP1 POP SWAP2 SWAP1 POP JUMP JUMPDEST PUSH0 PUSH1 0x40 DUP3 ADD SWAP1 POP PUSH2 0x5541 PUSH0 DUP4 ADD DUP6 PUSH2 0x3F4A JUMP JUMPDEST PUSH2 0x554E PUSH1 0x20 DUP4 ADD DUP5 PUSH2 0x3E48 JUMP JUMPDEST SWAP4 SWAP3 POP POP POP JUMP JUMPDEST PUSH32 0x756E6B6E6F776E20726571756573740000000000000000000000000000000000 PUSH0 DUP3 ADD MSTORE POP JUMP JUMPDEST PUSH0 PUSH2 0x5589 PUSH1 0xF DUP4 PUSH2 0x3D67 JUMP JUMPDEST SWAP2 POP PUSH2 0x5594 DUP3 PUSH2 0x5555 JUMP JUMPDEST PUSH1 0x20 DUP3 ADD SWAP1 POP SWAP2 SWAP1 POP JUMP JUMPDEST PUSH0 PUSH1 0x20 DUP3 ADD SWAP1 POP DUP2 DUP2 SUB PUSH0 DUP4 ADD MSTORE PUSH2 0x55B6 DUP2 PUSH2 0x557D JUMP JUMPDEST SWAP1 POP SWAP2 SWAP1 POP JUMP JUMPDEST PUSH32 0x4E487B7100000000000000000000000000000000000000000000000000000000 PUSH0 MSTORE PUSH1 0x31 PUSH1 0x4 MSTORE PUSH1 0x24 PUSH0 REVERT JUMPDEST PUSH0 PUSH1 0x60 DUP3 ADD SWAP1 POP PUSH2 0x55FD PUSH0 DUP4 ADD DUP7 PUSH2 0x3F4A JUMP JUMPDEST PUSH2 0x560A PUSH1 0x20 DUP4 ADD DUP6 PUSH2 0x3F4A JUMP JUMPDEST PUSH2 0x5617 PUSH1 0x40 DUP4 ADD DUP5 PUSH2 0x3E48 JUMP JUMPDEST SWAP5 SWAP4 POP POP POP POP JUMP INVALID LOG2 PUSH5 0x6970667358 0x22 SLT KECCAK256 BASEFEE DUP4 RJUMP 0x66DF 0xD3 PUSH32 0x1026976592FE44E02A13C89FE6FC3FDA740B2B135F0CC3E13464736F6C634300 ADDMOD 0x1E STOP CALLER "
		},
		"gasEstimates": {
			"creation": {
				"codeDepositCost": "4420200",
				"executionCost": "infinite",
				"totalCost": "infinite"
			},
			"external": {
				"batchSize()": "2513",
				"burnPercent()": "2495",
				"burnWallet()": "2577",
				"claimSurvivorRewards()": "infinite",
				"closeStakingAndStartGauntlet()": "infinite",
				"cumulativeSurvivorPerPlayer(uint256)": "infinite",
				"currentRound()": "2515",
				"depositKeeperFunds()": "infinite",
				"devPercent()": "2557",
				"devWallet()": "2597",
				"emergencyUseFallbackRandom(uint256,uint256)": "infinite",
				"gauntletActive()": "2630",
				"getCumulativeUpTo(uint256)": "infinite",
				"getParticipants()": "infinite",
				"keeper()": "2598",
				"keeperCallsInRound(uint256)": "infinite",
				"keeperPayPerCall()": "2536",
				"keeperReserve()": "2515",
				"lpPercent()": "2514",
				"lpWallet()": "2620",
				"maxKeeperCallsPerRound()": "2514",
				"nextEliminationIndex()": "2493",
				"openStaking()": "infinite",
				"owner()": "2581",
				"participantIndex(address)": "2893",
				"participantInfo(address)": "infinite",
				"participantsCount()": "2573",
				"pause()": "infinite",
				"paused()": "2648",
				"pendingSurvivorPool()": "2537",
				"prizePool()": "2536",
				"prizePoolPercent()": "2492",
				"rawFulfillRandomWords(uint256,uint256[])": "infinite",
				"renounceOwnership()": "infinite",
				"requestRandomForRound()": "infinite",
				"roundDuration()": "2535",
				"roundStartTime()": "2536",
				"rounds(uint256)": "infinite",
				"runEliminationBatch()": "infinite",
				"setBatchSize(uint256)": "infinite",
				"setKeeper(address)": "infinite",
				"setKeeperPay(uint256)": "infinite",
				"setMaxKeeperCallsPerRound(uint256)": "infinite",
				"setRoundDuration(uint256)": "infinite",
				"setTokenomicsPercents(uint256,uint256,uint256,uint256,uint256)": "infinite",
				"setWallets(address,address,address)": "infinite",
				"stake(uint256,uint256)": "infinite",
				"stakingActive()": "2599",
				"stakingToken()": "infinite",
				"survivorPercent()": "2516",
				"transferOwnership(address)": "infinite",
				"unpause()": "infinite",
				"unstake()": "infinite",
				"vrfCallbackGasLimit()": "2535",
				"vrfKeyHash()": "2517",
				"vrfRequestConfirmations()": "2607",
				"vrfRequestToRound(uint256)": "infinite",
				"vrfSubscriptionId()": "2650",
				"withdrawKeeperFunds(uint256)": "infinite"
			},
			"internal": {
				"_distributeEliminatedStake(address,uint256)": "infinite",
				"_removeParticipantByIndex(uint256)": "infinite",
				"fulfillRandomWords(uint256,uint256[] memory)": "infinite"
			}
		},
		"methodIdentifiers": {
			"batchSize()": "f4daaba1",
			"burnPercent()": "03807ee5",
			"burnWallet()": "06228749",
			"claimSurvivorRewards()": "0f4863f7",
			"closeStakingAndStartGauntlet()": "656fe8ef",
			"cumulativeSurvivorPerPlayer(uint256)": "87b18a52",
			"currentRound()": "8a19c8bc",
			"depositKeeperFunds()": "82ddbb30",
			"devPercent()": "fc3c28af",
			"devWallet()": "8ea5220f",
			"emergencyUseFallbackRandom(uint256,uint256)": "04ab9f03",
			"gauntletActive()": "461dbda0",
			"getCumulativeUpTo(uint256)": "3243fb89",
			"getParticipants()": "5aa68ac0",
			"keeper()": "aced1661",
			"keeperCallsInRound(uint256)": "df242d7d",
			"keeperPayPerCall()": "e712c298",
			"keeperReserve()": "32d368ce",
			"lpPercent()": "e091a297",
			"lpWallet()": "6303516c",
			"maxKeeperCallsPerRound()": "719a59d8",
			"nextEliminationIndex()": "ab0fc1a2",
			"openStaking()": "62581733",
			"owner()": "8da5cb5b",
			"participantIndex(address)": "083b9137",
			"participantInfo(address)": "0e135aa1",
			"participantsCount()": "dd60c898",
			"pause()": "8456cb59",
			"paused()": "5c975abb",
			"pendingSurvivorPool()": "bf380631",
			"prizePool()": "719ce73e",
			"prizePoolPercent()": "cf00d4b9",
			"rawFulfillRandomWords(uint256,uint256[])": "1fe543e3",
			"renounceOwnership()": "715018a6",
			"requestRandomForRound()": "7fd7f412",
			"roundDuration()": "f7cb789a",
			"roundStartTime()": "dd4f8f74",
			"rounds(uint256)": "8c65c81f",
			"runEliminationBatch()": "39d98723",
			"setBatchSize(uint256)": "576f35e3",
			"setKeeper(address)": "748747e6",
			"setKeeperPay(uint256)": "8c178e42",
			"setMaxKeeperCallsPerRound(uint256)": "9e1ada04",
			"setRoundDuration(uint256)": "36c92c3f",
			"setTokenomicsPercents(uint256,uint256,uint256,uint256,uint256)": "5e38ca70",
			"setWallets(address,address,address)": "75cb1bd1",
			"stake(uint256,uint256)": "7b0472f0",
			"stakingActive()": "a6ac4b35",
			"stakingToken()": "72f702f3",
			"survivorPercent()": "259b8af7",
			"transferOwnership(address)": "f2fde38b",
			"unpause()": "3f4ba83a",
			"unstake()": "2def6620",
			"vrfCallbackGasLimit()": "3b7ed734",
			"vrfKeyHash()": "041d443e",
			"vrfRequestConfirmations()": "598bc486",
			"vrfRequestToRound(uint256)": "d5aa06fa",
			"vrfSubscriptionId()": "ed647d21",
			"withdrawKeeperFunds(uint256)": "89294346"
		}
	},
	"abi": [
		{
			"inputs": [
				{
					"internalType": "contract IERC20",
					"name": "_stakingToken",
					"type": "address"
				},
				{
					"internalType": "address",
					"name": "_devWallet",
					"type": "address"
				},
				{
					"internalType": "address",
					"name": "_lpWallet",
					"type": "address"
				},
				{
					"internalType": "address",
					"name": "_burnWallet",
					"type": "address"
				},
				{
					"internalType": "address",
					"name": "_vrfCoordinator",
					"type": "address"
				},
				{
					"internalType": "uint64",
					"name": "_vrfSubscriptionId",
					"type": "uint64"
				},
				{
					"internalType": "bytes32",
					"name": "_vrfKeyHash",
					"type": "bytes32"
				},
				{
					"internalType": "address",
					"name": "_initialKeeper",
					"type": "address"
				},
				{
					"internalType": "uint256",
					"name": "_roundDurationSeconds",
					"type": "uint256"
				}
			],
			"stateMutability": "nonpayable",
			"type": "constructor"
		},
		{
			"inputs": [
				{
					"internalType": "address",
					"name": "have",
					"type": "address"
				},
				{
					"internalType": "address",
					"name": "want",
					"type": "address"
				}
			],
			"name": "OnlyCoordinatorCanFulfill",
			"type": "error"
		},
		{
			"inputs": [
				{
					"internalType": "address",
					"name": "owner",
					"type": "address"
				}
			],
			"name": "OwnableInvalidOwner",
			"type": "error"
		},
		{
			"inputs": [
				{
					"internalType": "address",
					"name": "account",
					"type": "address"
				}
			],
			"name": "OwnableUnauthorizedAccount",
			"type": "error"
		},
		{
			"inputs": [
				{
					"internalType": "address",
					"name": "token",
					"type": "address"
				}
			],
			"name": "SafeERC20FailedOperation",
			"type": "error"
		},
		{
			"anonymous": false,
			"inputs": [
				{
					"indexed": true,
					"internalType": "uint256",
					"name": "round",
					"type": "uint256"
				},
				{
					"indexed": false,
					"internalType": "uint256",
					"name": "eliminationsThisBatch",
					"type": "uint256"
				}
			],
			"name": "BatchProcessed",
			"type": "event"
		},
		{
			"anonymous": false,
			"inputs": [
				{
					"indexed": true,
					"internalType": "uint256",
					"name": "round",
					"type": "uint256"
				},
				{
					"indexed": false,
					"internalType": "uint256",
					"name": "fallbackSeed",
					"type": "uint256"
				}
			],
			"name": "EmergencyFallbackUsed",
			"type": "event"
		},
		{
			"anonymous": false,
			"inputs": [
				{
					"indexed": true,
					"internalType": "address",
					"name": "keeper",
					"type": "address"
				},
				{
					"indexed": false,
					"internalType": "uint256",
					"name": "amount",
					"type": "uint256"
				}
			],
			"name": "KeeperPaid",
			"type": "event"
		},
		{
			"anonymous": false,
			"inputs": [
				{
					"indexed": true,
					"internalType": "address",
					"name": "sender",
					"type": "address"
				},
				{
					"indexed": false,
					"internalType": "uint256",
					"name": "amount",
					"type": "uint256"
				}
			],
			"name": "KeeperReserveDeposited",
			"type": "event"
		},
		{
			"anonymous": false,
			"inputs": [
				{
					"indexed": true,
					"internalType": "address",
					"name": "owner",
					"type": "address"
				},
				{
					"indexed": false,
					"internalType": "uint256",
					"name": "amount",
					"type": "uint256"
				}
			],
			"name": "KeeperReserveWithdrawn",
			"type": "event"
		},
		{
			"anonymous": false,
			"inputs": [
				{
					"indexed": true,
					"internalType": "address",
					"name": "keeper",
					"type": "address"
				}
			],
			"name": "KeeperSet",
			"type": "event"
		},
		{
			"anonymous": false,
			"inputs": [
				{
					"indexed": true,
					"internalType": "address",
					"name": "previousOwner",
					"type": "address"
				},
				{
					"indexed": true,
					"internalType": "address",
					"name": "newOwner",
					"type": "address"
				}
			],
			"name": "OwnershipTransferred",
			"type": "event"
		},
		{
			"anonymous": false,
			"inputs": [
				{
					"indexed": true,
					"internalType": "address",
					"name": "account",
					"type": "address"
				}
			],
			"name": "Paused",
			"type": "event"
		},
		{
			"anonymous": false,
			"inputs": [
				{
					"indexed": true,
					"internalType": "uint256",
					"name": "round",
					"type": "uint256"
				},
				{
					"indexed": true,
					"internalType": "address",
					"name": "player",
					"type": "address"
				},
				{
					"indexed": false,
					"internalType": "uint256",
					"name": "stake",
					"type": "uint256"
				}
			],
			"name": "PlayerEliminated",
			"type": "event"
		},
		{
			"anonymous": false,
			"inputs": [
				{
					"indexed": true,
					"internalType": "address",
					"name": "player",
					"type": "address"
				},
				{
					"indexed": false,
					"internalType": "uint256",
					"name": "amount",
					"type": "uint256"
				}
			],
			"name": "RewardsClaimed",
			"type": "event"
		},
		{
			"anonymous": false,
			"inputs": [
				{
					"indexed": true,
					"internalType": "uint256",
					"name": "round",
					"type": "uint256"
				},
				{
					"indexed": false,
					"internalType": "uint256",
					"name": "survivors",
					"type": "uint256"
				}
			],
			"name": "RoundFinalized",
			"type": "event"
		},
		{
			"anonymous": false,
			"inputs": [
				{
					"indexed": true,
					"internalType": "uint256",
					"name": "round",
					"type": "uint256"
				},
				{
					"indexed": false,
					"internalType": "uint256",
					"name": "randomness",
					"type": "uint256"
				}
			],
			"name": "RoundRandomFulfilled",
			"type": "event"
		},
		{
			"anonymous": false,
			"inputs": [
				{
					"indexed": true,
					"internalType": "uint256",
					"name": "round",
					"type": "uint256"
				},
				{
					"indexed": false,
					"internalType": "uint256",
					"name": "requestId",
					"type": "uint256"
				},
				{
					"indexed": false,
					"internalType": "uint256",
					"name": "requestBlock",
					"type": "uint256"
				}
			],
			"name": "RoundRequested",
			"type": "event"
		},
		{
			"anonymous": false,
			"inputs": [
				{
					"indexed": true,
					"internalType": "uint256",
					"name": "round",
					"type": "uint256"
				},
				{
					"indexed": false,
					"internalType": "uint256",
					"name": "startTime",
					"type": "uint256"
				}
			],
			"name": "RoundStarted",
			"type": "event"
		},
		{
			"anonymous": false,
			"inputs": [
				{
					"indexed": false,
					"internalType": "uint256",
					"name": "timestamp",
					"type": "uint256"
				}
			],
			"name": "StakeOpened",
			"type": "event"
		},
		{
			"anonymous": false,
			"inputs": [
				{
					"indexed": true,
					"internalType": "address",
					"name": "player",
					"type": "address"
				},
				{
					"indexed": false,
					"internalType": "uint256",
					"name": "amount",
					"type": "uint256"
				}
			],
			"name": "Staked",
			"type": "event"
		},
		{
			"anonymous": false,
			"inputs": [
				{
					"indexed": false,
					"internalType": "uint256",
					"name": "timestamp",
					"type": "uint256"
				},
				{
					"indexed": false,
					"internalType": "uint256",
					"name": "roundStarted",
					"type": "uint256"
				}
			],
			"name": "StakingClosed",
			"type": "event"
		},
		{
			"anonymous": false,
			"inputs": [
				{
					"indexed": false,
					"internalType": "uint256",
					"name": "dev",
					"type": "uint256"
				},
				{
					"indexed": false,
					"internalType": "uint256",
					"name": "lp",
					"type": "uint256"
				},
				{
					"indexed": false,
					"internalType": "uint256",
					"name": "burn",
					"type": "uint256"
				},
				{
					"indexed": false,
					"internalType": "uint256",
					"name": "survivor",
					"type": "uint256"
				},
				{
					"indexed": false,
					"internalType": "uint256",
					"name": "prize",
					"type": "uint256"
				}
			],
			"name": "TokenomicsUpdated",
			"type": "event"
		},
		{
			"anonymous": false,
			"inputs": [
				{
					"indexed": true,
					"internalType": "address",
					"name": "account",
					"type": "address"
				}
			],
			"name": "Unpaused",
			"type": "event"
		},
		{
			"anonymous": false,
			"inputs": [
				{
					"indexed": true,
					"internalType": "address",
					"name": "player",
					"type": "address"
				},
				{
					"indexed": false,
					"internalType": "uint256",
					"name": "amount",
					"type": "uint256"
				}
			],
			"name": "Unstaked",
			"type": "event"
		},
		{
			"anonymous": false,
			"inputs": [
				{
					"indexed": false,
					"internalType": "address",
					"name": "dev",
					"type": "address"
				},
				{
					"indexed": false,
					"internalType": "address",
					"name": "lp",
					"type": "address"
				},
				{
					"indexed": false,
					"internalType": "address",
					"name": "burn",
					"type": "address"
				}
			],
			"name": "WalletsUpdated",
			"type": "event"
		},
		{
			"anonymous": false,
			"inputs": [
				{
					"indexed": true,
					"internalType": "address",
					"name": "player",
					"type": "address"
				},
				{
					"indexed": false,
					"internalType": "uint256",
					"name": "prizeAmount",
					"type": "uint256"
				}
			],
			"name": "Winner",
			"type": "event"
		},
		{
			"inputs": [],
			"name": "batchSize",
			"outputs": [
				{
					"internalType": "uint256",
					"name": "",
					"type": "uint256"
				}
			],
			"stateMutability": "view",
			"type": "function"
		},
		{
			"inputs": [],
			"name": "burnPercent",
			"outputs": [
				{
					"internalType": "uint256",
					"name": "",
					"type": "uint256"
				}
			],
			"stateMutability": "view",
			"type": "function"
		},
		{
			"inputs": [],
			"name": "burnWallet",
			"outputs": [
				{
					"internalType": "address",
					"name": "",
					"type": "address"
				}
			],
			"stateMutability": "view",
			"type": "function"
		},
		{
			"inputs": [],
			"name": "claimSurvivorRewards",
			"outputs": [],
			"stateMutability": "nonpayable",
			"type": "function"
		},
		{
			"inputs": [],
			"name": "closeStakingAndStartGauntlet",
			"outputs": [],
			"stateMutability": "nonpayable",
			"type": "function"
		},
		{
			"inputs": [
				{
					"internalType": "uint256",
					"name": "",
					"type": "uint256"
				}
			],
			"name": "cumulativeSurvivorPerPlayer",
			"outputs": [
				{
					"internalType": "uint256",
					"name": "",
					"type": "uint256"
				}
			],
			"stateMutability": "view",
			"type": "function"
		},
		{
			"inputs": [],
			"name": "currentRound",
			"outputs": [
				{
					"internalType": "uint256",
					"name": "",
					"type": "uint256"
				}
			],
			"stateMutability": "view",
			"type": "function"
		},
		{
			"inputs": [],
			"name": "depositKeeperFunds",
			"outputs": [],
			"stateMutability": "payable",
			"type": "function"
		},
		{
			"inputs": [],
			"name": "devPercent",
			"outputs": [
				{
					"internalType": "uint256",
					"name": "",
					"type": "uint256"
				}
			],
			"stateMutability": "view",
			"type": "function"
		},
		{
			"inputs": [],
			"name": "devWallet",
			"outputs": [
				{
					"internalType": "address",
					"name": "",
					"type": "address"
				}
			],
			"stateMutability": "view",
			"type": "function"
		},
		{
			"inputs": [
				{
					"internalType": "uint256",
					"name": "round",
					"type": "uint256"
				},
				{
					"internalType": "uint256",
					"name": "fallbackSeed",
					"type": "uint256"
				}
			],
			"name": "emergencyUseFallbackRandom",
			"outputs": [],
			"stateMutability": "nonpayable",
			"type": "function"
		},
		{
			"inputs": [],
			"name": "gauntletActive",
			"outputs": [
				{
					"internalType": "bool",
					"name": "",
					"type": "bool"
				}
			],
			"stateMutability": "view",
			"type": "function"
		},
		{
			"inputs": [
				{
					"internalType": "uint256",
					"name": "round",
					"type": "uint256"
				}
			],
			"name": "getCumulativeUpTo",
			"outputs": [
				{
					"internalType": "uint256",
					"name": "",
					"type": "uint256"
				}
			],
			"stateMutability": "view",
			"type": "function"
		},
		{
			"inputs": [],
			"name": "getParticipants",
			"outputs": [
				{
					"internalType": "address[]",
					"name": "",
					"type": "address[]"
				}
			],
			"stateMutability": "view",
			"type": "function"
		},
		{
			"inputs": [],
			"name": "keeper",
			"outputs": [
				{
					"internalType": "address",
					"name": "",
					"type": "address"
				}
			],
			"stateMutability": "view",
			"type": "function"
		},
		{
			"inputs": [
				{
					"internalType": "uint256",
					"name": "",
					"type": "uint256"
				}
			],
			"name": "keeperCallsInRound",
			"outputs": [
				{
					"internalType": "uint256",
					"name": "",
					"type": "uint256"
				}
			],
			"stateMutability": "view",
			"type": "function"
		},
		{
			"inputs": [],
			"name": "keeperPayPerCall",
			"outputs": [
				{
					"internalType": "uint256",
					"name": "",
					"type": "uint256"
				}
			],
			"stateMutability": "view",
			"type": "function"
		},
		{
			"inputs": [],
			"name": "keeperReserve",
			"outputs": [
				{
					"internalType": "uint256",
					"name": "",
					"type": "uint256"
				}
			],
			"stateMutability": "view",
			"type": "function"
		},
		{
			"inputs": [],
			"name": "lpPercent",
			"outputs": [
				{
					"internalType": "uint256",
					"name": "",
					"type": "uint256"
				}
			],
			"stateMutability": "view",
			"type": "function"
		},
		{
			"inputs": [],
			"name": "lpWallet",
			"outputs": [
				{
					"internalType": "address",
					"name": "",
					"type": "address"
				}
			],
			"stateMutability": "view",
			"type": "function"
		},
		{
			"inputs": [],
			"name": "maxKeeperCallsPerRound",
			"outputs": [
				{
					"internalType": "uint256",
					"name": "",
					"type": "uint256"
				}
			],
			"stateMutability": "view",
			"type": "function"
		},
		{
			"inputs": [],
			"name": "nextEliminationIndex",
			"outputs": [
				{
					"internalType": "uint256",
					"name": "",
					"type": "uint256"
				}
			],
			"stateMutability": "view",
			"type": "function"
		},
		{
			"inputs": [],
			"name": "openStaking",
			"outputs": [],
			"stateMutability": "nonpayable",
			"type": "function"
		},
		{
			"inputs": [],
			"name": "owner",
			"outputs": [
				{
					"internalType": "address",
					"name": "",
					"type": "address"
				}
			],
			"stateMutability": "view",
			"type": "function"
		},
		{
			"inputs": [
				{
					"internalType": "address",
					"name": "",
					"type": "address"
				}
			],
			"name": "participantIndex",
			"outputs": [
				{
					"internalType": "uint256",
					"name": "",
					"type": "uint256"
				}
			],
			"stateMutability": "view",
			"type": "function"
		},
		{
			"inputs": [
				{
					"internalType": "address",
					"name": "",
					"type": "address"
				}
			],
			"name": "participantInfo",
			"outputs": [
				{
					"internalType": "uint256",
					"name": "stake",
					"type": "uint256"
				},
				{
					"internalType": "uint256",
					"name": "lastClaimedRound",
					"type": "uint256"
				}
			],
			"stateMutability": "view",
			"type": "function"
		},
		{
			"inputs": [],
			"name": "participantsCount",
			"outputs": [
				{
					"internalType": "uint256",
					"name": "",
					"type": "uint256"
				}
			],
			"stateMutability": "view",
			"type": "function"
		},
		{
			"inputs": [],
			"name": "pause",
			"outputs": [],
			"stateMutability": "nonpayable",
			"type": "function"
		},
		{
			"inputs": [],
			"name": "paused",
			"outputs": [
				{
					"internalType": "bool",
					"name": "",
					"type": "bool"
				}
			],
			"stateMutability": "view",
			"type": "function"
		},
		{
			"inputs": [],
			"name": "pendingSurvivorPool",
			"outputs": [
				{
					"internalType": "uint256",
					"name": "",
					"type": "uint256"
				}
			],
			"stateMutability": "view",
			"type": "function"
		},
		{
			"inputs": [],
			"name": "prizePool",
			"outputs": [
				{
					"internalType": "uint256",
					"name": "",
					"type": "uint256"
				}
			],
			"stateMutability": "view",
			"type": "function"
		},
		{
			"inputs": [],
			"name": "prizePoolPercent",
			"outputs": [
				{
					"internalType": "uint256",
					"name": "",
					"type": "uint256"
				}
			],
			"stateMutability": "view",
			"type": "function"
		},
		{
			"inputs": [
				{
					"internalType": "uint256",
					"name": "requestId",
					"type": "uint256"
				},
				{
					"internalType": "uint256[]",
					"name": "randomWords",
					"type": "uint256[]"
				}
			],
			"name": "rawFulfillRandomWords",
			"outputs": [],
			"stateMutability": "nonpayable",
			"type": "function"
		},
		{
			"inputs": [],
			"name": "renounceOwnership",
			"outputs": [],
			"stateMutability": "nonpayable",
			"type": "function"
		},
		{
			"inputs": [],
			"name": "requestRandomForRound",
			"outputs": [
				{
					"internalType": "uint256",
					"name": "requestId",
					"type": "uint256"
				}
			],
			"stateMutability": "nonpayable",
			"type": "function"
		},
		{
			"inputs": [],
			"name": "roundDuration",
			"outputs": [
				{
					"internalType": "uint256",
					"name": "",
					"type": "uint256"
				}
			],
			"stateMutability": "view",
			"type": "function"
		},
		{
			"inputs": [],
			"name": "roundStartTime",
			"outputs": [
				{
					"internalType": "uint256",
					"name": "",
					"type": "uint256"
				}
			],
			"stateMutability": "view",
			"type": "function"
		},
		{
			"inputs": [
				{
					"internalType": "uint256",
					"name": "",
					"type": "uint256"
				}
			],
			"name": "rounds",
			"outputs": [
				{
					"internalType": "uint256",
					"name": "survivorRewardPerPlayer",
					"type": "uint256"
				},
				{
					"internalType": "uint256",
					"name": "eliminationsDone",
					"type": "uint256"
				},
				{
					"internalType": "uint256",
					"name": "randomSeed",
					"type": "uint256"
				},
				{
					"internalType": "uint256",
					"name": "randomRequestedBlock",
					"type": "uint256"
				},
				{
					"internalType": "bool",
					"name": "randomnessFulfilled",
					"type": "bool"
				},
				{
					"internalType": "bool",
					"name": "fallbackUsed",
					"type": "bool"
				}
			],
			"stateMutability": "view",
			"type": "function"
		},
		{
			"inputs": [],
			"name": "runEliminationBatch",
			"outputs": [],
			"stateMutability": "nonpayable",
			"type": "function"
		},
		{
			"inputs": [
				{
					"internalType": "uint256",
					"name": "_size",
					"type": "uint256"
				}
			],
			"name": "setBatchSize",
			"outputs": [],
			"stateMutability": "nonpayable",
			"type": "function"
		},
		{
			"inputs": [
				{
					"internalType": "address",
					"name": "_keeper",
					"type": "address"
				}
			],
			"name": "setKeeper",
			"outputs": [],
			"stateMutability": "nonpayable",
			"type": "function"
		},
		{
			"inputs": [
				{
					"internalType": "uint256",
					"name": "_wei",
					"type": "uint256"
				}
			],
			"name": "setKeeperPay",
			"outputs": [],
			"stateMutability": "nonpayable",
			"type": "function"
		},
		{
			"inputs": [
				{
					"internalType": "uint256",
					"name": "_max",
					"type": "uint256"
				}
			],
			"name": "setMaxKeeperCallsPerRound",
			"outputs": [],
			"stateMutability": "nonpayable",
			"type": "function"
		},
		{
			"inputs": [
				{
					"internalType": "uint256",
					"name": "_seconds",
					"type": "uint256"
				}
			],
			"name": "setRoundDuration",
			"outputs": [],
			"stateMutability": "nonpayable",
			"type": "function"
		},
		{
			"inputs": [
				{
					"internalType": "uint256",
					"name": "_dev",
					"type": "uint256"
				},
				{
					"internalType": "uint256",
					"name": "_lp",
					"type": "uint256"
				},
				{
					"internalType": "uint256",
					"name": "_burn",
					"type": "uint256"
				},
				{
					"internalType": "uint256",
					"name": "_survivor",
					"type": "uint256"
				},
				{
					"internalType": "uint256",
					"name": "_prize",
					"type": "uint256"
				}
			],
			"name": "setTokenomicsPercents",
			"outputs": [],
			"stateMutability": "nonpayable",
			"type": "function"
		},
		{
			"inputs": [
				{
					"internalType": "address",
					"name": "_dev",
					"type": "address"
				},
				{
					"internalType": "address",
					"name": "_lp",
					"type": "address"
				},
				{
					"internalType": "address",
					"name": "_burn",
					"type": "address"
				}
			],
			"name": "setWallets",
			"outputs": [],
			"stateMutability": "nonpayable",
			"type": "function"
		},
		{
			"inputs": [
				{
					"internalType": "uint256",
					"name": "amount",
					"type": "uint256"
				},
				{
					"internalType": "uint256",
					"name": "minReceived",
					"type": "uint256"
				}
			],
			"name": "stake",
			"outputs": [],
			"stateMutability": "nonpayable",
			"type": "function"
		},
		{
			"inputs": [],
			"name": "stakingActive",
			"outputs": [
				{
					"internalType": "bool",
					"name": "",
					"type": "bool"
				}
			],
			"stateMutability": "view",
			"type": "function"
		},
		{
			"inputs": [],
			"name": "stakingToken",
			"outputs": [
				{
					"internalType": "contract IERC20",
					"name": "",
					"type": "address"
				}
			],
			"stateMutability": "view",
			"type": "function"
		},
		{
			"inputs": [],
			"name": "survivorPercent",
			"outputs": [
				{
					"internalType": "uint256",
					"name": "",
					"type": "uint256"
				}
			],
			"stateMutability": "view",
			"type": "function"
		},
		{
			"inputs": [
				{
					"internalType": "address",
					"name": "newOwner",
					"type": "address"
				}
			],
			"name": "transferOwnership",
			"outputs": [],
			"stateMutability": "nonpayable",
			"type": "function"
		},
		{
			"inputs": [],
			"name": "unpause",
			"outputs": [],
			"stateMutability": "nonpayable",
			"type": "function"
		},
		{
			"inputs": [],
			"name": "unstake",
			"outputs": [],
			"stateMutability": "nonpayable",
			"type": "function"
		},
		{
			"inputs": [],
			"name": "vrfCallbackGasLimit",
			"outputs": [
				{
					"internalType": "uint32",
					"name": "",
					"type": "uint32"
				}
			],
			"stateMutability": "view",
			"type": "function"
		},
		{
			"inputs": [],
			"name": "vrfKeyHash",
			"outputs": [
				{
					"internalType": "bytes32",
					"name": "",
					"type": "bytes32"
				}
			],
			"stateMutability": "view",
			"type": "function"
		},
		{
			"inputs": [],
			"name": "vrfRequestConfirmations",
			"outputs": [
				{
					"internalType": "uint16",
					"name": "",
					"type": "uint16"
				}
			],
			"stateMutability": "view",
			"type": "function"
		},
		{
			"inputs": [
				{
					"internalType": "uint256",
					"name": "",
					"type": "uint256"
				}
			],
			"name": "vrfRequestToRound",
			"outputs": [
				{
					"internalType": "uint256",
					"name": "",
					"type": "uint256"
				}
			],
			"stateMutability": "view",
			"type": "function"
		},
		{
			"inputs": [],
			"name": "vrfSubscriptionId",
			"outputs": [
				{
					"internalType": "uint64",
					"name": "",
					"type": "uint64"
				}
			],
			"stateMutability": "view",
			"type": "function"
		},
		{
			"inputs": [
				{
					"internalType": "uint256",
					"name": "amountWei",
					"type": "uint256"
				}
			],
			"name": "withdrawKeeperFunds",
			"outputs": [],
			"stateMutability": "nonpayable",
			"type": "function"
		},
		{
			"stateMutability": "payable",
			"type": "receive"
		}
	]
}