{
	"data": {
		"bytecode": {
			"linkReferences": {},
			"object": "60c06040526005600b556005600c55600a600d55601e600e556032600f5560646015555f601655662386f26fc100006018556032601a5562030d40601e5f6101000a81548163ffffffff021916908363ffffffff1602179055506003601e60046101000a81548161ffff021916908361ffff160217905550348015610082575f5ffd5b50604051615c21380380615c2183398181016040528101906100a491906106d3565b84335f73ffffffffffffffffffffffffffffffffffffffff168173ffffffffffffffffffffffffffffffffffffffff1603610116575f6040517f1e4fbdf700000000000000000000000000000000000000000000000000000000815260040161010d91906107a6565b60405180910390fd5b610125816104d660201b60201c565b50600180819055508073ffffffffffffffffffffffffffffffffffffffff1660808173ffffffffffffffffffffffffffffffffffffffff1681525050505f73ffffffffffffffffffffffffffffffffffffffff168973ffffffffffffffffffffffffffffffffffffffff16036101d0576040517f08c379a00000000000000000000000000000000000000000000000000000000081526004016101c790610819565b60405180910390fd5b5f73ffffffffffffffffffffffffffffffffffffffff168873ffffffffffffffffffffffffffffffffffffffff161415801561023857505f73ffffffffffffffffffffffffffffffffffffffff168773ffffffffffffffffffffffffffffffffffffffff1614155b801561027057505f73ffffffffffffffffffffffffffffffffffffffff168673ffffffffffffffffffffffffffffffffffffffff1614155b6102af576040517f08c379a00000000000000000000000000000000000000000000000000000000081526004016102a690610881565b60405180910390fd5b5f73ffffffffffffffffffffffffffffffffffffffff168273ffffffffffffffffffffffffffffffffffffffff160361031d576040517f08c379a0000000000000000000000000000000000000000000000000000000008152600401610314906108e9565b60405180910390fd5b8873ffffffffffffffffffffffffffffffffffffffff1660a08173ffffffffffffffffffffffffffffffffffffffff16815250508760125f6101000a81548173ffffffffffffffffffffffffffffffffffffffff021916908373ffffffffffffffffffffffffffffffffffffffff1602179055508660135f6101000a81548173ffffffffffffffffffffffffffffffffffffffff021916908373ffffffffffffffffffffffffffffffffffffffff1602179055508560145f6101000a81548173ffffffffffffffffffffffffffffffffffffffff021916908373ffffffffffffffffffffffffffffffffffffffff16021790555084601c5f6101000a81548173ffffffffffffffffffffffffffffffffffffffff021916908373ffffffffffffffffffffffffffffffffffffffff16021790555083601c60146101000a81548167ffffffffffffffff021916908367ffffffffffffffff16021790555082601d819055508160175f6101000a81548173ffffffffffffffffffffffffffffffffffffffff021916908373ffffffffffffffffffffffffffffffffffffffff16021790555080600481905550505050505050505050610907565b5f5f5f9054906101000a900473ffffffffffffffffffffffffffffffffffffffff169050815f5f6101000a81548173ffffffffffffffffffffffffffffffffffffffff021916908373ffffffffffffffffffffffffffffffffffffffff1602179055508173ffffffffffffffffffffffffffffffffffffffff168173ffffffffffffffffffffffffffffffffffffffff167f8be0079c531659141344cd1fd0a4f28419497f9722a3daafe3b4186f6b6457e060405160405180910390a35050565b5f5ffd5b5f73ffffffffffffffffffffffffffffffffffffffff82169050919050565b5f6105c48261059b565b9050919050565b5f6105d5826105ba565b9050919050565b6105e5816105cb565b81146105ef575f5ffd5b50565b5f81519050610600816105dc565b92915050565b61060f816105ba565b8114610619575f5ffd5b50565b5f8151905061062a81610606565b92915050565b5f67ffffffffffffffff82169050919050565b61064c81610630565b8114610656575f5ffd5b50565b5f8151905061066781610643565b92915050565b5f819050919050565b61067f8161066d565b8114610689575f5ffd5b50565b5f8151905061069a81610676565b92915050565b5f819050919050565b6106b2816106a0565b81146106bc575f5ffd5b50565b5f815190506106cd816106a9565b92915050565b5f5f5f5f5f5f5f5f5f6101208a8c0312156106f1576106f0610597565b5b5f6106fe8c828d016105f2565b995050602061070f8c828d0161061c565b98505060406107208c828d0161061c565b97505060606107318c828d0161061c565b96505060806107428c828d0161061c565b95505060a06107538c828d01610659565b94505060c06107648c828d0161068c565b93505060e06107758c828d0161061c565b9250506101006107878c828d016106bf565b9150509295985092959850929598565b6107a0816105ba565b82525050565b5f6020820190506107b95f830184610797565b92915050565b5f82825260208201905092915050565b7f7a65726f20746f6b656e000000000000000000000000000000000000000000005f82015250565b5f610803600a836107bf565b915061080e826107cf565b602082019050919050565b5f6020820190508181035f830152610830816107f7565b9050919050565b7f7a65726f2077616c6c65747300000000000000000000000000000000000000005f82015250565b5f61086b600c836107bf565b915061087682610837565b602082019050919050565b5f6020820190508181035f8301526108988161085f565b9050919050565b7f7a65726f206b65657065720000000000000000000000000000000000000000005f82015250565b5f6108d3600b836107bf565b91506108de8261089f565b602082019050919050565b5f6020820190508181035f830152610900816108c7565b9050919050565b60805160a0516152ba6109675f395f81816111ac01528181611c6c015281816122e8015281816126d801528181612778015281816127c10152818161372b015281816137a0015261381501525f818161124d01526112a101526152ba5ff3fe608060405260043610610384575f3560e01c806375cb1bd1116101d0578063ab0fc1a211610101578063df242d7d1161009f578063f2fde38b1161006e578063f2fde38b14610cd5578063f4daaba114610cfd578063f7cb789a14610d27578063fc3c28af14610d5157610433565b8063df242d7d14610c1b578063e091a29714610c57578063e712c29814610c81578063ed647d2114610cab57610433565b8063cf00d4b9116100db578063cf00d4b914610b61578063d5aa06fa14610b8b578063dd4f8f7414610bc7578063dd60c89814610bf157610433565b8063ab0fc1a214610ae3578063aced166114610b0d578063bf38063114610b3757610433565b80638a19c8bc1161016e5780638da5cb5b116101485780638da5cb5b14610a3d5780638ea5220f14610a675780639e1ada0414610a91578063a6ac4b3514610ab957610433565b80638a19c8bc146109aa5780638c178e42146109d45780638c65c81f146109fc57610433565b806382ddbb30116101aa57806382ddbb30146109265780638456cb591461093057806387b18a5214610946578063892943461461098257610433565b806375cb1bd1146108ac5780637b0472f0146108d45780637fd7f412146108fc57610433565b80633f4ba83a116102b55780636258173311610253578063719a59d811610222578063719a59d814610806578063719ce73e1461083057806372f702f31461085a578063748747e61461088457610433565b8063625817331461079a5780636303516c146107b0578063656fe8ef146107da578063715018a6146107f057610433565b8063598bc4861161028f578063598bc486146106f45780635aa68ac01461071e5780635c975abb146107485780635e38ca701461077257610433565b80633f4ba83a1461068c578063461dbda0146106a2578063576f35e3146106cc57610433565b80631fe543e31161032257806332d368ce116102fc57806332d368ce146105fa57806336c92c3f1461062457806339d987231461064c5780633b7ed7341461066257610433565b80631fe543e31461056c578063259b8af7146105945780633243fb89146105be57610433565b8063062287491161035e57806306228749146104b3578063083b9137146104dd5780630e135aa1146105195780630f4863f71461055657610433565b806303807ee514610437578063041d443e1461046157806304ab9f031461048b57610433565b36610433575f34116103cb576040517f08c379a00000000000000000000000000000000000000000000000000000000081526004016103c290613af6565b60405180910390fd5b3460195f8282546103dc9190613b4a565b925050819055503373ffffffffffffffffffffffffffffffffffffffff167f32fb8666fb8614c76ba83b694a0c60f4ee5699886bfe56001aa48337fbb134ff346040516104299190613b8c565b60405180910390a2005b5f5ffd5b348015610442575f5ffd5b5061044b610d7b565b6040516104589190613b8c565b60405180910390f35b34801561046c575f5ffd5b50610475610d81565b6040516104829190613bbd565b60405180910390f35b348015610496575f5ffd5b506104b160048036038101906104ac9190613c11565b610d87565b005b3480156104be575f5ffd5b506104c7610fa5565b6040516104d49190613c8e565b60405180910390f35b3480156104e8575f5ffd5b5061050360048036038101906104fe9190613cd1565b610fca565b6040516105109190613b8c565b60405180910390f35b348015610524575f5ffd5b5061053f600480360381019061053a9190613cd1565b610fdf565b60405161054d929190613cfc565b60405180910390f35b348015610561575f5ffd5b5061056a610fff565b005b348015610577575f5ffd5b50610592600480360381019061058d9190613e73565b61124b565b005b34801561059f575f5ffd5b506105a861130b565b6040516105b59190613b8c565b60405180910390f35b3480156105c9575f5ffd5b506105e460048036038101906105df9190613ecd565b611311565b6040516105f19190613b8c565b60405180910390f35b348015610605575f5ffd5b5061060e61132b565b60405161061b9190613b8c565b60405180910390f35b34801561062f575f5ffd5b5061064a60048036038101906106459190613ecd565b611331565b005b348015610657575f5ffd5b50610660611387565b005b34801561066d575f5ffd5b50610676611d0f565b6040516106839190613f16565b60405180910390f35b348015610697575f5ffd5b506106a0611d24565b005b3480156106ad575f5ffd5b506106b6611d8a565b6040516106c39190613f49565b60405180910390f35b3480156106d7575f5ffd5b506106f260048036038101906106ed9190613ecd565b611d9d565b005b3480156106ff575f5ffd5b50610708611dff565b6040516107159190613f7e565b60405180910390f35b348015610729575f5ffd5b50610732611e13565b60405161073f919061404e565b60405180910390f35b348015610753575f5ffd5b5061075c611e9e565b6040516107699190613f49565b60405180910390f35b34801561077d575f5ffd5b506107986004803603810190610793919061406e565b611eaf565b005b3480156107a5575f5ffd5b506107ae611fd3565b005b3480156107bb575f5ffd5b506107c46120e4565b6040516107d19190613c8e565b60405180910390f35b3480156107e5575f5ffd5b506107ee612109565b005b3480156107fb575f5ffd5b506108046122c7565b005b348015610811575f5ffd5b5061081a6122da565b6040516108279190613b8c565b60405180910390f35b34801561083b575f5ffd5b506108446122e0565b6040516108519190613b8c565b60405180910390f35b348015610865575f5ffd5b5061086e6122e6565b60405161087b9190614140565b60405180910390f35b34801561088f575f5ffd5b506108aa60048036038101906108a59190613cd1565b61230a565b005b3480156108b7575f5ffd5b506108d260048036038101906108cd9190614159565b612408565b005b3480156108df575f5ffd5b506108fa60048036038101906108f59190613c11565b6125ef565b005b348015610907575f5ffd5b50610910612a45565b60405161091d9190613b8c565b60405180910390f35b61092e612d6b565b005b34801561093b575f5ffd5b50610944612e1d565b005b348015610951575f5ffd5b5061096c60048036038101906109679190613ecd565b612e84565b6040516109799190613b8c565b60405180910390f35b34801561098d575f5ffd5b506109a860048036038101906109a39190613ecd565b612e99565b005b3480156109b5575f5ffd5b506109be612f93565b6040516109cb9190613b8c565b60405180910390f35b3480156109df575f5ffd5b506109fa60048036038101906109f59190613ecd565b612f99565b005b348015610a07575f5ffd5b50610a226004803603810190610a1d9190613ecd565b612fab565b604051610a34969594939291906141a9565b60405180910390f35b348015610a48575f5ffd5b50610a51612ffc565b604051610a5e9190613c8e565b60405180910390f35b348015610a72575f5ffd5b50610a7b613023565b604051610a889190613c8e565b60405180910390f35b348015610a9c575f5ffd5b50610ab76004803603810190610ab29190613ecd565b613048565b005b348015610ac4575f5ffd5b50610acd61309c565b604051610ada9190613f49565b60405180910390f35b348015610aee575f5ffd5b50610af76130ae565b604051610b049190613b8c565b60405180910390f35b348015610b18575f5ffd5b50610b216130b4565b604051610b2e9190613c8e565b60405180910390f35b348015610b42575f5ffd5b50610b4b6130d9565b604051610b589190613b8c565b60405180910390f35b348015610b6c575f5ffd5b50610b756130df565b604051610b829190613b8c565b60405180910390f35b348015610b96575f5ffd5b50610bb16004803603810190610bac9190613ecd565b6130e5565b604051610bbe9190613b8c565b60405180910390f35b348015610bd2575f5ffd5b50610bdb6130fa565b604051610be89190613b8c565b60405180910390f35b348015610bfc575f5ffd5b50610c05613100565b604051610c129190613b8c565b60405180910390f35b348015610c26575f5ffd5b50610c416004803603810190610c3c9190613ecd565b61310c565b604051610c4e9190613b8c565b60405180910390f35b348015610c62575f5ffd5b50610c6b613121565b604051610c789190613b8c565b60405180910390f35b348015610c8c575f5ffd5b50610c95613127565b604051610ca29190613b8c565b60405180910390f35b348015610cb6575f5ffd5b50610cbf61312d565b604051610ccc919061422a565b60405180910390f35b348015610ce0575f5ffd5b50610cfb6004803603810190610cf69190613cd1565b613147565b005b348015610d08575f5ffd5b50610d116131cb565b604051610d1e9190613b8c565b60405180910390f35b348015610d32575f5ffd5b50610d3b6131d1565b604051610d489190613b8c565b60405180910390f35b348015610d5c575f5ffd5b50610d656131d7565b604051610d729190613b8c565b60405180910390f35b600d5481565b601d5481565b610d8f6131dd565b60028054906101000a900460ff1615610ddd576040517f08c379a0000000000000000000000000000000000000000000000000000000008152600401610dd49061428d565b60405180910390fd5b5f600a5f8481526020019081526020015f206003015411610e33576040517f08c379a0000000000000000000000000000000000000000000000000000000008152600401610e2a906142f5565b60405180910390fd5b600a5f8381526020019081526020015f206004015f9054906101000a900460ff1615610e94576040517f08c379a0000000000000000000000000000000000000000000000000000000008152600401610e8b9061435d565b60405180910390fd5b611388600a5f8481526020019081526020015f2060030154610eb69190613b4a565b4311610ef7576040517f08c379a0000000000000000000000000000000000000000000000000000000008152600401610eee906143c5565b60405180910390fd5b80600a5f8481526020019081526020015f20600201819055506001600a5f8481526020019081526020015f206004015f6101000a81548160ff0219169083151502179055506001600a5f8481526020019081526020015f2060040160016101000a81548160ff021916908315150217905550817f76761cd2ac8a3ab5c212ebb1cb80967d1bdf2a8eb8531f5cbeca46bcbfebc5a082604051610f999190613b8c565b60405180910390a25050565b60145f9054906101000a900473ffffffffffffffffffffffffffffffffffffffff1681565b6008602052805f5260405f205f915090505481565b6007602052805f5260405f205f91509050805f0154908060010154905082565b611007613264565b60028054906101000a900460ff1615611055576040517f08c379a000000000000000000000000000000000000000000000000000000000815260040161104c9061428d565b60405180910390fd5b5f60075f3373ffffffffffffffffffffffffffffffffffffffff1673ffffffffffffffffffffffffffffffffffffffff1681526020019081526020015f206001015490505f60016003546110a991906143e3565b90508181116110ed576040517f08c379a00000000000000000000000000000000000000000000000000000000081526004016110e490614460565b60405180910390fd5b5f60095f8481526020019081526020015f205460095f8481526020019081526020015f205461111c91906143e3565b90505f8111611160576040517f08c379a0000000000000000000000000000000000000000000000000000000008152600401611157906144c8565b60405180910390fd5b8160075f3373ffffffffffffffffffffffffffffffffffffffff1673ffffffffffffffffffffffffffffffffffffffff1681526020019081526020015f20600101819055506111f033827f000000000000000000000000000000000000000000000000000000000000000073ffffffffffffffffffffffffffffffffffffffff166132b39092919063ffffffff16565b3373ffffffffffffffffffffffffffffffffffffffff167ffc30cddea38e2bf4d6ea7d3f9ed3b6ad7f176419f4963bd81318067a4aee73fe826040516112369190613b8c565b60405180910390a2505050611249613332565b565b7f000000000000000000000000000000000000000000000000000000000000000073ffffffffffffffffffffffffffffffffffffffff163373ffffffffffffffffffffffffffffffffffffffff16146112fd57337f00000000000000000000000000000000000000000000000000000000000000006040517f1cf993f40000000000000000000000000000000000000000000000000000000081526004016112f49291906144e6565b60405180910390fd5b611307828261333b565b5050565b600e5481565b5f60095f8381526020019081526020015f20549050919050565b60195481565b6113396131dd565b603c81101561137d576040517f08c379a000000000000000000000000000000000000000000000000000000000815260040161137490614557565b60405180910390fd5b8060048190555050565b61138f613264565b60175f9054906101000a900473ffffffffffffffffffffffffffffffffffffffff1673ffffffffffffffffffffffffffffffffffffffff163373ffffffffffffffffffffffffffffffffffffffff161461141e576040517f08c379a0000000000000000000000000000000000000000000000000000000008152600401611415906145bf565b60405180910390fd5b60028054906101000a900460ff161561146c576040517f08c379a00000000000000000000000000000000000000000000000000000000081526004016114639061428d565b60405180910390fd5b600260019054906101000a900460ff166114bb576040517f08c379a00000000000000000000000000000000000000000000000000000000081526004016114b290614627565b60405180910390fd5b600160068054905011611503576040517f08c379a00000000000000000000000000000000000000000000000000000000081526004016114fa9061468f565b60405180910390fd5b6004546005546115139190613b4a565b421015611555576040517f08c379a000000000000000000000000000000000000000000000000000000000815260040161154c906146f7565b60405180910390fd5b5f6003549050600a5f8281526020019081526020015f206004015f9054906101000a900460ff166115bb576040517f08c379a00000000000000000000000000000000000000000000000000000000081526004016115b29061475f565b60405180910390fd5b5f600a5f8381526020019081526020015f206003015411611611576040517f08c379a0000000000000000000000000000000000000000000000000000000008152600401611608906147c7565b60405180910390fd5b600a5f8281526020019081526020015f20600301544311611667576040517f08c379a000000000000000000000000000000000000000000000000000000000815260040161165e9061482f565b60405180910390fd5b601a54601b5f8381526020019081526020015f2054106116bc576040517f08c379a00000000000000000000000000000000000000000000000000000000081526004016116b390614897565b60405180910390fd5b601b5f8281526020019081526020015f205f8154809291906116dd906148b5565b91905055505f5f90505f6015546016546116f79190613b4a565b905060068054905081111561170f5760068054905090505b5f600a5f8581526020019081526020015f206002015490505f60165490505b828110156118cf57600160068054905011156118cf575f82824360405160200161175a939291906148fc565b604051602081830303815290604052805190602001205f1c90505f60068054905082611786919061495e565b90505f6006828154811061179d5761179c61498e565b5b905f5260205f20015f9054906101000a900473ffffffffffffffffffffffffffffffffffffffff1690505f60075f8373ffffffffffffffffffffffffffffffffffffffff1673ffffffffffffffffffffffffffffffffffffffff1681526020019081526020015f205f015490505f60075f8473ffffffffffffffffffffffffffffffffffffffff1673ffffffffffffffffffffffffffffffffffffffff1681526020019081526020015f205f018190555061185783613448565b6118618282613617565b8173ffffffffffffffffffffffffffffffffffffffff16897f51479c93d7646904d2282e9e79cddf11999ac774b7fd0289e2f59cb4ad0f086a836040516118a89190613b8c565b60405180910390a387806118bb906148b5565b98505050505050808060010191505061172e565b50816016819055506006805490506016541015806118f35750600160068054905011155b15611ae1575f60068054905090505f8111156119d3575f60115490505f5f90505f8311801561192157505f82115b1561193557828261193291906149bb565b90505b80600a5f8981526020019081526020015f205f01819055508060095f60018a61195e91906143e3565b81526020019081526020015f20546119769190613b4a565b60095f8981526020019081526020015f20819055505f838261199891906149eb565b9050808311156119cb575f81846119af91906143e3565b90508060105f8282546119c29190613b4a565b92505081905550505b505050611a21565b60115460105f8282546119e69190613b4a565b9250508190555060095f6001876119fd91906143e3565b81526020019081526020015f205460095f8781526020019081526020015f20819055505b5f60118190555083600a5f8781526020019081526020015f2060010181905550847f2b034c48d6d3c5fa40da8afd25e88ee8ad074a546e1a3f05a860c6106b99b82b600680549050604051611a769190613b8c565b60405180910390a25f60168190555060035f815480929190611a97906148b5565b9190505550426005819055506003547f278844837bcf8364a705384bf3a2812901f54155bae86dea81dd52aa5b9ec0e3600554604051611ad79190613b8c565b60405180910390a2505b60185460195410158015611af657505f601854115b15611bac5760185460195f828254611b0e91906143e3565b925050819055503373ffffffffffffffffffffffffffffffffffffffff166108fc60185490811502906040515f60405180830381858888f19350505050158015611b5a573d5f5f3e3d5ffd5b503373ffffffffffffffffffffffffffffffffffffffff167f496b3bf0725d338a836ecf0b614e039f3736dacfd57aa32af1bf55ea601ceaf5601854604051611ba39190613b8c565b60405180910390a25b6001600354611bbb91906143e3565b7f3838459cd794256a3c29bb3186da72029a8036c0f596fee1bd526f8eb9493d4184604051611bea9190613b8c565b60405180910390a2600160068054905003611d01575f60065f81548110611c1457611c1361498e565b5b905f5260205f20015f9054906101000a900473ffffffffffffffffffffffffffffffffffffffff1690505f60105490505f6010819055505f600260016101000a81548160ff021916908315150217905550611cb082827f000000000000000000000000000000000000000000000000000000000000000073ffffffffffffffffffffffffffffffffffffffff166132b39092919063ffffffff16565b8173ffffffffffffffffffffffffffffffffffffffff167f9c2270628a9b29d30ae96b6c4c14ed646ee134febdce38a5b77f2bde9cea2e2082604051611cf69190613b8c565b60405180910390a250505b50505050611d0d613332565b565b601e5f9054906101000a900463ffffffff1681565b611d2c6131dd565b5f6002806101000a81548160ff0219169083151502179055503373ffffffffffffffffffffffffffffffffffffffff167f5db9ee0a495bf2e6ff9c91a7834c1ba4fdd244a5e8aa4e537bd38aeae4b073aa60405160405180910390a2565b600260019054906101000a900460ff1681565b611da56131dd565b5f81118015611db657506101f48111155b611df5576040517f08c379a0000000000000000000000000000000000000000000000000000000008152600401611dec90614a76565b60405180910390fd5b8060158190555050565b601e60049054906101000a900461ffff1681565b60606006805480602002602001604051908101604052809291908181526020018280548015611e9457602002820191905f5260205f20905b815f9054906101000a900473ffffffffffffffffffffffffffffffffffffffff1673ffffffffffffffffffffffffffffffffffffffff1681526020019060010190808311611e4b575b5050505050905090565b60028054906101000a900460ff1681565b611eb76131dd565b60648183858789611ec89190613b4a565b611ed29190613b4a565b611edc9190613b4a565b611ee69190613b4a565b14611f26576040517f08c379a0000000000000000000000000000000000000000000000000000000008152600401611f1d90614ade565b60405180910390fd5b6005811015611f6a576040517f08c379a0000000000000000000000000000000000000000000000000000000008152600401611f6190614b46565b60405180910390fd5b84600b8190555083600c8190555082600d8190555081600e8190555080600f819055507fbc09d8b830e227198eb6883f2d592e634c162e75e399516d84b5938d23e1614a8585858585604051611fc4959493929190614b64565b60405180910390a15050505050565b611fdb6131dd565b60028054906101000a900460ff1615612029576040517f08c379a00000000000000000000000000000000000000000000000000000000081526004016120209061428d565b60405180910390fd5b60025f9054906101000a900460ff161580156120525750600260019054906101000a900460ff16155b612091576040517f08c379a000000000000000000000000000000000000000000000000000000000815260040161208890614bff565b60405180910390fd5b600160025f6101000a81548160ff0219169083151502179055507f4b49057349914d28f830b1807042f9f5e96aa69ea2e276d656ad08cdf3a1cbf1426040516120da9190613b8c565b60405180910390a1565b60135f9054906101000a900473ffffffffffffffffffffffffffffffffffffffff1681565b6121116131dd565b60028054906101000a900460ff161561215f576040517f08c379a00000000000000000000000000000000000000000000000000000000081526004016121569061428d565b60405180910390fd5b60025f9054906101000a900460ff166121ad576040517f08c379a00000000000000000000000000000000000000000000000000000000081526004016121a490614c67565b60405180910390fd5b6001600680549050116121f5576040517f08c379a00000000000000000000000000000000000000000000000000000000081526004016121ec90614ccf565b60405180910390fd5b5f60025f6101000a81548160ff0219169083151502179055506001600260016101000a81548160ff0219169083151502179055506001600381905550426005819055505f60095f5f81526020019081526020015f20819055507f309970d6e6ebf643ca3fac15bd242b5d468fde2dd732f54ef91c18088bb63d6442600354604051612281929190613cfc565b60405180910390a16003547f278844837bcf8364a705384bf3a2812901f54155bae86dea81dd52aa5b9ec0e36005546040516122bd9190613b8c565b60405180910390a2565b6122cf6131dd565b6122d85f6138b7565b565b601a5481565b60105481565b7f000000000000000000000000000000000000000000000000000000000000000081565b6123126131dd565b805f73ffffffffffffffffffffffffffffffffffffffff168173ffffffffffffffffffffffffffffffffffffffff1603612381576040517f08c379a000000000000000000000000000000000000000000000000000000000815260040161237890614d37565b60405180910390fd5b8160175f6101000a81548173ffffffffffffffffffffffffffffffffffffffff021916908373ffffffffffffffffffffffffffffffffffffffff1602179055508173ffffffffffffffffffffffffffffffffffffffff167fdc3dba1d64dd67c0dc8b12621edd0c6ca4303a9073c3a8fcac38115e73d67b6b60405160405180910390a25050565b6124106131dd565b5f73ffffffffffffffffffffffffffffffffffffffff168373ffffffffffffffffffffffffffffffffffffffff161415801561247857505f73ffffffffffffffffffffffffffffffffffffffff168273ffffffffffffffffffffffffffffffffffffffff1614155b80156124b057505f73ffffffffffffffffffffffffffffffffffffffff168173ffffffffffffffffffffffffffffffffffffffff1614155b6124ef576040517f08c379a00000000000000000000000000000000000000000000000000000000081526004016124e690614d9f565b60405180910390fd5b8260125f6101000a81548173ffffffffffffffffffffffffffffffffffffffff021916908373ffffffffffffffffffffffffffffffffffffffff1602179055508160135f6101000a81548173ffffffffffffffffffffffffffffffffffffffff021916908373ffffffffffffffffffffffffffffffffffffffff1602179055508060145f6101000a81548173ffffffffffffffffffffffffffffffffffffffff021916908373ffffffffffffffffffffffffffffffffffffffff1602179055507f2d4c6aa48812a0ea09474a961613c1a3ae652d39a1580cb1ac46ff277e6d385d8383836040516125e293929190614dbd565b60405180910390a1505050565b6125f7613264565b60028054906101000a900460ff1615612645576040517f08c379a000000000000000000000000000000000000000000000000000000000815260040161263c9061428d565b60405180910390fd5b60025f9054906101000a900460ff16612693576040517f08c379a000000000000000000000000000000000000000000000000000000000815260040161268a90614e3c565b60405180910390fd5b5f82116126d5576040517f08c379a00000000000000000000000000000000000000000000000000000000081526004016126cc90614ea4565b60405180910390fd5b5f7f000000000000000000000000000000000000000000000000000000000000000073ffffffffffffffffffffffffffffffffffffffff166370a08231306040518263ffffffff1660e01b815260040161272f9190613c8e565b602060405180830381865afa15801561274a573d5f5f3e3d5ffd5b505050506040513d601f19601f8201168201806040525081019061276e9190614ed6565b90506127bd3330857f000000000000000000000000000000000000000000000000000000000000000073ffffffffffffffffffffffffffffffffffffffff16613978909392919063ffffffff16565b5f817f000000000000000000000000000000000000000000000000000000000000000073ffffffffffffffffffffffffffffffffffffffff166370a08231306040518263ffffffff1660e01b81526004016128189190613c8e565b602060405180830381865afa158015612833573d5f5f3e3d5ffd5b505050506040513d601f19601f820116820180604052508101906128579190614ed6565b61286191906143e3565b9050828110156128a6576040517f08c379a000000000000000000000000000000000000000000000000000000000815260040161289d90614f4b565b60405180910390fd5b5f60075f3373ffffffffffffffffffffffffffffffffffffffff1673ffffffffffffffffffffffffffffffffffffffff1681526020019081526020015f205f01540361299457600633908060018154018082558091505060019003905f5260205f20015f9091909190916101000a81548173ffffffffffffffffffffffffffffffffffffffff021916908373ffffffffffffffffffffffffffffffffffffffff16021790555060068054905060085f3373ffffffffffffffffffffffffffffffffffffffff1673ffffffffffffffffffffffffffffffffffffffff1681526020019081526020015f20819055505b8060075f3373ffffffffffffffffffffffffffffffffffffffff1673ffffffffffffffffffffffffffffffffffffffff1681526020019081526020015f205f015f8282546129e29190613b4a565b925050819055503373ffffffffffffffffffffffffffffffffffffffff167f9e71bc8eea02a63969f509818f2dafb9254532904319f9dbda79b67bd34a5f3d82604051612a2f9190613b8c565b60405180910390a25050612a41613332565b5050565b5f60175f9054906101000a900473ffffffffffffffffffffffffffffffffffffffff1673ffffffffffffffffffffffffffffffffffffffff163373ffffffffffffffffffffffffffffffffffffffff1614612ad5576040517f08c379a0000000000000000000000000000000000000000000000000000000008152600401612acc906145bf565b60405180910390fd5b60028054906101000a900460ff1615612b23576040517f08c379a0000000000000000000000000000000000000000000000000000000008152600401612b1a9061428d565b60405180910390fd5b600260019054906101000a900460ff16612b72576040517f08c379a0000000000000000000000000000000000000000000000000000000008152600401612b6990614627565b60405180910390fd5b600454600554612b829190613b4a565b421015612bc4576040517f08c379a0000000000000000000000000000000000000000000000000000000008152600401612bbb906146f7565b60405180910390fd5b5f60035490505f600a5f8381526020019081526020015f206003015414612c20576040517f08c379a0000000000000000000000000000000000000000000000000000000008152600401612c1790614fb3565b60405180910390fd5b601c5f9054906101000a900473ffffffffffffffffffffffffffffffffffffffff1673ffffffffffffffffffffffffffffffffffffffff16635d3b1d30601d54601c60149054906101000a900467ffffffffffffffff16601e60049054906101000a900461ffff16601e5f9054906101000a900463ffffffff1660016040518663ffffffff1660e01b8152600401612cbc95949392919061500a565b6020604051808303815f875af1158015612cd8573d5f5f3e3d5ffd5b505050506040513d601f19601f82011682018060405250810190612cfc9190614ed6565b915080601f5f8481526020019081526020015f208190555043600a5f8381526020019081526020015f2060030181905550807f8103eccc47a3ddc6e91f4725113183081313c2756f00f8b3bb960433bd4b33f38343604051612d5f929190613cfc565b60405180910390a25090565b612d736131dd565b5f3411612db5576040517f08c379a0000000000000000000000000000000000000000000000000000000008152600401612dac90613af6565b60405180910390fd5b3460195f828254612dc69190613b4a565b925050819055503373ffffffffffffffffffffffffffffffffffffffff167f32fb8666fb8614c76ba83b694a0c60f4ee5699886bfe56001aa48337fbb134ff34604051612e139190613b8c565b60405180910390a2565b612e256131dd565b60016002806101000a81548160ff0219169083151502179055503373ffffffffffffffffffffffffffffffffffffffff167f62e78cea01bee320cd4e420270b5ea74000d11b0c9f74754ebdbfc544b05a25860405160405180910390a2565b6009602052805f5260405f205f915090505481565b612ea16131dd565b601954811115612ee6576040517f08c379a0000000000000000000000000000000000000000000000000000000008152600401612edd906150a5565b60405180910390fd5b8060195f828254612ef791906143e3565b925050819055503373ffffffffffffffffffffffffffffffffffffffff166108fc8290811502906040515f60405180830381858888f19350505050158015612f41573d5f5f3e3d5ffd5b503373ffffffffffffffffffffffffffffffffffffffff167fe8b716cfbfd42ea155f1c282f736f4e49a0136eaffca0cd650bdf93cd2ebd7c582604051612f889190613b8c565b60405180910390a250565b60035481565b612fa16131dd565b8060188190555050565b600a602052805f5260405f205f91509050805f015490806001015490806002015490806003015490806004015f9054906101000a900460ff16908060040160019054906101000a900460ff16905086565b5f5f5f9054906101000a900473ffffffffffffffffffffffffffffffffffffffff16905090565b60125f9054906101000a900473ffffffffffffffffffffffffffffffffffffffff1681565b6130506131dd565b5f8111613092576040517f08c379a00000000000000000000000000000000000000000000000000000000081526004016130899061510d565b60405180910390fd5b80601a8190555050565b60025f9054906101000a900460ff1681565b60165481565b60175f9054906101000a900473ffffffffffffffffffffffffffffffffffffffff1681565b60115481565b600f5481565b601f602052805f5260405f205f915090505481565b60055481565b5f600680549050905090565b601b602052805f5260405f205f915090505481565b600c5481565b60185481565b601c60149054906101000a900467ffffffffffffffff1681565b61314f6131dd565b5f73ffffffffffffffffffffffffffffffffffffffff168173ffffffffffffffffffffffffffffffffffffffff16036131bf575f6040517f1e4fbdf70000000000000000000000000000000000000000000000000000000081526004016131b69190613c8e565b60405180910390fd5b6131c8816138b7565b50565b60155481565b60045481565b600b5481565b6131e56139fa565b73ffffffffffffffffffffffffffffffffffffffff16613203612ffc565b73ffffffffffffffffffffffffffffffffffffffff1614613262576132266139fa565b6040517f118cdaa70000000000000000000000000000000000000000000000000000000081526004016132599190613c8e565b60405180910390fd5b565b6002600154036132a9576040517f08c379a00000000000000000000000000000000000000000000000000000000081526004016132a090615175565b60405180910390fd5b6002600181905550565b61332d838473ffffffffffffffffffffffffffffffffffffffff1663a9059cbb85856040516024016132e6929190615193565b604051602081830303815290604052915060e01b6020820180517bffffffffffffffffffffffffffffffffffffffffffffffffffffffff8381831617835250505050613a01565b505050565b60018081905550565b5f601f5f8481526020019081526020015f205490505f8103613392576040517f08c379a000000000000000000000000000000000000000000000000000000000815260040161338990615204565b60405180910390fd5b815f815181106133a5576133a461498e565b5b6020026020010151600a5f8381526020019081526020015f20600201819055506001600a5f8381526020019081526020015f206004015f6101000a81548160ff021916908315150217905550807f623f81aa9bb3441ef3d9d6ca37c0362142e8482c812d139760576c6ce87c8610835f815181106134265761342561498e565b5b602002602001015160405161343b9190613b8c565b60405180910390a2505050565b5f6006828154811061345d5761345c61498e565b5b905f5260205f20015f9054906101000a900473ffffffffffffffffffffffffffffffffffffffff1690505f600160068054905061349a91906143e3565b905080831461358c575f600682815481106134b8576134b761498e565b5b905f5260205f20015f9054906101000a900473ffffffffffffffffffffffffffffffffffffffff16905080600685815481106134f7576134f661498e565b5b905f5260205f20015f6101000a81548173ffffffffffffffffffffffffffffffffffffffff021916908373ffffffffffffffffffffffffffffffffffffffff1602179055506001846135499190613b4a565b60085f8373ffffffffffffffffffffffffffffffffffffffff1673ffffffffffffffffffffffffffffffffffffffff1681526020019081526020015f2081905550505b600680548061359e5761359d615222565b5b600190038181905f5260205f20015f6101000a81549073ffffffffffffffffffffffffffffffffffffffff021916905590555f60085f8473ffffffffffffffffffffffffffffffffffffffff1673ffffffffffffffffffffffffffffffffffffffff1681526020019081526020015f2081905550505050565b5f8103156138b3575f6064600b548361363091906149eb565b61363a91906149bb565b90505f6064600c548461364d91906149eb565b61365791906149bb565b90505f6064600d548561366a91906149eb565b61367491906149bb565b90505f6064600e548661368791906149eb565b61369191906149bb565b90505f6064600f54876136a491906149eb565b6136ae91906149bb565b90505f81838587896136c09190613b4a565b6136ca9190613b4a565b6136d49190613b4a565b6136de9190613b4a565b9050868111156136ec578690505b5f81886136f991906143e3565b90505f8711156137705761376f60125f9054906101000a900473ffffffffffffffffffffffffffffffffffffffff16887f000000000000000000000000000000000000000000000000000000000000000073ffffffffffffffffffffffffffffffffffffffff166132b39092919063ffffffff16565b5b5f8611156137e5576137e460135f9054906101000a900473ffffffffffffffffffffffffffffffffffffffff16877f000000000000000000000000000000000000000000000000000000000000000073ffffffffffffffffffffffffffffffffffffffff166132b39092919063ffffffff16565b5b5f85111561385a5761385960145f9054906101000a900473ffffffffffffffffffffffffffffffffffffffff16867f000000000000000000000000000000000000000000000000000000000000000073ffffffffffffffffffffffffffffffffffffffff166132b39092919063ffffffff16565b5b8260105f82825461386b9190613b4a565b925050819055508060105f8282546138839190613b4a565b925050819055505f8411156138ab578360115f8282546138a39190613b4a565b925050819055505b505050505050505b5050565b5f5f5f9054906101000a900473ffffffffffffffffffffffffffffffffffffffff169050815f5f6101000a81548173ffffffffffffffffffffffffffffffffffffffff021916908373ffffffffffffffffffffffffffffffffffffffff1602179055508173ffffffffffffffffffffffffffffffffffffffff168173ffffffffffffffffffffffffffffffffffffffff167f8be0079c531659141344cd1fd0a4f28419497f9722a3daafe3b4186f6b6457e060405160405180910390a35050565b6139f4848573ffffffffffffffffffffffffffffffffffffffff166323b872dd8686866040516024016139ad9392919061524f565b604051602081830303815290604052915060e01b6020820180517bffffffffffffffffffffffffffffffffffffffffffffffffffffffff8381831617835250505050613a01565b50505050565b5f33905090565b5f5f60205f8451602086015f885af180613a20576040513d5f823e3d81fd5b3d92505f519150505f8214613a39576001811415613a54565b5f8473ffffffffffffffffffffffffffffffffffffffff163b145b15613a9657836040517f5274afe7000000000000000000000000000000000000000000000000000000008152600401613a8d9190613c8e565b60405180910390fd5b50505050565b5f82825260208201905092915050565b7f6e6f20424e4200000000000000000000000000000000000000000000000000005f82015250565b5f613ae0600683613a9c565b9150613aeb82613aac565b602082019050919050565b5f6020820190508181035f830152613b0d81613ad4565b9050919050565b5f819050919050565b7f4e487b71000000000000000000000000000000000000000000000000000000005f52601160045260245ffd5b5f613b5482613b14565b9150613b5f83613b14565b9250828201905080821115613b7757613b76613b1d565b5b92915050565b613b8681613b14565b82525050565b5f602082019050613b9f5f830184613b7d565b92915050565b5f819050919050565b613bb781613ba5565b82525050565b5f602082019050613bd05f830184613bae565b92915050565b5f604051905090565b5f5ffd5b5f5ffd5b613bf081613b14565b8114613bfa575f5ffd5b50565b5f81359050613c0b81613be7565b92915050565b5f5f60408385031215613c2757613c26613bdf565b5b5f613c3485828601613bfd565b9250506020613c4585828601613bfd565b9150509250929050565b5f73ffffffffffffffffffffffffffffffffffffffff82169050919050565b5f613c7882613c4f565b9050919050565b613c8881613c6e565b82525050565b5f602082019050613ca15f830184613c7f565b92915050565b613cb081613c6e565b8114613cba575f5ffd5b50565b5f81359050613ccb81613ca7565b92915050565b5f60208284031215613ce657613ce5613bdf565b5b5f613cf384828501613cbd565b91505092915050565b5f604082019050613d0f5f830185613b7d565b613d1c6020830184613b7d565b9392505050565b5f5ffd5b5f601f19601f8301169050919050565b7f4e487b71000000000000000000000000000000000000000000000000000000005f52604160045260245ffd5b613d6d82613d27565b810181811067ffffffffffffffff82111715613d8c57613d8b613d37565b5b80604052505050565b5f613d9e613bd6565b9050613daa8282613d64565b919050565b5f67ffffffffffffffff821115613dc957613dc8613d37565b5b602082029050602081019050919050565b5f5ffd5b5f613df0613deb84613daf565b613d95565b90508083825260208201905060208402830185811115613e1357613e12613dda565b5b835b81811015613e3c5780613e288882613bfd565b845260208401935050602081019050613e15565b5050509392505050565b5f82601f830112613e5a57613e59613d23565b5b8135613e6a848260208601613dde565b91505092915050565b5f5f60408385031215613e8957613e88613bdf565b5b5f613e9685828601613bfd565b925050602083013567ffffffffffffffff811115613eb757613eb6613be3565b5b613ec385828601613e46565b9150509250929050565b5f60208284031215613ee257613ee1613bdf565b5b5f613eef84828501613bfd565b91505092915050565b5f63ffffffff82169050919050565b613f1081613ef8565b82525050565b5f602082019050613f295f830184613f07565b92915050565b5f8115159050919050565b613f4381613f2f565b82525050565b5f602082019050613f5c5f830184613f3a565b92915050565b5f61ffff82169050919050565b613f7881613f62565b82525050565b5f602082019050613f915f830184613f6f565b92915050565b5f81519050919050565b5f82825260208201905092915050565b5f819050602082019050919050565b613fc981613c6e565b82525050565b5f613fda8383613fc0565b60208301905092915050565b5f602082019050919050565b5f613ffc82613f97565b6140068185613fa1565b935061401183613fb1565b805f5b838110156140415781516140288882613fcf565b975061403383613fe6565b925050600181019050614014565b5085935050505092915050565b5f6020820190508181035f8301526140668184613ff2565b905092915050565b5f5f5f5f5f60a0868803121561408757614086613bdf565b5b5f61409488828901613bfd565b95505060206140a588828901613bfd565b94505060406140b688828901613bfd565b93505060606140c788828901613bfd565b92505060806140d888828901613bfd565b9150509295509295909350565b5f819050919050565b5f6141086141036140fe84613c4f565b6140e5565b613c4f565b9050919050565b5f614119826140ee565b9050919050565b5f61412a8261410f565b9050919050565b61413a81614120565b82525050565b5f6020820190506141535f830184614131565b92915050565b5f5f5f606084860312156141705761416f613bdf565b5b5f61417d86828701613cbd565b935050602061418e86828701613cbd565b925050604061419f86828701613cbd565b9150509250925092565b5f60c0820190506141bc5f830189613b7d565b6141c96020830188613b7d565b6141d66040830187613b7d565b6141e36060830186613b7d565b6141f06080830185613f3a565b6141fd60a0830184613f3a565b979650505050505050565b5f67ffffffffffffffff82169050919050565b61422481614208565b82525050565b5f60208201905061423d5f83018461421b565b92915050565b7f50617573656400000000000000000000000000000000000000000000000000005f82015250565b5f614277600683613a9c565b915061428282614243565b602082019050919050565b5f6020820190508181035f8301526142a48161426b565b9050919050565b7f6e6f2072657175657374000000000000000000000000000000000000000000005f82015250565b5f6142df600a83613a9c565b91506142ea826142ab565b602082019050919050565b5f6020820190508181035f83015261430c816142d3565b9050919050565b7f616c72656164792066756c66696c6c65640000000000000000000000000000005f82015250565b5f614347601183613a9c565b915061435282614313565b602082019050919050565b5f6020820190508181035f8301526143748161433b565b9050919050565b7f746f6f206561726c7920666f722066616c6c6261636b000000000000000000005f82015250565b5f6143af601683613a9c565b91506143ba8261437b565b602082019050919050565b5f6020820190508181035f8301526143dc816143a3565b9050919050565b5f6143ed82613b14565b91506143f883613b14565b92508282039050818111156144105761440f613b1d565b5b92915050565b7f6e6f20726f756e647320746f20636c61696d00000000000000000000000000005f82015250565b5f61444a601283613a9c565b915061445582614416565b602082019050919050565b5f6020820190508181035f8301526144778161443e565b9050919050565b7f6e6f2072657761726473000000000000000000000000000000000000000000005f82015250565b5f6144b2600a83613a9c565b91506144bd8261447e565b602082019050919050565b5f6020820190508181035f8301526144df816144a6565b9050919050565b5f6040820190506144f95f830185613c7f565b6145066020830184613c7f565b9392505050565b7f6d696e20363073000000000000000000000000000000000000000000000000005f82015250565b5f614541600783613a9c565b915061454c8261450d565b602082019050919050565b5f6020820190508181035f83015261456e81614535565b9050919050565b7f4f6e6c79206b65657065720000000000000000000000000000000000000000005f82015250565b5f6145a9600b83613a9c565b91506145b482614575565b602082019050919050565b5f6020820190508181035f8301526145d68161459d565b9050919050565b7f6761756e746c6574206e6f7420616374697665000000000000000000000000005f82015250565b5f614611601383613a9c565b915061461c826145dd565b602082019050919050565b5f6020820190508181035f83015261463e81614605565b9050919050565b7f6e6f7420656e6f756768207061727469636970616e74730000000000000000005f82015250565b5f614679601783613a9c565b915061468482614645565b602082019050919050565b5f6020820190508181035f8301526146a68161466d565b9050919050565b7f726f756e64206e6f7420726561647900000000000000000000000000000000005f82015250565b5f6146e1600f83613a9c565b91506146ec826146ad565b602082019050919050565b5f6020820190508181035f83015261470e816146d5565b9050919050565b7f72616e646f6d6e657373206e6f742066756c66696c6c656400000000000000005f82015250565b5f614749601883613a9c565b915061475482614715565b602082019050919050565b5f6020820190508181035f8301526147768161473d565b9050919050565b7f72616e646f6d6e657373206e6f742072657175657374656400000000000000005f82015250565b5f6147b1601883613a9c565b91506147bc8261477d565b602082019050919050565b5f6020820190508181035f8301526147de816147a5565b9050919050565b7f6d7573742077616974203e3120626c6f636b20616674657220726571756573745f82015250565b5f614819602083613a9c565b9150614824826147e5565b602082019050919050565b5f6020820190508181035f8301526148468161480d565b9050919050565b7f6b65657065722063616c6c206c696d69742072656163686564000000000000005f82015250565b5f614881601983613a9c565b915061488c8261484d565b602082019050919050565b5f6020820190508181035f8301526148ae81614875565b9050919050565b5f6148bf82613b14565b91507fffffffffffffffffffffffffffffffffffffffffffffffffffffffffffffffff82036148f1576148f0613b1d565b5b600182019050919050565b5f60608201905061490f5f830186613b7d565b61491c6020830185613b7d565b6149296040830184613b7d565b949350505050565b7f4e487b71000000000000000000000000000000000000000000000000000000005f52601260045260245ffd5b5f61496882613b14565b915061497383613b14565b92508261498357614982614931565b5b828206905092915050565b7f4e487b71000000000000000000000000000000000000000000000000000000005f52603260045260245ffd5b5f6149c582613b14565b91506149d083613b14565b9250826149e0576149df614931565b5b828204905092915050565b5f6149f582613b14565b9150614a0083613b14565b9250828202614a0e81613b14565b91508282048414831517614a2557614a24613b1d565b5b5092915050565b7f62617463682073697a6520312d353030000000000000000000000000000000005f82015250565b5f614a60601083613a9c565b9150614a6b82614a2c565b602082019050919050565b5f6020820190508181035f830152614a8d81614a54565b9050919050565b7f6d7573742073756d2031303000000000000000000000000000000000000000005f82015250565b5f614ac8600c83613a9c565b9150614ad382614a94565b602082019050919050565b5f6020820190508181035f830152614af581614abc565b9050919050565b7f7072697a652070657263656e7420746f6f206c6f7700000000000000000000005f82015250565b5f614b30601583613a9c565b9150614b3b82614afc565b602082019050919050565b5f6020820190508181035f830152614b5d81614b24565b9050919050565b5f60a082019050614b775f830188613b7d565b614b846020830187613b7d565b614b916040830186613b7d565b614b9e6060830185613b7d565b614bab6080830184613b7d565b9695505050505050565b7f616c7265616479206163746976650000000000000000000000000000000000005f82015250565b5f614be9600e83613a9c565b9150614bf482614bb5565b602082019050919050565b5f6020820190508181035f830152614c1681614bdd565b9050919050565b7f7374616b696e67206e6f742061637469766500000000000000000000000000005f82015250565b5f614c51601283613a9c565b9150614c5c82614c1d565b602082019050919050565b5f6020820190508181035f830152614c7e81614c45565b9050919050565b7f6e656564203e31207061727469636970616e74730000000000000000000000005f82015250565b5f614cb9601483613a9c565b9150614cc482614c85565b602082019050919050565b5f6020820190508181035f830152614ce681614cad565b9050919050565b7f7a65726f206164647265737300000000000000000000000000000000000000005f82015250565b5f614d21600c83613a9c565b9150614d2c82614ced565b602082019050919050565b5f6020820190508181035f830152614d4e81614d15565b9050919050565b7f7a65726f206164647265737365730000000000000000000000000000000000005f82015250565b5f614d89600e83613a9c565b9150614d9482614d55565b602082019050919050565b5f6020820190508181035f830152614db681614d7d565b9050919050565b5f606082019050614dd05f830186613c7f565b614ddd6020830185613c7f565b614dea6040830184613c7f565b949350505050565b7f7374616b696e6720636c6f7365640000000000000000000000000000000000005f82015250565b5f614e26600e83613a9c565b9150614e3182614df2565b602082019050919050565b5f6020820190508181035f830152614e5381614e1a565b9050919050565b7f7a65726f20616d6f756e740000000000000000000000000000000000000000005f82015250565b5f614e8e600b83613a9c565b9150614e9982614e5a565b602082019050919050565b5f6020820190508181035f830152614ebb81614e82565b9050919050565b5f81519050614ed081613be7565b92915050565b5f60208284031215614eeb57614eea613bdf565b5b5f614ef884828501614ec2565b91505092915050565b7f696e73756666696369656e7420726563656976656400000000000000000000005f82015250565b5f614f35601583613a9c565b9150614f4082614f01565b602082019050919050565b5f6020820190508181035f830152614f6281614f29565b9050919050565b7f616c7265616479207265717565737465640000000000000000000000000000005f82015250565b5f614f9d601183613a9c565b9150614fa882614f69565b602082019050919050565b5f6020820190508181035f830152614fca81614f91565b9050919050565b5f819050919050565b5f614ff4614fef614fea84614fd1565b6140e5565b613ef8565b9050919050565b61500481614fda565b82525050565b5f60a08201905061501d5f830188613bae565b61502a602083018761421b565b6150376040830186613f6f565b6150446060830185613f07565b6150516080830184614ffb565b9695505050505050565b7f65786365656473207265736572766500000000000000000000000000000000005f82015250565b5f61508f600f83613a9c565b915061509a8261505b565b602082019050919050565b5f6020820190508181035f8301526150bc81615083565b9050919050565b7f6d61783e300000000000000000000000000000000000000000000000000000005f82015250565b5f6150f7600583613a9c565b9150615102826150c3565b602082019050919050565b5f6020820190508181035f830152615124816150eb565b9050919050565b7f5265656e7472616e637947756172643a207265656e7472616e742063616c6c005f82015250565b5f61515f601f83613a9c565b915061516a8261512b565b602082019050919050565b5f6020820190508181035f83015261518c81615153565b9050919050565b5f6040820190506151a65f830185613c7f565b6151b36020830184613b7d565b9392505050565b7f756e6b6e6f776e207265717565737400000000000000000000000000000000005f82015250565b5f6151ee600f83613a9c565b91506151f9826151ba565b602082019050919050565b5f6020820190508181035f83015261521b816151e2565b9050919050565b7f4e487b71000000000000000000000000000000000000000000000000000000005f52603160045260245ffd5b5f6060820190506152625f830186613c7f565b61526f6020830185613c7f565b61527c6040830184613b7d565b94935050505056fea264697066735822122030e6b89d5c172aa74a0c0270faebc30cdc2f76de67179b909a7d9002bec9ba6f64736f6c634300081e0033",
			"opcodes": "PUSH1 0xC0 PUSH1 0x40 MSTORE PUSH1 0x5 PUSH1 0xB SSTORE PUSH1 0x5 PUSH1 0xC SSTORE PUSH1 0xA PUSH1 0xD SSTORE PUSH1 0x1E PUSH1 0xE SSTORE PUSH1 0x32 PUSH1 0xF SSTORE PUSH1 0x64 PUSH1 0x15 SSTORE PUSH0 PUSH1 0x16 SSTORE PUSH7 0x2386F26FC10000 PUSH1 0x18 SSTORE PUSH1 0x32 PUSH1 0x1A SSTORE PUSH3 0x30D40 PUSH1 0x1E PUSH0 PUSH2 0x100 EXP DUP2 SLOAD DUP2 PUSH4 0xFFFFFFFF MUL NOT AND SWAP1 DUP4 PUSH4 0xFFFFFFFF AND MUL OR SWAP1 SSTORE POP PUSH1 0x3 PUSH1 0x1E PUSH1 0x4 PUSH2 0x100 EXP DUP2 SLOAD DUP2 PUSH2 0xFFFF MUL NOT AND SWAP1 DUP4 PUSH2 0xFFFF AND MUL OR SWAP1 SSTORE POP CALLVALUE DUP1 ISZERO PUSH2 0x82 JUMPI PUSH0 PUSH0 REVERT JUMPDEST POP PUSH1 0x40 MLOAD PUSH2 0x5C21 CODESIZE SUB DUP1 PUSH2 0x5C21 DUP4 CODECOPY DUP2 DUP2 ADD PUSH1 0x40 MSTORE DUP2 ADD SWAP1 PUSH2 0xA4 SWAP2 SWAP1 PUSH2 0x6D3 JUMP JUMPDEST DUP5 CALLER PUSH0 PUSH20 0xFFFFFFFFFFFFFFFFFFFFFFFFFFFFFFFFFFFFFFFF AND DUP2 PUSH20 0xFFFFFFFFFFFFFFFFFFFFFFFFFFFFFFFFFFFFFFFF AND SUB PUSH2 0x116 JUMPI PUSH0 PUSH1 0x40 MLOAD PUSH32 0x1E4FBDF700000000000000000000000000000000000000000000000000000000 DUP2 MSTORE PUSH1 0x4 ADD PUSH2 0x10D SWAP2 SWAP1 PUSH2 0x7A6 JUMP JUMPDEST PUSH1 0x40 MLOAD DUP1 SWAP2 SUB SWAP1 REVERT JUMPDEST PUSH2 0x125 DUP2 PUSH2 0x4D6 PUSH1 0x20 SHL PUSH1 0x20 SHR JUMP JUMPDEST POP PUSH1 0x1 DUP1 DUP2 SWAP1 SSTORE POP DUP1 PUSH20 0xFFFFFFFFFFFFFFFFFFFFFFFFFFFFFFFFFFFFFFFF AND PUSH1 0x80 DUP2 PUSH20 0xFFFFFFFFFFFFFFFFFFFFFFFFFFFFFFFFFFFFFFFF AND DUP2 MSTORE POP POP POP PUSH0 PUSH20 0xFFFFFFFFFFFFFFFFFFFFFFFFFFFFFFFFFFFFFFFF AND DUP10 PUSH20 0xFFFFFFFFFFFFFFFFFFFFFFFFFFFFFFFFFFFFFFFF AND SUB PUSH2 0x1D0 JUMPI PUSH1 0x40 MLOAD PUSH32 0x8C379A000000000000000000000000000000000000000000000000000000000 DUP2 MSTORE PUSH1 0x4 ADD PUSH2 0x1C7 SWAP1 PUSH2 0x819 JUMP JUMPDEST PUSH1 0x40 MLOAD DUP1 SWAP2 SUB SWAP1 REVERT JUMPDEST PUSH0 PUSH20 0xFFFFFFFFFFFFFFFFFFFFFFFFFFFFFFFFFFFFFFFF AND DUP9 PUSH20 0xFFFFFFFFFFFFFFFFFFFFFFFFFFFFFFFFFFFFFFFF AND EQ ISZERO DUP1 ISZERO PUSH2 0x238 JUMPI POP PUSH0 PUSH20 0xFFFFFFFFFFFFFFFFFFFFFFFFFFFFFFFFFFFFFFFF AND DUP8 PUSH20 0xFFFFFFFFFFFFFFFFFFFFFFFFFFFFFFFFFFFFFFFF AND EQ ISZERO JUMPDEST DUP1 ISZERO PUSH2 0x270 JUMPI POP PUSH0 PUSH20 0xFFFFFFFFFFFFFFFFFFFFFFFFFFFFFFFFFFFFFFFF AND DUP7 PUSH20 0xFFFFFFFFFFFFFFFFFFFFFFFFFFFFFFFFFFFFFFFF AND EQ ISZERO JUMPDEST PUSH2 0x2AF JUMPI PUSH1 0x40 MLOAD PUSH32 0x8C379A000000000000000000000000000000000000000000000000000000000 DUP2 MSTORE PUSH1 0x4 ADD PUSH2 0x2A6 SWAP1 PUSH2 0x881 JUMP JUMPDEST PUSH1 0x40 MLOAD DUP1 SWAP2 SUB SWAP1 REVERT JUMPDEST PUSH0 PUSH20 0xFFFFFFFFFFFFFFFFFFFFFFFFFFFFFFFFFFFFFFFF AND DUP3 PUSH20 0xFFFFFFFFFFFFFFFFFFFFFFFFFFFFFFFFFFFFFFFF AND SUB PUSH2 0x31D JUMPI PUSH1 0x40 MLOAD PUSH32 0x8C379A000000000000000000000000000000000000000000000000000000000 DUP2 MSTORE PUSH1 0x4 ADD PUSH2 0x314 SWAP1 PUSH2 0x8E9 JUMP JUMPDEST PUSH1 0x40 MLOAD DUP1 SWAP2 SUB SWAP1 REVERT JUMPDEST DUP9 PUSH20 0xFFFFFFFFFFFFFFFFFFFFFFFFFFFFFFFFFFFFFFFF AND PUSH1 0xA0 DUP2 PUSH20 0xFFFFFFFFFFFFFFFFFFFFFFFFFFFFFFFFFFFFFFFF AND DUP2 MSTORE POP POP DUP8 PUSH1 0x12 PUSH0 PUSH2 0x100 EXP DUP2 SLOAD DUP2 PUSH20 0xFFFFFFFFFFFFFFFFFFFFFFFFFFFFFFFFFFFFFFFF MUL NOT AND SWAP1 DUP4 PUSH20 0xFFFFFFFFFFFFFFFFFFFFFFFFFFFFFFFFFFFFFFFF AND MUL OR SWAP1 SSTORE POP DUP7 PUSH1 0x13 PUSH0 PUSH2 0x100 EXP DUP2 SLOAD DUP2 PUSH20 0xFFFFFFFFFFFFFFFFFFFFFFFFFFFFFFFFFFFFFFFF MUL NOT AND SWAP1 DUP4 PUSH20 0xFFFFFFFFFFFFFFFFFFFFFFFFFFFFFFFFFFFFFFFF AND MUL OR SWAP1 SSTORE POP DUP6 PUSH1 0x14 PUSH0 PUSH2 0x100 EXP DUP2 SLOAD DUP2 PUSH20 0xFFFFFFFFFFFFFFFFFFFFFFFFFFFFFFFFFFFFFFFF MUL NOT AND SWAP1 DUP4 PUSH20 0xFFFFFFFFFFFFFFFFFFFFFFFFFFFFFFFFFFFFFFFF AND MUL OR SWAP1 SSTORE POP DUP5 PUSH1 0x1C PUSH0 PUSH2 0x100 EXP DUP2 SLOAD DUP2 PUSH20 0xFFFFFFFFFFFFFFFFFFFFFFFFFFFFFFFFFFFFFFFF MUL NOT AND SWAP1 DUP4 PUSH20 0xFFFFFFFFFFFFFFFFFFFFFFFFFFFFFFFFFFFFFFFF AND MUL OR SWAP1 SSTORE POP DUP4 PUSH1 0x1C PUSH1 0x14 PUSH2 0x100 EXP DUP2 SLOAD DUP2 PUSH8 0xFFFFFFFFFFFFFFFF MUL NOT AND SWAP1 DUP4 PUSH8 0xFFFFFFFFFFFFFFFF AND MUL OR SWAP1 SSTORE POP DUP3 PUSH1 0x1D DUP2 SWAP1 SSTORE POP DUP2 PUSH1 0x17 PUSH0 PUSH2 0x100 EXP DUP2 SLOAD DUP2 PUSH20 0xFFFFFFFFFFFFFFFFFFFFFFFFFFFFFFFFFFFFFFFF MUL NOT AND SWAP1 DUP4 PUSH20 0xFFFFFFFFFFFFFFFFFFFFFFFFFFFFFFFFFFFFFFFF AND MUL OR SWAP1 SSTORE POP DUP1 PUSH1 0x4 DUP2 SWAP1 SSTORE POP POP POP POP POP POP POP POP POP POP PUSH2 0x907 JUMP JUMPDEST PUSH0 PUSH0 PUSH0 SWAP1 SLOAD SWAP1 PUSH2 0x100 EXP SWAP1 DIV PUSH20 0xFFFFFFFFFFFFFFFFFFFFFFFFFFFFFFFFFFFFFFFF AND SWAP1 POP DUP2 PUSH0 PUSH0 PUSH2 0x100 EXP DUP2 SLOAD DUP2 PUSH20 0xFFFFFFFFFFFFFFFFFFFFFFFFFFFFFFFFFFFFFFFF MUL NOT AND SWAP1 DUP4 PUSH20 0xFFFFFFFFFFFFFFFFFFFFFFFFFFFFFFFFFFFFFFFF AND MUL OR SWAP1 SSTORE POP DUP2 PUSH20 0xFFFFFFFFFFFFFFFFFFFFFFFFFFFFFFFFFFFFFFFF AND DUP2 PUSH20 0xFFFFFFFFFFFFFFFFFFFFFFFFFFFFFFFFFFFFFFFF AND PUSH32 0x8BE0079C531659141344CD1FD0A4F28419497F9722A3DAAFE3B4186F6B6457E0 PUSH1 0x40 MLOAD PUSH1 0x40 MLOAD DUP1 SWAP2 SUB SWAP1 LOG3 POP POP JUMP JUMPDEST PUSH0 PUSH0 REVERT JUMPDEST PUSH0 PUSH20 0xFFFFFFFFFFFFFFFFFFFFFFFFFFFFFFFFFFFFFFFF DUP3 AND SWAP1 POP SWAP2 SWAP1 POP JUMP JUMPDEST PUSH0 PUSH2 0x5C4 DUP3 PUSH2 0x59B JUMP JUMPDEST SWAP1 POP SWAP2 SWAP1 POP JUMP JUMPDEST PUSH0 PUSH2 0x5D5 DUP3 PUSH2 0x5BA JUMP JUMPDEST SWAP1 POP SWAP2 SWAP1 POP JUMP JUMPDEST PUSH2 0x5E5 DUP2 PUSH2 0x5CB JUMP JUMPDEST DUP2 EQ PUSH2 0x5EF JUMPI PUSH0 PUSH0 REVERT JUMPDEST POP JUMP JUMPDEST PUSH0 DUP2 MLOAD SWAP1 POP PUSH2 0x600 DUP2 PUSH2 0x5DC JUMP JUMPDEST SWAP3 SWAP2 POP POP JUMP JUMPDEST PUSH2 0x60F DUP2 PUSH2 0x5BA JUMP JUMPDEST DUP2 EQ PUSH2 0x619 JUMPI PUSH0 PUSH0 REVERT JUMPDEST POP JUMP JUMPDEST PUSH0 DUP2 MLOAD SWAP1 POP PUSH2 0x62A DUP2 PUSH2 0x606 JUMP JUMPDEST SWAP3 SWAP2 POP POP JUMP JUMPDEST PUSH0 PUSH8 0xFFFFFFFFFFFFFFFF DUP3 AND SWAP1 POP SWAP2 SWAP1 POP JUMP JUMPDEST PUSH2 0x64C DUP2 PUSH2 0x630 JUMP JUMPDEST DUP2 EQ PUSH2 0x656 JUMPI PUSH0 PUSH0 REVERT JUMPDEST POP JUMP JUMPDEST PUSH0 DUP2 MLOAD SWAP1 POP PUSH2 0x667 DUP2 PUSH2 0x643 JUMP JUMPDEST SWAP3 SWAP2 POP POP JUMP JUMPDEST PUSH0 DUP2 SWAP1 POP SWAP2 SWAP1 POP JUMP JUMPDEST PUSH2 0x67F DUP2 PUSH2 0x66D JUMP JUMPDEST DUP2 EQ PUSH2 0x689 JUMPI PUSH0 PUSH0 REVERT JUMPDEST POP JUMP JUMPDEST PUSH0 DUP2 MLOAD SWAP1 POP PUSH2 0x69A DUP2 PUSH2 0x676 JUMP JUMPDEST SWAP3 SWAP2 POP POP JUMP JUMPDEST PUSH0 DUP2 SWAP1 POP SWAP2 SWAP1 POP JUMP JUMPDEST PUSH2 0x6B2 DUP2 PUSH2 0x6A0 JUMP JUMPDEST DUP2 EQ PUSH2 0x6BC JUMPI PUSH0 PUSH0 REVERT JUMPDEST POP JUMP JUMPDEST PUSH0 DUP2 MLOAD SWAP1 POP PUSH2 0x6CD DUP2 PUSH2 0x6A9 JUMP JUMPDEST SWAP3 SWAP2 POP POP JUMP JUMPDEST PUSH0 PUSH0 PUSH0 PUSH0 PUSH0 PUSH0 PUSH0 PUSH0 PUSH0 PUSH2 0x120 DUP11 DUP13 SUB SLT ISZERO PUSH2 0x6F1 JUMPI PUSH2 0x6F0 PUSH2 0x597 JUMP JUMPDEST JUMPDEST PUSH0 PUSH2 0x6FE DUP13 DUP3 DUP14 ADD PUSH2 0x5F2 JUMP JUMPDEST SWAP10 POP POP PUSH1 0x20 PUSH2 0x70F DUP13 DUP3 DUP14 ADD PUSH2 0x61C JUMP JUMPDEST SWAP9 POP POP PUSH1 0x40 PUSH2 0x720 DUP13 DUP3 DUP14 ADD PUSH2 0x61C JUMP JUMPDEST SWAP8 POP POP PUSH1 0x60 PUSH2 0x731 DUP13 DUP3 DUP14 ADD PUSH2 0x61C JUMP JUMPDEST SWAP7 POP POP PUSH1 0x80 PUSH2 0x742 DUP13 DUP3 DUP14 ADD PUSH2 0x61C JUMP JUMPDEST SWAP6 POP POP PUSH1 0xA0 PUSH2 0x753 DUP13 DUP3 DUP14 ADD PUSH2 0x659 JUMP JUMPDEST SWAP5 POP POP PUSH1 0xC0 PUSH2 0x764 DUP13 DUP3 DUP14 ADD PUSH2 0x68C JUMP JUMPDEST SWAP4 POP POP PUSH1 0xE0 PUSH2 0x775 DUP13 DUP3 DUP14 ADD PUSH2 0x61C JUMP JUMPDEST SWAP3 POP POP PUSH2 0x100 PUSH2 0x787 DUP13 DUP3 DUP14 ADD PUSH2 0x6BF JUMP JUMPDEST SWAP2 POP POP SWAP3 SWAP6 SWAP9 POP SWAP3 SWAP6 SWAP9 POP SWAP3 SWAP6 SWAP9 JUMP JUMPDEST PUSH2 0x7A0 DUP2 PUSH2 0x5BA JUMP JUMPDEST DUP3 MSTORE POP POP JUMP JUMPDEST PUSH0 PUSH1 0x20 DUP3 ADD SWAP1 POP PUSH2 0x7B9 PUSH0 DUP4 ADD DUP5 PUSH2 0x797 JUMP JUMPDEST SWAP3 SWAP2 POP POP JUMP JUMPDEST PUSH0 DUP3 DUP3 MSTORE PUSH1 0x20 DUP3 ADD SWAP1 POP SWAP3 SWAP2 POP POP JUMP JUMPDEST PUSH32 0x7A65726F20746F6B656E00000000000000000000000000000000000000000000 PUSH0 DUP3 ADD MSTORE POP JUMP JUMPDEST PUSH0 PUSH2 0x803 PUSH1 0xA DUP4 PUSH2 0x7BF JUMP JUMPDEST SWAP2 POP PUSH2 0x80E DUP3 PUSH2 0x7CF JUMP JUMPDEST PUSH1 0x20 DUP3 ADD SWAP1 POP SWAP2 SWAP1 POP JUMP JUMPDEST PUSH0 PUSH1 0x20 DUP3 ADD SWAP1 POP DUP2 DUP2 SUB PUSH0 DUP4 ADD MSTORE PUSH2 0x830 DUP2 PUSH2 0x7F7 JUMP JUMPDEST SWAP1 POP SWAP2 SWAP1 POP JUMP JUMPDEST PUSH32 0x7A65726F2077616C6C6574730000000000000000000000000000000000000000 PUSH0 DUP3 ADD MSTORE POP JUMP JUMPDEST PUSH0 PUSH2 0x86B PUSH1 0xC DUP4 PUSH2 0x7BF JUMP JUMPDEST SWAP2 POP PUSH2 0x876 DUP3 PUSH2 0x837 JUMP JUMPDEST PUSH1 0x20 DUP3 ADD SWAP1 POP SWAP2 SWAP1 POP JUMP JUMPDEST PUSH0 PUSH1 0x20 DUP3 ADD SWAP1 POP DUP2 DUP2 SUB PUSH0 DUP4 ADD MSTORE PUSH2 0x898 DUP2 PUSH2 0x85F JUMP JUMPDEST SWAP1 POP SWAP2 SWAP1 POP JUMP JUMPDEST PUSH32 0x7A65726F206B6565706572000000000000000000000000000000000000000000 PUSH0 DUP3 ADD MSTORE POP JUMP JUMPDEST PUSH0 PUSH2 0x8D3 PUSH1 0xB DUP4 PUSH2 0x7BF JUMP JUMPDEST SWAP2 POP PUSH2 0x8DE DUP3 PUSH2 0x89F JUMP JUMPDEST PUSH1 0x20 DUP3 ADD SWAP1 POP SWAP2 SWAP1 POP JUMP JUMPDEST PUSH0 PUSH1 0x20 DUP3 ADD SWAP1 POP DUP2 DUP2 SUB PUSH0 DUP4 ADD MSTORE PUSH2 0x900 DUP2 PUSH2 0x8C7 JUMP JUMPDEST SWAP1 POP SWAP2 SWAP1 POP JUMP JUMPDEST PUSH1 0x80 MLOAD PUSH1 0xA0 MLOAD PUSH2 0x52BA PUSH2 0x967 PUSH0 CODECOPY PUSH0 DUP2 DUP2 PUSH2 0x11AC ADD MSTORE DUP2 DUP2 PUSH2 0x1C6C ADD MSTORE DUP2 DUP2 PUSH2 0x22E8 ADD MSTORE DUP2 DUP2 PUSH2 0x26D8 ADD MSTORE DUP2 DUP2 PUSH2 0x2778 ADD MSTORE DUP2 DUP2 PUSH2 0x27C1 ADD MSTORE DUP2 DUP2 PUSH2 0x372B ADD MSTORE DUP2 DUP2 PUSH2 0x37A0 ADD MSTORE PUSH2 0x3815 ADD MSTORE PUSH0 DUP2 DUP2 PUSH2 0x124D ADD MSTORE PUSH2 0x12A1 ADD MSTORE PUSH2 0x52BA PUSH0 RETURN INVALID PUSH1 0x80 PUSH1 0x40 MSTORE PUSH1 0x4 CALLDATASIZE LT PUSH2 0x384 JUMPI PUSH0 CALLDATALOAD PUSH1 0xE0 SHR DUP1 PUSH4 0x75CB1BD1 GT PUSH2 0x1D0 JUMPI DUP1 PUSH4 0xAB0FC1A2 GT PUSH2 0x101 JUMPI DUP1 PUSH4 0xDF242D7D GT PUSH2 0x9F JUMPI DUP1 PUSH4 0xF2FDE38B GT PUSH2 0x6E JUMPI DUP1 PUSH4 0xF2FDE38B EQ PUSH2 0xCD5 JUMPI DUP1 PUSH4 0xF4DAABA1 EQ PUSH2 0xCFD JUMPI DUP1 PUSH4 0xF7CB789A EQ PUSH2 0xD27 JUMPI DUP1 PUSH4 0xFC3C28AF EQ PUSH2 0xD51 JUMPI PUSH2 0x433 JUMP JUMPDEST DUP1 PUSH4 0xDF242D7D EQ PUSH2 0xC1B JUMPI DUP1 PUSH4 0xE091A297 EQ PUSH2 0xC57 JUMPI DUP1 PUSH4 0xE712C298 EQ PUSH2 0xC81 JUMPI DUP1 PUSH4 0xED647D21 EQ PUSH2 0xCAB JUMPI PUSH2 0x433 JUMP JUMPDEST DUP1 PUSH4 0xCF00D4B9 GT PUSH2 0xDB JUMPI DUP1 PUSH4 0xCF00D4B9 EQ PUSH2 0xB61 JUMPI DUP1 PUSH4 0xD5AA06FA EQ PUSH2 0xB8B JUMPI DUP1 PUSH4 0xDD4F8F74 EQ PUSH2 0xBC7 JUMPI DUP1 PUSH4 0xDD60C898 EQ PUSH2 0xBF1 JUMPI PUSH2 0x433 JUMP JUMPDEST DUP1 PUSH4 0xAB0FC1A2 EQ PUSH2 0xAE3 JUMPI DUP1 PUSH4 0xACED1661 EQ PUSH2 0xB0D JUMPI DUP1 PUSH4 0xBF380631 EQ PUSH2 0xB37 JUMPI PUSH2 0x433 JUMP JUMPDEST DUP1 PUSH4 0x8A19C8BC GT PUSH2 0x16E JUMPI DUP1 PUSH4 0x8DA5CB5B GT PUSH2 0x148 JUMPI DUP1 PUSH4 0x8DA5CB5B EQ PUSH2 0xA3D JUMPI DUP1 PUSH4 0x8EA5220F EQ PUSH2 0xA67 JUMPI DUP1 PUSH4 0x9E1ADA04 EQ PUSH2 0xA91 JUMPI DUP1 PUSH4 0xA6AC4B35 EQ PUSH2 0xAB9 JUMPI PUSH2 0x433 JUMP JUMPDEST DUP1 PUSH4 0x8A19C8BC EQ PUSH2 0x9AA JUMPI DUP1 PUSH4 0x8C178E42 EQ PUSH2 0x9D4 JUMPI DUP1 PUSH4 0x8C65C81F EQ PUSH2 0x9FC JUMPI PUSH2 0x433 JUMP JUMPDEST DUP1 PUSH4 0x82DDBB30 GT PUSH2 0x1AA JUMPI DUP1 PUSH4 0x82DDBB30 EQ PUSH2 0x926 JUMPI DUP1 PUSH4 0x8456CB59 EQ PUSH2 0x930 JUMPI DUP1 PUSH4 0x87B18A52 EQ PUSH2 0x946 JUMPI DUP1 PUSH4 0x89294346 EQ PUSH2 0x982 JUMPI PUSH2 0x433 JUMP JUMPDEST DUP1 PUSH4 0x75CB1BD1 EQ PUSH2 0x8AC JUMPI DUP1 PUSH4 0x7B0472F0 EQ PUSH2 0x8D4 JUMPI DUP1 PUSH4 0x7FD7F412 EQ PUSH2 0x8FC JUMPI PUSH2 0x433 JUMP JUMPDEST DUP1 PUSH4 0x3F4BA83A GT PUSH2 0x2B5 JUMPI DUP1 PUSH4 0x62581733 GT PUSH2 0x253 JUMPI DUP1 PUSH4 0x719A59D8 GT PUSH2 0x222 JUMPI DUP1 PUSH4 0x719A59D8 EQ PUSH2 0x806 JUMPI DUP1 PUSH4 0x719CE73E EQ PUSH2 0x830 JUMPI DUP1 PUSH4 0x72F702F3 EQ PUSH2 0x85A JUMPI DUP1 PUSH4 0x748747E6 EQ PUSH2 0x884 JUMPI PUSH2 0x433 JUMP JUMPDEST DUP1 PUSH4 0x62581733 EQ PUSH2 0x79A JUMPI DUP1 PUSH4 0x6303516C EQ PUSH2 0x7B0 JUMPI DUP1 PUSH4 0x656FE8EF EQ PUSH2 0x7DA JUMPI DUP1 PUSH4 0x715018A6 EQ PUSH2 0x7F0 JUMPI PUSH2 0x433 JUMP JUMPDEST DUP1 PUSH4 0x598BC486 GT PUSH2 0x28F JUMPI DUP1 PUSH4 0x598BC486 EQ PUSH2 0x6F4 JUMPI DUP1 PUSH4 0x5AA68AC0 EQ PUSH2 0x71E JUMPI DUP1 PUSH4 0x5C975ABB EQ PUSH2 0x748 JUMPI DUP1 PUSH4 0x5E38CA70 EQ PUSH2 0x772 JUMPI PUSH2 0x433 JUMP JUMPDEST DUP1 PUSH4 0x3F4BA83A EQ PUSH2 0x68C JUMPI DUP1 PUSH4 0x461DBDA0 EQ PUSH2 0x6A2 JUMPI DUP1 PUSH4 0x576F35E3 EQ PUSH2 0x6CC JUMPI PUSH2 0x433 JUMP JUMPDEST DUP1 PUSH4 0x1FE543E3 GT PUSH2 0x322 JUMPI DUP1 PUSH4 0x32D368CE GT PUSH2 0x2FC JUMPI DUP1 PUSH4 0x32D368CE EQ PUSH2 0x5FA JUMPI DUP1 PUSH4 0x36C92C3F EQ PUSH2 0x624 JUMPI DUP1 PUSH4 0x39D98723 EQ PUSH2 0x64C JUMPI DUP1 PUSH4 0x3B7ED734 EQ PUSH2 0x662 JUMPI PUSH2 0x433 JUMP JUMPDEST DUP1 PUSH4 0x1FE543E3 EQ PUSH2 0x56C JUMPI DUP1 PUSH4 0x259B8AF7 EQ PUSH2 0x594 JUMPI DUP1 PUSH4 0x3243FB89 EQ PUSH2 0x5BE JUMPI PUSH2 0x433 JUMP JUMPDEST DUP1 PUSH4 0x6228749 GT PUSH2 0x35E JUMPI DUP1 PUSH4 0x6228749 EQ PUSH2 0x4B3 JUMPI DUP1 PUSH4 0x83B9137 EQ PUSH2 0x4DD JUMPI DUP1 PUSH4 0xE135AA1 EQ PUSH2 0x519 JUMPI DUP1 PUSH4 0xF4863F7 EQ PUSH2 0x556 JUMPI PUSH2 0x433 JUMP JUMPDEST DUP1 PUSH4 0x3807EE5 EQ PUSH2 0x437 JUMPI DUP1 PUSH4 0x41D443E EQ PUSH2 0x461 JUMPI DUP1 PUSH4 0x4AB9F03 EQ PUSH2 0x48B JUMPI PUSH2 0x433 JUMP JUMPDEST CALLDATASIZE PUSH2 0x433 JUMPI PUSH0 CALLVALUE GT PUSH2 0x3CB JUMPI PUSH1 0x40 MLOAD PUSH32 0x8C379A000000000000000000000000000000000000000000000000000000000 DUP2 MSTORE PUSH1 0x4 ADD PUSH2 0x3C2 SWAP1 PUSH2 0x3AF6 JUMP JUMPDEST PUSH1 0x40 MLOAD DUP1 SWAP2 SUB SWAP1 REVERT JUMPDEST CALLVALUE PUSH1 0x19 PUSH0 DUP3 DUP3 SLOAD PUSH2 0x3DC SWAP2 SWAP1 PUSH2 0x3B4A JUMP JUMPDEST SWAP3 POP POP DUP2 SWAP1 SSTORE POP CALLER PUSH20 0xFFFFFFFFFFFFFFFFFFFFFFFFFFFFFFFFFFFFFFFF AND PUSH32 0x32FB8666FB8614C76BA83B694A0C60F4EE5699886BFE56001AA48337FBB134FF CALLVALUE PUSH1 0x40 MLOAD PUSH2 0x429 SWAP2 SWAP1 PUSH2 0x3B8C JUMP JUMPDEST PUSH1 0x40 MLOAD DUP1 SWAP2 SUB SWAP1 LOG2 STOP JUMPDEST PUSH0 PUSH0 REVERT JUMPDEST CALLVALUE DUP1 ISZERO PUSH2 0x442 JUMPI PUSH0 PUSH0 REVERT JUMPDEST POP PUSH2 0x44B PUSH2 0xD7B JUMP JUMPDEST PUSH1 0x40 MLOAD PUSH2 0x458 SWAP2 SWAP1 PUSH2 0x3B8C JUMP JUMPDEST PUSH1 0x40 MLOAD DUP1 SWAP2 SUB SWAP1 RETURN JUMPDEST CALLVALUE DUP1 ISZERO PUSH2 0x46C JUMPI PUSH0 PUSH0 REVERT JUMPDEST POP PUSH2 0x475 PUSH2 0xD81 JUMP JUMPDEST PUSH1 0x40 MLOAD PUSH2 0x482 SWAP2 SWAP1 PUSH2 0x3BBD JUMP JUMPDEST PUSH1 0x40 MLOAD DUP1 SWAP2 SUB SWAP1 RETURN JUMPDEST CALLVALUE DUP1 ISZERO PUSH2 0x496 JUMPI PUSH0 PUSH0 REVERT JUMPDEST POP PUSH2 0x4B1 PUSH1 0x4 DUP1 CALLDATASIZE SUB DUP2 ADD SWAP1 PUSH2 0x4AC SWAP2 SWAP1 PUSH2 0x3C11 JUMP JUMPDEST PUSH2 0xD87 JUMP JUMPDEST STOP JUMPDEST CALLVALUE DUP1 ISZERO PUSH2 0x4BE JUMPI PUSH0 PUSH0 REVERT JUMPDEST POP PUSH2 0x4C7 PUSH2 0xFA5 JUMP JUMPDEST PUSH1 0x40 MLOAD PUSH2 0x4D4 SWAP2 SWAP1 PUSH2 0x3C8E JUMP JUMPDEST PUSH1 0x40 MLOAD DUP1 SWAP2 SUB SWAP1 RETURN JUMPDEST CALLVALUE DUP1 ISZERO PUSH2 0x4E8 JUMPI PUSH0 PUSH0 REVERT JUMPDEST POP PUSH2 0x503 PUSH1 0x4 DUP1 CALLDATASIZE SUB DUP2 ADD SWAP1 PUSH2 0x4FE SWAP2 SWAP1 PUSH2 0x3CD1 JUMP JUMPDEST PUSH2 0xFCA JUMP JUMPDEST PUSH1 0x40 MLOAD PUSH2 0x510 SWAP2 SWAP1 PUSH2 0x3B8C JUMP JUMPDEST PUSH1 0x40 MLOAD DUP1 SWAP2 SUB SWAP1 RETURN JUMPDEST CALLVALUE DUP1 ISZERO PUSH2 0x524 JUMPI PUSH0 PUSH0 REVERT JUMPDEST POP PUSH2 0x53F PUSH1 0x4 DUP1 CALLDATASIZE SUB DUP2 ADD SWAP1 PUSH2 0x53A SWAP2 SWAP1 PUSH2 0x3CD1 JUMP JUMPDEST PUSH2 0xFDF JUMP JUMPDEST PUSH1 0x40 MLOAD PUSH2 0x54D SWAP3 SWAP2 SWAP1 PUSH2 0x3CFC JUMP JUMPDEST PUSH1 0x40 MLOAD DUP1 SWAP2 SUB SWAP1 RETURN JUMPDEST CALLVALUE DUP1 ISZERO PUSH2 0x561 JUMPI PUSH0 PUSH0 REVERT JUMPDEST POP PUSH2 0x56A PUSH2 0xFFF JUMP JUMPDEST STOP JUMPDEST CALLVALUE DUP1 ISZERO PUSH2 0x577 JUMPI PUSH0 PUSH0 REVERT JUMPDEST POP PUSH2 0x592 PUSH1 0x4 DUP1 CALLDATASIZE SUB DUP2 ADD SWAP1 PUSH2 0x58D SWAP2 SWAP1 PUSH2 0x3E73 JUMP JUMPDEST PUSH2 0x124B JUMP JUMPDEST STOP JUMPDEST CALLVALUE DUP1 ISZERO PUSH2 0x59F JUMPI PUSH0 PUSH0 REVERT JUMPDEST POP PUSH2 0x5A8 PUSH2 0x130B JUMP JUMPDEST PUSH1 0x40 MLOAD PUSH2 0x5B5 SWAP2 SWAP1 PUSH2 0x3B8C JUMP JUMPDEST PUSH1 0x40 MLOAD DUP1 SWAP2 SUB SWAP1 RETURN JUMPDEST CALLVALUE DUP1 ISZERO PUSH2 0x5C9 JUMPI PUSH0 PUSH0 REVERT JUMPDEST POP PUSH2 0x5E4 PUSH1 0x4 DUP1 CALLDATASIZE SUB DUP2 ADD SWAP1 PUSH2 0x5DF SWAP2 SWAP1 PUSH2 0x3ECD JUMP JUMPDEST PUSH2 0x1311 JUMP JUMPDEST PUSH1 0x40 MLOAD PUSH2 0x5F1 SWAP2 SWAP1 PUSH2 0x3B8C JUMP JUMPDEST PUSH1 0x40 MLOAD DUP1 SWAP2 SUB SWAP1 RETURN JUMPDEST CALLVALUE DUP1 ISZERO PUSH2 0x605 JUMPI PUSH0 PUSH0 REVERT JUMPDEST POP PUSH2 0x60E PUSH2 0x132B JUMP JUMPDEST PUSH1 0x40 MLOAD PUSH2 0x61B SWAP2 SWAP1 PUSH2 0x3B8C JUMP JUMPDEST PUSH1 0x40 MLOAD DUP1 SWAP2 SUB SWAP1 RETURN JUMPDEST CALLVALUE DUP1 ISZERO PUSH2 0x62F JUMPI PUSH0 PUSH0 REVERT JUMPDEST POP PUSH2 0x64A PUSH1 0x4 DUP1 CALLDATASIZE SUB DUP2 ADD SWAP1 PUSH2 0x645 SWAP2 SWAP1 PUSH2 0x3ECD JUMP JUMPDEST PUSH2 0x1331 JUMP JUMPDEST STOP JUMPDEST CALLVALUE DUP1 ISZERO PUSH2 0x657 JUMPI PUSH0 PUSH0 REVERT JUMPDEST POP PUSH2 0x660 PUSH2 0x1387 JUMP JUMPDEST STOP JUMPDEST CALLVALUE DUP1 ISZERO PUSH2 0x66D JUMPI PUSH0 PUSH0 REVERT JUMPDEST POP PUSH2 0x676 PUSH2 0x1D0F JUMP JUMPDEST PUSH1 0x40 MLOAD PUSH2 0x683 SWAP2 SWAP1 PUSH2 0x3F16 JUMP JUMPDEST PUSH1 0x40 MLOAD DUP1 SWAP2 SUB SWAP1 RETURN JUMPDEST CALLVALUE DUP1 ISZERO PUSH2 0x697 JUMPI PUSH0 PUSH0 REVERT JUMPDEST POP PUSH2 0x6A0 PUSH2 0x1D24 JUMP JUMPDEST STOP JUMPDEST CALLVALUE DUP1 ISZERO PUSH2 0x6AD JUMPI PUSH0 PUSH0 REVERT JUMPDEST POP PUSH2 0x6B6 PUSH2 0x1D8A JUMP JUMPDEST PUSH1 0x40 MLOAD PUSH2 0x6C3 SWAP2 SWAP1 PUSH2 0x3F49 JUMP JUMPDEST PUSH1 0x40 MLOAD DUP1 SWAP2 SUB SWAP1 RETURN JUMPDEST CALLVALUE DUP1 ISZERO PUSH2 0x6D7 JUMPI PUSH0 PUSH0 REVERT JUMPDEST POP PUSH2 0x6F2 PUSH1 0x4 DUP1 CALLDATASIZE SUB DUP2 ADD SWAP1 PUSH2 0x6ED SWAP2 SWAP1 PUSH2 0x3ECD JUMP JUMPDEST PUSH2 0x1D9D JUMP JUMPDEST STOP JUMPDEST CALLVALUE DUP1 ISZERO PUSH2 0x6FF JUMPI PUSH0 PUSH0 REVERT JUMPDEST POP PUSH2 0x708 PUSH2 0x1DFF JUMP JUMPDEST PUSH1 0x40 MLOAD PUSH2 0x715 SWAP2 SWAP1 PUSH2 0x3F7E JUMP JUMPDEST PUSH1 0x40 MLOAD DUP1 SWAP2 SUB SWAP1 RETURN JUMPDEST CALLVALUE DUP1 ISZERO PUSH2 0x729 JUMPI PUSH0 PUSH0 REVERT JUMPDEST POP PUSH2 0x732 PUSH2 0x1E13 JUMP JUMPDEST PUSH1 0x40 MLOAD PUSH2 0x73F SWAP2 SWAP1 PUSH2 0x404E JUMP JUMPDEST PUSH1 0x40 MLOAD DUP1 SWAP2 SUB SWAP1 RETURN JUMPDEST CALLVALUE DUP1 ISZERO PUSH2 0x753 JUMPI PUSH0 PUSH0 REVERT JUMPDEST POP PUSH2 0x75C PUSH2 0x1E9E JUMP JUMPDEST PUSH1 0x40 MLOAD PUSH2 0x769 SWAP2 SWAP1 PUSH2 0x3F49 JUMP JUMPDEST PUSH1 0x40 MLOAD DUP1 SWAP2 SUB SWAP1 RETURN JUMPDEST CALLVALUE DUP1 ISZERO PUSH2 0x77D JUMPI PUSH0 PUSH0 REVERT JUMPDEST POP PUSH2 0x798 PUSH1 0x4 DUP1 CALLDATASIZE SUB DUP2 ADD SWAP1 PUSH2 0x793 SWAP2 SWAP1 PUSH2 0x406E JUMP JUMPDEST PUSH2 0x1EAF JUMP JUMPDEST STOP JUMPDEST CALLVALUE DUP1 ISZERO PUSH2 0x7A5 JUMPI PUSH0 PUSH0 REVERT JUMPDEST POP PUSH2 0x7AE PUSH2 0x1FD3 JUMP JUMPDEST STOP JUMPDEST CALLVALUE DUP1 ISZERO PUSH2 0x7BB JUMPI PUSH0 PUSH0 REVERT JUMPDEST POP PUSH2 0x7C4 PUSH2 0x20E4 JUMP JUMPDEST PUSH1 0x40 MLOAD PUSH2 0x7D1 SWAP2 SWAP1 PUSH2 0x3C8E JUMP JUMPDEST PUSH1 0x40 MLOAD DUP1 SWAP2 SUB SWAP1 RETURN JUMPDEST CALLVALUE DUP1 ISZERO PUSH2 0x7E5 JUMPI PUSH0 PUSH0 REVERT JUMPDEST POP PUSH2 0x7EE PUSH2 0x2109 JUMP JUMPDEST STOP JUMPDEST CALLVALUE DUP1 ISZERO PUSH2 0x7FB JUMPI PUSH0 PUSH0 REVERT JUMPDEST POP PUSH2 0x804 PUSH2 0x22C7 JUMP JUMPDEST STOP JUMPDEST CALLVALUE DUP1 ISZERO PUSH2 0x811 JUMPI PUSH0 PUSH0 REVERT JUMPDEST POP PUSH2 0x81A PUSH2 0x22DA JUMP JUMPDEST PUSH1 0x40 MLOAD PUSH2 0x827 SWAP2 SWAP1 PUSH2 0x3B8C JUMP JUMPDEST PUSH1 0x40 MLOAD DUP1 SWAP2 SUB SWAP1 RETURN JUMPDEST CALLVALUE DUP1 ISZERO PUSH2 0x83B JUMPI PUSH0 PUSH0 REVERT JUMPDEST POP PUSH2 0x844 PUSH2 0x22E0 JUMP JUMPDEST PUSH1 0x40 MLOAD PUSH2 0x851 SWAP2 SWAP1 PUSH2 0x3B8C JUMP JUMPDEST PUSH1 0x40 MLOAD DUP1 SWAP2 SUB SWAP1 RETURN JUMPDEST CALLVALUE DUP1 ISZERO PUSH2 0x865 JUMPI PUSH0 PUSH0 REVERT JUMPDEST POP PUSH2 0x86E PUSH2 0x22E6 JUMP JUMPDEST PUSH1 0x40 MLOAD PUSH2 0x87B SWAP2 SWAP1 PUSH2 0x4140 JUMP JUMPDEST PUSH1 0x40 MLOAD DUP1 SWAP2 SUB SWAP1 RETURN JUMPDEST CALLVALUE DUP1 ISZERO PUSH2 0x88F JUMPI PUSH0 PUSH0 REVERT JUMPDEST POP PUSH2 0x8AA PUSH1 0x4 DUP1 CALLDATASIZE SUB DUP2 ADD SWAP1 PUSH2 0x8A5 SWAP2 SWAP1 PUSH2 0x3CD1 JUMP JUMPDEST PUSH2 0x230A JUMP JUMPDEST STOP JUMPDEST CALLVALUE DUP1 ISZERO PUSH2 0x8B7 JUMPI PUSH0 PUSH0 REVERT JUMPDEST POP PUSH2 0x8D2 PUSH1 0x4 DUP1 CALLDATASIZE SUB DUP2 ADD SWAP1 PUSH2 0x8CD SWAP2 SWAP1 PUSH2 0x4159 JUMP JUMPDEST PUSH2 0x2408 JUMP JUMPDEST STOP JUMPDEST CALLVALUE DUP1 ISZERO PUSH2 0x8DF JUMPI PUSH0 PUSH0 REVERT JUMPDEST POP PUSH2 0x8FA PUSH1 0x4 DUP1 CALLDATASIZE SUB DUP2 ADD SWAP1 PUSH2 0x8F5 SWAP2 SWAP1 PUSH2 0x3C11 JUMP JUMPDEST PUSH2 0x25EF JUMP JUMPDEST STOP JUMPDEST CALLVALUE DUP1 ISZERO PUSH2 0x907 JUMPI PUSH0 PUSH0 REVERT JUMPDEST POP PUSH2 0x910 PUSH2 0x2A45 JUMP JUMPDEST PUSH1 0x40 MLOAD PUSH2 0x91D SWAP2 SWAP1 PUSH2 0x3B8C JUMP JUMPDEST PUSH1 0x40 MLOAD DUP1 SWAP2 SUB SWAP1 RETURN JUMPDEST PUSH2 0x92E PUSH2 0x2D6B JUMP JUMPDEST STOP JUMPDEST CALLVALUE DUP1 ISZERO PUSH2 0x93B JUMPI PUSH0 PUSH0 REVERT JUMPDEST POP PUSH2 0x944 PUSH2 0x2E1D JUMP JUMPDEST STOP JUMPDEST CALLVALUE DUP1 ISZERO PUSH2 0x951 JUMPI PUSH0 PUSH0 REVERT JUMPDEST POP PUSH2 0x96C PUSH1 0x4 DUP1 CALLDATASIZE SUB DUP2 ADD SWAP1 PUSH2 0x967 SWAP2 SWAP1 PUSH2 0x3ECD JUMP JUMPDEST PUSH2 0x2E84 JUMP JUMPDEST PUSH1 0x40 MLOAD PUSH2 0x979 SWAP2 SWAP1 PUSH2 0x3B8C JUMP JUMPDEST PUSH1 0x40 MLOAD DUP1 SWAP2 SUB SWAP1 RETURN JUMPDEST CALLVALUE DUP1 ISZERO PUSH2 0x98D JUMPI PUSH0 PUSH0 REVERT JUMPDEST POP PUSH2 0x9A8 PUSH1 0x4 DUP1 CALLDATASIZE SUB DUP2 ADD SWAP1 PUSH2 0x9A3 SWAP2 SWAP1 PUSH2 0x3ECD JUMP JUMPDEST PUSH2 0x2E99 JUMP JUMPDEST STOP JUMPDEST CALLVALUE DUP1 ISZERO PUSH2 0x9B5 JUMPI PUSH0 PUSH0 REVERT JUMPDEST POP PUSH2 0x9BE PUSH2 0x2F93 JUMP JUMPDEST PUSH1 0x40 MLOAD PUSH2 0x9CB SWAP2 SWAP1 PUSH2 0x3B8C JUMP JUMPDEST PUSH1 0x40 MLOAD DUP1 SWAP2 SUB SWAP1 RETURN JUMPDEST CALLVALUE DUP1 ISZERO PUSH2 0x9DF JUMPI PUSH0 PUSH0 REVERT JUMPDEST POP PUSH2 0x9FA PUSH1 0x4 DUP1 CALLDATASIZE SUB DUP2 ADD SWAP1 PUSH2 0x9F5 SWAP2 SWAP1 PUSH2 0x3ECD JUMP JUMPDEST PUSH2 0x2F99 JUMP JUMPDEST STOP JUMPDEST CALLVALUE DUP1 ISZERO PUSH2 0xA07 JUMPI PUSH0 PUSH0 REVERT JUMPDEST POP PUSH2 0xA22 PUSH1 0x4 DUP1 CALLDATASIZE SUB DUP2 ADD SWAP1 PUSH2 0xA1D SWAP2 SWAP1 PUSH2 0x3ECD JUMP JUMPDEST PUSH2 0x2FAB JUMP JUMPDEST PUSH1 0x40 MLOAD PUSH2 0xA34 SWAP7 SWAP6 SWAP5 SWAP4 SWAP3 SWAP2 SWAP1 PUSH2 0x41A9 JUMP JUMPDEST PUSH1 0x40 MLOAD DUP1 SWAP2 SUB SWAP1 RETURN JUMPDEST CALLVALUE DUP1 ISZERO PUSH2 0xA48 JUMPI PUSH0 PUSH0 REVERT JUMPDEST POP PUSH2 0xA51 PUSH2 0x2FFC JUMP JUMPDEST PUSH1 0x40 MLOAD PUSH2 0xA5E SWAP2 SWAP1 PUSH2 0x3C8E JUMP JUMPDEST PUSH1 0x40 MLOAD DUP1 SWAP2 SUB SWAP1 RETURN JUMPDEST CALLVALUE DUP1 ISZERO PUSH2 0xA72 JUMPI PUSH0 PUSH0 REVERT JUMPDEST POP PUSH2 0xA7B PUSH2 0x3023 JUMP JUMPDEST PUSH1 0x40 MLOAD PUSH2 0xA88 SWAP2 SWAP1 PUSH2 0x3C8E JUMP JUMPDEST PUSH1 0x40 MLOAD DUP1 SWAP2 SUB SWAP1 RETURN JUMPDEST CALLVALUE DUP1 ISZERO PUSH2 0xA9C JUMPI PUSH0 PUSH0 REVERT JUMPDEST POP PUSH2 0xAB7 PUSH1 0x4 DUP1 CALLDATASIZE SUB DUP2 ADD SWAP1 PUSH2 0xAB2 SWAP2 SWAP1 PUSH2 0x3ECD JUMP JUMPDEST PUSH2 0x3048 JUMP JUMPDEST STOP JUMPDEST CALLVALUE DUP1 ISZERO PUSH2 0xAC4 JUMPI PUSH0 PUSH0 REVERT JUMPDEST POP PUSH2 0xACD PUSH2 0x309C JUMP JUMPDEST PUSH1 0x40 MLOAD PUSH2 0xADA SWAP2 SWAP1 PUSH2 0x3F49 JUMP JUMPDEST PUSH1 0x40 MLOAD DUP1 SWAP2 SUB SWAP1 RETURN JUMPDEST CALLVALUE DUP1 ISZERO PUSH2 0xAEE JUMPI PUSH0 PUSH0 REVERT JUMPDEST POP PUSH2 0xAF7 PUSH2 0x30AE JUMP JUMPDEST PUSH1 0x40 MLOAD PUSH2 0xB04 SWAP2 SWAP1 PUSH2 0x3B8C JUMP JUMPDEST PUSH1 0x40 MLOAD DUP1 SWAP2 SUB SWAP1 RETURN JUMPDEST CALLVALUE DUP1 ISZERO PUSH2 0xB18 JUMPI PUSH0 PUSH0 REVERT JUMPDEST POP PUSH2 0xB21 PUSH2 0x30B4 JUMP JUMPDEST PUSH1 0x40 MLOAD PUSH2 0xB2E SWAP2 SWAP1 PUSH2 0x3C8E JUMP JUMPDEST PUSH1 0x40 MLOAD DUP1 SWAP2 SUB SWAP1 RETURN JUMPDEST CALLVALUE DUP1 ISZERO PUSH2 0xB42 JUMPI PUSH0 PUSH0 REVERT JUMPDEST POP PUSH2 0xB4B PUSH2 0x30D9 JUMP JUMPDEST PUSH1 0x40 MLOAD PUSH2 0xB58 SWAP2 SWAP1 PUSH2 0x3B8C JUMP JUMPDEST PUSH1 0x40 MLOAD DUP1 SWAP2 SUB SWAP1 RETURN JUMPDEST CALLVALUE DUP1 ISZERO PUSH2 0xB6C JUMPI PUSH0 PUSH0 REVERT JUMPDEST POP PUSH2 0xB75 PUSH2 0x30DF JUMP JUMPDEST PUSH1 0x40 MLOAD PUSH2 0xB82 SWAP2 SWAP1 PUSH2 0x3B8C JUMP JUMPDEST PUSH1 0x40 MLOAD DUP1 SWAP2 SUB SWAP1 RETURN JUMPDEST CALLVALUE DUP1 ISZERO PUSH2 0xB96 JUMPI PUSH0 PUSH0 REVERT JUMPDEST POP PUSH2 0xBB1 PUSH1 0x4 DUP1 CALLDATASIZE SUB DUP2 ADD SWAP1 PUSH2 0xBAC SWAP2 SWAP1 PUSH2 0x3ECD JUMP JUMPDEST PUSH2 0x30E5 JUMP JUMPDEST PUSH1 0x40 MLOAD PUSH2 0xBBE SWAP2 SWAP1 PUSH2 0x3B8C JUMP JUMPDEST PUSH1 0x40 MLOAD DUP1 SWAP2 SUB SWAP1 RETURN JUMPDEST CALLVALUE DUP1 ISZERO PUSH2 0xBD2 JUMPI PUSH0 PUSH0 REVERT JUMPDEST POP PUSH2 0xBDB PUSH2 0x30FA JUMP JUMPDEST PUSH1 0x40 MLOAD PUSH2 0xBE8 SWAP2 SWAP1 PUSH2 0x3B8C JUMP JUMPDEST PUSH1 0x40 MLOAD DUP1 SWAP2 SUB SWAP1 RETURN JUMPDEST CALLVALUE DUP1 ISZERO PUSH2 0xBFC JUMPI PUSH0 PUSH0 REVERT JUMPDEST POP PUSH2 0xC05 PUSH2 0x3100 JUMP JUMPDEST PUSH1 0x40 MLOAD PUSH2 0xC12 SWAP2 SWAP1 PUSH2 0x3B8C JUMP JUMPDEST PUSH1 0x40 MLOAD DUP1 SWAP2 SUB SWAP1 RETURN JUMPDEST CALLVALUE DUP1 ISZERO PUSH2 0xC26 JUMPI PUSH0 PUSH0 REVERT JUMPDEST POP PUSH2 0xC41 PUSH1 0x4 DUP1 CALLDATASIZE SUB DUP2 ADD SWAP1 PUSH2 0xC3C SWAP2 SWAP1 PUSH2 0x3ECD JUMP JUMPDEST PUSH2 0x310C JUMP JUMPDEST PUSH1 0x40 MLOAD PUSH2 0xC4E SWAP2 SWAP1 PUSH2 0x3B8C JUMP JUMPDEST PUSH1 0x40 MLOAD DUP1 SWAP2 SUB SWAP1 RETURN JUMPDEST CALLVALUE DUP1 ISZERO PUSH2 0xC62 JUMPI PUSH0 PUSH0 REVERT JUMPDEST POP PUSH2 0xC6B PUSH2 0x3121 JUMP JUMPDEST PUSH1 0x40 MLOAD PUSH2 0xC78 SWAP2 SWAP1 PUSH2 0x3B8C JUMP JUMPDEST PUSH1 0x40 MLOAD DUP1 SWAP2 SUB SWAP1 RETURN JUMPDEST CALLVALUE DUP1 ISZERO PUSH2 0xC8C JUMPI PUSH0 PUSH0 REVERT JUMPDEST POP PUSH2 0xC95 PUSH2 0x3127 JUMP JUMPDEST PUSH1 0x40 MLOAD PUSH2 0xCA2 SWAP2 SWAP1 PUSH2 0x3B8C JUMP JUMPDEST PUSH1 0x40 MLOAD DUP1 SWAP2 SUB SWAP1 RETURN JUMPDEST CALLVALUE DUP1 ISZERO PUSH2 0xCB6 JUMPI PUSH0 PUSH0 REVERT JUMPDEST POP PUSH2 0xCBF PUSH2 0x312D JUMP JUMPDEST PUSH1 0x40 MLOAD PUSH2 0xCCC SWAP2 SWAP1 PUSH2 0x422A JUMP JUMPDEST PUSH1 0x40 MLOAD DUP1 SWAP2 SUB SWAP1 RETURN JUMPDEST CALLVALUE DUP1 ISZERO PUSH2 0xCE0 JUMPI PUSH0 PUSH0 REVERT JUMPDEST POP PUSH2 0xCFB PUSH1 0x4 DUP1 CALLDATASIZE SUB DUP2 ADD SWAP1 PUSH2 0xCF6 SWAP2 SWAP1 PUSH2 0x3CD1 JUMP JUMPDEST PUSH2 0x3147 JUMP JUMPDEST STOP JUMPDEST CALLVALUE DUP1 ISZERO PUSH2 0xD08 JUMPI PUSH0 PUSH0 REVERT JUMPDEST POP PUSH2 0xD11 PUSH2 0x31CB JUMP JUMPDEST PUSH1 0x40 MLOAD PUSH2 0xD1E SWAP2 SWAP1 PUSH2 0x3B8C JUMP JUMPDEST PUSH1 0x40 MLOAD DUP1 SWAP2 SUB SWAP1 RETURN JUMPDEST CALLVALUE DUP1 ISZERO PUSH2 0xD32 JUMPI PUSH0 PUSH0 REVERT JUMPDEST POP PUSH2 0xD3B PUSH2 0x31D1 JUMP JUMPDEST PUSH1 0x40 MLOAD PUSH2 0xD48 SWAP2 SWAP1 PUSH2 0x3B8C JUMP JUMPDEST PUSH1 0x40 MLOAD DUP1 SWAP2 SUB SWAP1 RETURN JUMPDEST CALLVALUE DUP1 ISZERO PUSH2 0xD5C JUMPI PUSH0 PUSH0 REVERT JUMPDEST POP PUSH2 0xD65 PUSH2 0x31D7 JUMP JUMPDEST PUSH1 0x40 MLOAD PUSH2 0xD72 SWAP2 SWAP1 PUSH2 0x3B8C JUMP JUMPDEST PUSH1 0x40 MLOAD DUP1 SWAP2 SUB SWAP1 RETURN JUMPDEST PUSH1 0xD SLOAD DUP2 JUMP JUMPDEST PUSH1 0x1D SLOAD DUP2 JUMP JUMPDEST PUSH2 0xD8F PUSH2 0x31DD JUMP JUMPDEST PUSH1 0x2 DUP1 SLOAD SWAP1 PUSH2 0x100 EXP SWAP1 DIV PUSH1 0xFF AND ISZERO PUSH2 0xDDD JUMPI PUSH1 0x40 MLOAD PUSH32 0x8C379A000000000000000000000000000000000000000000000000000000000 DUP2 MSTORE PUSH1 0x4 ADD PUSH2 0xDD4 SWAP1 PUSH2 0x428D JUMP JUMPDEST PUSH1 0x40 MLOAD DUP1 SWAP2 SUB SWAP1 REVERT JUMPDEST PUSH0 PUSH1 0xA PUSH0 DUP5 DUP2 MSTORE PUSH1 0x20 ADD SWAP1 DUP2 MSTORE PUSH1 0x20 ADD PUSH0 KECCAK256 PUSH1 0x3 ADD SLOAD GT PUSH2 0xE33 JUMPI PUSH1 0x40 MLOAD PUSH32 0x8C379A000000000000000000000000000000000000000000000000000000000 DUP2 MSTORE PUSH1 0x4 ADD PUSH2 0xE2A SWAP1 PUSH2 0x42F5 JUMP JUMPDEST PUSH1 0x40 MLOAD DUP1 SWAP2 SUB SWAP1 REVERT JUMPDEST PUSH1 0xA PUSH0 DUP4 DUP2 MSTORE PUSH1 0x20 ADD SWAP1 DUP2 MSTORE PUSH1 0x20 ADD PUSH0 KECCAK256 PUSH1 0x4 ADD PUSH0 SWAP1 SLOAD SWAP1 PUSH2 0x100 EXP SWAP1 DIV PUSH1 0xFF AND ISZERO PUSH2 0xE94 JUMPI PUSH1 0x40 MLOAD PUSH32 0x8C379A000000000000000000000000000000000000000000000000000000000 DUP2 MSTORE PUSH1 0x4 ADD PUSH2 0xE8B SWAP1 PUSH2 0x435D JUMP JUMPDEST PUSH1 0x40 MLOAD DUP1 SWAP2 SUB SWAP1 REVERT JUMPDEST PUSH2 0x1388 PUSH1 0xA PUSH0 DUP5 DUP2 MSTORE PUSH1 0x20 ADD SWAP1 DUP2 MSTORE PUSH1 0x20 ADD PUSH0 KECCAK256 PUSH1 0x3 ADD SLOAD PUSH2 0xEB6 SWAP2 SWAP1 PUSH2 0x3B4A JUMP JUMPDEST NUMBER GT PUSH2 0xEF7 JUMPI PUSH1 0x40 MLOAD PUSH32 0x8C379A000000000000000000000000000000000000000000000000000000000 DUP2 MSTORE PUSH1 0x4 ADD PUSH2 0xEEE SWAP1 PUSH2 0x43C5 JUMP JUMPDEST PUSH1 0x40 MLOAD DUP1 SWAP2 SUB SWAP1 REVERT JUMPDEST DUP1 PUSH1 0xA PUSH0 DUP5 DUP2 MSTORE PUSH1 0x20 ADD SWAP1 DUP2 MSTORE PUSH1 0x20 ADD PUSH0 KECCAK256 PUSH1 0x2 ADD DUP2 SWAP1 SSTORE POP PUSH1 0x1 PUSH1 0xA PUSH0 DUP5 DUP2 MSTORE PUSH1 0x20 ADD SWAP1 DUP2 MSTORE PUSH1 0x20 ADD PUSH0 KECCAK256 PUSH1 0x4 ADD PUSH0 PUSH2 0x100 EXP DUP2 SLOAD DUP2 PUSH1 0xFF MUL NOT AND SWAP1 DUP4 ISZERO ISZERO MUL OR SWAP1 SSTORE POP PUSH1 0x1 PUSH1 0xA PUSH0 DUP5 DUP2 MSTORE PUSH1 0x20 ADD SWAP1 DUP2 MSTORE PUSH1 0x20 ADD PUSH0 KECCAK256 PUSH1 0x4 ADD PUSH1 0x1 PUSH2 0x100 EXP DUP2 SLOAD DUP2 PUSH1 0xFF MUL NOT AND SWAP1 DUP4 ISZERO ISZERO MUL OR SWAP1 SSTORE POP DUP2 PUSH32 0x76761CD2AC8A3AB5C212EBB1CB80967D1BDF2A8EB8531F5CBECA46BCBFEBC5A0 DUP3 PUSH1 0x40 MLOAD PUSH2 0xF99 SWAP2 SWAP1 PUSH2 0x3B8C JUMP JUMPDEST PUSH1 0x40 MLOAD DUP1 SWAP2 SUB SWAP1 LOG2 POP POP JUMP JUMPDEST PUSH1 0x14 PUSH0 SWAP1 SLOAD SWAP1 PUSH2 0x100 EXP SWAP1 DIV PUSH20 0xFFFFFFFFFFFFFFFFFFFFFFFFFFFFFFFFFFFFFFFF AND DUP2 JUMP JUMPDEST PUSH1 0x8 PUSH1 0x20 MSTORE DUP1 PUSH0 MSTORE PUSH1 0x40 PUSH0 KECCAK256 PUSH0 SWAP2 POP SWAP1 POP SLOAD DUP2 JUMP JUMPDEST PUSH1 0x7 PUSH1 0x20 MSTORE DUP1 PUSH0 MSTORE PUSH1 0x40 PUSH0 KECCAK256 PUSH0 SWAP2 POP SWAP1 POP DUP1 PUSH0 ADD SLOAD SWAP1 DUP1 PUSH1 0x1 ADD SLOAD SWAP1 POP DUP3 JUMP JUMPDEST PUSH2 0x1007 PUSH2 0x3264 JUMP JUMPDEST PUSH1 0x2 DUP1 SLOAD SWAP1 PUSH2 0x100 EXP SWAP1 DIV PUSH1 0xFF AND ISZERO PUSH2 0x1055 JUMPI PUSH1 0x40 MLOAD PUSH32 0x8C379A000000000000000000000000000000000000000000000000000000000 DUP2 MSTORE PUSH1 0x4 ADD PUSH2 0x104C SWAP1 PUSH2 0x428D JUMP JUMPDEST PUSH1 0x40 MLOAD DUP1 SWAP2 SUB SWAP1 REVERT JUMPDEST PUSH0 PUSH1 0x7 PUSH0 CALLER PUSH20 0xFFFFFFFFFFFFFFFFFFFFFFFFFFFFFFFFFFFFFFFF AND PUSH20 0xFFFFFFFFFFFFFFFFFFFFFFFFFFFFFFFFFFFFFFFF AND DUP2 MSTORE PUSH1 0x20 ADD SWAP1 DUP2 MSTORE PUSH1 0x20 ADD PUSH0 KECCAK256 PUSH1 0x1 ADD SLOAD SWAP1 POP PUSH0 PUSH1 0x1 PUSH1 0x3 SLOAD PUSH2 0x10A9 SWAP2 SWAP1 PUSH2 0x43E3 JUMP JUMPDEST SWAP1 POP DUP2 DUP2 GT PUSH2 0x10ED JUMPI PUSH1 0x40 MLOAD PUSH32 0x8C379A000000000000000000000000000000000000000000000000000000000 DUP2 MSTORE PUSH1 0x4 ADD PUSH2 0x10E4 SWAP1 PUSH2 0x4460 JUMP JUMPDEST PUSH1 0x40 MLOAD DUP1 SWAP2 SUB SWAP1 REVERT JUMPDEST PUSH0 PUSH1 0x9 PUSH0 DUP5 DUP2 MSTORE PUSH1 0x20 ADD SWAP1 DUP2 MSTORE PUSH1 0x20 ADD PUSH0 KECCAK256 SLOAD PUSH1 0x9 PUSH0 DUP5 DUP2 MSTORE PUSH1 0x20 ADD SWAP1 DUP2 MSTORE PUSH1 0x20 ADD PUSH0 KECCAK256 SLOAD PUSH2 0x111C SWAP2 SWAP1 PUSH2 0x43E3 JUMP JUMPDEST SWAP1 POP PUSH0 DUP2 GT PUSH2 0x1160 JUMPI PUSH1 0x40 MLOAD PUSH32 0x8C379A000000000000000000000000000000000000000000000000000000000 DUP2 MSTORE PUSH1 0x4 ADD PUSH2 0x1157 SWAP1 PUSH2 0x44C8 JUMP JUMPDEST PUSH1 0x40 MLOAD DUP1 SWAP2 SUB SWAP1 REVERT JUMPDEST DUP2 PUSH1 0x7 PUSH0 CALLER PUSH20 0xFFFFFFFFFFFFFFFFFFFFFFFFFFFFFFFFFFFFFFFF AND PUSH20 0xFFFFFFFFFFFFFFFFFFFFFFFFFFFFFFFFFFFFFFFF AND DUP2 MSTORE PUSH1 0x20 ADD SWAP1 DUP2 MSTORE PUSH1 0x20 ADD PUSH0 KECCAK256 PUSH1 0x1 ADD DUP2 SWAP1 SSTORE POP PUSH2 0x11F0 CALLER DUP3 PUSH32 0x0 PUSH20 0xFFFFFFFFFFFFFFFFFFFFFFFFFFFFFFFFFFFFFFFF AND PUSH2 0x32B3 SWAP1 SWAP3 SWAP2 SWAP1 PUSH4 0xFFFFFFFF AND JUMP JUMPDEST CALLER PUSH20 0xFFFFFFFFFFFFFFFFFFFFFFFFFFFFFFFFFFFFFFFF AND PUSH32 0xFC30CDDEA38E2BF4D6EA7D3F9ED3B6AD7F176419F4963BD81318067A4AEE73FE DUP3 PUSH1 0x40 MLOAD PUSH2 0x1236 SWAP2 SWAP1 PUSH2 0x3B8C JUMP JUMPDEST PUSH1 0x40 MLOAD DUP1 SWAP2 SUB SWAP1 LOG2 POP POP POP PUSH2 0x1249 PUSH2 0x3332 JUMP JUMPDEST JUMP JUMPDEST PUSH32 0x0 PUSH20 0xFFFFFFFFFFFFFFFFFFFFFFFFFFFFFFFFFFFFFFFF AND CALLER PUSH20 0xFFFFFFFFFFFFFFFFFFFFFFFFFFFFFFFFFFFFFFFF AND EQ PUSH2 0x12FD JUMPI CALLER PUSH32 0x0 PUSH1 0x40 MLOAD PUSH32 0x1CF993F400000000000000000000000000000000000000000000000000000000 DUP2 MSTORE PUSH1 0x4 ADD PUSH2 0x12F4 SWAP3 SWAP2 SWAP1 PUSH2 0x44E6 JUMP JUMPDEST PUSH1 0x40 MLOAD DUP1 SWAP2 SUB SWAP1 REVERT JUMPDEST PUSH2 0x1307 DUP3 DUP3 PUSH2 0x333B JUMP JUMPDEST POP POP JUMP JUMPDEST PUSH1 0xE SLOAD DUP2 JUMP JUMPDEST PUSH0 PUSH1 0x9 PUSH0 DUP4 DUP2 MSTORE PUSH1 0x20 ADD SWAP1 DUP2 MSTORE PUSH1 0x20 ADD PUSH0 KECCAK256 SLOAD SWAP1 POP SWAP2 SWAP1 POP JUMP JUMPDEST PUSH1 0x19 SLOAD DUP2 JUMP JUMPDEST PUSH2 0x1339 PUSH2 0x31DD JUMP JUMPDEST PUSH1 0x3C DUP2 LT ISZERO PUSH2 0x137D JUMPI PUSH1 0x40 MLOAD PUSH32 0x8C379A000000000000000000000000000000000000000000000000000000000 DUP2 MSTORE PUSH1 0x4 ADD PUSH2 0x1374 SWAP1 PUSH2 0x4557 JUMP JUMPDEST PUSH1 0x40 MLOAD DUP1 SWAP2 SUB SWAP1 REVERT JUMPDEST DUP1 PUSH1 0x4 DUP2 SWAP1 SSTORE POP POP JUMP JUMPDEST PUSH2 0x138F PUSH2 0x3264 JUMP JUMPDEST PUSH1 0x17 PUSH0 SWAP1 SLOAD SWAP1 PUSH2 0x100 EXP SWAP1 DIV PUSH20 0xFFFFFFFFFFFFFFFFFFFFFFFFFFFFFFFFFFFFFFFF AND PUSH20 0xFFFFFFFFFFFFFFFFFFFFFFFFFFFFFFFFFFFFFFFF AND CALLER PUSH20 0xFFFFFFFFFFFFFFFFFFFFFFFFFFFFFFFFFFFFFFFF AND EQ PUSH2 0x141E JUMPI PUSH1 0x40 MLOAD PUSH32 0x8C379A000000000000000000000000000000000000000000000000000000000 DUP2 MSTORE PUSH1 0x4 ADD PUSH2 0x1415 SWAP1 PUSH2 0x45BF JUMP JUMPDEST PUSH1 0x40 MLOAD DUP1 SWAP2 SUB SWAP1 REVERT JUMPDEST PUSH1 0x2 DUP1 SLOAD SWAP1 PUSH2 0x100 EXP SWAP1 DIV PUSH1 0xFF AND ISZERO PUSH2 0x146C JUMPI PUSH1 0x40 MLOAD PUSH32 0x8C379A000000000000000000000000000000000000000000000000000000000 DUP2 MSTORE PUSH1 0x4 ADD PUSH2 0x1463 SWAP1 PUSH2 0x428D JUMP JUMPDEST PUSH1 0x40 MLOAD DUP1 SWAP2 SUB SWAP1 REVERT JUMPDEST PUSH1 0x2 PUSH1 0x1 SWAP1 SLOAD SWAP1 PUSH2 0x100 EXP SWAP1 DIV PUSH1 0xFF AND PUSH2 0x14BB JUMPI PUSH1 0x40 MLOAD PUSH32 0x8C379A000000000000000000000000000000000000000000000000000000000 DUP2 MSTORE PUSH1 0x4 ADD PUSH2 0x14B2 SWAP1 PUSH2 0x4627 JUMP JUMPDEST PUSH1 0x40 MLOAD DUP1 SWAP2 SUB SWAP1 REVERT JUMPDEST PUSH1 0x1 PUSH1 0x6 DUP1 SLOAD SWAP1 POP GT PUSH2 0x1503 JUMPI PUSH1 0x40 MLOAD PUSH32 0x8C379A000000000000000000000000000000000000000000000000000000000 DUP2 MSTORE PUSH1 0x4 ADD PUSH2 0x14FA SWAP1 PUSH2 0x468F JUMP JUMPDEST PUSH1 0x40 MLOAD DUP1 SWAP2 SUB SWAP1 REVERT JUMPDEST PUSH1 0x4 SLOAD PUSH1 0x5 SLOAD PUSH2 0x1513 SWAP2 SWAP1 PUSH2 0x3B4A JUMP JUMPDEST TIMESTAMP LT ISZERO PUSH2 0x1555 JUMPI PUSH1 0x40 MLOAD PUSH32 0x8C379A000000000000000000000000000000000000000000000000000000000 DUP2 MSTORE PUSH1 0x4 ADD PUSH2 0x154C SWAP1 PUSH2 0x46F7 JUMP JUMPDEST PUSH1 0x40 MLOAD DUP1 SWAP2 SUB SWAP1 REVERT JUMPDEST PUSH0 PUSH1 0x3 SLOAD SWAP1 POP PUSH1 0xA PUSH0 DUP3 DUP2 MSTORE PUSH1 0x20 ADD SWAP1 DUP2 MSTORE PUSH1 0x20 ADD PUSH0 KECCAK256 PUSH1 0x4 ADD PUSH0 SWAP1 SLOAD SWAP1 PUSH2 0x100 EXP SWAP1 DIV PUSH1 0xFF AND PUSH2 0x15BB JUMPI PUSH1 0x40 MLOAD PUSH32 0x8C379A000000000000000000000000000000000000000000000000000000000 DUP2 MSTORE PUSH1 0x4 ADD PUSH2 0x15B2 SWAP1 PUSH2 0x475F JUMP JUMPDEST PUSH1 0x40 MLOAD DUP1 SWAP2 SUB SWAP1 REVERT JUMPDEST PUSH0 PUSH1 0xA PUSH0 DUP4 DUP2 MSTORE PUSH1 0x20 ADD SWAP1 DUP2 MSTORE PUSH1 0x20 ADD PUSH0 KECCAK256 PUSH1 0x3 ADD SLOAD GT PUSH2 0x1611 JUMPI PUSH1 0x40 MLOAD PUSH32 0x8C379A000000000000000000000000000000000000000000000000000000000 DUP2 MSTORE PUSH1 0x4 ADD PUSH2 0x1608 SWAP1 PUSH2 0x47C7 JUMP JUMPDEST PUSH1 0x40 MLOAD DUP1 SWAP2 SUB SWAP1 REVERT JUMPDEST PUSH1 0xA PUSH0 DUP3 DUP2 MSTORE PUSH1 0x20 ADD SWAP1 DUP2 MSTORE PUSH1 0x20 ADD PUSH0 KECCAK256 PUSH1 0x3 ADD SLOAD NUMBER GT PUSH2 0x1667 JUMPI PUSH1 0x40 MLOAD PUSH32 0x8C379A000000000000000000000000000000000000000000000000000000000 DUP2 MSTORE PUSH1 0x4 ADD PUSH2 0x165E SWAP1 PUSH2 0x482F JUMP JUMPDEST PUSH1 0x40 MLOAD DUP1 SWAP2 SUB SWAP1 REVERT JUMPDEST PUSH1 0x1A SLOAD PUSH1 0x1B PUSH0 DUP4 DUP2 MSTORE PUSH1 0x20 ADD SWAP1 DUP2 MSTORE PUSH1 0x20 ADD PUSH0 KECCAK256 SLOAD LT PUSH2 0x16BC JUMPI PUSH1 0x40 MLOAD PUSH32 0x8C379A000000000000000000000000000000000000000000000000000000000 DUP2 MSTORE PUSH1 0x4 ADD PUSH2 0x16B3 SWAP1 PUSH2 0x4897 JUMP JUMPDEST PUSH1 0x40 MLOAD DUP1 SWAP2 SUB SWAP1 REVERT JUMPDEST PUSH1 0x1B PUSH0 DUP3 DUP2 MSTORE PUSH1 0x20 ADD SWAP1 DUP2 MSTORE PUSH1 0x20 ADD PUSH0 KECCAK256 PUSH0 DUP2 SLOAD DUP1 SWAP3 SWAP2 SWAP1 PUSH2 0x16DD SWAP1 PUSH2 0x48B5 JUMP JUMPDEST SWAP2 SWAP1 POP SSTORE POP PUSH0 PUSH0 SWAP1 POP PUSH0 PUSH1 0x15 SLOAD PUSH1 0x16 SLOAD PUSH2 0x16F7 SWAP2 SWAP1 PUSH2 0x3B4A JUMP JUMPDEST SWAP1 POP PUSH1 0x6 DUP1 SLOAD SWAP1 POP DUP2 GT ISZERO PUSH2 0x170F JUMPI PUSH1 0x6 DUP1 SLOAD SWAP1 POP SWAP1 POP JUMPDEST PUSH0 PUSH1 0xA PUSH0 DUP6 DUP2 MSTORE PUSH1 0x20 ADD SWAP1 DUP2 MSTORE PUSH1 0x20 ADD PUSH0 KECCAK256 PUSH1 0x2 ADD SLOAD SWAP1 POP PUSH0 PUSH1 0x16 SLOAD SWAP1 POP JUMPDEST DUP3 DUP2 LT ISZERO PUSH2 0x18CF JUMPI PUSH1 0x1 PUSH1 0x6 DUP1 SLOAD SWAP1 POP GT ISZERO PUSH2 0x18CF JUMPI PUSH0 DUP3 DUP3 NUMBER PUSH1 0x40 MLOAD PUSH1 0x20 ADD PUSH2 0x175A SWAP4 SWAP3 SWAP2 SWAP1 PUSH2 0x48FC JUMP JUMPDEST PUSH1 0x40 MLOAD PUSH1 0x20 DUP2 DUP4 SUB SUB DUP2 MSTORE SWAP1 PUSH1 0x40 MSTORE DUP1 MLOAD SWAP1 PUSH1 0x20 ADD KECCAK256 PUSH0 SHR SWAP1 POP PUSH0 PUSH1 0x6 DUP1 SLOAD SWAP1 POP DUP3 PUSH2 0x1786 SWAP2 SWAP1 PUSH2 0x495E JUMP JUMPDEST SWAP1 POP PUSH0 PUSH1 0x6 DUP3 DUP2 SLOAD DUP2 LT PUSH2 0x179D JUMPI PUSH2 0x179C PUSH2 0x498E JUMP JUMPDEST JUMPDEST SWAP1 PUSH0 MSTORE PUSH1 0x20 PUSH0 KECCAK256 ADD PUSH0 SWAP1 SLOAD SWAP1 PUSH2 0x100 EXP SWAP1 DIV PUSH20 0xFFFFFFFFFFFFFFFFFFFFFFFFFFFFFFFFFFFFFFFF AND SWAP1 POP PUSH0 PUSH1 0x7 PUSH0 DUP4 PUSH20 0xFFFFFFFFFFFFFFFFFFFFFFFFFFFFFFFFFFFFFFFF AND PUSH20 0xFFFFFFFFFFFFFFFFFFFFFFFFFFFFFFFFFFFFFFFF AND DUP2 MSTORE PUSH1 0x20 ADD SWAP1 DUP2 MSTORE PUSH1 0x20 ADD PUSH0 KECCAK256 PUSH0 ADD SLOAD SWAP1 POP PUSH0 PUSH1 0x7 PUSH0 DUP5 PUSH20 0xFFFFFFFFFFFFFFFFFFFFFFFFFFFFFFFFFFFFFFFF AND PUSH20 0xFFFFFFFFFFFFFFFFFFFFFFFFFFFFFFFFFFFFFFFF AND DUP2 MSTORE PUSH1 0x20 ADD SWAP1 DUP2 MSTORE PUSH1 0x20 ADD PUSH0 KECCAK256 PUSH0 ADD DUP2 SWAP1 SSTORE POP PUSH2 0x1857 DUP4 PUSH2 0x3448 JUMP JUMPDEST PUSH2 0x1861 DUP3 DUP3 PUSH2 0x3617 JUMP JUMPDEST DUP2 PUSH20 0xFFFFFFFFFFFFFFFFFFFFFFFFFFFFFFFFFFFFFFFF AND DUP10 PUSH32 0x51479C93D7646904D2282E9E79CDDF11999AC774B7FD0289E2F59CB4AD0F086A DUP4 PUSH1 0x40 MLOAD PUSH2 0x18A8 SWAP2 SWAP1 PUSH2 0x3B8C JUMP JUMPDEST PUSH1 0x40 MLOAD DUP1 SWAP2 SUB SWAP1 LOG3 DUP8 DUP1 PUSH2 0x18BB SWAP1 PUSH2 0x48B5 JUMP JUMPDEST SWAP9 POP POP POP POP POP POP DUP1 DUP1 PUSH1 0x1 ADD SWAP2 POP POP PUSH2 0x172E JUMP JUMPDEST POP DUP2 PUSH1 0x16 DUP2 SWAP1 SSTORE POP PUSH1 0x6 DUP1 SLOAD SWAP1 POP PUSH1 0x16 SLOAD LT ISZERO DUP1 PUSH2 0x18F3 JUMPI POP PUSH1 0x1 PUSH1 0x6 DUP1 SLOAD SWAP1 POP GT ISZERO JUMPDEST ISZERO PUSH2 0x1AE1 JUMPI PUSH0 PUSH1 0x6 DUP1 SLOAD SWAP1 POP SWAP1 POP PUSH0 DUP2 GT ISZERO PUSH2 0x19D3 JUMPI PUSH0 PUSH1 0x11 SLOAD SWAP1 POP PUSH0 PUSH0 SWAP1 POP PUSH0 DUP4 GT DUP1 ISZERO PUSH2 0x1921 JUMPI POP PUSH0 DUP3 GT JUMPDEST ISZERO PUSH2 0x1935 JUMPI DUP3 DUP3 PUSH2 0x1932 SWAP2 SWAP1 PUSH2 0x49BB JUMP JUMPDEST SWAP1 POP JUMPDEST DUP1 PUSH1 0xA PUSH0 DUP10 DUP2 MSTORE PUSH1 0x20 ADD SWAP1 DUP2 MSTORE PUSH1 0x20 ADD PUSH0 KECCAK256 PUSH0 ADD DUP2 SWAP1 SSTORE POP DUP1 PUSH1 0x9 PUSH0 PUSH1 0x1 DUP11 PUSH2 0x195E SWAP2 SWAP1 PUSH2 0x43E3 JUMP JUMPDEST DUP2 MSTORE PUSH1 0x20 ADD SWAP1 DUP2 MSTORE PUSH1 0x20 ADD PUSH0 KECCAK256 SLOAD PUSH2 0x1976 SWAP2 SWAP1 PUSH2 0x3B4A JUMP JUMPDEST PUSH1 0x9 PUSH0 DUP10 DUP2 MSTORE PUSH1 0x20 ADD SWAP1 DUP2 MSTORE PUSH1 0x20 ADD PUSH0 KECCAK256 DUP2 SWAP1 SSTORE POP PUSH0 DUP4 DUP3 PUSH2 0x1998 SWAP2 SWAP1 PUSH2 0x49EB JUMP JUMPDEST SWAP1 POP DUP1 DUP4 GT ISZERO PUSH2 0x19CB JUMPI PUSH0 DUP2 DUP5 PUSH2 0x19AF SWAP2 SWAP1 PUSH2 0x43E3 JUMP JUMPDEST SWAP1 POP DUP1 PUSH1 0x10 PUSH0 DUP3 DUP3 SLOAD PUSH2 0x19C2 SWAP2 SWAP1 PUSH2 0x3B4A JUMP JUMPDEST SWAP3 POP POP DUP2 SWAP1 SSTORE POP POP JUMPDEST POP POP POP PUSH2 0x1A21 JUMP JUMPDEST PUSH1 0x11 SLOAD PUSH1 0x10 PUSH0 DUP3 DUP3 SLOAD PUSH2 0x19E6 SWAP2 SWAP1 PUSH2 0x3B4A JUMP JUMPDEST SWAP3 POP POP DUP2 SWAP1 SSTORE POP PUSH1 0x9 PUSH0 PUSH1 0x1 DUP8 PUSH2 0x19FD SWAP2 SWAP1 PUSH2 0x43E3 JUMP JUMPDEST DUP2 MSTORE PUSH1 0x20 ADD SWAP1 DUP2 MSTORE PUSH1 0x20 ADD PUSH0 KECCAK256 SLOAD PUSH1 0x9 PUSH0 DUP8 DUP2 MSTORE PUSH1 0x20 ADD SWAP1 DUP2 MSTORE PUSH1 0x20 ADD PUSH0 KECCAK256 DUP2 SWAP1 SSTORE POP JUMPDEST PUSH0 PUSH1 0x11 DUP2 SWAP1 SSTORE POP DUP4 PUSH1 0xA PUSH0 DUP8 DUP2 MSTORE PUSH1 0x20 ADD SWAP1 DUP2 MSTORE PUSH1 0x20 ADD PUSH0 KECCAK256 PUSH1 0x1 ADD DUP2 SWAP1 SSTORE POP DUP5 PUSH32 0x2B034C48D6D3C5FA40DA8AFD25E88EE8AD074A546E1A3F05A860C6106B99B82B PUSH1 0x6 DUP1 SLOAD SWAP1 POP PUSH1 0x40 MLOAD PUSH2 0x1A76 SWAP2 SWAP1 PUSH2 0x3B8C JUMP JUMPDEST PUSH1 0x40 MLOAD DUP1 SWAP2 SUB SWAP1 LOG2 PUSH0 PUSH1 0x16 DUP2 SWAP1 SSTORE POP PUSH1 0x3 PUSH0 DUP2 SLOAD DUP1 SWAP3 SWAP2 SWAP1 PUSH2 0x1A97 SWAP1 PUSH2 0x48B5 JUMP JUMPDEST SWAP2 SWAP1 POP SSTORE POP TIMESTAMP PUSH1 0x5 DUP2 SWAP1 SSTORE POP PUSH1 0x3 SLOAD PUSH32 0x278844837BCF8364A705384BF3A2812901F54155BAE86DEA81DD52AA5B9EC0E3 PUSH1 0x5 SLOAD PUSH1 0x40 MLOAD PUSH2 0x1AD7 SWAP2 SWAP1 PUSH2 0x3B8C JUMP JUMPDEST PUSH1 0x40 MLOAD DUP1 SWAP2 SUB SWAP1 LOG2 POP JUMPDEST PUSH1 0x18 SLOAD PUSH1 0x19 SLOAD LT ISZERO DUP1 ISZERO PUSH2 0x1AF6 JUMPI POP PUSH0 PUSH1 0x18 SLOAD GT JUMPDEST ISZERO PUSH2 0x1BAC JUMPI PUSH1 0x18 SLOAD PUSH1 0x19 PUSH0 DUP3 DUP3 SLOAD PUSH2 0x1B0E SWAP2 SWAP1 PUSH2 0x43E3 JUMP JUMPDEST SWAP3 POP POP DUP2 SWAP1 SSTORE POP CALLER PUSH20 0xFFFFFFFFFFFFFFFFFFFFFFFFFFFFFFFFFFFFFFFF AND PUSH2 0x8FC PUSH1 0x18 SLOAD SWAP1 DUP2 ISZERO MUL SWAP1 PUSH1 0x40 MLOAD PUSH0 PUSH1 0x40 MLOAD DUP1 DUP4 SUB DUP2 DUP6 DUP9 DUP9 CALL SWAP4 POP POP POP POP ISZERO DUP1 ISZERO PUSH2 0x1B5A JUMPI RETURNDATASIZE PUSH0 PUSH0 RETURNDATACOPY RETURNDATASIZE PUSH0 REVERT JUMPDEST POP CALLER PUSH20 0xFFFFFFFFFFFFFFFFFFFFFFFFFFFFFFFFFFFFFFFF AND PUSH32 0x496B3BF0725D338A836ECF0B614E039F3736DACFD57AA32AF1BF55EA601CEAF5 PUSH1 0x18 SLOAD PUSH1 0x40 MLOAD PUSH2 0x1BA3 SWAP2 SWAP1 PUSH2 0x3B8C JUMP JUMPDEST PUSH1 0x40 MLOAD DUP1 SWAP2 SUB SWAP1 LOG2 JUMPDEST PUSH1 0x1 PUSH1 0x3 SLOAD PUSH2 0x1BBB SWAP2 SWAP1 PUSH2 0x43E3 JUMP JUMPDEST PUSH32 0x3838459CD794256A3C29BB3186DA72029A8036C0F596FEE1BD526F8EB9493D41 DUP5 PUSH1 0x40 MLOAD PUSH2 0x1BEA SWAP2 SWAP1 PUSH2 0x3B8C JUMP JUMPDEST PUSH1 0x40 MLOAD DUP1 SWAP2 SUB SWAP1 LOG2 PUSH1 0x1 PUSH1 0x6 DUP1 SLOAD SWAP1 POP SUB PUSH2 0x1D01 JUMPI PUSH0 PUSH1 0x6 PUSH0 DUP2 SLOAD DUP2 LT PUSH2 0x1C14 JUMPI PUSH2 0x1C13 PUSH2 0x498E JUMP JUMPDEST JUMPDEST SWAP1 PUSH0 MSTORE PUSH1 0x20 PUSH0 KECCAK256 ADD PUSH0 SWAP1 SLOAD SWAP1 PUSH2 0x100 EXP SWAP1 DIV PUSH20 0xFFFFFFFFFFFFFFFFFFFFFFFFFFFFFFFFFFFFFFFF AND SWAP1 POP PUSH0 PUSH1 0x10 SLOAD SWAP1 POP PUSH0 PUSH1 0x10 DUP2 SWAP1 SSTORE POP PUSH0 PUSH1 0x2 PUSH1 0x1 PUSH2 0x100 EXP DUP2 SLOAD DUP2 PUSH1 0xFF MUL NOT AND SWAP1 DUP4 ISZERO ISZERO MUL OR SWAP1 SSTORE POP PUSH2 0x1CB0 DUP3 DUP3 PUSH32 0x0 PUSH20 0xFFFFFFFFFFFFFFFFFFFFFFFFFFFFFFFFFFFFFFFF AND PUSH2 0x32B3 SWAP1 SWAP3 SWAP2 SWAP1 PUSH4 0xFFFFFFFF AND JUMP JUMPDEST DUP2 PUSH20 0xFFFFFFFFFFFFFFFFFFFFFFFFFFFFFFFFFFFFFFFF AND PUSH32 0x9C2270628A9B29D30AE96B6C4C14ED646EE134FEBDCE38A5B77F2BDE9CEA2E20 DUP3 PUSH1 0x40 MLOAD PUSH2 0x1CF6 SWAP2 SWAP1 PUSH2 0x3B8C JUMP JUMPDEST PUSH1 0x40 MLOAD DUP1 SWAP2 SUB SWAP1 LOG2 POP POP JUMPDEST POP POP POP POP PUSH2 0x1D0D PUSH2 0x3332 JUMP JUMPDEST JUMP JUMPDEST PUSH1 0x1E PUSH0 SWAP1 SLOAD SWAP1 PUSH2 0x100 EXP SWAP1 DIV PUSH4 0xFFFFFFFF AND DUP2 JUMP JUMPDEST PUSH2 0x1D2C PUSH2 0x31DD JUMP JUMPDEST PUSH0 PUSH1 0x2 DUP1 PUSH2 0x100 EXP DUP2 SLOAD DUP2 PUSH1 0xFF MUL NOT AND SWAP1 DUP4 ISZERO ISZERO MUL OR SWAP1 SSTORE POP CALLER PUSH20 0xFFFFFFFFFFFFFFFFFFFFFFFFFFFFFFFFFFFFFFFF AND PUSH32 0x5DB9EE0A495BF2E6FF9C91A7834C1BA4FDD244A5E8AA4E537BD38AEAE4B073AA PUSH1 0x40 MLOAD PUSH1 0x40 MLOAD DUP1 SWAP2 SUB SWAP1 LOG2 JUMP JUMPDEST PUSH1 0x2 PUSH1 0x1 SWAP1 SLOAD SWAP1 PUSH2 0x100 EXP SWAP1 DIV PUSH1 0xFF AND DUP2 JUMP JUMPDEST PUSH2 0x1DA5 PUSH2 0x31DD JUMP JUMPDEST PUSH0 DUP2 GT DUP1 ISZERO PUSH2 0x1DB6 JUMPI POP PUSH2 0x1F4 DUP2 GT ISZERO JUMPDEST PUSH2 0x1DF5 JUMPI PUSH1 0x40 MLOAD PUSH32 0x8C379A000000000000000000000000000000000000000000000000000000000 DUP2 MSTORE PUSH1 0x4 ADD PUSH2 0x1DEC SWAP1 PUSH2 0x4A76 JUMP JUMPDEST PUSH1 0x40 MLOAD DUP1 SWAP2 SUB SWAP1 REVERT JUMPDEST DUP1 PUSH1 0x15 DUP2 SWAP1 SSTORE POP POP JUMP JUMPDEST PUSH1 0x1E PUSH1 0x4 SWAP1 SLOAD SWAP1 PUSH2 0x100 EXP SWAP1 DIV PUSH2 0xFFFF AND DUP2 JUMP JUMPDEST PUSH1 0x60 PUSH1 0x6 DUP1 SLOAD DUP1 PUSH1 0x20 MUL PUSH1 0x20 ADD PUSH1 0x40 MLOAD SWAP1 DUP2 ADD PUSH1 0x40 MSTORE DUP1 SWAP3 SWAP2 SWAP1 DUP2 DUP2 MSTORE PUSH1 0x20 ADD DUP3 DUP1 SLOAD DUP1 ISZERO PUSH2 0x1E94 JUMPI PUSH1 0x20 MUL DUP3 ADD SWAP2 SWAP1 PUSH0 MSTORE PUSH1 0x20 PUSH0 KECCAK256 SWAP1 JUMPDEST DUP2 PUSH0 SWAP1 SLOAD SWAP1 PUSH2 0x100 EXP SWAP1 DIV PUSH20 0xFFFFFFFFFFFFFFFFFFFFFFFFFFFFFFFFFFFFFFFF AND PUSH20 0xFFFFFFFFFFFFFFFFFFFFFFFFFFFFFFFFFFFFFFFF AND DUP2 MSTORE PUSH1 0x20 ADD SWAP1 PUSH1 0x1 ADD SWAP1 DUP1 DUP4 GT PUSH2 0x1E4B JUMPI JUMPDEST POP POP POP POP POP SWAP1 POP SWAP1 JUMP JUMPDEST PUSH1 0x2 DUP1 SLOAD SWAP1 PUSH2 0x100 EXP SWAP1 DIV PUSH1 0xFF AND DUP2 JUMP JUMPDEST PUSH2 0x1EB7 PUSH2 0x31DD JUMP JUMPDEST PUSH1 0x64 DUP2 DUP4 DUP6 DUP8 DUP10 PUSH2 0x1EC8 SWAP2 SWAP1 PUSH2 0x3B4A JUMP JUMPDEST PUSH2 0x1ED2 SWAP2 SWAP1 PUSH2 0x3B4A JUMP JUMPDEST PUSH2 0x1EDC SWAP2 SWAP1 PUSH2 0x3B4A JUMP JUMPDEST PUSH2 0x1EE6 SWAP2 SWAP1 PUSH2 0x3B4A JUMP JUMPDEST EQ PUSH2 0x1F26 JUMPI PUSH1 0x40 MLOAD PUSH32 0x8C379A000000000000000000000000000000000000000000000000000000000 DUP2 MSTORE PUSH1 0x4 ADD PUSH2 0x1F1D SWAP1 PUSH2 0x4ADE JUMP JUMPDEST PUSH1 0x40 MLOAD DUP1 SWAP2 SUB SWAP1 REVERT JUMPDEST PUSH1 0x5 DUP2 LT ISZERO PUSH2 0x1F6A JUMPI PUSH1 0x40 MLOAD PUSH32 0x8C379A000000000000000000000000000000000000000000000000000000000 DUP2 MSTORE PUSH1 0x4 ADD PUSH2 0x1F61 SWAP1 PUSH2 0x4B46 JUMP JUMPDEST PUSH1 0x40 MLOAD DUP1 SWAP2 SUB SWAP1 REVERT JUMPDEST DUP5 PUSH1 0xB DUP2 SWAP1 SSTORE POP DUP4 PUSH1 0xC DUP2 SWAP1 SSTORE POP DUP3 PUSH1 0xD DUP2 SWAP1 SSTORE POP DUP2 PUSH1 0xE DUP2 SWAP1 SSTORE POP DUP1 PUSH1 0xF DUP2 SWAP1 SSTORE POP PUSH32 0xBC09D8B830E227198EB6883F2D592E634C162E75E399516D84B5938D23E1614A DUP6 DUP6 DUP6 DUP6 DUP6 PUSH1 0x40 MLOAD PUSH2 0x1FC4 SWAP6 SWAP5 SWAP4 SWAP3 SWAP2 SWAP1 PUSH2 0x4B64 JUMP JUMPDEST PUSH1 0x40 MLOAD DUP1 SWAP2 SUB SWAP1 LOG1 POP POP POP POP POP JUMP JUMPDEST PUSH2 0x1FDB PUSH2 0x31DD JUMP JUMPDEST PUSH1 0x2 DUP1 SLOAD SWAP1 PUSH2 0x100 EXP SWAP1 DIV PUSH1 0xFF AND ISZERO PUSH2 0x2029 JUMPI PUSH1 0x40 MLOAD PUSH32 0x8C379A000000000000000000000000000000000000000000000000000000000 DUP2 MSTORE PUSH1 0x4 ADD PUSH2 0x2020 SWAP1 PUSH2 0x428D JUMP JUMPDEST PUSH1 0x40 MLOAD DUP1 SWAP2 SUB SWAP1 REVERT JUMPDEST PUSH1 0x2 PUSH0 SWAP1 SLOAD SWAP1 PUSH2 0x100 EXP SWAP1 DIV PUSH1 0xFF AND ISZERO DUP1 ISZERO PUSH2 0x2052 JUMPI POP PUSH1 0x2 PUSH1 0x1 SWAP1 SLOAD SWAP1 PUSH2 0x100 EXP SWAP1 DIV PUSH1 0xFF AND ISZERO JUMPDEST PUSH2 0x2091 JUMPI PUSH1 0x40 MLOAD PUSH32 0x8C379A000000000000000000000000000000000000000000000000000000000 DUP2 MSTORE PUSH1 0x4 ADD PUSH2 0x2088 SWAP1 PUSH2 0x4BFF JUMP JUMPDEST PUSH1 0x40 MLOAD DUP1 SWAP2 SUB SWAP1 REVERT JUMPDEST PUSH1 0x1 PUSH1 0x2 PUSH0 PUSH2 0x100 EXP DUP2 SLOAD DUP2 PUSH1 0xFF MUL NOT AND SWAP1 DUP4 ISZERO ISZERO MUL OR SWAP1 SSTORE POP PUSH32 0x4B49057349914D28F830B1807042F9F5E96AA69EA2E276D656AD08CDF3A1CBF1 TIMESTAMP PUSH1 0x40 MLOAD PUSH2 0x20DA SWAP2 SWAP1 PUSH2 0x3B8C JUMP JUMPDEST PUSH1 0x40 MLOAD DUP1 SWAP2 SUB SWAP1 LOG1 JUMP JUMPDEST PUSH1 0x13 PUSH0 SWAP1 SLOAD SWAP1 PUSH2 0x100 EXP SWAP1 DIV PUSH20 0xFFFFFFFFFFFFFFFFFFFFFFFFFFFFFFFFFFFFFFFF AND DUP2 JUMP JUMPDEST PUSH2 0x2111 PUSH2 0x31DD JUMP JUMPDEST PUSH1 0x2 DUP1 SLOAD SWAP1 PUSH2 0x100 EXP SWAP1 DIV PUSH1 0xFF AND ISZERO PUSH2 0x215F JUMPI PUSH1 0x40 MLOAD PUSH32 0x8C379A000000000000000000000000000000000000000000000000000000000 DUP2 MSTORE PUSH1 0x4 ADD PUSH2 0x2156 SWAP1 PUSH2 0x428D JUMP JUMPDEST PUSH1 0x40 MLOAD DUP1 SWAP2 SUB SWAP1 REVERT JUMPDEST PUSH1 0x2 PUSH0 SWAP1 SLOAD SWAP1 PUSH2 0x100 EXP SWAP1 DIV PUSH1 0xFF AND PUSH2 0x21AD JUMPI PUSH1 0x40 MLOAD PUSH32 0x8C379A000000000000000000000000000000000000000000000000000000000 DUP2 MSTORE PUSH1 0x4 ADD PUSH2 0x21A4 SWAP1 PUSH2 0x4C67 JUMP JUMPDEST PUSH1 0x40 MLOAD DUP1 SWAP2 SUB SWAP1 REVERT JUMPDEST PUSH1 0x1 PUSH1 0x6 DUP1 SLOAD SWAP1 POP GT PUSH2 0x21F5 JUMPI PUSH1 0x40 MLOAD PUSH32 0x8C379A000000000000000000000000000000000000000000000000000000000 DUP2 MSTORE PUSH1 0x4 ADD PUSH2 0x21EC SWAP1 PUSH2 0x4CCF JUMP JUMPDEST PUSH1 0x40 MLOAD DUP1 SWAP2 SUB SWAP1 REVERT JUMPDEST PUSH0 PUSH1 0x2 PUSH0 PUSH2 0x100 EXP DUP2 SLOAD DUP2 PUSH1 0xFF MUL NOT AND SWAP1 DUP4 ISZERO ISZERO MUL OR SWAP1 SSTORE POP PUSH1 0x1 PUSH1 0x2 PUSH1 0x1 PUSH2 0x100 EXP DUP2 SLOAD DUP2 PUSH1 0xFF MUL NOT AND SWAP1 DUP4 ISZERO ISZERO MUL OR SWAP1 SSTORE POP PUSH1 0x1 PUSH1 0x3 DUP2 SWAP1 SSTORE POP TIMESTAMP PUSH1 0x5 DUP2 SWAP1 SSTORE POP PUSH0 PUSH1 0x9 PUSH0 PUSH0 DUP2 MSTORE PUSH1 0x20 ADD SWAP1 DUP2 MSTORE PUSH1 0x20 ADD PUSH0 KECCAK256 DUP2 SWAP1 SSTORE POP PUSH32 0x309970D6E6EBF643CA3FAC15BD242B5D468FDE2DD732F54EF91C18088BB63D64 TIMESTAMP PUSH1 0x3 SLOAD PUSH1 0x40 MLOAD PUSH2 0x2281 SWAP3 SWAP2 SWAP1 PUSH2 0x3CFC JUMP JUMPDEST PUSH1 0x40 MLOAD DUP1 SWAP2 SUB SWAP1 LOG1 PUSH1 0x3 SLOAD PUSH32 0x278844837BCF8364A705384BF3A2812901F54155BAE86DEA81DD52AA5B9EC0E3 PUSH1 0x5 SLOAD PUSH1 0x40 MLOAD PUSH2 0x22BD SWAP2 SWAP1 PUSH2 0x3B8C JUMP JUMPDEST PUSH1 0x40 MLOAD DUP1 SWAP2 SUB SWAP1 LOG2 JUMP JUMPDEST PUSH2 0x22CF PUSH2 0x31DD JUMP JUMPDEST PUSH2 0x22D8 PUSH0 PUSH2 0x38B7 JUMP JUMPDEST JUMP JUMPDEST PUSH1 0x1A SLOAD DUP2 JUMP JUMPDEST PUSH1 0x10 SLOAD DUP2 JUMP JUMPDEST PUSH32 0x0 DUP2 JUMP JUMPDEST PUSH2 0x2312 PUSH2 0x31DD JUMP JUMPDEST DUP1 PUSH0 PUSH20 0xFFFFFFFFFFFFFFFFFFFFFFFFFFFFFFFFFFFFFFFF AND DUP2 PUSH20 0xFFFFFFFFFFFFFFFFFFFFFFFFFFFFFFFFFFFFFFFF AND SUB PUSH2 0x2381 JUMPI PUSH1 0x40 MLOAD PUSH32 0x8C379A000000000000000000000000000000000000000000000000000000000 DUP2 MSTORE PUSH1 0x4 ADD PUSH2 0x2378 SWAP1 PUSH2 0x4D37 JUMP JUMPDEST PUSH1 0x40 MLOAD DUP1 SWAP2 SUB SWAP1 REVERT JUMPDEST DUP2 PUSH1 0x17 PUSH0 PUSH2 0x100 EXP DUP2 SLOAD DUP2 PUSH20 0xFFFFFFFFFFFFFFFFFFFFFFFFFFFFFFFFFFFFFFFF MUL NOT AND SWAP1 DUP4 PUSH20 0xFFFFFFFFFFFFFFFFFFFFFFFFFFFFFFFFFFFFFFFF AND MUL OR SWAP1 SSTORE POP DUP2 PUSH20 0xFFFFFFFFFFFFFFFFFFFFFFFFFFFFFFFFFFFFFFFF AND PUSH32 0xDC3DBA1D64DD67C0DC8B12621EDD0C6CA4303A9073C3A8FCAC38115E73D67B6B PUSH1 0x40 MLOAD PUSH1 0x40 MLOAD DUP1 SWAP2 SUB SWAP1 LOG2 POP POP JUMP JUMPDEST PUSH2 0x2410 PUSH2 0x31DD JUMP JUMPDEST PUSH0 PUSH20 0xFFFFFFFFFFFFFFFFFFFFFFFFFFFFFFFFFFFFFFFF AND DUP4 PUSH20 0xFFFFFFFFFFFFFFFFFFFFFFFFFFFFFFFFFFFFFFFF AND EQ ISZERO DUP1 ISZERO PUSH2 0x2478 JUMPI POP PUSH0 PUSH20 0xFFFFFFFFFFFFFFFFFFFFFFFFFFFFFFFFFFFFFFFF AND DUP3 PUSH20 0xFFFFFFFFFFFFFFFFFFFFFFFFFFFFFFFFFFFFFFFF AND EQ ISZERO JUMPDEST DUP1 ISZERO PUSH2 0x24B0 JUMPI POP PUSH0 PUSH20 0xFFFFFFFFFFFFFFFFFFFFFFFFFFFFFFFFFFFFFFFF AND DUP2 PUSH20 0xFFFFFFFFFFFFFFFFFFFFFFFFFFFFFFFFFFFFFFFF AND EQ ISZERO JUMPDEST PUSH2 0x24EF JUMPI PUSH1 0x40 MLOAD PUSH32 0x8C379A000000000000000000000000000000000000000000000000000000000 DUP2 MSTORE PUSH1 0x4 ADD PUSH2 0x24E6 SWAP1 PUSH2 0x4D9F JUMP JUMPDEST PUSH1 0x40 MLOAD DUP1 SWAP2 SUB SWAP1 REVERT JUMPDEST DUP3 PUSH1 0x12 PUSH0 PUSH2 0x100 EXP DUP2 SLOAD DUP2 PUSH20 0xFFFFFFFFFFFFFFFFFFFFFFFFFFFFFFFFFFFFFFFF MUL NOT AND SWAP1 DUP4 PUSH20 0xFFFFFFFFFFFFFFFFFFFFFFFFFFFFFFFFFFFFFFFF AND MUL OR SWAP1 SSTORE POP DUP2 PUSH1 0x13 PUSH0 PUSH2 0x100 EXP DUP2 SLOAD DUP2 PUSH20 0xFFFFFFFFFFFFFFFFFFFFFFFFFFFFFFFFFFFFFFFF MUL NOT AND SWAP1 DUP4 PUSH20 0xFFFFFFFFFFFFFFFFFFFFFFFFFFFFFFFFFFFFFFFF AND MUL OR SWAP1 SSTORE POP DUP1 PUSH1 0x14 PUSH0 PUSH2 0x100 EXP DUP2 SLOAD DUP2 PUSH20 0xFFFFFFFFFFFFFFFFFFFFFFFFFFFFFFFFFFFFFFFF MUL NOT AND SWAP1 DUP4 PUSH20 0xFFFFFFFFFFFFFFFFFFFFFFFFFFFFFFFFFFFFFFFF AND MUL OR SWAP1 SSTORE POP PUSH32 0x2D4C6AA48812A0EA09474A961613C1A3AE652D39A1580CB1AC46FF277E6D385D DUP4 DUP4 DUP4 PUSH1 0x40 MLOAD PUSH2 0x25E2 SWAP4 SWAP3 SWAP2 SWAP1 PUSH2 0x4DBD JUMP JUMPDEST PUSH1 0x40 MLOAD DUP1 SWAP2 SUB SWAP1 LOG1 POP POP POP JUMP JUMPDEST PUSH2 0x25F7 PUSH2 0x3264 JUMP JUMPDEST PUSH1 0x2 DUP1 SLOAD SWAP1 PUSH2 0x100 EXP SWAP1 DIV PUSH1 0xFF AND ISZERO PUSH2 0x2645 JUMPI PUSH1 0x40 MLOAD PUSH32 0x8C379A000000000000000000000000000000000000000000000000000000000 DUP2 MSTORE PUSH1 0x4 ADD PUSH2 0x263C SWAP1 PUSH2 0x428D JUMP JUMPDEST PUSH1 0x40 MLOAD DUP1 SWAP2 SUB SWAP1 REVERT JUMPDEST PUSH1 0x2 PUSH0 SWAP1 SLOAD SWAP1 PUSH2 0x100 EXP SWAP1 DIV PUSH1 0xFF AND PUSH2 0x2693 JUMPI PUSH1 0x40 MLOAD PUSH32 0x8C379A000000000000000000000000000000000000000000000000000000000 DUP2 MSTORE PUSH1 0x4 ADD PUSH2 0x268A SWAP1 PUSH2 0x4E3C JUMP JUMPDEST PUSH1 0x40 MLOAD DUP1 SWAP2 SUB SWAP1 REVERT JUMPDEST PUSH0 DUP3 GT PUSH2 0x26D5 JUMPI PUSH1 0x40 MLOAD PUSH32 0x8C379A000000000000000000000000000000000000000000000000000000000 DUP2 MSTORE PUSH1 0x4 ADD PUSH2 0x26CC SWAP1 PUSH2 0x4EA4 JUMP JUMPDEST PUSH1 0x40 MLOAD DUP1 SWAP2 SUB SWAP1 REVERT JUMPDEST PUSH0 PUSH32 0x0 PUSH20 0xFFFFFFFFFFFFFFFFFFFFFFFFFFFFFFFFFFFFFFFF AND PUSH4 0x70A08231 ADDRESS PUSH1 0x40 MLOAD DUP3 PUSH4 0xFFFFFFFF AND PUSH1 0xE0 SHL DUP2 MSTORE PUSH1 0x4 ADD PUSH2 0x272F SWAP2 SWAP1 PUSH2 0x3C8E JUMP JUMPDEST PUSH1 0x20 PUSH1 0x40 MLOAD DUP1 DUP4 SUB DUP2 DUP7 GAS STATICCALL ISZERO DUP1 ISZERO PUSH2 0x274A JUMPI RETURNDATASIZE PUSH0 PUSH0 RETURNDATACOPY RETURNDATASIZE PUSH0 REVERT JUMPDEST POP POP POP POP PUSH1 0x40 MLOAD RETURNDATASIZE PUSH1 0x1F NOT PUSH1 0x1F DUP3 ADD AND DUP3 ADD DUP1 PUSH1 0x40 MSTORE POP DUP2 ADD SWAP1 PUSH2 0x276E SWAP2 SWAP1 PUSH2 0x4ED6 JUMP JUMPDEST SWAP1 POP PUSH2 0x27BD CALLER ADDRESS DUP6 PUSH32 0x0 PUSH20 0xFFFFFFFFFFFFFFFFFFFFFFFFFFFFFFFFFFFFFFFF AND PUSH2 0x3978 SWAP1 SWAP4 SWAP3 SWAP2 SWAP1 PUSH4 0xFFFFFFFF AND JUMP JUMPDEST PUSH0 DUP2 PUSH32 0x0 PUSH20 0xFFFFFFFFFFFFFFFFFFFFFFFFFFFFFFFFFFFFFFFF AND PUSH4 0x70A08231 ADDRESS PUSH1 0x40 MLOAD DUP3 PUSH4 0xFFFFFFFF AND PUSH1 0xE0 SHL DUP2 MSTORE PUSH1 0x4 ADD PUSH2 0x2818 SWAP2 SWAP1 PUSH2 0x3C8E JUMP JUMPDEST PUSH1 0x20 PUSH1 0x40 MLOAD DUP1 DUP4 SUB DUP2 DUP7 GAS STATICCALL ISZERO DUP1 ISZERO PUSH2 0x2833 JUMPI RETURNDATASIZE PUSH0 PUSH0 RETURNDATACOPY RETURNDATASIZE PUSH0 REVERT JUMPDEST POP POP POP POP PUSH1 0x40 MLOAD RETURNDATASIZE PUSH1 0x1F NOT PUSH1 0x1F DUP3 ADD AND DUP3 ADD DUP1 PUSH1 0x40 MSTORE POP DUP2 ADD SWAP1 PUSH2 0x2857 SWAP2 SWAP1 PUSH2 0x4ED6 JUMP JUMPDEST PUSH2 0x2861 SWAP2 SWAP1 PUSH2 0x43E3 JUMP JUMPDEST SWAP1 POP DUP3 DUP2 LT ISZERO PUSH2 0x28A6 JUMPI PUSH1 0x40 MLOAD PUSH32 0x8C379A000000000000000000000000000000000000000000000000000000000 DUP2 MSTORE PUSH1 0x4 ADD PUSH2 0x289D SWAP1 PUSH2 0x4F4B JUMP JUMPDEST PUSH1 0x40 MLOAD DUP1 SWAP2 SUB SWAP1 REVERT JUMPDEST PUSH0 PUSH1 0x7 PUSH0 CALLER PUSH20 0xFFFFFFFFFFFFFFFFFFFFFFFFFFFFFFFFFFFFFFFF AND PUSH20 0xFFFFFFFFFFFFFFFFFFFFFFFFFFFFFFFFFFFFFFFF AND DUP2 MSTORE PUSH1 0x20 ADD SWAP1 DUP2 MSTORE PUSH1 0x20 ADD PUSH0 KECCAK256 PUSH0 ADD SLOAD SUB PUSH2 0x2994 JUMPI PUSH1 0x6 CALLER SWAP1 DUP1 PUSH1 0x1 DUP2 SLOAD ADD DUP1 DUP3 SSTORE DUP1 SWAP2 POP POP PUSH1 0x1 SWAP1 SUB SWAP1 PUSH0 MSTORE PUSH1 0x20 PUSH0 KECCAK256 ADD PUSH0 SWAP1 SWAP2 SWAP1 SWAP2 SWAP1 SWAP2 PUSH2 0x100 EXP DUP2 SLOAD DUP2 PUSH20 0xFFFFFFFFFFFFFFFFFFFFFFFFFFFFFFFFFFFFFFFF MUL NOT AND SWAP1 DUP4 PUSH20 0xFFFFFFFFFFFFFFFFFFFFFFFFFFFFFFFFFFFFFFFF AND MUL OR SWAP1 SSTORE POP PUSH1 0x6 DUP1 SLOAD SWAP1 POP PUSH1 0x8 PUSH0 CALLER PUSH20 0xFFFFFFFFFFFFFFFFFFFFFFFFFFFFFFFFFFFFFFFF AND PUSH20 0xFFFFFFFFFFFFFFFFFFFFFFFFFFFFFFFFFFFFFFFF AND DUP2 MSTORE PUSH1 0x20 ADD SWAP1 DUP2 MSTORE PUSH1 0x20 ADD PUSH0 KECCAK256 DUP2 SWAP1 SSTORE POP JUMPDEST DUP1 PUSH1 0x7 PUSH0 CALLER PUSH20 0xFFFFFFFFFFFFFFFFFFFFFFFFFFFFFFFFFFFFFFFF AND PUSH20 0xFFFFFFFFFFFFFFFFFFFFFFFFFFFFFFFFFFFFFFFF AND DUP2 MSTORE PUSH1 0x20 ADD SWAP1 DUP2 MSTORE PUSH1 0x20 ADD PUSH0 KECCAK256 PUSH0 ADD PUSH0 DUP3 DUP3 SLOAD PUSH2 0x29E2 SWAP2 SWAP1 PUSH2 0x3B4A JUMP JUMPDEST SWAP3 POP POP DUP2 SWAP1 SSTORE POP CALLER PUSH20 0xFFFFFFFFFFFFFFFFFFFFFFFFFFFFFFFFFFFFFFFF AND PUSH32 0x9E71BC8EEA02A63969F509818F2DAFB9254532904319F9DBDA79B67BD34A5F3D DUP3 PUSH1 0x40 MLOAD PUSH2 0x2A2F SWAP2 SWAP1 PUSH2 0x3B8C JUMP JUMPDEST PUSH1 0x40 MLOAD DUP1 SWAP2 SUB SWAP1 LOG2 POP POP PUSH2 0x2A41 PUSH2 0x3332 JUMP JUMPDEST POP POP JUMP JUMPDEST PUSH0 PUSH1 0x17 PUSH0 SWAP1 SLOAD SWAP1 PUSH2 0x100 EXP SWAP1 DIV PUSH20 0xFFFFFFFFFFFFFFFFFFFFFFFFFFFFFFFFFFFFFFFF AND PUSH20 0xFFFFFFFFFFFFFFFFFFFFFFFFFFFFFFFFFFFFFFFF AND CALLER PUSH20 0xFFFFFFFFFFFFFFFFFFFFFFFFFFFFFFFFFFFFFFFF AND EQ PUSH2 0x2AD5 JUMPI PUSH1 0x40 MLOAD PUSH32 0x8C379A000000000000000000000000000000000000000000000000000000000 DUP2 MSTORE PUSH1 0x4 ADD PUSH2 0x2ACC SWAP1 PUSH2 0x45BF JUMP JUMPDEST PUSH1 0x40 MLOAD DUP1 SWAP2 SUB SWAP1 REVERT JUMPDEST PUSH1 0x2 DUP1 SLOAD SWAP1 PUSH2 0x100 EXP SWAP1 DIV PUSH1 0xFF AND ISZERO PUSH2 0x2B23 JUMPI PUSH1 0x40 MLOAD PUSH32 0x8C379A000000000000000000000000000000000000000000000000000000000 DUP2 MSTORE PUSH1 0x4 ADD PUSH2 0x2B1A SWAP1 PUSH2 0x428D JUMP JUMPDEST PUSH1 0x40 MLOAD DUP1 SWAP2 SUB SWAP1 REVERT JUMPDEST PUSH1 0x2 PUSH1 0x1 SWAP1 SLOAD SWAP1 PUSH2 0x100 EXP SWAP1 DIV PUSH1 0xFF AND PUSH2 0x2B72 JUMPI PUSH1 0x40 MLOAD PUSH32 0x8C379A000000000000000000000000000000000000000000000000000000000 DUP2 MSTORE PUSH1 0x4 ADD PUSH2 0x2B69 SWAP1 PUSH2 0x4627 JUMP JUMPDEST PUSH1 0x40 MLOAD DUP1 SWAP2 SUB SWAP1 REVERT JUMPDEST PUSH1 0x4 SLOAD PUSH1 0x5 SLOAD PUSH2 0x2B82 SWAP2 SWAP1 PUSH2 0x3B4A JUMP JUMPDEST TIMESTAMP LT ISZERO PUSH2 0x2BC4 JUMPI PUSH1 0x40 MLOAD PUSH32 0x8C379A000000000000000000000000000000000000000000000000000000000 DUP2 MSTORE PUSH1 0x4 ADD PUSH2 0x2BBB SWAP1 PUSH2 0x46F7 JUMP JUMPDEST PUSH1 0x40 MLOAD DUP1 SWAP2 SUB SWAP1 REVERT JUMPDEST PUSH0 PUSH1 0x3 SLOAD SWAP1 POP PUSH0 PUSH1 0xA PUSH0 DUP4 DUP2 MSTORE PUSH1 0x20 ADD SWAP1 DUP2 MSTORE PUSH1 0x20 ADD PUSH0 KECCAK256 PUSH1 0x3 ADD SLOAD EQ PUSH2 0x2C20 JUMPI PUSH1 0x40 MLOAD PUSH32 0x8C379A000000000000000000000000000000000000000000000000000000000 DUP2 MSTORE PUSH1 0x4 ADD PUSH2 0x2C17 SWAP1 PUSH2 0x4FB3 JUMP JUMPDEST PUSH1 0x40 MLOAD DUP1 SWAP2 SUB SWAP1 REVERT JUMPDEST PUSH1 0x1C PUSH0 SWAP1 SLOAD SWAP1 PUSH2 0x100 EXP SWAP1 DIV PUSH20 0xFFFFFFFFFFFFFFFFFFFFFFFFFFFFFFFFFFFFFFFF AND PUSH20 0xFFFFFFFFFFFFFFFFFFFFFFFFFFFFFFFFFFFFFFFF AND PUSH4 0x5D3B1D30 PUSH1 0x1D SLOAD PUSH1 0x1C PUSH1 0x14 SWAP1 SLOAD SWAP1 PUSH2 0x100 EXP SWAP1 DIV PUSH8 0xFFFFFFFFFFFFFFFF AND PUSH1 0x1E PUSH1 0x4 SWAP1 SLOAD SWAP1 PUSH2 0x100 EXP SWAP1 DIV PUSH2 0xFFFF AND PUSH1 0x1E PUSH0 SWAP1 SLOAD SWAP1 PUSH2 0x100 EXP SWAP1 DIV PUSH4 0xFFFFFFFF AND PUSH1 0x1 PUSH1 0x40 MLOAD DUP7 PUSH4 0xFFFFFFFF AND PUSH1 0xE0 SHL DUP2 MSTORE PUSH1 0x4 ADD PUSH2 0x2CBC SWAP6 SWAP5 SWAP4 SWAP3 SWAP2 SWAP1 PUSH2 0x500A JUMP JUMPDEST PUSH1 0x20 PUSH1 0x40 MLOAD DUP1 DUP4 SUB DUP2 PUSH0 DUP8 GAS CALL ISZERO DUP1 ISZERO PUSH2 0x2CD8 JUMPI RETURNDATASIZE PUSH0 PUSH0 RETURNDATACOPY RETURNDATASIZE PUSH0 REVERT JUMPDEST POP POP POP POP PUSH1 0x40 MLOAD RETURNDATASIZE PUSH1 0x1F NOT PUSH1 0x1F DUP3 ADD AND DUP3 ADD DUP1 PUSH1 0x40 MSTORE POP DUP2 ADD SWAP1 PUSH2 0x2CFC SWAP2 SWAP1 PUSH2 0x4ED6 JUMP JUMPDEST SWAP2 POP DUP1 PUSH1 0x1F PUSH0 DUP5 DUP2 MSTORE PUSH1 0x20 ADD SWAP1 DUP2 MSTORE PUSH1 0x20 ADD PUSH0 KECCAK256 DUP2 SWAP1 SSTORE POP NUMBER PUSH1 0xA PUSH0 DUP4 DUP2 MSTORE PUSH1 0x20 ADD SWAP1 DUP2 MSTORE PUSH1 0x20 ADD PUSH0 KECCAK256 PUSH1 0x3 ADD DUP2 SWAP1 SSTORE POP DUP1 PUSH32 0x8103ECCC47A3DDC6E91F4725113183081313C2756F00F8B3BB960433BD4B33F3 DUP4 NUMBER PUSH1 0x40 MLOAD PUSH2 0x2D5F SWAP3 SWAP2 SWAP1 PUSH2 0x3CFC JUMP JUMPDEST PUSH1 0x40 MLOAD DUP1 SWAP2 SUB SWAP1 LOG2 POP SWAP1 JUMP JUMPDEST PUSH2 0x2D73 PUSH2 0x31DD JUMP JUMPDEST PUSH0 CALLVALUE GT PUSH2 0x2DB5 JUMPI PUSH1 0x40 MLOAD PUSH32 0x8C379A000000000000000000000000000000000000000000000000000000000 DUP2 MSTORE PUSH1 0x4 ADD PUSH2 0x2DAC SWAP1 PUSH2 0x3AF6 JUMP JUMPDEST PUSH1 0x40 MLOAD DUP1 SWAP2 SUB SWAP1 REVERT JUMPDEST CALLVALUE PUSH1 0x19 PUSH0 DUP3 DUP3 SLOAD PUSH2 0x2DC6 SWAP2 SWAP1 PUSH2 0x3B4A JUMP JUMPDEST SWAP3 POP POP DUP2 SWAP1 SSTORE POP CALLER PUSH20 0xFFFFFFFFFFFFFFFFFFFFFFFFFFFFFFFFFFFFFFFF AND PUSH32 0x32FB8666FB8614C76BA83B694A0C60F4EE5699886BFE56001AA48337FBB134FF CALLVALUE PUSH1 0x40 MLOAD PUSH2 0x2E13 SWAP2 SWAP1 PUSH2 0x3B8C JUMP JUMPDEST PUSH1 0x40 MLOAD DUP1 SWAP2 SUB SWAP1 LOG2 JUMP JUMPDEST PUSH2 0x2E25 PUSH2 0x31DD JUMP JUMPDEST PUSH1 0x1 PUSH1 0x2 DUP1 PUSH2 0x100 EXP DUP2 SLOAD DUP2 PUSH1 0xFF MUL NOT AND SWAP1 DUP4 ISZERO ISZERO MUL OR SWAP1 SSTORE POP CALLER PUSH20 0xFFFFFFFFFFFFFFFFFFFFFFFFFFFFFFFFFFFFFFFF AND PUSH32 0x62E78CEA01BEE320CD4E420270B5EA74000D11B0C9F74754EBDBFC544B05A258 PUSH1 0x40 MLOAD PUSH1 0x40 MLOAD DUP1 SWAP2 SUB SWAP1 LOG2 JUMP JUMPDEST PUSH1 0x9 PUSH1 0x20 MSTORE DUP1 PUSH0 MSTORE PUSH1 0x40 PUSH0 KECCAK256 PUSH0 SWAP2 POP SWAP1 POP SLOAD DUP2 JUMP JUMPDEST PUSH2 0x2EA1 PUSH2 0x31DD JUMP JUMPDEST PUSH1 0x19 SLOAD DUP2 GT ISZERO PUSH2 0x2EE6 JUMPI PUSH1 0x40 MLOAD PUSH32 0x8C379A000000000000000000000000000000000000000000000000000000000 DUP2 MSTORE PUSH1 0x4 ADD PUSH2 0x2EDD SWAP1 PUSH2 0x50A5 JUMP JUMPDEST PUSH1 0x40 MLOAD DUP1 SWAP2 SUB SWAP1 REVERT JUMPDEST DUP1 PUSH1 0x19 PUSH0 DUP3 DUP3 SLOAD PUSH2 0x2EF7 SWAP2 SWAP1 PUSH2 0x43E3 JUMP JUMPDEST SWAP3 POP POP DUP2 SWAP1 SSTORE POP CALLER PUSH20 0xFFFFFFFFFFFFFFFFFFFFFFFFFFFFFFFFFFFFFFFF AND PUSH2 0x8FC DUP3 SWAP1 DUP2 ISZERO MUL SWAP1 PUSH1 0x40 MLOAD PUSH0 PUSH1 0x40 MLOAD DUP1 DUP4 SUB DUP2 DUP6 DUP9 DUP9 CALL SWAP4 POP POP POP POP ISZERO DUP1 ISZERO PUSH2 0x2F41 JUMPI RETURNDATASIZE PUSH0 PUSH0 RETURNDATACOPY RETURNDATASIZE PUSH0 REVERT JUMPDEST POP CALLER PUSH20 0xFFFFFFFFFFFFFFFFFFFFFFFFFFFFFFFFFFFFFFFF AND PUSH32 0xE8B716CFBFD42EA155F1C282F736F4E49A0136EAFFCA0CD650BDF93CD2EBD7C5 DUP3 PUSH1 0x40 MLOAD PUSH2 0x2F88 SWAP2 SWAP1 PUSH2 0x3B8C JUMP JUMPDEST PUSH1 0x40 MLOAD DUP1 SWAP2 SUB SWAP1 LOG2 POP JUMP JUMPDEST PUSH1 0x3 SLOAD DUP2 JUMP JUMPDEST PUSH2 0x2FA1 PUSH2 0x31DD JUMP JUMPDEST DUP1 PUSH1 0x18 DUP2 SWAP1 SSTORE POP POP JUMP JUMPDEST PUSH1 0xA PUSH1 0x20 MSTORE DUP1 PUSH0 MSTORE PUSH1 0x40 PUSH0 KECCAK256 PUSH0 SWAP2 POP SWAP1 POP DUP1 PUSH0 ADD SLOAD SWAP1 DUP1 PUSH1 0x1 ADD SLOAD SWAP1 DUP1 PUSH1 0x2 ADD SLOAD SWAP1 DUP1 PUSH1 0x3 ADD SLOAD SWAP1 DUP1 PUSH1 0x4 ADD PUSH0 SWAP1 SLOAD SWAP1 PUSH2 0x100 EXP SWAP1 DIV PUSH1 0xFF AND SWAP1 DUP1 PUSH1 0x4 ADD PUSH1 0x1 SWAP1 SLOAD SWAP1 PUSH2 0x100 EXP SWAP1 DIV PUSH1 0xFF AND SWAP1 POP DUP7 JUMP JUMPDEST PUSH0 PUSH0 PUSH0 SWAP1 SLOAD SWAP1 PUSH2 0x100 EXP SWAP1 DIV PUSH20 0xFFFFFFFFFFFFFFFFFFFFFFFFFFFFFFFFFFFFFFFF AND SWAP1 POP SWAP1 JUMP JUMPDEST PUSH1 0x12 PUSH0 SWAP1 SLOAD SWAP1 PUSH2 0x100 EXP SWAP1 DIV PUSH20 0xFFFFFFFFFFFFFFFFFFFFFFFFFFFFFFFFFFFFFFFF AND DUP2 JUMP JUMPDEST PUSH2 0x3050 PUSH2 0x31DD JUMP JUMPDEST PUSH0 DUP2 GT PUSH2 0x3092 JUMPI PUSH1 0x40 MLOAD PUSH32 0x8C379A000000000000000000000000000000000000000000000000000000000 DUP2 MSTORE PUSH1 0x4 ADD PUSH2 0x3089 SWAP1 PUSH2 0x510D JUMP JUMPDEST PUSH1 0x40 MLOAD DUP1 SWAP2 SUB SWAP1 REVERT JUMPDEST DUP1 PUSH1 0x1A DUP2 SWAP1 SSTORE POP POP JUMP JUMPDEST PUSH1 0x2 PUSH0 SWAP1 SLOAD SWAP1 PUSH2 0x100 EXP SWAP1 DIV PUSH1 0xFF AND DUP2 JUMP JUMPDEST PUSH1 0x16 SLOAD DUP2 JUMP JUMPDEST PUSH1 0x17 PUSH0 SWAP1 SLOAD SWAP1 PUSH2 0x100 EXP SWAP1 DIV PUSH20 0xFFFFFFFFFFFFFFFFFFFFFFFFFFFFFFFFFFFFFFFF AND DUP2 JUMP JUMPDEST PUSH1 0x11 SLOAD DUP2 JUMP JUMPDEST PUSH1 0xF SLOAD DUP2 JUMP JUMPDEST PUSH1 0x1F PUSH1 0x20 MSTORE DUP1 PUSH0 MSTORE PUSH1 0x40 PUSH0 KECCAK256 PUSH0 SWAP2 POP SWAP1 POP SLOAD DUP2 JUMP JUMPDEST PUSH1 0x5 SLOAD DUP2 JUMP JUMPDEST PUSH0 PUSH1 0x6 DUP1 SLOAD SWAP1 POP SWAP1 POP SWAP1 JUMP JUMPDEST PUSH1 0x1B PUSH1 0x20 MSTORE DUP1 PUSH0 MSTORE PUSH1 0x40 PUSH0 KECCAK256 PUSH0 SWAP2 POP SWAP1 POP SLOAD DUP2 JUMP JUMPDEST PUSH1 0xC SLOAD DUP2 JUMP JUMPDEST PUSH1 0x18 SLOAD DUP2 JUMP JUMPDEST PUSH1 0x1C PUSH1 0x14 SWAP1 SLOAD SWAP1 PUSH2 0x100 EXP SWAP1 DIV PUSH8 0xFFFFFFFFFFFFFFFF AND DUP2 JUMP JUMPDEST PUSH2 0x314F PUSH2 0x31DD JUMP JUMPDEST PUSH0 PUSH20 0xFFFFFFFFFFFFFFFFFFFFFFFFFFFFFFFFFFFFFFFF AND DUP2 PUSH20 0xFFFFFFFFFFFFFFFFFFFFFFFFFFFFFFFFFFFFFFFF AND SUB PUSH2 0x31BF JUMPI PUSH0 PUSH1 0x40 MLOAD PUSH32 0x1E4FBDF700000000000000000000000000000000000000000000000000000000 DUP2 MSTORE PUSH1 0x4 ADD PUSH2 0x31B6 SWAP2 SWAP1 PUSH2 0x3C8E JUMP JUMPDEST PUSH1 0x40 MLOAD DUP1 SWAP2 SUB SWAP1 REVERT JUMPDEST PUSH2 0x31C8 DUP2 PUSH2 0x38B7 JUMP JUMPDEST POP JUMP JUMPDEST PUSH1 0x15 SLOAD DUP2 JUMP JUMPDEST PUSH1 0x4 SLOAD DUP2 JUMP JUMPDEST PUSH1 0xB SLOAD DUP2 JUMP JUMPDEST PUSH2 0x31E5 PUSH2 0x39FA JUMP JUMPDEST PUSH20 0xFFFFFFFFFFFFFFFFFFFFFFFFFFFFFFFFFFFFFFFF AND PUSH2 0x3203 PUSH2 0x2FFC JUMP JUMPDEST PUSH20 0xFFFFFFFFFFFFFFFFFFFFFFFFFFFFFFFFFFFFFFFF AND EQ PUSH2 0x3262 JUMPI PUSH2 0x3226 PUSH2 0x39FA JUMP JUMPDEST PUSH1 0x40 MLOAD PUSH32 0x118CDAA700000000000000000000000000000000000000000000000000000000 DUP2 MSTORE PUSH1 0x4 ADD PUSH2 0x3259 SWAP2 SWAP1 PUSH2 0x3C8E JUMP JUMPDEST PUSH1 0x40 MLOAD DUP1 SWAP2 SUB SWAP1 REVERT JUMPDEST JUMP JUMPDEST PUSH1 0x2 PUSH1 0x1 SLOAD SUB PUSH2 0x32A9 JUMPI PUSH1 0x40 MLOAD PUSH32 0x8C379A000000000000000000000000000000000000000000000000000000000 DUP2 MSTORE PUSH1 0x4 ADD PUSH2 0x32A0 SWAP1 PUSH2 0x5175 JUMP JUMPDEST PUSH1 0x40 MLOAD DUP1 SWAP2 SUB SWAP1 REVERT JUMPDEST PUSH1 0x2 PUSH1 0x1 DUP2 SWAP1 SSTORE POP JUMP JUMPDEST PUSH2 0x332D DUP4 DUP5 PUSH20 0xFFFFFFFFFFFFFFFFFFFFFFFFFFFFFFFFFFFFFFFF AND PUSH4 0xA9059CBB DUP6 DUP6 PUSH1 0x40 MLOAD PUSH1 0x24 ADD PUSH2 0x32E6 SWAP3 SWAP2 SWAP1 PUSH2 0x5193 JUMP JUMPDEST PUSH1 0x40 MLOAD PUSH1 0x20 DUP2 DUP4 SUB SUB DUP2 MSTORE SWAP1 PUSH1 0x40 MSTORE SWAP2 POP PUSH1 0xE0 SHL PUSH1 0x20 DUP3 ADD DUP1 MLOAD PUSH28 0xFFFFFFFFFFFFFFFFFFFFFFFFFFFFFFFFFFFFFFFFFFFFFFFFFFFFFFFF DUP4 DUP2 DUP4 AND OR DUP4 MSTORE POP POP POP POP PUSH2 0x3A01 JUMP JUMPDEST POP POP POP JUMP JUMPDEST PUSH1 0x1 DUP1 DUP2 SWAP1 SSTORE POP JUMP JUMPDEST PUSH0 PUSH1 0x1F PUSH0 DUP5 DUP2 MSTORE PUSH1 0x20 ADD SWAP1 DUP2 MSTORE PUSH1 0x20 ADD PUSH0 KECCAK256 SLOAD SWAP1 POP PUSH0 DUP2 SUB PUSH2 0x3392 JUMPI PUSH1 0x40 MLOAD PUSH32 0x8C379A000000000000000000000000000000000000000000000000000000000 DUP2 MSTORE PUSH1 0x4 ADD PUSH2 0x3389 SWAP1 PUSH2 0x5204 JUMP JUMPDEST PUSH1 0x40 MLOAD DUP1 SWAP2 SUB SWAP1 REVERT JUMPDEST DUP2 PUSH0 DUP2 MLOAD DUP2 LT PUSH2 0x33A5 JUMPI PUSH2 0x33A4 PUSH2 0x498E JUMP JUMPDEST JUMPDEST PUSH1 0x20 MUL PUSH1 0x20 ADD ADD MLOAD PUSH1 0xA PUSH0 DUP4 DUP2 MSTORE PUSH1 0x20 ADD SWAP1 DUP2 MSTORE PUSH1 0x20 ADD PUSH0 KECCAK256 PUSH1 0x2 ADD DUP2 SWAP1 SSTORE POP PUSH1 0x1 PUSH1 0xA PUSH0 DUP4 DUP2 MSTORE PUSH1 0x20 ADD SWAP1 DUP2 MSTORE PUSH1 0x20 ADD PUSH0 KECCAK256 PUSH1 0x4 ADD PUSH0 PUSH2 0x100 EXP DUP2 SLOAD DUP2 PUSH1 0xFF MUL NOT AND SWAP1 DUP4 ISZERO ISZERO MUL OR SWAP1 SSTORE POP DUP1 PUSH32 0x623F81AA9BB3441EF3D9D6CA37C0362142E8482C812D139760576C6CE87C8610 DUP4 PUSH0 DUP2 MLOAD DUP2 LT PUSH2 0x3426 JUMPI PUSH2 0x3425 PUSH2 0x498E JUMP JUMPDEST JUMPDEST PUSH1 0x20 MUL PUSH1 0x20 ADD ADD MLOAD PUSH1 0x40 MLOAD PUSH2 0x343B SWAP2 SWAP1 PUSH2 0x3B8C JUMP JUMPDEST PUSH1 0x40 MLOAD DUP1 SWAP2 SUB SWAP1 LOG2 POP POP POP JUMP JUMPDEST PUSH0 PUSH1 0x6 DUP3 DUP2 SLOAD DUP2 LT PUSH2 0x345D JUMPI PUSH2 0x345C PUSH2 0x498E JUMP JUMPDEST JUMPDEST SWAP1 PUSH0 MSTORE PUSH1 0x20 PUSH0 KECCAK256 ADD PUSH0 SWAP1 SLOAD SWAP1 PUSH2 0x100 EXP SWAP1 DIV PUSH20 0xFFFFFFFFFFFFFFFFFFFFFFFFFFFFFFFFFFFFFFFF AND SWAP1 POP PUSH0 PUSH1 0x1 PUSH1 0x6 DUP1 SLOAD SWAP1 POP PUSH2 0x349A SWAP2 SWAP1 PUSH2 0x43E3 JUMP JUMPDEST SWAP1 POP DUP1 DUP4 EQ PUSH2 0x358C JUMPI PUSH0 PUSH1 0x6 DUP3 DUP2 SLOAD DUP2 LT PUSH2 0x34B8 JUMPI PUSH2 0x34B7 PUSH2 0x498E JUMP JUMPDEST JUMPDEST SWAP1 PUSH0 MSTORE PUSH1 0x20 PUSH0 KECCAK256 ADD PUSH0 SWAP1 SLOAD SWAP1 PUSH2 0x100 EXP SWAP1 DIV PUSH20 0xFFFFFFFFFFFFFFFFFFFFFFFFFFFFFFFFFFFFFFFF AND SWAP1 POP DUP1 PUSH1 0x6 DUP6 DUP2 SLOAD DUP2 LT PUSH2 0x34F7 JUMPI PUSH2 0x34F6 PUSH2 0x498E JUMP JUMPDEST JUMPDEST SWAP1 PUSH0 MSTORE PUSH1 0x20 PUSH0 KECCAK256 ADD PUSH0 PUSH2 0x100 EXP DUP2 SLOAD DUP2 PUSH20 0xFFFFFFFFFFFFFFFFFFFFFFFFFFFFFFFFFFFFFFFF MUL NOT AND SWAP1 DUP4 PUSH20 0xFFFFFFFFFFFFFFFFFFFFFFFFFFFFFFFFFFFFFFFF AND MUL OR SWAP1 SSTORE POP PUSH1 0x1 DUP5 PUSH2 0x3549 SWAP2 SWAP1 PUSH2 0x3B4A JUMP JUMPDEST PUSH1 0x8 PUSH0 DUP4 PUSH20 0xFFFFFFFFFFFFFFFFFFFFFFFFFFFFFFFFFFFFFFFF AND PUSH20 0xFFFFFFFFFFFFFFFFFFFFFFFFFFFFFFFFFFFFFFFF AND DUP2 MSTORE PUSH1 0x20 ADD SWAP1 DUP2 MSTORE PUSH1 0x20 ADD PUSH0 KECCAK256 DUP2 SWAP1 SSTORE POP POP JUMPDEST PUSH1 0x6 DUP1 SLOAD DUP1 PUSH2 0x359E JUMPI PUSH2 0x359D PUSH2 0x5222 JUMP JUMPDEST JUMPDEST PUSH1 0x1 SWAP1 SUB DUP2 DUP2 SWAP1 PUSH0 MSTORE PUSH1 0x20 PUSH0 KECCAK256 ADD PUSH0 PUSH2 0x100 EXP DUP2 SLOAD SWAP1 PUSH20 0xFFFFFFFFFFFFFFFFFFFFFFFFFFFFFFFFFFFFFFFF MUL NOT AND SWAP1 SSTORE SWAP1 SSTORE PUSH0 PUSH1 0x8 PUSH0 DUP5 PUSH20 0xFFFFFFFFFFFFFFFFFFFFFFFFFFFFFFFFFFFFFFFF AND PUSH20 0xFFFFFFFFFFFFFFFFFFFFFFFFFFFFFFFFFFFFFFFF AND DUP2 MSTORE PUSH1 0x20 ADD SWAP1 DUP2 MSTORE PUSH1 0x20 ADD PUSH0 KECCAK256 DUP2 SWAP1 SSTORE POP POP POP POP JUMP JUMPDEST PUSH0 DUP2 SUB ISZERO PUSH2 0x38B3 JUMPI PUSH0 PUSH1 0x64 PUSH1 0xB SLOAD DUP4 PUSH2 0x3630 SWAP2 SWAP1 PUSH2 0x49EB JUMP JUMPDEST PUSH2 0x363A SWAP2 SWAP1 PUSH2 0x49BB JUMP JUMPDEST SWAP1 POP PUSH0 PUSH1 0x64 PUSH1 0xC SLOAD DUP5 PUSH2 0x364D SWAP2 SWAP1 PUSH2 0x49EB JUMP JUMPDEST PUSH2 0x3657 SWAP2 SWAP1 PUSH2 0x49BB JUMP JUMPDEST SWAP1 POP PUSH0 PUSH1 0x64 PUSH1 0xD SLOAD DUP6 PUSH2 0x366A SWAP2 SWAP1 PUSH2 0x49EB JUMP JUMPDEST PUSH2 0x3674 SWAP2 SWAP1 PUSH2 0x49BB JUMP JUMPDEST SWAP1 POP PUSH0 PUSH1 0x64 PUSH1 0xE SLOAD DUP7 PUSH2 0x3687 SWAP2 SWAP1 PUSH2 0x49EB JUMP JUMPDEST PUSH2 0x3691 SWAP2 SWAP1 PUSH2 0x49BB JUMP JUMPDEST SWAP1 POP PUSH0 PUSH1 0x64 PUSH1 0xF SLOAD DUP8 PUSH2 0x36A4 SWAP2 SWAP1 PUSH2 0x49EB JUMP JUMPDEST PUSH2 0x36AE SWAP2 SWAP1 PUSH2 0x49BB JUMP JUMPDEST SWAP1 POP PUSH0 DUP2 DUP4 DUP6 DUP8 DUP10 PUSH2 0x36C0 SWAP2 SWAP1 PUSH2 0x3B4A JUMP JUMPDEST PUSH2 0x36CA SWAP2 SWAP1 PUSH2 0x3B4A JUMP JUMPDEST PUSH2 0x36D4 SWAP2 SWAP1 PUSH2 0x3B4A JUMP JUMPDEST PUSH2 0x36DE SWAP2 SWAP1 PUSH2 0x3B4A JUMP JUMPDEST SWAP1 POP DUP7 DUP2 GT ISZERO PUSH2 0x36EC JUMPI DUP7 SWAP1 POP JUMPDEST PUSH0 DUP2 DUP9 PUSH2 0x36F9 SWAP2 SWAP1 PUSH2 0x43E3 JUMP JUMPDEST SWAP1 POP PUSH0 DUP8 GT ISZERO PUSH2 0x3770 JUMPI PUSH2 0x376F PUSH1 0x12 PUSH0 SWAP1 SLOAD SWAP1 PUSH2 0x100 EXP SWAP1 DIV PUSH20 0xFFFFFFFFFFFFFFFFFFFFFFFFFFFFFFFFFFFFFFFF AND DUP9 PUSH32 0x0 PUSH20 0xFFFFFFFFFFFFFFFFFFFFFFFFFFFFFFFFFFFFFFFF AND PUSH2 0x32B3 SWAP1 SWAP3 SWAP2 SWAP1 PUSH4 0xFFFFFFFF AND JUMP JUMPDEST JUMPDEST PUSH0 DUP7 GT ISZERO PUSH2 0x37E5 JUMPI PUSH2 0x37E4 PUSH1 0x13 PUSH0 SWAP1 SLOAD SWAP1 PUSH2 0x100 EXP SWAP1 DIV PUSH20 0xFFFFFFFFFFFFFFFFFFFFFFFFFFFFFFFFFFFFFFFF AND DUP8 PUSH32 0x0 PUSH20 0xFFFFFFFFFFFFFFFFFFFFFFFFFFFFFFFFFFFFFFFF AND PUSH2 0x32B3 SWAP1 SWAP3 SWAP2 SWAP1 PUSH4 0xFFFFFFFF AND JUMP JUMPDEST JUMPDEST PUSH0 DUP6 GT ISZERO PUSH2 0x385A JUMPI PUSH2 0x3859 PUSH1 0x14 PUSH0 SWAP1 SLOAD SWAP1 PUSH2 0x100 EXP SWAP1 DIV PUSH20 0xFFFFFFFFFFFFFFFFFFFFFFFFFFFFFFFFFFFFFFFF AND DUP7 PUSH32 0x0 PUSH20 0xFFFFFFFFFFFFFFFFFFFFFFFFFFFFFFFFFFFFFFFF AND PUSH2 0x32B3 SWAP1 SWAP3 SWAP2 SWAP1 PUSH4 0xFFFFFFFF AND JUMP JUMPDEST JUMPDEST DUP3 PUSH1 0x10 PUSH0 DUP3 DUP3 SLOAD PUSH2 0x386B SWAP2 SWAP1 PUSH2 0x3B4A JUMP JUMPDEST SWAP3 POP POP DUP2 SWAP1 SSTORE POP DUP1 PUSH1 0x10 PUSH0 DUP3 DUP3 SLOAD PUSH2 0x3883 SWAP2 SWAP1 PUSH2 0x3B4A JUMP JUMPDEST SWAP3 POP POP DUP2 SWAP1 SSTORE POP PUSH0 DUP5 GT ISZERO PUSH2 0x38AB JUMPI DUP4 PUSH1 0x11 PUSH0 DUP3 DUP3 SLOAD PUSH2 0x38A3 SWAP2 SWAP1 PUSH2 0x3B4A JUMP JUMPDEST SWAP3 POP POP DUP2 SWAP1 SSTORE POP JUMPDEST POP POP POP POP POP POP POP JUMPDEST POP POP JUMP JUMPDEST PUSH0 PUSH0 PUSH0 SWAP1 SLOAD SWAP1 PUSH2 0x100 EXP SWAP1 DIV PUSH20 0xFFFFFFFFFFFFFFFFFFFFFFFFFFFFFFFFFFFFFFFF AND SWAP1 POP DUP2 PUSH0 PUSH0 PUSH2 0x100 EXP DUP2 SLOAD DUP2 PUSH20 0xFFFFFFFFFFFFFFFFFFFFFFFFFFFFFFFFFFFFFFFF MUL NOT AND SWAP1 DUP4 PUSH20 0xFFFFFFFFFFFFFFFFFFFFFFFFFFFFFFFFFFFFFFFF AND MUL OR SWAP1 SSTORE POP DUP2 PUSH20 0xFFFFFFFFFFFFFFFFFFFFFFFFFFFFFFFFFFFFFFFF AND DUP2 PUSH20 0xFFFFFFFFFFFFFFFFFFFFFFFFFFFFFFFFFFFFFFFF AND PUSH32 0x8BE0079C531659141344CD1FD0A4F28419497F9722A3DAAFE3B4186F6B6457E0 PUSH1 0x40 MLOAD PUSH1 0x40 MLOAD DUP1 SWAP2 SUB SWAP1 LOG3 POP POP JUMP JUMPDEST PUSH2 0x39F4 DUP5 DUP6 PUSH20 0xFFFFFFFFFFFFFFFFFFFFFFFFFFFFFFFFFFFFFFFF AND PUSH4 0x23B872DD DUP7 DUP7 DUP7 PUSH1 0x40 MLOAD PUSH1 0x24 ADD PUSH2 0x39AD SWAP4 SWAP3 SWAP2 SWAP1 PUSH2 0x524F JUMP JUMPDEST PUSH1 0x40 MLOAD PUSH1 0x20 DUP2 DUP4 SUB SUB DUP2 MSTORE SWAP1 PUSH1 0x40 MSTORE SWAP2 POP PUSH1 0xE0 SHL PUSH1 0x20 DUP3 ADD DUP1 MLOAD PUSH28 0xFFFFFFFFFFFFFFFFFFFFFFFFFFFFFFFFFFFFFFFFFFFFFFFFFFFFFFFF DUP4 DUP2 DUP4 AND OR DUP4 MSTORE POP POP POP POP PUSH2 0x3A01 JUMP JUMPDEST POP POP POP POP JUMP JUMPDEST PUSH0 CALLER SWAP1 POP SWAP1 JUMP JUMPDEST PUSH0 PUSH0 PUSH1 0x20 PUSH0 DUP5 MLOAD PUSH1 0x20 DUP7 ADD PUSH0 DUP9 GAS CALL DUP1 PUSH2 0x3A20 JUMPI PUSH1 0x40 MLOAD RETURNDATASIZE PUSH0 DUP3 RETURNDATACOPY RETURNDATASIZE DUP2 REVERT JUMPDEST RETURNDATASIZE SWAP3 POP PUSH0 MLOAD SWAP2 POP POP PUSH0 DUP3 EQ PUSH2 0x3A39 JUMPI PUSH1 0x1 DUP2 EQ ISZERO PUSH2 0x3A54 JUMP JUMPDEST PUSH0 DUP5 PUSH20 0xFFFFFFFFFFFFFFFFFFFFFFFFFFFFFFFFFFFFFFFF AND EXTCODESIZE EQ JUMPDEST ISZERO PUSH2 0x3A96 JUMPI DUP4 PUSH1 0x40 MLOAD PUSH32 0x5274AFE700000000000000000000000000000000000000000000000000000000 DUP2 MSTORE PUSH1 0x4 ADD PUSH2 0x3A8D SWAP2 SWAP1 PUSH2 0x3C8E JUMP JUMPDEST PUSH1 0x40 MLOAD DUP1 SWAP2 SUB SWAP1 REVERT JUMPDEST POP POP POP POP JUMP JUMPDEST PUSH0 DUP3 DUP3 MSTORE PUSH1 0x20 DUP3 ADD SWAP1 POP SWAP3 SWAP2 POP POP JUMP JUMPDEST PUSH32 0x6E6F20424E420000000000000000000000000000000000000000000000000000 PUSH0 DUP3 ADD MSTORE POP JUMP JUMPDEST PUSH0 PUSH2 0x3AE0 PUSH1 0x6 DUP4 PUSH2 0x3A9C JUMP JUMPDEST SWAP2 POP PUSH2 0x3AEB DUP3 PUSH2 0x3AAC JUMP JUMPDEST PUSH1 0x20 DUP3 ADD SWAP1 POP SWAP2 SWAP1 POP JUMP JUMPDEST PUSH0 PUSH1 0x20 DUP3 ADD SWAP1 POP DUP2 DUP2 SUB PUSH0 DUP4 ADD MSTORE PUSH2 0x3B0D DUP2 PUSH2 0x3AD4 JUMP JUMPDEST SWAP1 POP SWAP2 SWAP1 POP JUMP JUMPDEST PUSH0 DUP2 SWAP1 POP SWAP2 SWAP1 POP JUMP JUMPDEST PUSH32 0x4E487B7100000000000000000000000000000000000000000000000000000000 PUSH0 MSTORE PUSH1 0x11 PUSH1 0x4 MSTORE PUSH1 0x24 PUSH0 REVERT JUMPDEST PUSH0 PUSH2 0x3B54 DUP3 PUSH2 0x3B14 JUMP JUMPDEST SWAP2 POP PUSH2 0x3B5F DUP4 PUSH2 0x3B14 JUMP JUMPDEST SWAP3 POP DUP3 DUP3 ADD SWAP1 POP DUP1 DUP3 GT ISZERO PUSH2 0x3B77 JUMPI PUSH2 0x3B76 PUSH2 0x3B1D JUMP JUMPDEST JUMPDEST SWAP3 SWAP2 POP POP JUMP JUMPDEST PUSH2 0x3B86 DUP2 PUSH2 0x3B14 JUMP JUMPDEST DUP3 MSTORE POP POP JUMP JUMPDEST PUSH0 PUSH1 0x20 DUP3 ADD SWAP1 POP PUSH2 0x3B9F PUSH0 DUP4 ADD DUP5 PUSH2 0x3B7D JUMP JUMPDEST SWAP3 SWAP2 POP POP JUMP JUMPDEST PUSH0 DUP2 SWAP1 POP SWAP2 SWAP1 POP JUMP JUMPDEST PUSH2 0x3BB7 DUP2 PUSH2 0x3BA5 JUMP JUMPDEST DUP3 MSTORE POP POP JUMP JUMPDEST PUSH0 PUSH1 0x20 DUP3 ADD SWAP1 POP PUSH2 0x3BD0 PUSH0 DUP4 ADD DUP5 PUSH2 0x3BAE JUMP JUMPDEST SWAP3 SWAP2 POP POP JUMP JUMPDEST PUSH0 PUSH1 0x40 MLOAD SWAP1 POP SWAP1 JUMP JUMPDEST PUSH0 PUSH0 REVERT JUMPDEST PUSH0 PUSH0 REVERT JUMPDEST PUSH2 0x3BF0 DUP2 PUSH2 0x3B14 JUMP JUMPDEST DUP2 EQ PUSH2 0x3BFA JUMPI PUSH0 PUSH0 REVERT JUMPDEST POP JUMP JUMPDEST PUSH0 DUP2 CALLDATALOAD SWAP1 POP PUSH2 0x3C0B DUP2 PUSH2 0x3BE7 JUMP JUMPDEST SWAP3 SWAP2 POP POP JUMP JUMPDEST PUSH0 PUSH0 PUSH1 0x40 DUP4 DUP6 SUB SLT ISZERO PUSH2 0x3C27 JUMPI PUSH2 0x3C26 PUSH2 0x3BDF JUMP JUMPDEST JUMPDEST PUSH0 PUSH2 0x3C34 DUP6 DUP3 DUP7 ADD PUSH2 0x3BFD JUMP JUMPDEST SWAP3 POP POP PUSH1 0x20 PUSH2 0x3C45 DUP6 DUP3 DUP7 ADD PUSH2 0x3BFD JUMP JUMPDEST SWAP2 POP POP SWAP3 POP SWAP3 SWAP1 POP JUMP JUMPDEST PUSH0 PUSH20 0xFFFFFFFFFFFFFFFFFFFFFFFFFFFFFFFFFFFFFFFF DUP3 AND SWAP1 POP SWAP2 SWAP1 POP JUMP JUMPDEST PUSH0 PUSH2 0x3C78 DUP3 PUSH2 0x3C4F JUMP JUMPDEST SWAP1 POP SWAP2 SWAP1 POP JUMP JUMPDEST PUSH2 0x3C88 DUP2 PUSH2 0x3C6E JUMP JUMPDEST DUP3 MSTORE POP POP JUMP JUMPDEST PUSH0 PUSH1 0x20 DUP3 ADD SWAP1 POP PUSH2 0x3CA1 PUSH0 DUP4 ADD DUP5 PUSH2 0x3C7F JUMP JUMPDEST SWAP3 SWAP2 POP POP JUMP JUMPDEST PUSH2 0x3CB0 DUP2 PUSH2 0x3C6E JUMP JUMPDEST DUP2 EQ PUSH2 0x3CBA JUMPI PUSH0 PUSH0 REVERT JUMPDEST POP JUMP JUMPDEST PUSH0 DUP2 CALLDATALOAD SWAP1 POP PUSH2 0x3CCB DUP2 PUSH2 0x3CA7 JUMP JUMPDEST SWAP3 SWAP2 POP POP JUMP JUMPDEST PUSH0 PUSH1 0x20 DUP3 DUP5 SUB SLT ISZERO PUSH2 0x3CE6 JUMPI PUSH2 0x3CE5 PUSH2 0x3BDF JUMP JUMPDEST JUMPDEST PUSH0 PUSH2 0x3CF3 DUP5 DUP3 DUP6 ADD PUSH2 0x3CBD JUMP JUMPDEST SWAP2 POP POP SWAP3 SWAP2 POP POP JUMP JUMPDEST PUSH0 PUSH1 0x40 DUP3 ADD SWAP1 POP PUSH2 0x3D0F PUSH0 DUP4 ADD DUP6 PUSH2 0x3B7D JUMP JUMPDEST PUSH2 0x3D1C PUSH1 0x20 DUP4 ADD DUP5 PUSH2 0x3B7D JUMP JUMPDEST SWAP4 SWAP3 POP POP POP JUMP JUMPDEST PUSH0 PUSH0 REVERT JUMPDEST PUSH0 PUSH1 0x1F NOT PUSH1 0x1F DUP4 ADD AND SWAP1 POP SWAP2 SWAP1 POP JUMP JUMPDEST PUSH32 0x4E487B7100000000000000000000000000000000000000000000000000000000 PUSH0 MSTORE PUSH1 0x41 PUSH1 0x4 MSTORE PUSH1 0x24 PUSH0 REVERT JUMPDEST PUSH2 0x3D6D DUP3 PUSH2 0x3D27 JUMP JUMPDEST DUP2 ADD DUP2 DUP2 LT PUSH8 0xFFFFFFFFFFFFFFFF DUP3 GT OR ISZERO PUSH2 0x3D8C JUMPI PUSH2 0x3D8B PUSH2 0x3D37 JUMP JUMPDEST JUMPDEST DUP1 PUSH1 0x40 MSTORE POP POP POP JUMP JUMPDEST PUSH0 PUSH2 0x3D9E PUSH2 0x3BD6 JUMP JUMPDEST SWAP1 POP PUSH2 0x3DAA DUP3 DUP3 PUSH2 0x3D64 JUMP JUMPDEST SWAP2 SWAP1 POP JUMP JUMPDEST PUSH0 PUSH8 0xFFFFFFFFFFFFFFFF DUP3 GT ISZERO PUSH2 0x3DC9 JUMPI PUSH2 0x3DC8 PUSH2 0x3D37 JUMP JUMPDEST JUMPDEST PUSH1 0x20 DUP3 MUL SWAP1 POP PUSH1 0x20 DUP2 ADD SWAP1 POP SWAP2 SWAP1 POP JUMP JUMPDEST PUSH0 PUSH0 REVERT JUMPDEST PUSH0 PUSH2 0x3DF0 PUSH2 0x3DEB DUP5 PUSH2 0x3DAF JUMP JUMPDEST PUSH2 0x3D95 JUMP JUMPDEST SWAP1 POP DUP1 DUP4 DUP3 MSTORE PUSH1 0x20 DUP3 ADD SWAP1 POP PUSH1 0x20 DUP5 MUL DUP4 ADD DUP6 DUP2 GT ISZERO PUSH2 0x3E13 JUMPI PUSH2 0x3E12 PUSH2 0x3DDA JUMP JUMPDEST JUMPDEST DUP4 JUMPDEST DUP2 DUP2 LT ISZERO PUSH2 0x3E3C JUMPI DUP1 PUSH2 0x3E28 DUP9 DUP3 PUSH2 0x3BFD JUMP JUMPDEST DUP5 MSTORE PUSH1 0x20 DUP5 ADD SWAP4 POP POP PUSH1 0x20 DUP2 ADD SWAP1 POP PUSH2 0x3E15 JUMP JUMPDEST POP POP POP SWAP4 SWAP3 POP POP POP JUMP JUMPDEST PUSH0 DUP3 PUSH1 0x1F DUP4 ADD SLT PUSH2 0x3E5A JUMPI PUSH2 0x3E59 PUSH2 0x3D23 JUMP JUMPDEST JUMPDEST DUP2 CALLDATALOAD PUSH2 0x3E6A DUP5 DUP3 PUSH1 0x20 DUP7 ADD PUSH2 0x3DDE JUMP JUMPDEST SWAP2 POP POP SWAP3 SWAP2 POP POP JUMP JUMPDEST PUSH0 PUSH0 PUSH1 0x40 DUP4 DUP6 SUB SLT ISZERO PUSH2 0x3E89 JUMPI PUSH2 0x3E88 PUSH2 0x3BDF JUMP JUMPDEST JUMPDEST PUSH0 PUSH2 0x3E96 DUP6 DUP3 DUP7 ADD PUSH2 0x3BFD JUMP JUMPDEST SWAP3 POP POP PUSH1 0x20 DUP4 ADD CALLDATALOAD PUSH8 0xFFFFFFFFFFFFFFFF DUP2 GT ISZERO PUSH2 0x3EB7 JUMPI PUSH2 0x3EB6 PUSH2 0x3BE3 JUMP JUMPDEST JUMPDEST PUSH2 0x3EC3 DUP6 DUP3 DUP7 ADD PUSH2 0x3E46 JUMP JUMPDEST SWAP2 POP POP SWAP3 POP SWAP3 SWAP1 POP JUMP JUMPDEST PUSH0 PUSH1 0x20 DUP3 DUP5 SUB SLT ISZERO PUSH2 0x3EE2 JUMPI PUSH2 0x3EE1 PUSH2 0x3BDF JUMP JUMPDEST JUMPDEST PUSH0 PUSH2 0x3EEF DUP5 DUP3 DUP6 ADD PUSH2 0x3BFD JUMP JUMPDEST SWAP2 POP POP SWAP3 SWAP2 POP POP JUMP JUMPDEST PUSH0 PUSH4 0xFFFFFFFF DUP3 AND SWAP1 POP SWAP2 SWAP1 POP JUMP JUMPDEST PUSH2 0x3F10 DUP2 PUSH2 0x3EF8 JUMP JUMPDEST DUP3 MSTORE POP POP JUMP JUMPDEST PUSH0 PUSH1 0x20 DUP3 ADD SWAP1 POP PUSH2 0x3F29 PUSH0 DUP4 ADD DUP5 PUSH2 0x3F07 JUMP JUMPDEST SWAP3 SWAP2 POP POP JUMP JUMPDEST PUSH0 DUP2 ISZERO ISZERO SWAP1 POP SWAP2 SWAP1 POP JUMP JUMPDEST PUSH2 0x3F43 DUP2 PUSH2 0x3F2F JUMP JUMPDEST DUP3 MSTORE POP POP JUMP JUMPDEST PUSH0 PUSH1 0x20 DUP3 ADD SWAP1 POP PUSH2 0x3F5C PUSH0 DUP4 ADD DUP5 PUSH2 0x3F3A JUMP JUMPDEST SWAP3 SWAP2 POP POP JUMP JUMPDEST PUSH0 PUSH2 0xFFFF DUP3 AND SWAP1 POP SWAP2 SWAP1 POP JUMP JUMPDEST PUSH2 0x3F78 DUP2 PUSH2 0x3F62 JUMP JUMPDEST DUP3 MSTORE POP POP JUMP JUMPDEST PUSH0 PUSH1 0x20 DUP3 ADD SWAP1 POP PUSH2 0x3F91 PUSH0 DUP4 ADD DUP5 PUSH2 0x3F6F JUMP JUMPDEST SWAP3 SWAP2 POP POP JUMP JUMPDEST PUSH0 DUP2 MLOAD SWAP1 POP SWAP2 SWAP1 POP JUMP JUMPDEST PUSH0 DUP3 DUP3 MSTORE PUSH1 0x20 DUP3 ADD SWAP1 POP SWAP3 SWAP2 POP POP JUMP JUMPDEST PUSH0 DUP2 SWAP1 POP PUSH1 0x20 DUP3 ADD SWAP1 POP SWAP2 SWAP1 POP JUMP JUMPDEST PUSH2 0x3FC9 DUP2 PUSH2 0x3C6E JUMP JUMPDEST DUP3 MSTORE POP POP JUMP JUMPDEST PUSH0 PUSH2 0x3FDA DUP4 DUP4 PUSH2 0x3FC0 JUMP JUMPDEST PUSH1 0x20 DUP4 ADD SWAP1 POP SWAP3 SWAP2 POP POP JUMP JUMPDEST PUSH0 PUSH1 0x20 DUP3 ADD SWAP1 POP SWAP2 SWAP1 POP JUMP JUMPDEST PUSH0 PUSH2 0x3FFC DUP3 PUSH2 0x3F97 JUMP JUMPDEST PUSH2 0x4006 DUP2 DUP6 PUSH2 0x3FA1 JUMP JUMPDEST SWAP4 POP PUSH2 0x4011 DUP4 PUSH2 0x3FB1 JUMP JUMPDEST DUP1 PUSH0 JUMPDEST DUP4 DUP2 LT ISZERO PUSH2 0x4041 JUMPI DUP2 MLOAD PUSH2 0x4028 DUP9 DUP3 PUSH2 0x3FCF JUMP JUMPDEST SWAP8 POP PUSH2 0x4033 DUP4 PUSH2 0x3FE6 JUMP JUMPDEST SWAP3 POP POP PUSH1 0x1 DUP2 ADD SWAP1 POP PUSH2 0x4014 JUMP JUMPDEST POP DUP6 SWAP4 POP POP POP POP SWAP3 SWAP2 POP POP JUMP JUMPDEST PUSH0 PUSH1 0x20 DUP3 ADD SWAP1 POP DUP2 DUP2 SUB PUSH0 DUP4 ADD MSTORE PUSH2 0x4066 DUP2 DUP5 PUSH2 0x3FF2 JUMP JUMPDEST SWAP1 POP SWAP3 SWAP2 POP POP JUMP JUMPDEST PUSH0 PUSH0 PUSH0 PUSH0 PUSH0 PUSH1 0xA0 DUP7 DUP9 SUB SLT ISZERO PUSH2 0x4087 JUMPI PUSH2 0x4086 PUSH2 0x3BDF JUMP JUMPDEST JUMPDEST PUSH0 PUSH2 0x4094 DUP9 DUP3 DUP10 ADD PUSH2 0x3BFD JUMP JUMPDEST SWAP6 POP POP PUSH1 0x20 PUSH2 0x40A5 DUP9 DUP3 DUP10 ADD PUSH2 0x3BFD JUMP JUMPDEST SWAP5 POP POP PUSH1 0x40 PUSH2 0x40B6 DUP9 DUP3 DUP10 ADD PUSH2 0x3BFD JUMP JUMPDEST SWAP4 POP POP PUSH1 0x60 PUSH2 0x40C7 DUP9 DUP3 DUP10 ADD PUSH2 0x3BFD JUMP JUMPDEST SWAP3 POP POP PUSH1 0x80 PUSH2 0x40D8 DUP9 DUP3 DUP10 ADD PUSH2 0x3BFD JUMP JUMPDEST SWAP2 POP POP SWAP3 SWAP6 POP SWAP3 SWAP6 SWAP1 SWAP4 POP JUMP JUMPDEST PUSH0 DUP2 SWAP1 POP SWAP2 SWAP1 POP JUMP JUMPDEST PUSH0 PUSH2 0x4108 PUSH2 0x4103 PUSH2 0x40FE DUP5 PUSH2 0x3C4F JUMP JUMPDEST PUSH2 0x40E5 JUMP JUMPDEST PUSH2 0x3C4F JUMP JUMPDEST SWAP1 POP SWAP2 SWAP1 POP JUMP JUMPDEST PUSH0 PUSH2 0x4119 DUP3 PUSH2 0x40EE JUMP JUMPDEST SWAP1 POP SWAP2 SWAP1 POP JUMP JUMPDEST PUSH0 PUSH2 0x412A DUP3 PUSH2 0x410F JUMP JUMPDEST SWAP1 POP SWAP2 SWAP1 POP JUMP JUMPDEST PUSH2 0x413A DUP2 PUSH2 0x4120 JUMP JUMPDEST DUP3 MSTORE POP POP JUMP JUMPDEST PUSH0 PUSH1 0x20 DUP3 ADD SWAP1 POP PUSH2 0x4153 PUSH0 DUP4 ADD DUP5 PUSH2 0x4131 JUMP JUMPDEST SWAP3 SWAP2 POP POP JUMP JUMPDEST PUSH0 PUSH0 PUSH0 PUSH1 0x60 DUP5 DUP7 SUB SLT ISZERO PUSH2 0x4170 JUMPI PUSH2 0x416F PUSH2 0x3BDF JUMP JUMPDEST JUMPDEST PUSH0 PUSH2 0x417D DUP7 DUP3 DUP8 ADD PUSH2 0x3CBD JUMP JUMPDEST SWAP4 POP POP PUSH1 0x20 PUSH2 0x418E DUP7 DUP3 DUP8 ADD PUSH2 0x3CBD JUMP JUMPDEST SWAP3 POP POP PUSH1 0x40 PUSH2 0x419F DUP7 DUP3 DUP8 ADD PUSH2 0x3CBD JUMP JUMPDEST SWAP2 POP POP SWAP3 POP SWAP3 POP SWAP3 JUMP JUMPDEST PUSH0 PUSH1 0xC0 DUP3 ADD SWAP1 POP PUSH2 0x41BC PUSH0 DUP4 ADD DUP10 PUSH2 0x3B7D JUMP JUMPDEST PUSH2 0x41C9 PUSH1 0x20 DUP4 ADD DUP9 PUSH2 0x3B7D JUMP JUMPDEST PUSH2 0x41D6 PUSH1 0x40 DUP4 ADD DUP8 PUSH2 0x3B7D JUMP JUMPDEST PUSH2 0x41E3 PUSH1 0x60 DUP4 ADD DUP7 PUSH2 0x3B7D JUMP JUMPDEST PUSH2 0x41F0 PUSH1 0x80 DUP4 ADD DUP6 PUSH2 0x3F3A JUMP JUMPDEST PUSH2 0x41FD PUSH1 0xA0 DUP4 ADD DUP5 PUSH2 0x3F3A JUMP JUMPDEST SWAP8 SWAP7 POP POP POP POP POP POP POP JUMP JUMPDEST PUSH0 PUSH8 0xFFFFFFFFFFFFFFFF DUP3 AND SWAP1 POP SWAP2 SWAP1 POP JUMP JUMPDEST PUSH2 0x4224 DUP2 PUSH2 0x4208 JUMP JUMPDEST DUP3 MSTORE POP POP JUMP JUMPDEST PUSH0 PUSH1 0x20 DUP3 ADD SWAP1 POP PUSH2 0x423D PUSH0 DUP4 ADD DUP5 PUSH2 0x421B JUMP JUMPDEST SWAP3 SWAP2 POP POP JUMP JUMPDEST PUSH32 0x5061757365640000000000000000000000000000000000000000000000000000 PUSH0 DUP3 ADD MSTORE POP JUMP JUMPDEST PUSH0 PUSH2 0x4277 PUSH1 0x6 DUP4 PUSH2 0x3A9C JUMP JUMPDEST SWAP2 POP PUSH2 0x4282 DUP3 PUSH2 0x4243 JUMP JUMPDEST PUSH1 0x20 DUP3 ADD SWAP1 POP SWAP2 SWAP1 POP JUMP JUMPDEST PUSH0 PUSH1 0x20 DUP3 ADD SWAP1 POP DUP2 DUP2 SUB PUSH0 DUP4 ADD MSTORE PUSH2 0x42A4 DUP2 PUSH2 0x426B JUMP JUMPDEST SWAP1 POP SWAP2 SWAP1 POP JUMP JUMPDEST PUSH32 0x6E6F207265717565737400000000000000000000000000000000000000000000 PUSH0 DUP3 ADD MSTORE POP JUMP JUMPDEST PUSH0 PUSH2 0x42DF PUSH1 0xA DUP4 PUSH2 0x3A9C JUMP JUMPDEST SWAP2 POP PUSH2 0x42EA DUP3 PUSH2 0x42AB JUMP JUMPDEST PUSH1 0x20 DUP3 ADD SWAP1 POP SWAP2 SWAP1 POP JUMP JUMPDEST PUSH0 PUSH1 0x20 DUP3 ADD SWAP1 POP DUP2 DUP2 SUB PUSH0 DUP4 ADD MSTORE PUSH2 0x430C DUP2 PUSH2 0x42D3 JUMP JUMPDEST SWAP1 POP SWAP2 SWAP1 POP JUMP JUMPDEST PUSH32 0x616C72656164792066756C66696C6C6564000000000000000000000000000000 PUSH0 DUP3 ADD MSTORE POP JUMP JUMPDEST PUSH0 PUSH2 0x4347 PUSH1 0x11 DUP4 PUSH2 0x3A9C JUMP JUMPDEST SWAP2 POP PUSH2 0x4352 DUP3 PUSH2 0x4313 JUMP JUMPDEST PUSH1 0x20 DUP3 ADD SWAP1 POP SWAP2 SWAP1 POP JUMP JUMPDEST PUSH0 PUSH1 0x20 DUP3 ADD SWAP1 POP DUP2 DUP2 SUB PUSH0 DUP4 ADD MSTORE PUSH2 0x4374 DUP2 PUSH2 0x433B JUMP JUMPDEST SWAP1 POP SWAP2 SWAP1 POP JUMP JUMPDEST PUSH32 0x746F6F206561726C7920666F722066616C6C6261636B00000000000000000000 PUSH0 DUP3 ADD MSTORE POP JUMP JUMPDEST PUSH0 PUSH2 0x43AF PUSH1 0x16 DUP4 PUSH2 0x3A9C JUMP JUMPDEST SWAP2 POP PUSH2 0x43BA DUP3 PUSH2 0x437B JUMP JUMPDEST PUSH1 0x20 DUP3 ADD SWAP1 POP SWAP2 SWAP1 POP JUMP JUMPDEST PUSH0 PUSH1 0x20 DUP3 ADD SWAP1 POP DUP2 DUP2 SUB PUSH0 DUP4 ADD MSTORE PUSH2 0x43DC DUP2 PUSH2 0x43A3 JUMP JUMPDEST SWAP1 POP SWAP2 SWAP1 POP JUMP JUMPDEST PUSH0 PUSH2 0x43ED DUP3 PUSH2 0x3B14 JUMP JUMPDEST SWAP2 POP PUSH2 0x43F8 DUP4 PUSH2 0x3B14 JUMP JUMPDEST SWAP3 POP DUP3 DUP3 SUB SWAP1 POP DUP2 DUP2 GT ISZERO PUSH2 0x4410 JUMPI PUSH2 0x440F PUSH2 0x3B1D JUMP JUMPDEST JUMPDEST SWAP3 SWAP2 POP POP JUMP JUMPDEST PUSH32 0x6E6F20726F756E647320746F20636C61696D0000000000000000000000000000 PUSH0 DUP3 ADD MSTORE POP JUMP JUMPDEST PUSH0 PUSH2 0x444A PUSH1 0x12 DUP4 PUSH2 0x3A9C JUMP JUMPDEST SWAP2 POP PUSH2 0x4455 DUP3 PUSH2 0x4416 JUMP JUMPDEST PUSH1 0x20 DUP3 ADD SWAP1 POP SWAP2 SWAP1 POP JUMP JUMPDEST PUSH0 PUSH1 0x20 DUP3 ADD SWAP1 POP DUP2 DUP2 SUB PUSH0 DUP4 ADD MSTORE PUSH2 0x4477 DUP2 PUSH2 0x443E JUMP JUMPDEST SWAP1 POP SWAP2 SWAP1 POP JUMP JUMPDEST PUSH32 0x6E6F207265776172647300000000000000000000000000000000000000000000 PUSH0 DUP3 ADD MSTORE POP JUMP JUMPDEST PUSH0 PUSH2 0x44B2 PUSH1 0xA DUP4 PUSH2 0x3A9C JUMP JUMPDEST SWAP2 POP PUSH2 0x44BD DUP3 PUSH2 0x447E JUMP JUMPDEST PUSH1 0x20 DUP3 ADD SWAP1 POP SWAP2 SWAP1 POP JUMP JUMPDEST PUSH0 PUSH1 0x20 DUP3 ADD SWAP1 POP DUP2 DUP2 SUB PUSH0 DUP4 ADD MSTORE PUSH2 0x44DF DUP2 PUSH2 0x44A6 JUMP JUMPDEST SWAP1 POP SWAP2 SWAP1 POP JUMP JUMPDEST PUSH0 PUSH1 0x40 DUP3 ADD SWAP1 POP PUSH2 0x44F9 PUSH0 DUP4 ADD DUP6 PUSH2 0x3C7F JUMP JUMPDEST PUSH2 0x4506 PUSH1 0x20 DUP4 ADD DUP5 PUSH2 0x3C7F JUMP JUMPDEST SWAP4 SWAP3 POP POP POP JUMP JUMPDEST PUSH32 0x6D696E2036307300000000000000000000000000000000000000000000000000 PUSH0 DUP3 ADD MSTORE POP JUMP JUMPDEST PUSH0 PUSH2 0x4541 PUSH1 0x7 DUP4 PUSH2 0x3A9C JUMP JUMPDEST SWAP2 POP PUSH2 0x454C DUP3 PUSH2 0x450D JUMP JUMPDEST PUSH1 0x20 DUP3 ADD SWAP1 POP SWAP2 SWAP1 POP JUMP JUMPDEST PUSH0 PUSH1 0x20 DUP3 ADD SWAP1 POP DUP2 DUP2 SUB PUSH0 DUP4 ADD MSTORE PUSH2 0x456E DUP2 PUSH2 0x4535 JUMP JUMPDEST SWAP1 POP SWAP2 SWAP1 POP JUMP JUMPDEST PUSH32 0x4F6E6C79206B6565706572000000000000000000000000000000000000000000 PUSH0 DUP3 ADD MSTORE POP JUMP JUMPDEST PUSH0 PUSH2 0x45A9 PUSH1 0xB DUP4 PUSH2 0x3A9C JUMP JUMPDEST SWAP2 POP PUSH2 0x45B4 DUP3 PUSH2 0x4575 JUMP JUMPDEST PUSH1 0x20 DUP3 ADD SWAP1 POP SWAP2 SWAP1 POP JUMP JUMPDEST PUSH0 PUSH1 0x20 DUP3 ADD SWAP1 POP DUP2 DUP2 SUB PUSH0 DUP4 ADD MSTORE PUSH2 0x45D6 DUP2 PUSH2 0x459D JUMP JUMPDEST SWAP1 POP SWAP2 SWAP1 POP JUMP JUMPDEST PUSH32 0x6761756E746C6574206E6F742061637469766500000000000000000000000000 PUSH0 DUP3 ADD MSTORE POP JUMP JUMPDEST PUSH0 PUSH2 0x4611 PUSH1 0x13 DUP4 PUSH2 0x3A9C JUMP JUMPDEST SWAP2 POP PUSH2 0x461C DUP3 PUSH2 0x45DD JUMP JUMPDEST PUSH1 0x20 DUP3 ADD SWAP1 POP SWAP2 SWAP1 POP JUMP JUMPDEST PUSH0 PUSH1 0x20 DUP3 ADD SWAP1 POP DUP2 DUP2 SUB PUSH0 DUP4 ADD MSTORE PUSH2 0x463E DUP2 PUSH2 0x4605 JUMP JUMPDEST SWAP1 POP SWAP2 SWAP1 POP JUMP JUMPDEST PUSH32 0x6E6F7420656E6F756768207061727469636970616E7473000000000000000000 PUSH0 DUP3 ADD MSTORE POP JUMP JUMPDEST PUSH0 PUSH2 0x4679 PUSH1 0x17 DUP4 PUSH2 0x3A9C JUMP JUMPDEST SWAP2 POP PUSH2 0x4684 DUP3 PUSH2 0x4645 JUMP JUMPDEST PUSH1 0x20 DUP3 ADD SWAP1 POP SWAP2 SWAP1 POP JUMP JUMPDEST PUSH0 PUSH1 0x20 DUP3 ADD SWAP1 POP DUP2 DUP2 SUB PUSH0 DUP4 ADD MSTORE PUSH2 0x46A6 DUP2 PUSH2 0x466D JUMP JUMPDEST SWAP1 POP SWAP2 SWAP1 POP JUMP JUMPDEST PUSH32 0x726F756E64206E6F742072656164790000000000000000000000000000000000 PUSH0 DUP3 ADD MSTORE POP JUMP JUMPDEST PUSH0 PUSH2 0x46E1 PUSH1 0xF DUP4 PUSH2 0x3A9C JUMP JUMPDEST SWAP2 POP PUSH2 0x46EC DUP3 PUSH2 0x46AD JUMP JUMPDEST PUSH1 0x20 DUP3 ADD SWAP1 POP SWAP2 SWAP1 POP JUMP JUMPDEST PUSH0 PUSH1 0x20 DUP3 ADD SWAP1 POP DUP2 DUP2 SUB PUSH0 DUP4 ADD MSTORE PUSH2 0x470E DUP2 PUSH2 0x46D5 JUMP JUMPDEST SWAP1 POP SWAP2 SWAP1 POP JUMP JUMPDEST PUSH32 0x72616E646F6D6E657373206E6F742066756C66696C6C65640000000000000000 PUSH0 DUP3 ADD MSTORE POP JUMP JUMPDEST PUSH0 PUSH2 0x4749 PUSH1 0x18 DUP4 PUSH2 0x3A9C JUMP JUMPDEST SWAP2 POP PUSH2 0x4754 DUP3 PUSH2 0x4715 JUMP JUMPDEST PUSH1 0x20 DUP3 ADD SWAP1 POP SWAP2 SWAP1 POP JUMP JUMPDEST PUSH0 PUSH1 0x20 DUP3 ADD SWAP1 POP DUP2 DUP2 SUB PUSH0 DUP4 ADD MSTORE PUSH2 0x4776 DUP2 PUSH2 0x473D JUMP JUMPDEST SWAP1 POP SWAP2 SWAP1 POP JUMP JUMPDEST PUSH32 0x72616E646F6D6E657373206E6F74207265717565737465640000000000000000 PUSH0 DUP3 ADD MSTORE POP JUMP JUMPDEST PUSH0 PUSH2 0x47B1 PUSH1 0x18 DUP4 PUSH2 0x3A9C JUMP JUMPDEST SWAP2 POP PUSH2 0x47BC DUP3 PUSH2 0x477D JUMP JUMPDEST PUSH1 0x20 DUP3 ADD SWAP1 POP SWAP2 SWAP1 POP JUMP JUMPDEST PUSH0 PUSH1 0x20 DUP3 ADD SWAP1 POP DUP2 DUP2 SUB PUSH0 DUP4 ADD MSTORE PUSH2 0x47DE DUP2 PUSH2 0x47A5 JUMP JUMPDEST SWAP1 POP SWAP2 SWAP1 POP JUMP JUMPDEST PUSH32 0x6D7573742077616974203E3120626C6F636B2061667465722072657175657374 PUSH0 DUP3 ADD MSTORE POP JUMP JUMPDEST PUSH0 PUSH2 0x4819 PUSH1 0x20 DUP4 PUSH2 0x3A9C JUMP JUMPDEST SWAP2 POP PUSH2 0x4824 DUP3 PUSH2 0x47E5 JUMP JUMPDEST PUSH1 0x20 DUP3 ADD SWAP1 POP SWAP2 SWAP1 POP JUMP JUMPDEST PUSH0 PUSH1 0x20 DUP3 ADD SWAP1 POP DUP2 DUP2 SUB PUSH0 DUP4 ADD MSTORE PUSH2 0x4846 DUP2 PUSH2 0x480D JUMP JUMPDEST SWAP1 POP SWAP2 SWAP1 POP JUMP JUMPDEST PUSH32 0x6B65657065722063616C6C206C696D6974207265616368656400000000000000 PUSH0 DUP3 ADD MSTORE POP JUMP JUMPDEST PUSH0 PUSH2 0x4881 PUSH1 0x19 DUP4 PUSH2 0x3A9C JUMP JUMPDEST SWAP2 POP PUSH2 0x488C DUP3 PUSH2 0x484D JUMP JUMPDEST PUSH1 0x20 DUP3 ADD SWAP1 POP SWAP2 SWAP1 POP JUMP JUMPDEST PUSH0 PUSH1 0x20 DUP3 ADD SWAP1 POP DUP2 DUP2 SUB PUSH0 DUP4 ADD MSTORE PUSH2 0x48AE DUP2 PUSH2 0x4875 JUMP JUMPDEST SWAP1 POP SWAP2 SWAP1 POP JUMP JUMPDEST PUSH0 PUSH2 0x48BF DUP3 PUSH2 0x3B14 JUMP JUMPDEST SWAP2 POP PUSH32 0xFFFFFFFFFFFFFFFFFFFFFFFFFFFFFFFFFFFFFFFFFFFFFFFFFFFFFFFFFFFFFFFF DUP3 SUB PUSH2 0x48F1 JUMPI PUSH2 0x48F0 PUSH2 0x3B1D JUMP JUMPDEST JUMPDEST PUSH1 0x1 DUP3 ADD SWAP1 POP SWAP2 SWAP1 POP JUMP JUMPDEST PUSH0 PUSH1 0x60 DUP3 ADD SWAP1 POP PUSH2 0x490F PUSH0 DUP4 ADD DUP7 PUSH2 0x3B7D JUMP JUMPDEST PUSH2 0x491C PUSH1 0x20 DUP4 ADD DUP6 PUSH2 0x3B7D JUMP JUMPDEST PUSH2 0x4929 PUSH1 0x40 DUP4 ADD DUP5 PUSH2 0x3B7D JUMP JUMPDEST SWAP5 SWAP4 POP POP POP POP JUMP JUMPDEST PUSH32 0x4E487B7100000000000000000000000000000000000000000000000000000000 PUSH0 MSTORE PUSH1 0x12 PUSH1 0x4 MSTORE PUSH1 0x24 PUSH0 REVERT JUMPDEST PUSH0 PUSH2 0x4968 DUP3 PUSH2 0x3B14 JUMP JUMPDEST SWAP2 POP PUSH2 0x4973 DUP4 PUSH2 0x3B14 JUMP JUMPDEST SWAP3 POP DUP3 PUSH2 0x4983 JUMPI PUSH2 0x4982 PUSH2 0x4931 JUMP JUMPDEST JUMPDEST DUP3 DUP3 MOD SWAP1 POP SWAP3 SWAP2 POP POP JUMP JUMPDEST PUSH32 0x4E487B7100000000000000000000000000000000000000000000000000000000 PUSH0 MSTORE PUSH1 0x32 PUSH1 0x4 MSTORE PUSH1 0x24 PUSH0 REVERT JUMPDEST PUSH0 PUSH2 0x49C5 DUP3 PUSH2 0x3B14 JUMP JUMPDEST SWAP2 POP PUSH2 0x49D0 DUP4 PUSH2 0x3B14 JUMP JUMPDEST SWAP3 POP DUP3 PUSH2 0x49E0 JUMPI PUSH2 0x49DF PUSH2 0x4931 JUMP JUMPDEST JUMPDEST DUP3 DUP3 DIV SWAP1 POP SWAP3 SWAP2 POP POP JUMP JUMPDEST PUSH0 PUSH2 0x49F5 DUP3 PUSH2 0x3B14 JUMP JUMPDEST SWAP2 POP PUSH2 0x4A00 DUP4 PUSH2 0x3B14 JUMP JUMPDEST SWAP3 POP DUP3 DUP3 MUL PUSH2 0x4A0E DUP2 PUSH2 0x3B14 JUMP JUMPDEST SWAP2 POP DUP3 DUP3 DIV DUP5 EQ DUP4 ISZERO OR PUSH2 0x4A25 JUMPI PUSH2 0x4A24 PUSH2 0x3B1D JUMP JUMPDEST JUMPDEST POP SWAP3 SWAP2 POP POP JUMP JUMPDEST PUSH32 0x62617463682073697A6520312D35303000000000000000000000000000000000 PUSH0 DUP3 ADD MSTORE POP JUMP JUMPDEST PUSH0 PUSH2 0x4A60 PUSH1 0x10 DUP4 PUSH2 0x3A9C JUMP JUMPDEST SWAP2 POP PUSH2 0x4A6B DUP3 PUSH2 0x4A2C JUMP JUMPDEST PUSH1 0x20 DUP3 ADD SWAP1 POP SWAP2 SWAP1 POP JUMP JUMPDEST PUSH0 PUSH1 0x20 DUP3 ADD SWAP1 POP DUP2 DUP2 SUB PUSH0 DUP4 ADD MSTORE PUSH2 0x4A8D DUP2 PUSH2 0x4A54 JUMP JUMPDEST SWAP1 POP SWAP2 SWAP1 POP JUMP JUMPDEST PUSH32 0x6D7573742073756D203130300000000000000000000000000000000000000000 PUSH0 DUP3 ADD MSTORE POP JUMP JUMPDEST PUSH0 PUSH2 0x4AC8 PUSH1 0xC DUP4 PUSH2 0x3A9C JUMP JUMPDEST SWAP2 POP PUSH2 0x4AD3 DUP3 PUSH2 0x4A94 JUMP JUMPDEST PUSH1 0x20 DUP3 ADD SWAP1 POP SWAP2 SWAP1 POP JUMP JUMPDEST PUSH0 PUSH1 0x20 DUP3 ADD SWAP1 POP DUP2 DUP2 SUB PUSH0 DUP4 ADD MSTORE PUSH2 0x4AF5 DUP2 PUSH2 0x4ABC JUMP JUMPDEST SWAP1 POP SWAP2 SWAP1 POP JUMP JUMPDEST PUSH32 0x7072697A652070657263656E7420746F6F206C6F770000000000000000000000 PUSH0 DUP3 ADD MSTORE POP JUMP JUMPDEST PUSH0 PUSH2 0x4B30 PUSH1 0x15 DUP4 PUSH2 0x3A9C JUMP JUMPDEST SWAP2 POP PUSH2 0x4B3B DUP3 PUSH2 0x4AFC JUMP JUMPDEST PUSH1 0x20 DUP3 ADD SWAP1 POP SWAP2 SWAP1 POP JUMP JUMPDEST PUSH0 PUSH1 0x20 DUP3 ADD SWAP1 POP DUP2 DUP2 SUB PUSH0 DUP4 ADD MSTORE PUSH2 0x4B5D DUP2 PUSH2 0x4B24 JUMP JUMPDEST SWAP1 POP SWAP2 SWAP1 POP JUMP JUMPDEST PUSH0 PUSH1 0xA0 DUP3 ADD SWAP1 POP PUSH2 0x4B77 PUSH0 DUP4 ADD DUP9 PUSH2 0x3B7D JUMP JUMPDEST PUSH2 0x4B84 PUSH1 0x20 DUP4 ADD DUP8 PUSH2 0x3B7D JUMP JUMPDEST PUSH2 0x4B91 PUSH1 0x40 DUP4 ADD DUP7 PUSH2 0x3B7D JUMP JUMPDEST PUSH2 0x4B9E PUSH1 0x60 DUP4 ADD DUP6 PUSH2 0x3B7D JUMP JUMPDEST PUSH2 0x4BAB PUSH1 0x80 DUP4 ADD DUP5 PUSH2 0x3B7D JUMP JUMPDEST SWAP7 SWAP6 POP POP POP POP POP POP JUMP JUMPDEST PUSH32 0x616C726561647920616374697665000000000000000000000000000000000000 PUSH0 DUP3 ADD MSTORE POP JUMP JUMPDEST PUSH0 PUSH2 0x4BE9 PUSH1 0xE DUP4 PUSH2 0x3A9C JUMP JUMPDEST SWAP2 POP PUSH2 0x4BF4 DUP3 PUSH2 0x4BB5 JUMP JUMPDEST PUSH1 0x20 DUP3 ADD SWAP1 POP SWAP2 SWAP1 POP JUMP JUMPDEST PUSH0 PUSH1 0x20 DUP3 ADD SWAP1 POP DUP2 DUP2 SUB PUSH0 DUP4 ADD MSTORE PUSH2 0x4C16 DUP2 PUSH2 0x4BDD JUMP JUMPDEST SWAP1 POP SWAP2 SWAP1 POP JUMP JUMPDEST PUSH32 0x7374616B696E67206E6F74206163746976650000000000000000000000000000 PUSH0 DUP3 ADD MSTORE POP JUMP JUMPDEST PUSH0 PUSH2 0x4C51 PUSH1 0x12 DUP4 PUSH2 0x3A9C JUMP JUMPDEST SWAP2 POP PUSH2 0x4C5C DUP3 PUSH2 0x4C1D JUMP JUMPDEST PUSH1 0x20 DUP3 ADD SWAP1 POP SWAP2 SWAP1 POP JUMP JUMPDEST PUSH0 PUSH1 0x20 DUP3 ADD SWAP1 POP DUP2 DUP2 SUB PUSH0 DUP4 ADD MSTORE PUSH2 0x4C7E DUP2 PUSH2 0x4C45 JUMP JUMPDEST SWAP1 POP SWAP2 SWAP1 POP JUMP JUMPDEST PUSH32 0x6E656564203E31207061727469636970616E7473000000000000000000000000 PUSH0 DUP3 ADD MSTORE POP JUMP JUMPDEST PUSH0 PUSH2 0x4CB9 PUSH1 0x14 DUP4 PUSH2 0x3A9C JUMP JUMPDEST SWAP2 POP PUSH2 0x4CC4 DUP3 PUSH2 0x4C85 JUMP JUMPDEST PUSH1 0x20 DUP3 ADD SWAP1 POP SWAP2 SWAP1 POP JUMP JUMPDEST PUSH0 PUSH1 0x20 DUP3 ADD SWAP1 POP DUP2 DUP2 SUB PUSH0 DUP4 ADD MSTORE PUSH2 0x4CE6 DUP2 PUSH2 0x4CAD JUMP JUMPDEST SWAP1 POP SWAP2 SWAP1 POP JUMP JUMPDEST PUSH32 0x7A65726F20616464726573730000000000000000000000000000000000000000 PUSH0 DUP3 ADD MSTORE POP JUMP JUMPDEST PUSH0 PUSH2 0x4D21 PUSH1 0xC DUP4 PUSH2 0x3A9C JUMP JUMPDEST SWAP2 POP PUSH2 0x4D2C DUP3 PUSH2 0x4CED JUMP JUMPDEST PUSH1 0x20 DUP3 ADD SWAP1 POP SWAP2 SWAP1 POP JUMP JUMPDEST PUSH0 PUSH1 0x20 DUP3 ADD SWAP1 POP DUP2 DUP2 SUB PUSH0 DUP4 ADD MSTORE PUSH2 0x4D4E DUP2 PUSH2 0x4D15 JUMP JUMPDEST SWAP1 POP SWAP2 SWAP1 POP JUMP JUMPDEST PUSH32 0x7A65726F20616464726573736573000000000000000000000000000000000000 PUSH0 DUP3 ADD MSTORE POP JUMP JUMPDEST PUSH0 PUSH2 0x4D89 PUSH1 0xE DUP4 PUSH2 0x3A9C JUMP JUMPDEST SWAP2 POP PUSH2 0x4D94 DUP3 PUSH2 0x4D55 JUMP JUMPDEST PUSH1 0x20 DUP3 ADD SWAP1 POP SWAP2 SWAP1 POP JUMP JUMPDEST PUSH0 PUSH1 0x20 DUP3 ADD SWAP1 POP DUP2 DUP2 SUB PUSH0 DUP4 ADD MSTORE PUSH2 0x4DB6 DUP2 PUSH2 0x4D7D JUMP JUMPDEST SWAP1 POP SWAP2 SWAP1 POP JUMP JUMPDEST PUSH0 PUSH1 0x60 DUP3 ADD SWAP1 POP PUSH2 0x4DD0 PUSH0 DUP4 ADD DUP7 PUSH2 0x3C7F JUMP JUMPDEST PUSH2 0x4DDD PUSH1 0x20 DUP4 ADD DUP6 PUSH2 0x3C7F JUMP JUMPDEST PUSH2 0x4DEA PUSH1 0x40 DUP4 ADD DUP5 PUSH2 0x3C7F JUMP JUMPDEST SWAP5 SWAP4 POP POP POP POP JUMP JUMPDEST PUSH32 0x7374616B696E6720636C6F736564000000000000000000000000000000000000 PUSH0 DUP3 ADD MSTORE POP JUMP JUMPDEST PUSH0 PUSH2 0x4E26 PUSH1 0xE DUP4 PUSH2 0x3A9C JUMP JUMPDEST SWAP2 POP PUSH2 0x4E31 DUP3 PUSH2 0x4DF2 JUMP JUMPDEST PUSH1 0x20 DUP3 ADD SWAP1 POP SWAP2 SWAP1 POP JUMP JUMPDEST PUSH0 PUSH1 0x20 DUP3 ADD SWAP1 POP DUP2 DUP2 SUB PUSH0 DUP4 ADD MSTORE PUSH2 0x4E53 DUP2 PUSH2 0x4E1A JUMP JUMPDEST SWAP1 POP SWAP2 SWAP1 POP JUMP JUMPDEST PUSH32 0x7A65726F20616D6F756E74000000000000000000000000000000000000000000 PUSH0 DUP3 ADD MSTORE POP JUMP JUMPDEST PUSH0 PUSH2 0x4E8E PUSH1 0xB DUP4 PUSH2 0x3A9C JUMP JUMPDEST SWAP2 POP PUSH2 0x4E99 DUP3 PUSH2 0x4E5A JUMP JUMPDEST PUSH1 0x20 DUP3 ADD SWAP1 POP SWAP2 SWAP1 POP JUMP JUMPDEST PUSH0 PUSH1 0x20 DUP3 ADD SWAP1 POP DUP2 DUP2 SUB PUSH0 DUP4 ADD MSTORE PUSH2 0x4EBB DUP2 PUSH2 0x4E82 JUMP JUMPDEST SWAP1 POP SWAP2 SWAP1 POP JUMP JUMPDEST PUSH0 DUP2 MLOAD SWAP1 POP PUSH2 0x4ED0 DUP2 PUSH2 0x3BE7 JUMP JUMPDEST SWAP3 SWAP2 POP POP JUMP JUMPDEST PUSH0 PUSH1 0x20 DUP3 DUP5 SUB SLT ISZERO PUSH2 0x4EEB JUMPI PUSH2 0x4EEA PUSH2 0x3BDF JUMP JUMPDEST JUMPDEST PUSH0 PUSH2 0x4EF8 DUP5 DUP3 DUP6 ADD PUSH2 0x4EC2 JUMP JUMPDEST SWAP2 POP POP SWAP3 SWAP2 POP POP JUMP JUMPDEST PUSH32 0x696E73756666696369656E742072656365697665640000000000000000000000 PUSH0 DUP3 ADD MSTORE POP JUMP JUMPDEST PUSH0 PUSH2 0x4F35 PUSH1 0x15 DUP4 PUSH2 0x3A9C JUMP JUMPDEST SWAP2 POP PUSH2 0x4F40 DUP3 PUSH2 0x4F01 JUMP JUMPDEST PUSH1 0x20 DUP3 ADD SWAP1 POP SWAP2 SWAP1 POP JUMP JUMPDEST PUSH0 PUSH1 0x20 DUP3 ADD SWAP1 POP DUP2 DUP2 SUB PUSH0 DUP4 ADD MSTORE PUSH2 0x4F62 DUP2 PUSH2 0x4F29 JUMP JUMPDEST SWAP1 POP SWAP2 SWAP1 POP JUMP JUMPDEST PUSH32 0x616C726561647920726571756573746564000000000000000000000000000000 PUSH0 DUP3 ADD MSTORE POP JUMP JUMPDEST PUSH0 PUSH2 0x4F9D PUSH1 0x11 DUP4 PUSH2 0x3A9C JUMP JUMPDEST SWAP2 POP PUSH2 0x4FA8 DUP3 PUSH2 0x4F69 JUMP JUMPDEST PUSH1 0x20 DUP3 ADD SWAP1 POP SWAP2 SWAP1 POP JUMP JUMPDEST PUSH0 PUSH1 0x20 DUP3 ADD SWAP1 POP DUP2 DUP2 SUB PUSH0 DUP4 ADD MSTORE PUSH2 0x4FCA DUP2 PUSH2 0x4F91 JUMP JUMPDEST SWAP1 POP SWAP2 SWAP1 POP JUMP JUMPDEST PUSH0 DUP2 SWAP1 POP SWAP2 SWAP1 POP JUMP JUMPDEST PUSH0 PUSH2 0x4FF4 PUSH2 0x4FEF PUSH2 0x4FEA DUP5 PUSH2 0x4FD1 JUMP JUMPDEST PUSH2 0x40E5 JUMP JUMPDEST PUSH2 0x3EF8 JUMP JUMPDEST SWAP1 POP SWAP2 SWAP1 POP JUMP JUMPDEST PUSH2 0x5004 DUP2 PUSH2 0x4FDA JUMP JUMPDEST DUP3 MSTORE POP POP JUMP JUMPDEST PUSH0 PUSH1 0xA0 DUP3 ADD SWAP1 POP PUSH2 0x501D PUSH0 DUP4 ADD DUP9 PUSH2 0x3BAE JUMP JUMPDEST PUSH2 0x502A PUSH1 0x20 DUP4 ADD DUP8 PUSH2 0x421B JUMP JUMPDEST PUSH2 0x5037 PUSH1 0x40 DUP4 ADD DUP7 PUSH2 0x3F6F JUMP JUMPDEST PUSH2 0x5044 PUSH1 0x60 DUP4 ADD DUP6 PUSH2 0x3F07 JUMP JUMPDEST PUSH2 0x5051 PUSH1 0x80 DUP4 ADD DUP5 PUSH2 0x4FFB JUMP JUMPDEST SWAP7 SWAP6 POP POP POP POP POP POP JUMP JUMPDEST PUSH32 0x6578636565647320726573657276650000000000000000000000000000000000 PUSH0 DUP3 ADD MSTORE POP JUMP JUMPDEST PUSH0 PUSH2 0x508F PUSH1 0xF DUP4 PUSH2 0x3A9C JUMP JUMPDEST SWAP2 POP PUSH2 0x509A DUP3 PUSH2 0x505B JUMP JUMPDEST PUSH1 0x20 DUP3 ADD SWAP1 POP SWAP2 SWAP1 POP JUMP JUMPDEST PUSH0 PUSH1 0x20 DUP3 ADD SWAP1 POP DUP2 DUP2 SUB PUSH0 DUP4 ADD MSTORE PUSH2 0x50BC DUP2 PUSH2 0x5083 JUMP JUMPDEST SWAP1 POP SWAP2 SWAP1 POP JUMP JUMPDEST PUSH32 0x6D61783E30000000000000000000000000000000000000000000000000000000 PUSH0 DUP3 ADD MSTORE POP JUMP JUMPDEST PUSH0 PUSH2 0x50F7 PUSH1 0x5 DUP4 PUSH2 0x3A9C JUMP JUMPDEST SWAP2 POP PUSH2 0x5102 DUP3 PUSH2 0x50C3 JUMP JUMPDEST PUSH1 0x20 DUP3 ADD SWAP1 POP SWAP2 SWAP1 POP JUMP JUMPDEST PUSH0 PUSH1 0x20 DUP3 ADD SWAP1 POP DUP2 DUP2 SUB PUSH0 DUP4 ADD MSTORE PUSH2 0x5124 DUP2 PUSH2 0x50EB JUMP JUMPDEST SWAP1 POP SWAP2 SWAP1 POP JUMP JUMPDEST PUSH32 0x5265656E7472616E637947756172643A207265656E7472616E742063616C6C00 PUSH0 DUP3 ADD MSTORE POP JUMP JUMPDEST PUSH0 PUSH2 0x515F PUSH1 0x1F DUP4 PUSH2 0x3A9C JUMP JUMPDEST SWAP2 POP PUSH2 0x516A DUP3 PUSH2 0x512B JUMP JUMPDEST PUSH1 0x20 DUP3 ADD SWAP1 POP SWAP2 SWAP1 POP JUMP JUMPDEST PUSH0 PUSH1 0x20 DUP3 ADD SWAP1 POP DUP2 DUP2 SUB PUSH0 DUP4 ADD MSTORE PUSH2 0x518C DUP2 PUSH2 0x5153 JUMP JUMPDEST SWAP1 POP SWAP2 SWAP1 POP JUMP JUMPDEST PUSH0 PUSH1 0x40 DUP3 ADD SWAP1 POP PUSH2 0x51A6 PUSH0 DUP4 ADD DUP6 PUSH2 0x3C7F JUMP JUMPDEST PUSH2 0x51B3 PUSH1 0x20 DUP4 ADD DUP5 PUSH2 0x3B7D JUMP JUMPDEST SWAP4 SWAP3 POP POP POP JUMP JUMPDEST PUSH32 0x756E6B6E6F776E20726571756573740000000000000000000000000000000000 PUSH0 DUP3 ADD MSTORE POP JUMP JUMPDEST PUSH0 PUSH2 0x51EE PUSH1 0xF DUP4 PUSH2 0x3A9C JUMP JUMPDEST SWAP2 POP PUSH2 0x51F9 DUP3 PUSH2 0x51BA JUMP JUMPDEST PUSH1 0x20 DUP3 ADD SWAP1 POP SWAP2 SWAP1 POP JUMP JUMPDEST PUSH0 PUSH1 0x20 DUP3 ADD SWAP1 POP DUP2 DUP2 SUB PUSH0 DUP4 ADD MSTORE PUSH2 0x521B DUP2 PUSH2 0x51E2 JUMP JUMPDEST SWAP1 POP SWAP2 SWAP1 POP JUMP JUMPDEST PUSH32 0x4E487B7100000000000000000000000000000000000000000000000000000000 PUSH0 MSTORE PUSH1 0x31 PUSH1 0x4 MSTORE PUSH1 0x24 PUSH0 REVERT JUMPDEST PUSH0 PUSH1 0x60 DUP3 ADD SWAP1 POP PUSH2 0x5262 PUSH0 DUP4 ADD DUP7 PUSH2 0x3C7F JUMP JUMPDEST PUSH2 0x526F PUSH1 0x20 DUP4 ADD DUP6 PUSH2 0x3C7F JUMP JUMPDEST PUSH2 0x527C PUSH1 0x40 DUP4 ADD DUP5 PUSH2 0x3B7D JUMP JUMPDEST SWAP5 SWAP4 POP POP POP POP JUMP INVALID LOG2 PUSH5 0x6970667358 0x22 SLT KECCAK256 ADDRESS DUPN 0xB8 SWAP14 TLOAD OR 0x2A 0xA7 BLOBBASEFEE 0xC MUL PUSH17 0xFAEBC30CDC2F76DE67179B909A7D9002BE 0xC9 0xBA PUSH16 0x64736F6C634300081E00330000000000 "
		},
		"gasEstimates": {
			"creation": {
				"codeDepositCost": "4235600",
				"executionCost": "infinite",
				"totalCost": "infinite"
			},
			"external": {
				"batchSize()": "2513",
				"burnPercent()": "2495",
				"burnWallet()": "2577",
				"claimSurvivorRewards()": "infinite",
				"closeStakingAndStartGauntlet()": "infinite",
				"cumulativeSurvivorPerPlayer(uint256)": "infinite",
				"currentRound()": "2493",
				"depositKeeperFunds()": "infinite",
				"devPercent()": "2557",
				"devWallet()": "2597",
				"emergencyUseFallbackRandom(uint256,uint256)": "infinite",
				"gauntletActive()": "2608",
				"getCumulativeUpTo(uint256)": "infinite",
				"getParticipants()": "infinite",
				"keeper()": "2598",
				"keeperCallsInRound(uint256)": "infinite",
				"keeperPayPerCall()": "2536",
				"keeperReserve()": "2493",
				"lpPercent()": "2514",
				"lpWallet()": "2598",
				"maxKeeperCallsPerRound()": "2492",
				"nextEliminationIndex()": "2493",
				"openStaking()": "infinite",
				"owner()": "2581",
				"participantIndex(address)": "2893",
				"participantInfo(address)": "infinite",
				"participantsCount()": "2573",
				"pause()": "infinite",
				"paused()": "2626",
				"pendingSurvivorPool()": "2537",
				"prizePool()": "2514",
				"prizePoolPercent()": "2492",
				"rawFulfillRandomWords(uint256,uint256[])": "infinite",
				"renounceOwnership()": "infinite",
				"requestRandomForRound()": "infinite",
				"roundDuration()": "2535",
				"roundStartTime()": "2536",
				"rounds(uint256)": "infinite",
				"runEliminationBatch()": "infinite",
				"setBatchSize(uint256)": "infinite",
				"setKeeper(address)": "infinite",
				"setKeeperPay(uint256)": "infinite",
				"setMaxKeeperCallsPerRound(uint256)": "infinite",
				"setRoundDuration(uint256)": "infinite",
				"setTokenomicsPercents(uint256,uint256,uint256,uint256,uint256)": "infinite",
				"setWallets(address,address,address)": "infinite",
				"stake(uint256,uint256)": "infinite",
				"stakingActive()": "2599",
				"stakingToken()": "infinite",
				"survivorPercent()": "2516",
				"transferOwnership(address)": "infinite",
				"unpause()": "infinite",
				"vrfCallbackGasLimit()": "2600",
				"vrfKeyHash()": "2517",
				"vrfRequestConfirmations()": "2585",
				"vrfRequestToRound(uint256)": "infinite",
				"vrfSubscriptionId()": "2650",
				"withdrawKeeperFunds(uint256)": "infinite"
			},
			"internal": {
				"_distributeEliminatedStake(address,uint256)": "infinite",
				"_removeParticipantByIndex(uint256)": "infinite",
				"fulfillRandomWords(uint256,uint256[] memory)": "infinite"
			}
		},
		"methodIdentifiers": {
			"batchSize()": "f4daaba1",
			"burnPercent()": "03807ee5",
			"burnWallet()": "06228749",
			"claimSurvivorRewards()": "0f4863f7",
			"closeStakingAndStartGauntlet()": "656fe8ef",
			"cumulativeSurvivorPerPlayer(uint256)": "87b18a52",
			"currentRound()": "8a19c8bc",
			"depositKeeperFunds()": "82ddbb30",
			"devPercent()": "fc3c28af",
			"devWallet()": "8ea5220f",
			"emergencyUseFallbackRandom(uint256,uint256)": "04ab9f03",
			"gauntletActive()": "461dbda0",
			"getCumulativeUpTo(uint256)": "3243fb89",
			"getParticipants()": "5aa68ac0",
			"keeper()": "aced1661",
			"keeperCallsInRound(uint256)": "df242d7d",
			"keeperPayPerCall()": "e712c298",
			"keeperReserve()": "32d368ce",
			"lpPercent()": "e091a297",
			"lpWallet()": "6303516c",
			"maxKeeperCallsPerRound()": "719a59d8",
			"nextEliminationIndex()": "ab0fc1a2",
			"openStaking()": "62581733",
			"owner()": "8da5cb5b",
			"participantIndex(address)": "083b9137",
			"participantInfo(address)": "0e135aa1",
			"participantsCount()": "dd60c898",
			"pause()": "8456cb59",
			"paused()": "5c975abb",
			"pendingSurvivorPool()": "bf380631",
			"prizePool()": "719ce73e",
			"prizePoolPercent()": "cf00d4b9",
			"rawFulfillRandomWords(uint256,uint256[])": "1fe543e3",
			"renounceOwnership()": "715018a6",
			"requestRandomForRound()": "7fd7f412",
			"roundDuration()": "f7cb789a",
			"roundStartTime()": "dd4f8f74",
			"rounds(uint256)": "8c65c81f",
			"runEliminationBatch()": "39d98723",
			"setBatchSize(uint256)": "576f35e3",
			"setKeeper(address)": "748747e6",
			"setKeeperPay(uint256)": "8c178e42",
			"setMaxKeeperCallsPerRound(uint256)": "9e1ada04",
			"setRoundDuration(uint256)": "36c92c3f",
			"setTokenomicsPercents(uint256,uint256,uint256,uint256,uint256)": "5e38ca70",
			"setWallets(address,address,address)": "75cb1bd1",
			"stake(uint256,uint256)": "7b0472f0",
			"stakingActive()": "a6ac4b35",
			"stakingToken()": "72f702f3",
			"survivorPercent()": "259b8af7",
			"transferOwnership(address)": "f2fde38b",
			"unpause()": "3f4ba83a",
			"vrfCallbackGasLimit()": "3b7ed734",
			"vrfKeyHash()": "041d443e",
			"vrfRequestConfirmations()": "598bc486",
			"vrfRequestToRound(uint256)": "d5aa06fa",
			"vrfSubscriptionId()": "ed647d21",
			"withdrawKeeperFunds(uint256)": "89294346"
		}
	},
	"abi": [
		{
			"inputs": [
				{
					"internalType": "contract IERC20",
					"name": "_stakingToken",
					"type": "address"
				},
				{
					"internalType": "address",
					"name": "_devWallet",
					"type": "address"
				},
				{
					"internalType": "address",
					"name": "_lpWallet",
					"type": "address"
				},
				{
					"internalType": "address",
					"name": "_burnWallet",
					"type": "address"
				},
				{
					"internalType": "address",
					"name": "_vrfCoordinator",
					"type": "address"
				},
				{
					"internalType": "uint64",
					"name": "_vrfSubscriptionId",
					"type": "uint64"
				},
				{
					"internalType": "bytes32",
					"name": "_vrfKeyHash",
					"type": "bytes32"
				},
				{
					"internalType": "address",
					"name": "_initialKeeper",
					"type": "address"
				},
				{
					"internalType": "uint256",
					"name": "_roundDurationSeconds",
					"type": "uint256"
				}
			],
			"stateMutability": "nonpayable",
			"type": "constructor"
		},
		{
			"inputs": [
				{
					"internalType": "address",
					"name": "have",
					"type": "address"
				},
				{
					"internalType": "address",
					"name": "want",
					"type": "address"
				}
			],
			"name": "OnlyCoordinatorCanFulfill",
			"type": "error"
		},
		{
			"inputs": [
				{
					"internalType": "address",
					"name": "owner",
					"type": "address"
				}
			],
			"name": "OwnableInvalidOwner",
			"type": "error"
		},
		{
			"inputs": [
				{
					"internalType": "address",
					"name": "account",
					"type": "address"
				}
			],
			"name": "OwnableUnauthorizedAccount",
			"type": "error"
		},
		{
			"inputs": [
				{
					"internalType": "address",
					"name": "token",
					"type": "address"
				}
			],
			"name": "SafeERC20FailedOperation",
			"type": "error"
		},
		{
			"anonymous": false,
			"inputs": [
				{
					"indexed": true,
					"internalType": "uint256",
					"name": "round",
					"type": "uint256"
				},
				{
					"indexed": false,
					"internalType": "uint256",
					"name": "eliminationsThisBatch",
					"type": "uint256"
				}
			],
			"name": "BatchProcessed",
			"type": "event"
		},
		{
			"anonymous": false,
			"inputs": [
				{
					"indexed": true,
					"internalType": "uint256",
					"name": "round",
					"type": "uint256"
				},
				{
					"indexed": false,
					"internalType": "uint256",
					"name": "fallbackSeed",
					"type": "uint256"
				}
			],
			"name": "EmergencyFallbackUsed",
			"type": "event"
		},
		{
			"anonymous": false,
			"inputs": [
				{
					"indexed": true,
					"internalType": "address",
					"name": "keeper",
					"type": "address"
				},
				{
					"indexed": false,
					"internalType": "uint256",
					"name": "amount",
					"type": "uint256"
				}
			],
			"name": "KeeperPaid",
			"type": "event"
		},
		{
			"anonymous": false,
			"inputs": [
				{
					"indexed": true,
					"internalType": "address",
					"name": "sender",
					"type": "address"
				},
				{
					"indexed": false,
					"internalType": "uint256",
					"name": "amount",
					"type": "uint256"
				}
			],
			"name": "KeeperReserveDeposited",
			"type": "event"
		},
		{
			"anonymous": false,
			"inputs": [
				{
					"indexed": true,
					"internalType": "address",
					"name": "owner",
					"type": "address"
				},
				{
					"indexed": false,
					"internalType": "uint256",
					"name": "amount",
					"type": "uint256"
				}
			],
			"name": "KeeperReserveWithdrawn",
			"type": "event"
		},
		{
			"anonymous": false,
			"inputs": [
				{
					"indexed": true,
					"internalType": "address",
					"name": "keeper",
					"type": "address"
				}
			],
			"name": "KeeperSet",
			"type": "event"
		},
		{
			"anonymous": false,
			"inputs": [
				{
					"indexed": true,
					"internalType": "address",
					"name": "previousOwner",
					"type": "address"
				},
				{
					"indexed": true,
					"internalType": "address",
					"name": "newOwner",
					"type": "address"
				}
			],
			"name": "OwnershipTransferred",
			"type": "event"
		},
		{
			"anonymous": false,
			"inputs": [
				{
					"indexed": true,
					"internalType": "address",
					"name": "account",
					"type": "address"
				}
			],
			"name": "Paused",
			"type": "event"
		},
		{
			"anonymous": false,
			"inputs": [
				{
					"indexed": true,
					"internalType": "uint256",
					"name": "round",
					"type": "uint256"
				},
				{
					"indexed": true,
					"internalType": "address",
					"name": "player",
					"type": "address"
				},
				{
					"indexed": false,
					"internalType": "uint256",
					"name": "stake",
					"type": "uint256"
				}
			],
			"name": "PlayerEliminated",
			"type": "event"
		},
		{
			"anonymous": false,
			"inputs": [
				{
					"indexed": true,
					"internalType": "address",
					"name": "player",
					"type": "address"
				},
				{
					"indexed": false,
					"internalType": "uint256",
					"name": "amount",
					"type": "uint256"
				}
			],
			"name": "RewardsClaimed",
			"type": "event"
		},
		{
			"anonymous": false,
			"inputs": [
				{
					"indexed": true,
					"internalType": "uint256",
					"name": "round",
					"type": "uint256"
				},
				{
					"indexed": false,
					"internalType": "uint256",
					"name": "survivors",
					"type": "uint256"
				}
			],
			"name": "RoundFinalized",
			"type": "event"
		},
		{
			"anonymous": false,
			"inputs": [
				{
					"indexed": true,
					"internalType": "uint256",
					"name": "round",
					"type": "uint256"
				},
				{
					"indexed": false,
					"internalType": "uint256",
					"name": "randomness",
					"type": "uint256"
				}
			],
			"name": "RoundRandomFulfilled",
			"type": "event"
		},
		{
			"anonymous": false,
			"inputs": [
				{
					"indexed": true,
					"internalType": "uint256",
					"name": "round",
					"type": "uint256"
				},
				{
					"indexed": false,
					"internalType": "uint256",
					"name": "requestId",
					"type": "uint256"
				},
				{
					"indexed": false,
					"internalType": "uint256",
					"name": "requestBlock",
					"type": "uint256"
				}
			],
			"name": "RoundRequested",
			"type": "event"
		},
		{
			"anonymous": false,
			"inputs": [
				{
					"indexed": true,
					"internalType": "uint256",
					"name": "round",
					"type": "uint256"
				},
				{
					"indexed": false,
					"internalType": "uint256",
					"name": "startTime",
					"type": "uint256"
				}
			],
			"name": "RoundStarted",
			"type": "event"
		},
		{
			"anonymous": false,
			"inputs": [
				{
					"indexed": false,
					"internalType": "uint256",
					"name": "timestamp",
					"type": "uint256"
				}
			],
			"name": "StakeOpened",
			"type": "event"
		},
		{
			"anonymous": false,
			"inputs": [
				{
					"indexed": true,
					"internalType": "address",
					"name": "player",
					"type": "address"
				},
				{
					"indexed": false,
					"internalType": "uint256",
					"name": "amount",
					"type": "uint256"
				}
			],
			"name": "Staked",
			"type": "event"
		},
		{
			"anonymous": false,
			"inputs": [
				{
					"indexed": false,
					"internalType": "uint256",
					"name": "timestamp",
					"type": "uint256"
				},
				{
					"indexed": false,
					"internalType": "uint256",
					"name": "roundStarted",
					"type": "uint256"
				}
			],
			"name": "StakingClosed",
			"type": "event"
		},
		{
			"anonymous": false,
			"inputs": [
				{
					"indexed": false,
					"internalType": "uint256",
					"name": "dev",
					"type": "uint256"
				},
				{
					"indexed": false,
					"internalType": "uint256",
					"name": "lp",
					"type": "uint256"
				},
				{
					"indexed": false,
					"internalType": "uint256",
					"name": "burn",
					"type": "uint256"
				},
				{
					"indexed": false,
					"internalType": "uint256",
					"name": "survivor",
					"type": "uint256"
				},
				{
					"indexed": false,
					"internalType": "uint256",
					"name": "prize",
					"type": "uint256"
				}
			],
			"name": "TokenomicsUpdated",
			"type": "event"
		},
		{
			"anonymous": false,
			"inputs": [
				{
					"indexed": true,
					"internalType": "address",
					"name": "account",
					"type": "address"
				}
			],
			"name": "Unpaused",
			"type": "event"
		},
		{
			"anonymous": false,
			"inputs": [
				{
					"indexed": false,
					"internalType": "address",
					"name": "dev",
					"type": "address"
				},
				{
					"indexed": false,
					"internalType": "address",
					"name": "lp",
					"type": "address"
				},
				{
					"indexed": false,
					"internalType": "address",
					"name": "burn",
					"type": "address"
				}
			],
			"name": "WalletsUpdated",
			"type": "event"
		},
		{
			"anonymous": false,
			"inputs": [
				{
					"indexed": true,
					"internalType": "address",
					"name": "player",
					"type": "address"
				},
				{
					"indexed": false,
					"internalType": "uint256",
					"name": "prizeAmount",
					"type": "uint256"
				}
			],
			"name": "Winner",
			"type": "event"
		},
		{
			"inputs": [],
			"name": "batchSize",
			"outputs": [
				{
					"internalType": "uint256",
					"name": "",
					"type": "uint256"
				}
			],
			"stateMutability": "view",
			"type": "function"
		},
		{
			"inputs": [],
			"name": "burnPercent",
			"outputs": [
				{
					"internalType": "uint256",
					"name": "",
					"type": "uint256"
				}
			],
			"stateMutability": "view",
			"type": "function"
		},
		{
			"inputs": [],
			"name": "burnWallet",
			"outputs": [
				{
					"internalType": "address",
					"name": "",
					"type": "address"
				}
			],
			"stateMutability": "view",
			"type": "function"
		},
		{
			"inputs": [],
			"name": "claimSurvivorRewards",
			"outputs": [],
			"stateMutability": "nonpayable",
			"type": "function"
		},
		{
			"inputs": [],
			"name": "closeStakingAndStartGauntlet",
			"outputs": [],
			"stateMutability": "nonpayable",
			"type": "function"
		},
		{
			"inputs": [
				{
					"internalType": "uint256",
					"name": "",
					"type": "uint256"
				}
			],
			"name": "cumulativeSurvivorPerPlayer",
			"outputs": [
				{
					"internalType": "uint256",
					"name": "",
					"type": "uint256"
				}
			],
			"stateMutability": "view",
			"type": "function"
		},
		{
			"inputs": [],
			"name": "currentRound",
			"outputs": [
				{
					"internalType": "uint256",
					"name": "",
					"type": "uint256"
				}
			],
			"stateMutability": "view",
			"type": "function"
		},
		{
			"inputs": [],
			"name": "depositKeeperFunds",
			"outputs": [],
			"stateMutability": "payable",
			"type": "function"
		},
		{
			"inputs": [],
			"name": "devPercent",
			"outputs": [
				{
					"internalType": "uint256",
					"name": "",
					"type": "uint256"
				}
			],
			"stateMutability": "view",
			"type": "function"
		},
		{
			"inputs": [],
			"name": "devWallet",
			"outputs": [
				{
					"internalType": "address",
					"name": "",
					"type": "address"
				}
			],
			"stateMutability": "view",
			"type": "function"
		},
		{
			"inputs": [
				{
					"internalType": "uint256",
					"name": "round",
					"type": "uint256"
				},
				{
					"internalType": "uint256",
					"name": "fallbackSeed",
					"type": "uint256"
				}
			],
			"name": "emergencyUseFallbackRandom",
			"outputs": [],
			"stateMutability": "nonpayable",
			"type": "function"
		},
		{
			"inputs": [],
			"name": "gauntletActive",
			"outputs": [
				{
					"internalType": "bool",
					"name": "",
					"type": "bool"
				}
			],
			"stateMutability": "view",
			"type": "function"
		},
		{
			"inputs": [
				{
					"internalType": "uint256",
					"name": "round",
					"type": "uint256"
				}
			],
			"name": "getCumulativeUpTo",
			"outputs": [
				{
					"internalType": "uint256",
					"name": "",
					"type": "uint256"
				}
			],
			"stateMutability": "view",
			"type": "function"
		},
		{
			"inputs": [],
			"name": "getParticipants",
			"outputs": [
				{
					"internalType": "address[]",
					"name": "",
					"type": "address[]"
				}
			],
			"stateMutability": "view",
			"type": "function"
		},
		{
			"inputs": [],
			"name": "keeper",
			"outputs": [
				{
					"internalType": "address",
					"name": "",
					"type": "address"
				}
			],
			"stateMutability": "view",
			"type": "function"
		},
		{
			"inputs": [
				{
					"internalType": "uint256",
					"name": "",
					"type": "uint256"
				}
			],
			"name": "keeperCallsInRound",
			"outputs": [
				{
					"internalType": "uint256",
					"name": "",
					"type": "uint256"
				}
			],
			"stateMutability": "view",
			"type": "function"
		},
		{
			"inputs": [],
			"name": "keeperPayPerCall",
			"outputs": [
				{
					"internalType": "uint256",
					"name": "",
					"type": "uint256"
				}
			],
			"stateMutability": "view",
			"type": "function"
		},
		{
			"inputs": [],
			"name": "keeperReserve",
			"outputs": [
				{
					"internalType": "uint256",
					"name": "",
					"type": "uint256"
				}
			],
			"stateMutability": "view",
			"type": "function"
		},
		{
			"inputs": [],
			"name": "lpPercent",
			"outputs": [
				{
					"internalType": "uint256",
					"name": "",
					"type": "uint256"
				}
			],
			"stateMutability": "view",
			"type": "function"
		},
		{
			"inputs": [],
			"name": "lpWallet",
			"outputs": [
				{
					"internalType": "address",
					"name": "",
					"type": "address"
				}
			],
			"stateMutability": "view",
			"type": "function"
		},
		{
			"inputs": [],
			"name": "maxKeeperCallsPerRound",
			"outputs": [
				{
					"internalType": "uint256",
					"name": "",
					"type": "uint256"
				}
			],
			"stateMutability": "view",
			"type": "function"
		},
		{
			"inputs": [],
			"name": "nextEliminationIndex",
			"outputs": [
				{
					"internalType": "uint256",
					"name": "",
					"type": "uint256"
				}
			],
			"stateMutability": "view",
			"type": "function"
		},
		{
			"inputs": [],
			"name": "openStaking",
			"outputs": [],
			"stateMutability": "nonpayable",
			"type": "function"
		},
		{
			"inputs": [],
			"name": "owner",
			"outputs": [
				{
					"internalType": "address",
					"name": "",
					"type": "address"
				}
			],
			"stateMutability": "view",
			"type": "function"
		},
		{
			"inputs": [
				{
					"internalType": "address",
					"name": "",
					"type": "address"
				}
			],
			"name": "participantIndex",
			"outputs": [
				{
					"internalType": "uint256",
					"name": "",
					"type": "uint256"
				}
			],
			"stateMutability": "view",
			"type": "function"
		},
		{
			"inputs": [
				{
					"internalType": "address",
					"name": "",
					"type": "address"
				}
			],
			"name": "participantInfo",
			"outputs": [
				{
					"internalType": "uint256",
					"name": "stake",
					"type": "uint256"
				},
				{
					"internalType": "uint256",
					"name": "lastClaimedRound",
					"type": "uint256"
				}
			],
			"stateMutability": "view",
			"type": "function"
		},
		{
			"inputs": [],
			"name": "participantsCount",
			"outputs": [
				{
					"internalType": "uint256",
					"name": "",
					"type": "uint256"
				}
			],
			"stateMutability": "view",
			"type": "function"
		},
		{
			"inputs": [],
			"name": "pause",
			"outputs": [],
			"stateMutability": "nonpayable",
			"type": "function"
		},
		{
			"inputs": [],
			"name": "paused",
			"outputs": [
				{
					"internalType": "bool",
					"name": "",
					"type": "bool"
				}
			],
			"stateMutability": "view",
			"type": "function"
		},
		{
			"inputs": [],
			"name": "pendingSurvivorPool",
			"outputs": [
				{
					"internalType": "uint256",
					"name": "",
					"type": "uint256"
				}
			],
			"stateMutability": "view",
			"type": "function"
		},
		{
			"inputs": [],
			"name": "prizePool",
			"outputs": [
				{
					"internalType": "uint256",
					"name": "",
					"type": "uint256"
				}
			],
			"stateMutability": "view",
			"type": "function"
		},
		{
			"inputs": [],
			"name": "prizePoolPercent",
			"outputs": [
				{
					"internalType": "uint256",
					"name": "",
					"type": "uint256"
				}
			],
			"stateMutability": "view",
			"type": "function"
		},
		{
			"inputs": [
				{
					"internalType": "uint256",
					"name": "requestId",
					"type": "uint256"
				},
				{
					"internalType": "uint256[]",
					"name": "randomWords",
					"type": "uint256[]"
				}
			],
			"name": "rawFulfillRandomWords",
			"outputs": [],
			"stateMutability": "nonpayable",
			"type": "function"
		},
		{
			"inputs": [],
			"name": "renounceOwnership",
			"outputs": [],
			"stateMutability": "nonpayable",
			"type": "function"
		},
		{
			"inputs": [],
			"name": "requestRandomForRound",
			"outputs": [
				{
					"internalType": "uint256",
					"name": "requestId",
					"type": "uint256"
				}
			],
			"stateMutability": "nonpayable",
			"type": "function"
		},
		{
			"inputs": [],
			"name": "roundDuration",
			"outputs": [
				{
					"internalType": "uint256",
					"name": "",
					"type": "uint256"
				}
			],
			"stateMutability": "view",
			"type": "function"
		},
		{
			"inputs": [],
			"name": "roundStartTime",
			"outputs": [
				{
					"internalType": "uint256",
					"name": "",
					"type": "uint256"
				}
			],
			"stateMutability": "view",
			"type": "function"
		},
		{
			"inputs": [
				{
					"internalType": "uint256",
					"name": "",
					"type": "uint256"
				}
			],
			"name": "rounds",
			"outputs": [
				{
					"internalType": "uint256",
					"name": "survivorRewardPerPlayer",
					"type": "uint256"
				},
				{
					"internalType": "uint256",
					"name": "eliminationsDone",
					"type": "uint256"
				},
				{
					"internalType": "uint256",
					"name": "randomSeed",
					"type": "uint256"
				},
				{
					"internalType": "uint256",
					"name": "randomRequestedBlock",
					"type": "uint256"
				},
				{
					"internalType": "bool",
					"name": "randomnessFulfilled",
					"type": "bool"
				},
				{
					"internalType": "bool",
					"name": "fallbackUsed",
					"type": "bool"
				}
			],
			"stateMutability": "view",
			"type": "function"
		},
		{
			"inputs": [],
			"name": "runEliminationBatch",
			"outputs": [],
			"stateMutability": "nonpayable",
			"type": "function"
		},
		{
			"inputs": [
				{
					"internalType": "uint256",
					"name": "_size",
					"type": "uint256"
				}
			],
			"name": "setBatchSize",
			"outputs": [],
			"stateMutability": "nonpayable",
			"type": "function"
		},
		{
			"inputs": [
				{
					"internalType": "address",
					"name": "_keeper",
					"type": "address"
				}
			],
			"name": "setKeeper",
			"outputs": [],
			"stateMutability": "nonpayable",
			"type": "function"
		},
		{
			"inputs": [
				{
					"internalType": "uint256",
					"name": "_wei",
					"type": "uint256"
				}
			],
			"name": "setKeeperPay",
			"outputs": [],
			"stateMutability": "nonpayable",
			"type": "function"
		},
		{
			"inputs": [
				{
					"internalType": "uint256",
					"name": "_max",
					"type": "uint256"
				}
			],
			"name": "setMaxKeeperCallsPerRound",
			"outputs": [],
			"stateMutability": "nonpayable",
			"type": "function"
		},
		{
			"inputs": [
				{
					"internalType": "uint256",
					"name": "_seconds",
					"type": "uint256"
				}
			],
			"name": "setRoundDuration",
			"outputs": [],
			"stateMutability": "nonpayable",
			"type": "function"
		},
		{
			"inputs": [
				{
					"internalType": "uint256",
					"name": "_dev",
					"type": "uint256"
				},
				{
					"internalType": "uint256",
					"name": "_lp",
					"type": "uint256"
				},
				{
					"internalType": "uint256",
					"name": "_burn",
					"type": "uint256"
				},
				{
					"internalType": "uint256",
					"name": "_survivor",
					"type": "uint256"
				},
				{
					"internalType": "uint256",
					"name": "_prize",
					"type": "uint256"
				}
			],
			"name": "setTokenomicsPercents",
			"outputs": [],
			"stateMutability": "nonpayable",
			"type": "function"
		},
		{
			"inputs": [
				{
					"internalType": "address",
					"name": "_dev",
					"type": "address"
				},
				{
					"internalType": "address",
					"name": "_lp",
					"type": "address"
				},
				{
					"internalType": "address",
					"name": "_burn",
					"type": "address"
				}
			],
			"name": "setWallets",
			"outputs": [],
			"stateMutability": "nonpayable",
			"type": "function"
		},
		{
			"inputs": [
				{
					"internalType": "uint256",
					"name": "amount",
					"type": "uint256"
				},
				{
					"internalType": "uint256",
					"name": "minReceived",
					"type": "uint256"
				}
			],
			"name": "stake",
			"outputs": [],
			"stateMutability": "nonpayable",
			"type": "function"
		},
		{
			"inputs": [],
			"name": "stakingActive",
			"outputs": [
				{
					"internalType": "bool",
					"name": "",
					"type": "bool"
				}
			],
			"stateMutability": "view",
			"type": "function"
		},
		{
			"inputs": [],
			"name": "stakingToken",
			"outputs": [
				{
					"internalType": "contract IERC20",
					"name": "",
					"type": "address"
				}
			],
			"stateMutability": "view",
			"type": "function"
		},
		{
			"inputs": [],
			"name": "survivorPercent",
			"outputs": [
				{
					"internalType": "uint256",
					"name": "",
					"type": "uint256"
				}
			],
			"stateMutability": "view",
			"type": "function"
		},
		{
			"inputs": [
				{
					"internalType": "address",
					"name": "newOwner",
					"type": "address"
				}
			],
			"name": "transferOwnership",
			"outputs": [],
			"stateMutability": "nonpayable",
			"type": "function"
		},
		{
			"inputs": [],
			"name": "unpause",
			"outputs": [],
			"stateMutability": "nonpayable",
			"type": "function"
		},
		{
			"inputs": [],
			"name": "vrfCallbackGasLimit",
			"outputs": [
				{
					"internalType": "uint32",
					"name": "",
					"type": "uint32"
				}
			],
			"stateMutability": "view",
			"type": "function"
		},
		{
			"inputs": [],
			"name": "vrfKeyHash",
			"outputs": [
				{
					"internalType": "bytes32",
					"name": "",
					"type": "bytes32"
				}
			],
			"stateMutability": "view",
			"type": "function"
		},
		{
			"inputs": [],
			"name": "vrfRequestConfirmations",
			"outputs": [
				{
					"internalType": "uint16",
					"name": "",
					"type": "uint16"
				}
			],
			"stateMutability": "view",
			"type": "function"
		},
		{
			"inputs": [
				{
					"internalType": "uint256",
					"name": "",
					"type": "uint256"
				}
			],
			"name": "vrfRequestToRound",
			"outputs": [
				{
					"internalType": "uint256",
					"name": "",
					"type": "uint256"
				}
			],
			"stateMutability": "view",
			"type": "function"
		},
		{
			"inputs": [],
			"name": "vrfSubscriptionId",
			"outputs": [
				{
					"internalType": "uint64",
					"name": "",
					"type": "uint64"
				}
			],
			"stateMutability": "view",
			"type": "function"
		},
		{
			"inputs": [
				{
					"internalType": "uint256",
					"name": "amountWei",
					"type": "uint256"
				}
			],
			"name": "withdrawKeeperFunds",
			"outputs": [],
			"stateMutability": "nonpayable",
			"type": "function"
		},
		{
			"stateMutability": "payable",
			"type": "receive"
		}
	]
}